:020000040000FA
:0600000015EF05F01200EF
:0600080020EF1AF01200C7
:060A00003CEF1AF01200A9
:060A080020EF1AF01200BD
:060A2A00D9CFE6FFE1CF89
:100A3000D9FF060EE126AFEC19F0200EDF6EDE5274
:100A4000700EDD6E610EF36E020EF3CFDBFF720EE1
:100A5000F36E030EF3CFDBFF630EF36E040EF3CFE2
:100A6000DBFFD9CFE6FFDACFE6FF42EC14F0E55228
:100A7000E552AA0EE66E55EC12F0E552000160A1B7
:100A800004D07DEC12F0ACEC13F00BD8F7D7060EC7
:100A9000E15C02E2E16AE552E16EE552E7CFD9FF9F
:100AA000120076EC11F06FBE02D095EC11F012003E
:0E0AB00001009F340000000100002200000041
:020ABE00D9CF8E
:100AC000E6FFE1CFD9FFE652030EDF6E0A0E106E8D
:100AD00010C00CF0FE0EDBCF07F02EEC1AF0035026
:100AE000300FE66EDF50DF06E76EFC0EDBCFE9FF6E
:100AF000FD0EDBCFEAFFE750E926000EEA22E552C1
:100B0000E750EF6E0A0E106E10C00CF0FE0EDBCF39
:100B100007F02EEC1AF0FE0E07C0DBFF07500008AE
:100B2000D5E3DF50000810E2DF50E76EFC0EDBCFAC
:100B3000E9FFFD0EDBCFEAFFE750E926000EEA22CF
:100B4000200EEF6EDF06EDD7DF50E76EFC0EDBCF39
:100B5000E9FFFD0EDBCFEAFFE750E926000EEA22AF
:100B6000200EEF6EE552E552E7CFD9FF1200D9CF44
:100B7000E6FFE1CFD9FF040EE126D9CFE6FFDACFB9
:100B8000E6FF0001F029E66E9ADFE552E552E552F4
:100B9000500EDF6ED9CFE6FFDACFE6FF7DEC14F022
:100BA000E552E55217C103F118C104F1040EE15CEE
:100BB00002E2E16AE552E16EE552E7CFD9FF1200A9
:100BC000D9CFE6FFE1CFD9FFF0C0E6FF00C1E6FFD5
:100BD0000C0EE66E9CEC13F0E552E552E552FE0E6B
:100BE000DB5001E0C4DFE552E7CFD9FF1200D9CFD7
:100BF000E6FFE1CFD9FF0001F151EA6ADB0FE96EB0
:100C0000000EEA22EFCFF0F0FE0EDBCFE6FFD8DFDA
:100C1000E5520001F151E66EE66A2DEC13F0E55263
:100C2000E552E552E7CFD9FF12000001F229E66E46
:100C3000B8EC14F0E5521200D9CFE6FFE1CFD9FFAE
:100C4000F3C0F5F0F4C0F6F00001F251EA6AE30FE8
:100C5000E96E000EEA22EFCFF1F0FE0EDBCFE6FFE9
:100C6000C6DFE552E2DFE552E7CFD9FF1200D9CF68
:100C7000E6FFE1CFD9FFEB0EE66E000EE66EE30E67
:100C8000E66E000EE66EDF0EE66E000EE66EDB0E22
:100C9000E66E000EE66EEC0EE66E000EE66EF3C03B
:100CA000E6FFF4C0E6FF7CEC13F0106E0C0EE15E84
:100CB00010500001F26BF229E66EB8EC14F0E55228
:100CC000FE0EDB5008E0EC0EE66E000EE66E7DECEC
:100CD00014F0E552E552E552E7CFD9FF1200D9CF23
:100CE000E6FFE1CFD9FFF7C0E6FFF8C0E6FF94ECDE
:100CF00013F0E552E552F3CFF3F0F4CFF4F0FE0E2B
:100D0000DBCFE6FFB4DFE552E552E7CFD9FF1200B3
:100D1000EC0EE66E000EE66EF3C0E6FFF4C0E6FFF2
:100D20008CEC13F0E552E552E552E552EC0EE66E1E
:100D3000000EE66E7DEC14F0E552E5521200010162
:100D40000F5109E09A0EE66E340EE66E7DEC14F05B
:100D5000E552E55222D0F7C0E6FFF8C0E6FF94EC7A
:100D600013F0E552E552F3CFF3F0F4CFF4F0EC0ECC
:100D7000E66E000EE66EF3C0E6FFF4C0E6FF8CEC14
:100D800013F0E552E552E552E552EC0EE66E000E28
:100D9000E66E7DEC14F0E552E5521200D9CFE6FF85
:100DA000E1CFD9FFFD0EDB50010119150001106ED6
:100DB000FE0EDB5001011A150001116EFD0EDB5015
:100DC000101803E1FE0EDB5011180FE1FD0EDB5091
:100DD00001011B150001126EFE0EDB5001011C15F6
:100DE0000001136E1250131002E0000E01D0010E2C
:100DF00000D0E552E7CFD9FF1200D9CFE6FFE1CF0F
:100E0000D9FFFD0EDB50010119150001106EFE0E19
:100E1000DB5001011A150001116EFD0EDB50101898
:100E200003E1FE0EDB50111802E0000E01D0010EAE
:100E300000D0E552E7CFD9FF1200D9CFE6FFE1CFCE
:100E4000D9FFFD0EDB5001011B150001106EFE0ED7
:100E5000DB5001011C150001116EFD0EDB50101856
:100E600003E1FE0EDB5011180FE1FD0EDB50010116
:100E700019150001126EFE0EDB5001011A1500015A
:100E8000136E1250131002E0000E01D0010E00D0BC
:100E9000E552E7CFD9FF120001010D510AE0000130
:100EA000000ED880FB55000EFC5503E2FB07000E38
:100EB000FC5B0101000ED8800755000E085503E2C7
:100EC0000707000E085B000ED8800955000E0A5572
:100ED00003E20907000E0A5B000ED8800355000EDE
:100EE00004550CE20307000E045B0351041106E1F4
:100EF0000001FE0502E10CDF01D021DF0101000E3F
:100F0000D8800B55000E0C5503E20B07000E0C5B4E
:100F1000000ED8800555000E065501E3BFD00E51D6
:100F2000030A67E0010A1FE0030A01E0A8D00551A7
:100F30001F0B08E11051E66EE66A43EC13F0E55230
:100F4000E55210D01F0E0515106E116A0F0E101805
:100F500001E1115007E11051E66EE66A57EC13F01B
:100F6000E552E5528CD005511F0B1DE1000EE66ED7
:100F7000E66A43EC13F0E552E552010EE66EE66ACE
:100F800043EC13F0E552E552020EE66EE66A57ECCA
:100F900013F0E552E552030EE66EE66A57EC13F0E5
:100FA000E552E55225D01F0E0515106E116A0F0E81
:100FB000101801E111501CE1000EE66EE66A57ECD4
:100FC00013F0E552E552010EE66EE66A57EC13F0B7
:100FD000E552E552020EE66EE66A57EC13F0E55272
:100FE000E552030EE66EE66A57EC13F0E552E55261
:100FF00046D005511F0B1DE1000EE66EE66A57EC68
:1010000013F0E552E552010EE66EE66A57EC13F076
:10101000E552E552020EE66EE66A43EC13F0E55245
:10102000E552030EE66EE66A43EC13F0E552E55234
:1010300025D01F0E0515106E116A0F0E101801E154
:1010400011501CE1000EE66EE66A57EC13F0E55213
:10105000E552010EE66EE66A57EC13F0E552E552F2
:10106000020EE66EE66A57EC13F0E552E552030E07
:10107000E66EE66A57EC13F0E552E55200D0010146
:101080000507000E065B0551061108E10001F1514C
:10109000E66EE66A2DEC13F0E552E552120001010E
:1010A000215115E1F9C010F0FAC011F01006000E40
:1010B000115A10500001F71902E11150F81903E11B
:1010C000F76BF86B03D0F72B000EF82307D07F0ED9
:1010D0000001F05D02E1F06B01D0F02B1200010184
:1010E000215111E10001F751F81109E1F9C0F7F0C0
:1010F000FAC0F8F0010EF75F000EF85B03D0F707B7
:10110000000EF85B07D00001F05103E17F0EF06F95
:1011100001D0F00712000101215102E110DE01D0DF
:1011200026DD12000101215104E1E66AD8DDE55215
:1011300004D0010EE66E44DDE5521200F2C0EBF081
:10114000EBC0E6FFE30EE66E000EE66EDF0EE66E27
:10115000000EE66EDB0EE66E000EE66EF3C0E6FFF6
:10116000F4C0E6FF84EC13F0106E090EE15E10503F
:101170000101020E0F6F320E0B6F0C6B0001F26B50
:1011800012007BEC13F0F3CFF9F0F4CFFAF000018A
:10119000F36BF46B010EE66E6ADDE5520001F26B53
:1011A000010EE66E49DDE552000E01011B6F1C6B5E
:1011B000196F1A6B76EC13F001011E6F1D6F71EC45
:1011C00013F00001FE6F1200E9EC12F0F3CF19F1F9
:1011D000F4CF1AF176EC13F001011D6F1E511D5D65
:1011E00016E07F0E1D15E66E0001F151EA6ADF0F71
:1011F000E96E000EEA22EF50E66E00C1E6FF0B0E2C
:10120000E66EA4EC13F0E552E552E552E55271ECBE
:1012100013F0000910E10001FE050CE1FE6BF76B15
:10122000F86B010EE66E5BDDE5520001F26BE66ADB
:1012300003DDE5520FD00001FE510CE1010EFE6FFF
:10124000F36BF46BE66E13DDE5520001F26BE66AB8
:10125000F3DCE552000EE66EE66AA0DDE552E552EB
:1012600000094BE00001F351F51902E1F451F619C0
:1012700005E0010EE66EE0DCE5523FD0EB05F25DE5
:1012800037E1FE5118E1F9C010F0FAC011F0100674
:10129000000E115A1050F71902E11150F81903E12C
:1012A000F76BF86B03D0F72B000EF823010EE66EF8
:1012B00016DDE55217D0F9C010F0FAC011F0100693
:1012C000000E115A1050F31902E11150F41903E104
:1012D000F36BF46B03D0F32B000EF423010EE66ED8
:1012E000C6DCE5520001F26BE66AA6DCE55205D0E9
:1012F000F22B010EE66EA0DCE5520001FE51010A60
:1013000001E117D3010A02E083EF0EF001010F5152
:10131000020A01E1D8D2030A01E13AD2010A01E04E
:1013200007D3010EE66EE66A39DDE552E5520009A3
:101330000EE00001F16B0101210505E11E0E076FB2
:10134000086B206B04D0010EE66E51DCE552020EF4
:10135000E66EE66A23DDE552E55200090FE0000182
:10136000010EF16F0101210505E11E0E076F086BEB
:10137000206B04D0010EE66E3ADCE552040EE66EF8
:10138000E66A0CDDE552E55200090FE00001020EAD
:10139000F16F0101210505E11E0E076F086B206B3F
:1013A00004D0010EE66E23DCE552080EE66EE66A16
:1013B000F5DCE552E55200090FE00001030EF16F84
:1013C0000101210505E11E0E076F086B206B04D09B
:1013D000010EE66E0CDCE5520101210501E087D02B
:1013E0000751081153E1205151E1010EE66EE66A02
:1013F00004DDE552E552000918E1020EE66EE66AE8
:10140000FCDCE552E552000910E1040EE66EE66AE6
:10141000F4DCE552E552000908E1080EE66EE66AE2
:10142000ECDCE552E552000931E00101010E206FCC
:101430000001F151EA6ADB0FE96E000EEA22F0C00A
:10144000EFFFEBC0E6FFE30EE66E000EE66EDF0E8A
:10145000E66E000EE66EDB0EE66E000EE66EF3C084
:10146000E6FFF4C0E6FF84EC13F0106E090EE15EB7
:101470001050010EE66EF7EC05F0E5520101010E89
:101480000E6FF1C010F1640E056F066B010EE66E73
:10149000E66AD3DCE552E552000918E1020EE66E79
:1014A000E66ACBDCE552E552000910E1040EE66E77
:1014B000E66AC3DCE552E552000908E1080EE66E73
:1014C000E66ABBDCE552E552000911E00101000EBD
:1014D000D8800755000E08550AE2205108E1010E98
:1014E000E66EF7EC05F0E5520101076B086B000EA4
:1014F000E66EE66A53DCE552E55200090FE0000EA5
:10150000E66EE66A7ADCE552E552000907E1010180
:1015100009510A1103E11E0E096F0A6B01010D51F9
:101520001BE1000EE66EE66A68DCE552E552000952
:1015300013E0000EE66EE66A60DCE552E552000953
:101540000BE1010109510A1107E10001FB6BFC6B82
:10155000FD6B0101010E0D6F000EE66EE66A6DDC9B
:10156000E552E55200090CE00101000ED880095552
:10157000000E0A5502E293DDCEDD01010D6BD2DDD6
:10158000000EE66EE66A0ADCE552E55200090FE05D
:10159000000EE66EE66A31DCE552E552000907E12D
:1015A000010109510A1103E11E0E096F0A6B0101C5
:1015B0000D511BE1000EE66EE66A1FDCE552E552B6
:1015C000000913E0000EE66EE66A17DCE552E5520C
:1015D00000090BE1010109510A1107E10001FB6B50
:1015E000FC6BFD6B0101040E0D6F000EE66EE66AEA
:1015F00024DCE552E55200090CE00101000ED88020
:101600000955000E0A5502E26ADD85DD01010D6B08
:1016100089DD000EE66EE66ACEEC06F0E552E55294
:10162000000904E01E0E01010B6F0C6B000EE66E4C
:10163000E66AFDEC06F0E552E55200090EE0010114
:101640000B510C110AE10F5108E1010E0F6F00015F
:10165000F26B040EF16F9FEC06F0000EE66EE66A88
:101660001DEC07F0E552E552000919E00101000EFA
:10167000D8800B55000E0C5512E2215109E1010EE4
:10168000216F030E0E6F640E056F066B44DD07D0ED
:10169000216B020E0E6F640E056F066B3CDD0101BF
:1016A0000D5175E00001FB51FC1171E101010D517B
:1016B000060A66E0030A4FE0010A38E0070A2FE055
:1016C000010A18E0030A01E062D0E9DC24DD000130
:1016D000FD51FD2B050809E1FD6B0101020E0D6FA7
:1016E00013C1FBF014C1FCF004D011C1FBF012C116
:1016F000FCF04DD0D4DC0FDD0001FD51FD2B1408B2
:1017000009E1FD6B0101030E0D6F15C1FBF016C160
:10171000FCF004D013C1FBF014C1FCF038D0BFDCE6
:10172000FADC15C1FBF016C1FCF031D0D8DCF3DCDB
:101730000001FD51FD2B050809E1FD6B0101050EBE
:101740000D6F13C1FBF014C1FCF004D011C1FBF00C
:1017500012C1FCF01CD0C3DCDEDC0001FD51FD2B0E
:10176000140809E1FD6B0101060E0D6F15C1FBF0B8
:1017700016C1FCF004D013C1FBF014C1FCF007D07B
:10178000AEDCC9DC15C1FBF016C1FCF000D0D0D036
:10179000010EE66EE66ACEEC06F0E552E55200096F
:1017A0001AE00001F15117E0F16B010EE66EF7EC63
:1017B00005F0E5520001F251F22BEA6AE30FE96EFF
:1017C000000EEA22F1C0EFFF15EC06F0080E000152
:1017D000F25D01E1B3DC020EE66EE66ACEEC06F0E5
:1017E000E552E55200091AE00001F10517E0010E8B
:1017F000F16FE66EF7EC05F0E5520001F251F22BC5
:10180000EA6AE30FE96E000EEA22F1C0EFFF15EC81
:1018100006F0080E0001F25D01E190DC040EE66EB8
:10182000E66ACEEC06F0E552E55200091CE0020E35
:101830000001F15D18E0020EF16F010EE66EF7ECAB
:1018400005F0E5520001F251F22BEA6AE30FE96E6E
:10185000000EEA22F1C0EFFF15EC06F0080E0001C1
:10186000F25D01E16BDC080EE66EE66ACEEC06F096
:10187000E552E55200091CE0030E0001F15D18E09D
:10188000030EF16F010EE66EF7EC05F0E552000174
:10189000F251F22BEA6AE30FE96E000EEA22F1C080
:1018A000EFFF15EC06F0080E0001F25D01E146DCE9
:1018B000000EE66EE66ACEEC06F0E552E55200094F
:1018C00001E03CDC35D00B510C1131E10001EB5152
:1018D000F25D0AE101010F6B0001F26B010EE66E91
:1018E0001CEC06F0E55223D015EC06F00001F25195
:1018F000EA6AE30FE96E000EEA22EFCFF1F0F15150
:10190000E66EE66A2DEC13F0E552E5520001F15166
:10191000EA6ADB0FE96E000EEA22EFCFF0F0B7ECD7
:1019200005F00001F22B320E01010B6F0C6B00D0A1
:10193000EAD1010EE66EE66ACEEC06F0E552E5521B
:10194000000907E00001F16B010EE66EF7EC05F00F
:10195000E552020EE66EE66ACEEC06F0E552E5527E
:10196000000907E00001010EF16FE66EF7EC05F0EB
:10197000E552040EE66EE66ACEEC06F0E552E5525C
:10198000000908E00001020EF16F010EE66EF7ECAF
:1019900005F0E552080EE66EE66ACEEC06F0E5527A
:1019A000E552000908E00001030EF16F010EE66E3A
:1019B000F7EC05F0E552000EE66EE66ACEEC06F0B6
:1019C000E552E552000921E0F9C010F0FAC011F02B
:1019D0001006000E115A10500001F31902E11150C7
:1019E000F41903E1F36BF46B03D0F32B000EF42333
:1019F00088EC06F001010D6B11C1FBF012C1FCF087
:101A00000001FD6B0101010E0D6F000EE66EE66A2E
:101A10001DEC07F0E552E552000906E001010D6BEF
:101A2000E66A37EC06F0E552000EE66EE66ACEECAA
:101A300006F0E552E55200091DE00001F351F411F2
:101A400009E1F9C0F3F0FAC0F4F0010EF35F000E03
:101A5000F45B03D0F307000EF45B88EC06F00101A1
:101A60000D6B11C1FBF012C1FCF00001FD6B010117
:101A7000040E0D6F000EE66EE66A1DEC07F0E552EF
:101A8000E552000906E001010D6BE66A37EC06F04D
:101A9000E552000EE66EE66ACEEC06F0E552E5523F
:101AA000000948E00001F351F51902E1F451F6197B
:101AB00006E0010EE66E1CEC06F0E5523BD0F2515A
:101AC00033E1FE5115E1F751F81109E1F9C0F7F0E2
:101AD000FAC0F8F0010EF75F000EF85B03D0F707CD
:101AE000000EF85B010EE66E6FEC06F0E55214D0C6
:101AF000F351F41109E1F9C0F3F0FAC0F4F0010E6A
:101B0000F35F000EF45B03D0F307000EF45B010EED
:101B1000E66E37EC06F0E5520001EB05F26FE66A7F
:101B20001CEC06F0E55206D0F207010EE66E1CEC46
:101B300006F0E55201010D5101E1E4D00001FB5135
:101B4000FC1101E0DFD001010D51060A01E1C3D013
:101B5000030A01E19BD0010A74E0070A57E0010A79
:101B60002CE0030A01E0CED0F9C010F0FAC011F069
:101B70001006000E115A10500001F31902E1115025
:101B8000F41903E1F36BF46B03D0F32B000EF42391
:101B900088EC06F00001FD51FD2B050809E1FD6B05
:101BA0000101020E0D6F13C1FBF014C1FCF004D053
:101BB00011C1FBF012C1FCF0A5D0F9C010F0FAC0C1
:101BC00011F01006000E115A10500001F31902E135
:101BD0001150F41903E1F36BF46B03D0F32B000EF7
:101BE000F42388EC06F00001FD51FD2B140809E1F7
:101BF000FD6B0101030E0D6F15C1FBF016C1FCF06A
:101C000004D013C1FBF014C1FCF07CD0F9C010F07B
:101C1000FAC011F01006000E115A10500001F3190D
:101C200002E11150F41903E1F36BF46B03D0F32BD1
:101C3000000EF42388EC06F015C1FBF016C1FCF091
:101C400061D00001F351F41109E1F9C0F3F0FAC0D9
:101C5000F4F0010EF35F000EF45B03D0F307000E07
:101C6000F45B88EC06F00001FD51FD2B050809E14D
:101C7000FD6B0101050E0D6F13C1FBF014C1FCF0EB
:101C800004D011C1FBF012C1FCF03CD00001F351B3
:101C9000F41109E1F9C0F3F0FAC0F4F0010EF35FBA
:101CA000000EF45B03D0F307000EF45B88EC06F043
:101CB0000001FD51FD2B140809E1FD6B0101060E29
:101CC0000D6F15C1FBF016C1FCF004D013C1FBF081
:101CD00014C1FCF017D00001F351F41109E1F9C06F
:101CE000F3F0FAC0F4F0010EF35F000EF45B03D0E2
:101CF000F307000EF45B88EC06F015C1FBF016C18B
:101D0000FCF000D000D019C11BF11AC11CF1120067
:101D100004011051600BE842E842E842E842E84220
:101D2000000901E04FD01151070A4BE00B0A49E0CE
:101D3000070A3AE0010A28E00B0A24E0020A22E03E
:101D4000030A1EE0080A11E0010A0DE00F0A09E08B
:101D5000030A01E036D00101010E276F040E226F45
:101D600031D031D82FD090D82DD00101010E276F5E
:101D7000240E286F010E296F2393010E2C6F22D0A1
:101D8000A9D820D0F1D81ED00101010E276F04017F
:101D900014510101286F296B250E2827010E2923D4
:101DA0002393010E2C6F0ED00101010E276F040149
:101DB0001451EA6A250FE96E010EEA2212C4EFFF00
:101DC00001D000D01200800E0401105D5CE11351BF
:101DD000030A32E0010A0EE0030A01E04BD00101E0
:101DE000010E276F700E286F300E296F120E2C6FA8
:101DF0002D6B40D00101010E276F04011251F66EC8
:101E0000F76AD890F636F7368A0EF626310EF722A4
:101E10000900F5CF28F10A00F5CF29F1020E0101E2
:101E2000F76A2825F66E2951F7220900F5CF2CF123
:101E30000A00F5CF2DF11ED00101010E276F04011C
:101E40001251F66EF76AD890F636F7368E0EF626F1
:101E5000310EF7220900F5CF28F10A00F5CF29F15C
:101E600028C1F6FF29C1F7FF0800F55001012C6FCA
:101E70002D6B00D0020E0401125D05E0030E125D11
:101E800002E00101238312000101010E276F0F0EF2
:101E9000E66E710EE66E0F0EE66EC9DAE552E55299
:101EA000E552010EE66E250EE66E010EE66EBFDA15
:101EB000E552E552E55212C424F10401125104E145
:101EC0000101050E226F05D00101060E226FF7EC0D
:101ED00016F012000401506B516B10511F0B020AD7
:101EE00014E0030A0EE0010A01E033D00101010E03
:101EF000276F04015081010123A102D00401508306
:101F000028D00101010E276F24D00101010E276F97
:101F1000040114510F0B080DF350116A000F106EDD
:101F2000040E11221451800B01E0010E040DF35038
:101F3000010110242A6F000E11202B6F2AC1E9FF26
:101F40002BC1EAFFEF50040B03E00401010E506FB8
:101F500000D00101270507E1500E286F040E296FFC
:101F60002393020E2C6F12000401120510E1105190
:101F70001F0B00090CE10101010E276F030E040184
:101F8000115D03E10101238102D0010123910401CC
:101F900012513AE110511F0B020836E114510F0B98
:101FA000000932E00101010E276F040114510F0BEB
:101FB000080DF350116A000F106E040E1122145117
:101FC000800B01E0010E040DF350010110242A6F73
:101FD000000E11202B6F030E0401115D07E1840E2A
:101FE0002AC1E9FF2BC1EAFFEF6E0ED014AF06D075
:101FF0002AC1E9FF2BC1EAFFEF6A06D0880E2AC189
:10200000E9FF2BC1EAFFEF6E12006C500BE10401F7
:1020100000513C0BE842E8420D0802E108D801D02B
:102020003BD804D0040E6C5C01E146D81200D9CF35
:10203000E6FFE1CFD9FFE6520101266B276B2C6B3F
:102040002D6B66DEDF6ADF50106E116A010E105CC8
:10205000000E11581BE20101275101E017D0F76A69
:10206000DF34FE0BF736F66E960EF626310EF722AB
:102070000900F5CF10F00800F5CF11F004D011C021
:10208000FAFF1050F96EFBDFDF2ADDD7DFD8E5520B
:10209000E552E7CFD9FF1200020E0101265D0AE1E9
:1020A00098D8040100BD03D0C80E006F02D0880E7E
:1020B000006F01D00ED91200040E0101225D0AE169
:1020C00012C46EFF6E50000803E2050E226F02D0AC
:1020D000030E226F26050AE111D8040104BD03D0C6
:1020E000C80E046F02D0880E046F07D0090E0401D9
:1020F000115D02E187EC17F0ECD81200D9CFE6FFB2
:10210000E1CFD9FF020EE1260101400E2C5D000E49
:102110002D5905E22CC1DEFF2DC1DDFF03D0400E9D
:10212000DE6EDD6A040104930491010EDB5004139A
:10213000DFCF05F4000EDB5001012C5F010EDB50F8
:102140002D5B500E2A6F040E2B6F23A31DD0D9CF09
:10215000E9FFDACFEAFFEE50ED1015E028C1F6FFF7
:1021600029C1F7FF0800F5502AC1E9FF2BC1EAFF9A
:10217000EF6E2A2B000E2B23282B2923DF06010EBE
:1021800001E2DB06E4D71BD0D9CFE9FFDACFEAFFC3
:10219000EE50ED1014E028C1E9FF29C1EAFFEF502D
:1021A0002AC1E9FF2BC1EAFFEF6E2A2B000E2B2379
:1021B000282B2923DF06010E01E2DB06E5D7020EFC
:1021C000E15C02E2E16AE552E16EE552E7CFD9FF58
:1021D0001200D9CFE6FFE1CFD9FF020EE126030EB0
:1021E00004010015E76E010EE7CFDBFF01C4DFFF3E
:1021F000DE5001012C27DD502D23500E286F040ED8
:10220000296FD9CFE9FFDACFEAFFEE50ED1014E0E5
:1022100028C1E9FF29C1EAFFEF502AC1E9FF2BC11C
:10222000EAFFEF6E2A2B000E2B23282B2923DF0633
:10223000010E01E2DB06E5D7020EE15C02E2E16A93
:10224000E552E16EE552E7CFD9FF120001012751B7
:102250000BE10401400E016F100E026F040E036FBC
:10226000840E006F046F33D0040110AF21D0010140
:102270002C510401165D01012D510401175904E28E
:1022800016C42CF117C42DF139DF0101010E266FA0
:102290000401400E016F100E026F040E036F800EDA
:1022A000006F500E066F040E076FC80E046F0FD03C
:1022B0000101020E266F0401056BC80E046F400E6B
:1022C000016F500E026F040E036FC80E006F6D9801
:1022D00012000101266B0401400E016F100E026F07
:1022E000040E036F880E006F046B12006DA60FD8EA
:1022F00002D06DB613D80101220508E16DBA06D0EF
:10230000686A696A69806988020E226F12006D6AC4
:10231000696A6D860101010E226F12006D6A696A99
:102320000101226B12008EEF11F00101225101E137
:1023300039D06850040B04E06950040B01E038D830
:102340006DB230D06850010B04E06950010B01E020
:102350004FD86850100B04E06950100B01E023D8EF
:102360006850400B04E06950400B01E037D86850DA
:10237000200B04E06950200B01E032D86850020BBA
:1023800004E06950020B01E031D8030E0101225D27
:1023900001E208D06850080B05E06950080B02E024
:1023A00034DE68961200698468986D82A19A1200E2
:1023B0006D92699468941200010123A10ED0F8DF98
:1023C0006D840101080E2E6F070E2F6F2E07000E71
:1023D0002F5B2E512F11FAE16D941200689C1200B0
:1023E00070A002D076DF7090689A12006892120096
:1023F0006A6A686A9F0E6B6E7B0E696E6E6A0F0E5C
:10240000E66E710EE66E0F0EE66E11D8E552E552DD
:10241000E552160E706E68A602D06896FCD76D98CD
:1024200058DF01012391246B030E226F1200D9CFD4
:10243000E6FFE1CFD9FFFD0EDBCFE9FFFE0EDBCFDC
:10244000EAFFFC0EDB5004E0EE6AFC0EDB06F9D777
:08245000E552E7CFD9FF1200AD
:08245800D9CFE6FFE1CFD9FF67
:10246000E652FE0EDB50C26E0A0EDF6EDF5002E057
:10247000DF06FCD7C282C2B2FED7C45000D0E552FC
:10248000E552E7CFD9FF1200D9CFE6FFE1CFD9FF60
:10249000E652FE0EDB50AD6E9E50DF6E9EA8FED75C
:1024A000E552E552E7CFD9FF1200D9CFE6FFE1CFE1
:1024B000D9FFE652080EDF6E898489948992FE0E58
:1024C000DBBE02D0899601D08986DBCFF3FFF39E75
:1024D000F346F3CFDBFF8982DF06F0E18984100E3B
:1024E000DF6EDF5002E0DF06FCD78994898689829F
:1024F000E552E552E7CFD9FF1200D9CFE6FFE1CF91
:10250000D9FF040EE126DE52010EDD6E030EDB6AFA
:10251000DF6ADF50060822E3DFCFE6FF48D8E55246
:10252000050EF36E020EF3CFDBFFDB5003E0020E6D
:10253000DB06FBD784A209D0030EDBCFE7FF010E39
:10254000DB50E712030EE7CFDBFF010EDBCFF3FF1B
:10255000F39EF346F3CFDBFFDF2ADBD7030EDBCF9F
:1025600069F000016A6B6B6B6C6BD89069376A37E6
:102570006B376C376A696B696C6981B86981691FEF
:102580006A1F6B1F6C1F070EDF6EDFCFE6FF0FD8D1
:10259000E5520001618184B26191040EE15C02E2C6
:1025A000E16AE552E16EE552E7CFD9FF1200D9CFDB
:1025B000E6FFE1CFD9FF8998899A8D90FE0EDBB0B6
:1025C0008988DBB2898ADBB48D80E552E7CFD9FFF9
:1025D0001200D9CFE6FFE1CFD9FF040EE126DE6A73
:1025E000DE6ADE6ADD6ADD52DD5269C010F06AC063
:1025F00011F06BC012F06CC013F0F00E1016116ADF
:10260000126A136A030E10C0DBFF69C010F06AC0C3
:1026100011F06BC012F06CC013F00F0E1016116A9F
:10262000126A136A1050DF6EDFCF10F0010EDBCF9D
:1026300011F010C0F3FF11C0F4FF040EE15C03E2DF
:1026400000D0E16AE552E16EE552E7CFD9FF120012
:1026500068C0E6FF2ADFE5521200D9CFE6FFE1CFDE
:10266000D9FF0001686B010EF36EFD0EDB5004E034
:10267000D890F336E806FCE1F35000016813E55208
:10268000E7CFD9FF1200D9CFE6FFE1CFD9FF010E86
:10269000F36EFD0EDB5004E0D890F336E806FCE163
:1026A000F35000016813E552E7CFD9FF1200D9CFEC
:1026B000E6FFE1CFD9FF010EF36EFD0EDB5004E023
:1026C000D890F336E806FCE1F350106E116A10BEA4
:1026D0001168FF0E101800016817E552E7CFD9FF07
:1026E000120000016151010B00D01200010EE66ED4
:1026F000B3DEE55212001200D9CFE6FFE1CFD9FFD9
:10270000E552E7CFD9FF1200D9CFE6FFE1CFD9FFDD
:10271000E552E7CFD9FF1200D9CFE6FFE1CFD9FFCD
:10272000E552E7CFD9FF1200D9CFE6FFE1CFD9FFBD
:10273000E552E7CFD9FF1200D9CFE6FFE1CFD9FFAD
:10274000E552E7CFD9FF1200D9CFE6FFE1CFD9FF9D
:08275000E552E7CFD9FF1200AA
:0827580034D801013351040AD9
:1027600021E0070A19E0010A11E0030A09E0010A61
:1027700001E01ED08A9A33C1E6FF31D8E55218D065
:102780008B9033C1E6FF2BD8E55212D08A9633C125
:10279000E6FF25D8E5520CD08A9433C1E6FF1FD856
:1027A000E55206D08A9233C1E6FF19D8E55200D02F
:1027B0000101332B000167510101335D01E3336BEC
:1027C00012008A908C9E8C9C8C9A8C988B948C9600
:1027D0008C948A8A8B808A868A848A821200D9CFD6
:1027E000E6FFE1CFD9FFE652FE0EDB50EA6A620F48
:1027F000E96E000EEA22EFCFDFFFD9CFE9FFDACF93
:10280000EAFFEF50010B01E08A80D9CFE9FFDACF70
:10281000EAFFEF50020B01E08C8ED9CFE9FFDACF4F
:10282000EAFFEF50040B01E08C8CD9CFE9FFDACF3F
:10283000EAFFEF50080B01E08C8AD9CFE9FFDACF2D
:10284000EAFFEF50100B01E08C88D9CFE9FFDACF17
:10285000EAFFEF50200B01E08B84D9CFE9FFDACFFC
:10286000EAFFEF50400B01E08C86D9CFE9FFDACFC9
:10287000EAFFEF50800B01E08C84E552E552E7CF90
:10288000D9FF1200D9CFE6FFE1CFD9FF020EE12632
:10289000010EDB6A050EF36E010EDBCFF4FFF35081
:1028A000F45C21E2010EDB50E76EFD0EDBCFE9FFA9
:1028B000FE0EDBCFEAFFE750E926000EEA22EFCF5B
:1028C000DFFFDFCFE6FF64D8E552E66E010EDB5096
:1028D000EA6A620FE96E000EEA22E552E750EF6EF7
:1028E000010EDB2AD7D7020EE15C02E2E16AE55273
:1028F000E16EE552E7CFD9FF1200D9CFE6FFE1CF75
:10290000D9FF020EE126010EDB6A040EF36E010E02
:10291000DBCFF4FFF350F45C21E2010EDB50E76EF5
:10292000FD0EDBCFE9FFFE0EDBCFEAFFE750E92625
:10293000000EEA22EFCFDFFFDFCFE6FF29D8E55216
:10294000E66E010EDB50EA6A620FE96E000EEA22C3
:10295000E552E750EF6E010EDB2AD7D7020EE15C9D
:1029600002E2E16AE552E16EE552E7CFD9FF1200DB
:10297000D9CFE6FFE1CFD9FFFE0EDB50300FE66E78
:1029800007D8E5520001666FE552E7CFD9FF120084
:10299000D9CFE6FFE1CFD9FF410EF36EFE0EDBCFBC
:1029A000F4FFF350F45C28E3610EF36EFE0EDBCF10
:1029B000F4FFF350F45C0BE3610E106EFE0EDBCF00
:1029C000E7FF1050E75EFE0EE7CFDBFF0AD0410EB7
:1029D000106EFE0EDBCFE7FF1050E75EFE0EE7CF76
:1029E000DBFFDB50F76A260FF66E340EF722080085
:1029F000FE0EF5CFDBFF26D0300EF36EFE0EDBCFE2
:102A0000F4FFF350F45C15E3300E106EFE0EDBCFD6
:102A1000E7FF1050E75EFE0EE7CFDBFFDB50F76A03
:102A20001C0FF66E340EF7220800FE0EF5CFDBFF0A
:102A300009D0FE0EDB50200803E1FE0EDB6A02D057
:102A4000FE0EDB6ADB5000D0E552E7CFD9FF120063
:102A5000D9CFE6FFE1CFD9FF110EE1260001B16920
:102A60000001010E706F720EDE6E000EDD6E04014D
:102A7000110501E08DD01251B40A71E02F0A64E013
:102A8000020A56E0010A40E00F0A32E0010A25E09E
:102A9000BA0A13E0830A01E07AD00001050EB16F93
:102AA000E66A01D9E552E66AFED8E552E66AFBD845
:102AB000E552E66AF8D8E5526BD09FEC17F0F3CFF9
:102AC00010F0F4CF11F01050111004E00001050EC9
:102AD000B16F02D00001B1695BD00001050EB16F8A
:102AE000A0A805D0010EB16FE668DDD8E55250D040
:102AF0000001050EB16FB2C0E6FFD5D8E552B3C0F4
:102B0000E6FFD1D8E55244D00001050EB16F040EA6
:102B1000B4C0DBFF050EB5C0DBFF040EDBCFE9FF61
:102B2000050EDBCFEAFFEF50E66EBDD8E55230D0A0
:102B30000001050EB16FB4C0E6FFB5D8E552B5C0CF
:102B4000E6FFB1D8E55224D00001050EB16F030EA7
:102B5000E66EA9D8E552E66AA6D8E55219D000017A
:102B6000050EB16FA0B804D0F29EF29C11D00FD028
:102B7000010EB16FE66897D8E552E66894D8E55241
:102B8000E66891D8E552E6688ED8E55201D000D0CB
:102B9000090E0401115D6BE11251B40A64E02E0AC2
:102BA0005EE0030A48E0010A38E00F0A1EE0010A6D
:102BB00014E0BA0A01E05BD0EAEC17F0F3CF10F0B2
:102BC000F4CF11F01050111004E00001020EB16FAB
:102BD00003D00001010EB16F4AD00001020EB16FA7
:102BE000A0A802D0010EB16F42D00001020EB16F59
:102BF000DECFE9FFDDCFEAFFEFCFB2F0DECFE9FFB6
:102C0000DDCFEAFF010EE926000EEA22EFCFB3F096
:102C100003D00001010EB16F2AD00001020EB16F86
:102C2000DECFE9FFDDCFEAFFEF50B4C0E9FFB5C06A
:102C3000EAFFEF6E1CD00001020EB16FDECFE9FF9C
:102C4000DDCFEAFFEFCFB4F0DECFE9FFDDCFEAFF63
:102C5000010EE926000EEA22EFCFB5F008D0000100
:102C6000020EB16F04D00001020EB16F00D0FF0E52
:102C70000001B15D01E10DD0090E0401115D01E11A
:102C800008D012C450F40001705101012C6F2D6B5B
:102C900000D0110EE15C02E2E16AE552E16EE5521C
:102CA000E7CFD9FF1200D9CFE6FFE1CFD9FF400E21
:102CB0000001705D01E30AD07051EA6A500FE96EBD
:102CC000040EEA22FE0EDBCFEFFF702BE552E7CFBA
:042CD000D9FF120016
:0C2CD400040110511F0B010801E086D024
:102CE000145101E083D0060E115D2EE11351230A29
:102CF00028E0010A13E0030A01E024D00101020EDA
:102D0000276F0101240505E10101940E286F300EA3
:102D1000296F090E01012C6F2D6B14D00101020ED9
:102D2000276F0101240505E101010E0E286F310E08
:102D3000296F0101240504E17C0E01012C6F2D6B2C
:102D400001D000D00101238304011051600BE8423F
:102D5000E842E842E842E842010801E047D0115168
:102D60000B0A3EE0080A2EE0090A26E0080A16E0EF
:102D70000B0A06E0080A01E039D08EEC17F036D0D5
:102D80000101710E2A6F000E2B6F010123930101C7
:102D90002C6B2D6B0101020E276F28D00101020E52
:102DA000276F0101300E286F010E296F0101239357
:102DB0000101010E2C6F1AD00101020E276F13C4FE
:102DC00030F114D00101020E276F0101310E286F7E
:102DD000010E296F010123930101010E2C6F06D012
:102DE0000101020E276F12C431F100D0120001015F
:102DF000326B1E0E716E0401080E096F900E0A6F81
:102E0000040E0B6F880E086F0401980E0E6F040EEF
:102E10000F6F400E0C6F1200D9CFE6FFE1CFD9FF44
:102E2000E652FC0EDB50080805E2080EF36EFC0EBD
:102E3000F3CFDBFFDF6AFC0EDB50DF5C19E2DF5013
:102E4000E76EFD0EDBCFE9FFFE0EDBCFEAFFE750BA
:102E5000E926000EEA22EF50E66EDF50EA6A980F8C
:102E6000E96E040EEA22E552E750EF6EDF2AE3D75F
:102E7000FC0EDBCF0DF4400E04010C170C7D880E08
:102E80000C13E552E552E7CFD9FF1200D9CFE6FF88
:102E9000E1CFD9FF0101326B040108BF31D0FC0E34
:102EA000DBCF10F00951D880105403E2FC0E09C4A6
:102EB000DBFF0101326BFC0EDB50325D19E2325157
:102EC000EA6A900FE96E040EEA22EF50E66E325184
:102ED000E76EFD0EDBCFE9FFFE0EDBCFEAFFE7502A
:102EE000E926000EEA22E552E750EF6E322BE3D7D7
:102EF0000401080E096F400E0817087D880E08139C
:0E2F00000101325100D0E552E7CFD9FF120097
:022F0E000001C0
:102F1000B88928EC15F00001B89912000001B889B1
:102F200028EC15F00101020E276F0101500E286FE9
:102F3000040E296F010123930001B8991200D9CF23
:102F4000E6FFE1CFD9FF020EE126DE52010EDD6E73
:102F5000FFC0E6FF53EC16F0E5520001FF51320AC4
:102F600001E01ED0B6C0E6FF53EC16F0E552B7C044
:102F7000E6FF53EC16F0E552DF6A200EDF5C0FE24D
:102F8000DF500001F76AB625F66EB751F722080048
:102F9000F550E66E53EC16F0E552DF2AEED700D07E
:102FA000400E0001705D07E2E66A53EC16F0E55250
:102FB0000001702BF5D7010EDB50106E020EE15CA4
:102FC00003E200D0E16AE552E16E1050E552E7CF2E
:102FD000D9FF1200D9CFE6FFE1CFD9FF040EE126D9
:102FE000DE52010EDD6E72C0FFF000017251320A36
:102FF0002BE0030A0AE0010A01E02BD073C0D9F0EC
:1030000074C0DAF07FEC19F024D073C0D9F074C02A
:10301000DAF0DF6A200EDF5C14E2040EDF24EA6AD5
:10302000710FE96E000EEA22EF50E66EDF50EA6A99
:10303000B90FE96E000EEA22E552E750EF6EDF2A83
:10304000E9D752EC19F005D073C0B6F074C0B7F0F0
:1030500000D0010EDB50106E040EE15C03E200D0E4
:10306000E16AE552E16E1050E552E7CFD9FF120058
:103070001201100100000040AE09304410000102AE
:10308000030109022200010100A03209040000012D
:1030900003000000092110010001227C00070581C6
:1030A000030800280403090418034A006F006500A0
:1030B0000000000000000000000000000000000010
:1030C0002C034D00490044004900200044006500E5
:1030D0007600690063006500200000000000000029
:1030E0000000000000000000000000002203360085
:1030F000390031003200300036003000420020003C
:10310000000000000000000000000000000006FFBA
:10311000FF0901A1017508950126FF00150085969C
:1031200009C0B102752085B409D2B1027510859726
:1031300009C1B1027508859809C2B1027510859957
:1031400009C3B102859C09D4B1027510859D09D5CA
:10315000B102859B09C5B102752085AF09E9B102AD
:1031600085AF09E981A276000285B009EAB102754E
:103170002085C209D6B102859A09C4B102750895A5
:103180003F852C09040904B102C082308230A4308A
:08319000A830C030EC30D42C53
:0831980000000000000000002F
:1031A000000000000000000000000000000000001F
:1031B000000000000000000000000000000000000F
:1031C00000000000000000000000000000000000FF
:1031D00000000000000000000000000000000000EF
:1031E00000000000000000000000000000000000DF
:1031F00000000000000000000000000000000000CF
:1032000000000000000000000000000000000000BE
:1032100000000000000000000000000000000000AE
:10322000000000000000000000000000000000009E
:10323000000000000000000000000000000000008E
:10324000000000000000000000000000000000007E
:10325000000000000000000000000000000000006E
:10326000000000000000000000000000000000005E
:10327000000000000000000000000000000000004E
:10328000000000000000000000000000000000003E
:08329000000000000000000036
:08329800550EA76EAA0EA76EE9
:1032A000A6821200D9CFE6FFE1CFD9FFE652E00EA9
:1032B0000001D917840EA66EDF6A200EDF5C1AE2C9
:1032C000DF50EA6AB90FE96E000EEA22EFCF10F084
:1032D000DF500001F76AD925F66EDA51F722F86A55
:1032E00010C0F5FF0C001F0EDF141F0801E1D4DF32
:1032F000DF2AE3D7E552E552E7CFD9FF1200940E5B
:10330000A66ED9C0F6FFDAC0F7FFF86AC5DFF86A23
:103310001200D9CFE6FFE1CFD9FFA66AFE0EDB503F
:10332000A96EA680A85000D0E552E7CFD9FF1200C1
:10333000D9CFE6FFE1CFD9FFA6A202D0000E0BD075
:10334000FE0EDB50A96EFD0EDB50A86E040EA66EBD
:0E335000A3DF010E00D0E552E7CFD9FF120037
:02335E0046EC3B
:103360001AF0896A8A6A8B6A8C6A8D6A010E926E7B
:10337000100E936EF80E946E956A020E966E000112
:10338000050E676FE60EAC6E900EAB6E3F0EAF6E25
:10339000B06A400EC26E0E0EC16E860EC06E200E5A
:1033A000F26E840EF16ED08ED76AD66A800ED56E1C
:1033B000F28E140E6F6E0101226B0101236B01016D
:0433C000246B120068
:0C33C400D9CFE6FFE1CFD9FFFE0EDB50B1
:1033D000A96EA69EA69CA680A85000D0E552E7CF75
:1033E000D9FF1200D9CFE6FFE1CFD9FFFE0EDB50A7
:1033F000A96EFD0EDB50A86EA69EA69CA684F29E2A
:10340000550EA76EAA0EA76EA6820400A6B2FDD71F
:0C341000F28EA694E552E7CFD9FF12001F
:04341C003F065B4FBD
:10342000666D7D077F67777C585E79716F74061EC5
:10343000003800545C7367506D071C1C00766E5B8F
:10344000DACFE4FFE2CFDAFFE652F2A403D0F2943F
:0C34500000016081E552E5CFDAFF1100B9
:04345C00036A080EE9
:10346000E76ED890073603360C50035C02E3036E18
:08347000072AE72EF7D712002E
:0834780017EE00F027EE00F052
:0C348000F86A0F9C15EC05F0FDD7120057
:04348C00EA6AE96A95
:0A3490000400EE6AEAA6FCD7120061
:05349A005345512D0017
:01349F00002C
:1034A000000000000000000000000000000000001C
:1034B0000F00050002004B000000000000000000AB
:0134C000000B
:1040000000000000000000000000000000000000B0
:1040100000000000000000000000000000000000A0
:104020000000000000000000000000000000000090
:104030000000000000000000000000000000000080
:020000040030CA
:0100000029D6
:010001000EF0
:0100020036C7
:010003000EEE
:010005008179
:010006008178
:010008000FE8
:01000900C036
:01000A000FE6
:01000B00E014
:01000C000FE4
:01000D0040B2
:00000001FF
