:020000040000FA
:0600000015EF05F01200EF
:06000800EFEF1AF01200F8
:060A000027EF1BF01200BD
:060A0800EFEF1AF01200EE
:060A2A00D9CFE6FFE1CF89
:100A3000D9FF050EE12690EC1AF0200EDF6EDE5293
:100A4000700EDD6E610EF36E020EF3CFDBFF720EE1
:100A5000F36E030EF3CFDBFF630EF36E040EF3CFE2
:100A6000DBFFD9CFE6FFDACFE6FF08EC15F0E55261
:100A7000E552AA0EE66E86EC12F0E552000EF66E16
:100A8000400EF76E0800F550DF6E010EF66E400E58
:100A9000F76E0800010EF5CFDBFF0001AA0EBB6F59
:100AA000550EBC6FBB0EE66E000EE66E000EE66ED7
:100AB000400EE66E7FEC13F0E552E552E552E5524A
:100AC000000EF66E400EF76E0800F550DF6E010E58
:100AD000F66E400EF76E0800010EF5CFDBFF000149
:100AE00060A104D0AEEC12F072EC14F00BD8F7D782
:100AF000050EE15C02E2E16AE552E16EE552E7CF04
:100B0000D9FF1200A7EC11F06FBE02D0C6EC11F0B5
:020B10001200D1
:0E0B12000100673600002401000022000000F0
:100B2000D9CFE6FFE1CFD9FFE652030EDF6E0A0E02
:100B3000106E10C00CF0FE0EDBCF07F019EC1BF0AE
:100B40000350300FE66EDF50DF06E76EFC0EDBCFA2
:100B5000E9FFFD0EDBCFEAFFE750E926000EEA22AF
:100B6000E552E750EF6E0A0E106E10C00CF0FE0E4C
:100B7000DBCF07F019EC1BF0FE0E07C0DBFF0750C0
:100B80000008D5E3DF50000810E2DF50E76EFC0EEE
:100B9000DBCFE9FFFD0EDBCFEAFFE750E926000ED1
:100BA000EA22200EEF6EDF06EDD7DF50E76EFC0E77
:100BB000DBCFE9FFFD0EDBCFEAFFE750E926000EB1
:100BC000EA22200EEF6EE552E552E7CFD9FF120080
:100BD000D9CFE6FFE1CFD9FF040EE126D9CFE6FF5A
:100BE000DACFE6FF01011529E66E9ADFE552E552FC
:100BF000E552500EDF6ED9CFE6FFDACFE6FF43ECC9
:100C000015F0E552E5523BC127F13CC128F1040E35
:100C1000E15C02E2E16AE552E16EE552E7CFD9FF1D
:100C20001200D9CFE6FFE1CFD9FF15C1E6FF24C1FD
:100C3000E6FF0C0EE66E62EC14F0E552E552E5526A
:100C4000FE0EDB5001E0C4DFE552E7CFD9FF120012
:100C5000D9CFE6FFE1CFD9FF01011651EA6A000FB3
:100C6000E96E010EEA22EFCF15F1FE0EDBCFE6FFB3
:100C7000D8DFE55201011651E66EE66AF3EC13F097
:100C8000E552E552E552E7CFD9FF120001011729DD
:100C9000E66E7EEC15F0E5521200D9CFE6FFE1CF0B
:100CA000D9FF18C11AF119C11BF101011751EA6AE4
:100CB000080FE96E010EEA22EFCF16F1FE0EDBCF30
:100CC000E6FFC6DFE552E2DFE552E7CFD9FF1200CB
:100CD000D9CFE6FFE1CFD9FF100EE66E010EE66E2A
:100CE000080EE66E010EE66E040EE66E010EE66E6E
:100CF000000EE66E010EE66E110EE66E010EE66E59
:100D000018C1E6FF19C1E6FF42EC14F0106E0C0E9C
:100D1000E15E10500101176B1729E66E7EEC15F0AD
:100D2000E552FE0EDB5008E0110EE66E010EE66E97
:100D300043EC15F0E552E552E552E7CFD9FF12003A
:100D4000D9CFE6FFE1CFD9FF1CC1E6FF1DC1E6FF09
:100D50005AEC14F0E552E552F3CF18F1F4CF19F143
:100D6000FE0EDBCFE6FFB4DFE552E552E7CFD9FF59
:100D70001200110EE66E010EE66E18C1E6FF19C1F3
:100D8000E6FF52EC14F0E552E552E552E552110E41
:100D9000E66E010EE66E43EC15F0E552E5521200E8
:100DA0000101335109E0620EE66E360EE66E43EC49
:100DB00015F0E552E55222D01CC1E6FF1DC1E6FF49
:100DC0005AEC14F0E552E552F3CF18F1F4CF19F1D3
:100DD000110EE66E010EE66E18C1E6FF19C1E6FFC0
:100DE00052EC14F0E552E552E552E552110EE66E72
:100DF000010EE66E43EC15F0E552E5521200D9CF34
:100E0000E6FFE1CFD9FFFD0EDB5001013D150001EA
:100E1000106EFE0EDB5001013E150001116EFD0E3D
:100E2000DB50101803E1FE0EDB5011180FE1FD0E30
:100E3000DB5001013F150001126EFE0EDB50010177
:100E400040150001136E1250131002E0000E01D085
:100E5000010E00D0E552E7CFD9FF1200D9CFE6FF4F
:100E6000E1CFD9FFFD0EDB5001013D150001106EF1
:100E7000FE0EDB5001013E150001116EFD0EDB5030
:100E8000101803E1FE0EDB50111802E0000E01D035
:100E9000010E00D0E552E7CFD9FF1200D9CFE6FF0F
:100EA000E1CFD9FFFD0EDB5001013F150001106EAF
:100EB000FE0EDB50010140150001116EFD0EDB50EE
:100EC000101803E1FE0EDB5011180FE1FD0EDB5090
:100ED00001013D150001126EFE0EDB5001013E15B1
:100EE0000001136E1250131002E0000E01D0010E2B
:100EF00000D0E552E7CFD9FF1200010131510AE0DD
:100F00000101000ED8802055000E215503E2200774
:100F1000000E215B0101000ED8802B55000E2C55D0
:100F200003E22B07000E2C5B000ED8802D55000E1F
:100F30002E5503E22D07000E2E5B000ED88027559C
:100F4000000E28550CE22707000E285B27512811B8
:100F500006E10101230502E10CDF01D021DF0101DF
:100F6000000ED8802F55000E305503E22F07000EDB
:100F7000305B000ED8802955000E2A5501E3BFD002
:100F80003251030A67E0010A1FE0030A01E0A8D01A
:100F900029511F0B08E13451E66EE66A09EC14F0A2
:100FA000E552E55210D01F0E2915106E116A0F0E72
:100FB000101801E1115007E13451E66EE66A1DECAC
:100FC00014F0E552E5528CD029511F0B1DE1000EA3
:100FD000E66EE66A09EC14F0E552E552010EE66EA3
:100FE000E66A09EC14F0E552E552020EE66EE66A96
:100FF0001DEC14F0E552E552030EE66EE66A1DECB8
:1010000014F0E552E55225D01F0E2915106E116A15
:101010000F0E101801E111501CE1000EE66EE66A99
:101020001DEC14F0E552E552010EE66EE66A1DEC89
:1010300014F0E552E552020EE66EE66A1DEC14F07D
:10104000E552E552030EE66EE66A1DEC14F0E55239
:10105000E55246D029511F0B1DE1000EE66EE66AEF
:101060001DEC14F0E552E552010EE66EE66A1DEC49
:1010700014F0E552E552020EE66EE66A09EC14F051
:10108000E552E552030EE66EE66A09EC14F0E5520D
:10109000E55225D01F0E2915106E116A0F0E10187B
:1010A00001E111501CE1000EE66EE66A1DEC14F041
:1010B000E552E552010EE66EE66A1DEC14F0E552CB
:1010C000E552020EE66EE66A1DEC14F0E552E552BA
:1010D000030EE66EE66A1DEC14F0E552E55200D010
:1010E00001012907000E2A5B29512A1108E101019B
:1010F0001651E66EE66AF3EC13F0E552E552120083
:101100000101455115E11EC110F01FC111F010067B
:10111000000E115A105001011C1902E111501D1945
:1011200003E11C6B1D6B03D01C2B000E1D2307D08D
:101130007F0E0101155D02E1156B01D0152B120028
:101140000101455111E101011C511D1109E11EC1AF
:101150001CF11FC11DF1010E1C5F000E1D5B03D0B1
:101160001C07000E1D5B07D00101155103E17F0E26
:10117000156F01D0150712000101455102E110DE83
:1011800001D026DD12000101455104E1E66AD8DDF7
:10119000E55204D0010EE66E44DDE552120017C19F
:1011A00010F110C1E6FF080EE66E010EE66E040EA9
:1011B000E66E010EE66E000EE66E010EE66E18C1DA
:1011C000E6FF19C1E6FF4AEC14F0106E090EE15E6D
:1011D00010500101020E336F320E2F6F306B010180
:1011E000176B120041EC14F0F3CF1EF1F4CF1FF196
:1011F0000101186B196B010EE66E6ADDE552010103
:10120000176B010EE66E49DDE552000E01013F6FDE
:10121000406B3D6F3E6B3CEC14F00101426F416F3F
:1012200037EC14F00101236F1200AFEC13F0F3CF91
:101230003DF1F4CF3EF13CEC14F00101416F42511D
:10124000415D16E07F0E4115E66E01011651EA6A16
:10125000040FE96E010EEA22EF50E66E24C1E6FFAC
:101260000B0EE66E6AEC14F0E552E552E552E552DB
:1012700037EC14F0000910E1010123050CE1236BA8
:101280001C6B1D6B010EE66E5BDDE5520101176BF9
:10129000E66A03DDE5520FD0010123510CE1010E96
:1012A000236F186B196BE66E13DDE5520101176BA6
:1012B000E66AF3DCE552000EE66EE66AA0DDE55272
:1012C000E55200094BE0010118511A1902E11951C8
:1012D0001B1905E0010EE66EE0DCE5523FD010057B
:1012E000175D37E1235118E11EC110F01FC111F045
:1012F0001006000E115A10501C1902E111501D1950
:1013000003E11C6B1D6B03D01C2B000E1D23010E73
:10131000E66E16DDE55217D01EC110F01FC111F0A8
:101320001006000E115A1050181902E11150191927
:1013300003E1186B196B03D0182B000E1923010E53
:10134000E66EC6DCE5520101176BE66AA6DCE552E3
:1013500005D0172B010EE66EA0DCE55201012351EA
:10136000010A01E117D3010A02E0B4EF0EF0010116
:101370003351020A01E1D8D2030A01E13AD2010A4B
:1013800001E007D3010EE66EE66A39DDE552E5526B
:1013900000090EE00101166B0101450505E11E0E75
:1013A0002B6F2C6B446B04D0010EE66E51DCE552C2
:1013B000020EE66EE66A23DDE552E55200090FE013
:1013C0000101010E166F0101450505E11E0E2B6F8F
:1013D0002C6B446B04D0010EE66E3ADCE552040E31
:1013E000E66EE66A0CDDE552E55200090FE0010108
:1013F000020E166F0101450505E11E0E2B6F2C6BC9
:10140000446B04D0010EE66E23DCE552080EE66E56
:10141000E66AF5DCE552E55200090FE00101030E32
:10142000166F0101450505E11E0E2B6F2C6B446BF9
:1014300004D0010EE66E0CDCE5520101450501E029
:1014400087D02B512C1153E1445151E1010EE66E2E
:10145000E66A04DDE552E552000918E1020EE66E87
:10146000E66AFCDCE552E552000910E1040EE66E86
:10147000E66AF4DCE552E552000908E1080EE66E82
:10148000E66AECDCE552E552000931E00101010EAB
:10149000446F01011651EA6A000FE96E010EEA225B
:1014A00015C1EFFF10C1E6FF080EE66E010EE66EF5
:1014B000040EE66E010EE66E000EE66E010EE66E9E
:1014C00018C1E6FF19C1E6FF4AEC14F0106E090ED0
:1014D000E15E1050010EE66E28EC06F0E5520101C7
:1014E000010E326F16C134F1640E296F2A6B010EA2
:1014F000E66EE66AD3DCE552E552000918E1020E19
:10150000E66EE66ACBDCE552E552000910E1040E16
:10151000E66EE66AC3DCE552E552000908E1080E12
:10152000E66EE66ABBDCE552E552000911E0010116
:10153000000ED8802B55000E2C550AE2445108E1CC
:10154000010EE66E28EC06F0E55201012B6B2C6BC8
:10155000000EE66EE66A53DCE552E55200090FE044
:10156000000EE66EE66A7ADCE552E552000907E114
:1015700001012D512E1103E11E0E2D6F2E6B010165
:1015800031511BE1000EE66EE66A68DCE552E55279
:10159000000913E0000EE66EE66A60DCE552E552F3
:1015A00000090BE101012D512E1107E10101206B12
:1015B000216B226B0101010E316F000EE66EE66AAF
:1015C0006DDCE552E55200090CE00101000ED88007
:1015D0002D55000E2E5502E293DDCEDD0101316B5B
:1015E000D2DD000EE66EE66A0ADCE552E55200093D
:1015F0000FE0000EE66EE66A31DCE552E5520009C6
:1016000007E101012D512E1103E11E0E2D6F2E6BEE
:10161000010131511BE1000EE66EE66A1FDCE55266
:10162000E552000913E0000EE66EE66A17DCE552AB
:10163000E55200090BE101012D512E1107E10101D5
:10164000206B216B226B0101040E316F000EE66EE0
:10165000E66A24DCE552E55200090CE00101000EC7
:10166000D8802D55000E2E5502E26ADD85DD010180
:10167000316B89DD000EE66EE66AFFEC06F0E5529E
:10168000E552000904E01E0E01012F6F306B000EC1
:10169000E66EE66A2EEC07F0E552E55200090EE030
:1016A00001012F5130110AE1335108E1010E336F6E
:1016B0000101176B040E166FD0EC06F0000EE66EFB
:1016C000E66A4EEC07F0E552E552000919E0010127
:1016D000000ED8802F55000E305512E2455109E119
:1016E000010E456F030E326F640E296F2A6B44DDC5
:1016F00007D0456B020E326F640E296F2A6B3CDDFA
:101700000101315175E001012051211171E1010107
:101710003151060A66E0030A4FE0010A38E0070A81
:101720002FE0010A18E0030A01E062D0E9DC24DDC1
:1017300001012251222B050809E1226B0101020E51
:10174000316F37C120F138C121F104D035C120F10A
:1017500036C121F14DD0D4DC0FDD01012251222B05
:10176000140809E1226B0101030E316F39C120F128
:101770003AC121F104D037C120F138C121F138D06C
:10178000BFDCFADC39C120F13AC121F131D0D8DC1B
:10179000F3DC01012251222B050809E1226B010132
:1017A000050E316F37C120F138C121F104D035C1A8
:1017B00020F136C121F11CD0C3DCDEDC0101225155
:1017C000222B140809E1226B0101060E316F39C189
:1017D00020F13AC121F104D037C120F138C121F103
:1017E00007D0AEDCC9DC39C120F13AC121F100D00B
:1017F000D0D0010EE66EE66AFFEC06F0E552E55247
:1018000000091AE00101165117E0166B010EE66E91
:1018100028EC06F0E55201011751172BEA6A080F70
:10182000E96E010EEA2216C1EFFF46EC06F0080E43
:101830000101175D01E1B3DC020EE66EE66AFFEC22
:1018400006F0E552E55200091AE00101160517E01D
:10185000010E166FE66E28EC06F0E55201011751F5
:10186000172BEA6A080FE96E010EEA2216C1EFFF94
:1018700046EC06F0080E0101175D01E190DC040E54
:10188000E66EE66AFFEC06F0E552E55200091CE060
:10189000020E0101165D18E0020E166F010EE66ED3
:1018A00028EC06F0E55201011751172BEA6A080FE0
:1018B000E96E010EEA2216C1EFFF46EC06F0080EB3
:1018C0000101175D01E16BDC080EE66EE66AFFECD4
:1018D00006F0E552E55200091CE0030E0101165D19
:1018E00018E0030E166F010EE66E28EC06F0E552C6
:1018F00001011751172BEA6A080FE96E010EEA225F
:1019000016C1EFFF46EC06F0080E0101175D01E17C
:1019100046DC000EE66EE66AFFEC06F0E552E552A4
:10192000000901E03CDC35D02F51301131E10101DB
:101930001051175D0AE10101336B0101176B010EB4
:10194000E66E4DEC06F0E55223D046EC06F00101C0
:101950001751EA6A080FE96E010EEA22EFCF16F17D
:101960001651E66EE66AF3EC13F0E552E55201011A
:101970001651EA6A000FE96E010EEA22EFCF15F167
:10198000E8EC05F00101172B320E01012F6F306BCF
:1019900000D0EAD1010EE66EE66AFFEC06F0E552F1
:1019A000E552000907E00101166B010EE66E28EC16
:1019B00006F0E552020EE66EE66AFFEC06F0E5522E
:1019C000E552000907E00101010E166FE66E28ECF2
:1019D00006F0E552040EE66EE66AFFEC06F0E5520C
:1019E000E552000908E00101020E166F010EE66ED5
:1019F00028EC06F0E552080EE66EE66AFFEC06F00B
:101A0000E552E552000908E00101030E166F010ED0
:101A1000E66E28EC06F0E552000EE66EE66AFFEC94
:101A200006F0E552E552000921E01EC110F01FC189
:101A300011F01006000E115A10500101181902E1A0
:101A40001150191903E1186B196B03D0182B000EF4
:101A50001923B9EC06F00101316B35C120F136C113
:101A600021F10101226B0101010E316F000EE66EC2
:101A7000E66A4EEC07F0E552E552000906E0010186
:101A8000316BE66A68EC06F0E552000EE66EE66A37
:101A9000FFEC06F0E552E55200091DE00101185186
:101AA000191109E11EC118F11FC119F1010E185FCA
:101AB000000E195B03D01807000E195BB9EC06F095
:101AC0000101316B35C120F136C121F10101226BD9
:101AD0000101040E316F000EE66EE66A4EEC07F06F
:101AE000E552E552000906E00101316BE66A68EC57
:101AF00006F0E552000EE66EE66AFFEC06F0E552EF
:101B0000E552000948E0010118511A1902E1195182
:101B10001B1906E0010EE66E4DEC06F0E5523BD0D7
:101B2000175133E1235115E11C511D1109E11EC16B
:101B30001CF11FC11DF1010E1C5F000E1D5B03D0C7
:101B40001C07000E1D5B010EE66EA0EC06F0E552D0
:101B500014D01851191109E11EC118F11FC119F152
:101B6000010E185F000E195B03D01807000E195BF9
:101B7000010EE66E68EC06F0E55201011005176FE4
:101B8000E66A4DEC06F0E55206D01707010EE66E48
:101B90004DEC06F0E5520101315101E1E4D00101C3
:101BA0002051211101E0DFD001013151060A01E18C
:101BB000C3D0030A01E19BD0010A74E0070A57E091
:101BC000010A2CE0030A01E0CED01EC110F01FC1B3
:101BD00011F01006000E115A10500101181902E1FF
:101BE0001150191903E1186B196B03D0182B000E53
:101BF0001923B9EC06F001012251222B050809E155
:101C0000226B0101020E316F37C120F138C121F181
:101C100004D035C120F136C121F1A5D01EC110F08C
:101C20001FC111F01006000E115A105001011819B1
:101C300002E11150191903E1186B196B03D0182B2D
:101C4000000E1923B9EC06F001012251222B1408D1
:101C500009E1226B0101030E316F39C120F13AC154
:101C600021F104D037C120F138C121F17CD01EC14F
:101C700010F01FC111F01006000E115A1050010192
:101C8000181902E11150191903E1186B196B03D0EF
:101C9000182B000E1923B9EC06F039C120F13AC116
:101CA00021F161D001011851191109E11EC118F18A
:101CB0001FC119F1010E185F000E195B03D0180740
:101CC000000E195BB9EC06F001012251222B050828
:101CD00009E1226B0101050E316F37C120F138C1D6
:101CE00021F104D035C120F136C121F13CD00101F0
:101CF0001851191109E11EC118F11FC119F1010E86
:101D0000185F000E195B03D01807000E195BB9ECC1
:101D100006F001012251222B140809E1226B010176
:101D2000060E316F39C120F13AC121F104D037C11B
:101D300020F138C121F117D001011851191109E121
:101D40001EC118F11FC119F1010E185F000E195BB9
:101D500003D01807000E195BB9EC06F039C120F169
:101D60003AC121F100D000D03DC13FF13EC140F168
:021D700012005F
:0E1D720004011051600BE842E842E842E842EA
:101D8000E842000901E04FD01151070A4BE00B0A6D
:101D900049E0070A3AE0010A28E00B0A24E0020AB7
:101DA00022E0030A1EE0080A11E0010A0DE00F0A12
:101DB00009E0030A01E036D00101010E4B6F040E69
:101DC000466F31D031D82FD090D82DD00101010EDF
:101DD0004B6F480E4C6F010E4D6F4793010E506FC5
:101DE00022D0A9D820D0F1D81ED00101010E4B6F0E
:101DF0000401145101014C6F4D6B490E4C27010E2B
:101E00004D234793010E506F0ED00101010E4B6F11
:101E100004011451EA6A490FE96E010EEA2212C464
:101E2000EFFF01D000D01200800E0401105D5CE1D4
:101E30001351030A32E0010A0EE0030A01E04BD01D
:101E40000101010E4B6F900E4C6F320E4D6F120E52
:101E5000506F516B40D00101010E4B6F04011251C4
:101E6000F66EF76AD890F636F736AA0EF626330ED7
:101E7000F7220900F5CF4CF10A00F5CF4DF1020E23
:101E80000101F76A4C25F66E4D51F7220900F5CF96
:101E900050F10A00F5CF51F11ED00101010E4B6F38
:101EA00004011251F66EF76AD890F636F736AE0E88
:101EB000F626330EF7220900F5CF4CF10A00F5CFD4
:101EC0004DF14CC1F6FF4DC1F7FF0800F55001017F
:101ED000506F516B00D0020E0401125D05E0030E3D
:101EE000125D02E00101478312000101010E4B6FF8
:101EF0000F0EE66E710EE66E0F0EE66EC9DAE55253
:101F0000E552E552010EE66E490EE66E010EE66EF2
:101F1000BFDAE552E552E55212C448F1040112510C
:101F200004E10101050E466F05D00101060E466F62
:101F3000F4EC17F012000401506B516B10511F0BA1
:101F4000020A14E0030A0EE0010A01E033D00101A5
:101F5000010E4B6F04015081010147A102D0040121
:101F6000508328D00101010E4B6F24D00101010ED6
:101F70004B6F040114510F0B080DF350116A000F41
:101F8000106E040E11221451800B01E0010E040D9D
:101F9000F350010110244E6F000E11204F6F4EC1FF
:101FA000E9FF4FC1EAFFEF50040B03E00401010E0B
:101FB000506F00D001014B0507E1500E4C6F040E2D
:101FC0004D6F4793020E506F12000401120510E18D
:101FD00010511F0B00090CE10101010E4B6F030EA4
:101FE0000401115D03E10101478102D00101479124
:101FF000040112513AE110511F0B020836E114514D
:102000000F0B000932E00101010E4B6F0401145166
:102010000F0B080DF350116A000F106E040E112201
:102020001451800B01E0010E040DF3500101102446
:102030004E6F000E11204F6F030E0401115D07E17A
:10204000840E4EC1E9FF4FC1EAFFEF6E0ED014AF10
:1020500006D04EC1E9FF4FC1EAFFEF6A06D0880EF5
:102060004EC1E9FF4FC1EAFFEF6E12006C500BE169
:10207000040100513C0BE842E8420D0802E108D897
:1020800001D03BD804D0040E6C5C01E146D81200AC
:10209000D9CFE6FFE1CFD9FFE65201014A6B4B6B86
:1020A000506B516B66DEDF6ADF50106E116A010EF5
:1020B000105C000E11581BE201014B5101E017D0DA
:1020C000F76ADF34FE0BF736F66EB60EF626330EE1
:1020D000F7220900F5CF10F00800F5CF11F004D079
:1020E00011C0FAFF1050F96EFBDFDF2ADDD7DFD811
:1020F000E552E552E7CFD9FF1200020E01014A5D19
:102100000AE198D8040100BD03D0C80E006F02D0C8
:10211000880E006F01D00ED91200040E0101465D39
:102120000AE112C46EFF6E50000803E2050E466F0E
:1021300002D0030E466F4A050AE111D8040104BD1E
:1021400003D0C80E046F02D0880E046F07D0090EAA
:102150000401115D02E184EC18F0ECD81200D9CF33
:10216000E6FFE1CFD9FF020EE1260101400E505DEE
:10217000000E515905E250C1DEFF51C1DDFF03D011
:10218000400EDE6EDD6A040104930491010EDB5003
:102190000413DFCF05F4000EDB500101505F010E88
:1021A000DB50515B500E4E6F040E4F6F47A31DD096
:1021B000D9CFE9FFDACFEAFFEE50ED1015E04CC1C0
:1021C000F6FF4DC1F7FF0800F5504EC1E9FF4FC1C2
:1021D000EAFFEF6E4E2B000E4F234C2B4D23DF06F4
:1021E000010E01E2DB06E4D71BD0D9CFE9FFDACF3D
:1021F000EAFFEE50ED1014E04CC1E9FF4DC1EAFFDB
:10220000EF504EC1E9FF4FC1EAFFEF6E4E2B000EBB
:102210004F234C2B4D23DF06010E01E2DB06E5D7F1
:10222000020EE15C02E2E16AE552E16EE552E7CFBF
:10223000D9FF1200D9CFE6FFE1CFD9FF020EE12688
:10224000030E04010015E76E010EE7CFDBFF01C4AA
:10225000DFFFDE5001015027DD505123500E4C6F3F
:10226000040E4D6FD9CFE9FFDACFEAFFEE50ED1043
:1022700014E04CC1E9FF4DC1EAFFEF504EC1E9FF48
:102280004FC1EAFFEF6E4E2B000E4F234C2B4D2318
:10229000DF06010E01E2DB06E5D7020EE15C02E299
:1022A000E16AE552E16EE552E7CFD9FF1200010184
:1022B0004B510BE10401400E016F100E026F040E32
:1022C000036F840E006F046F33D0040110AF21D070
:1022D000010150510401165D0101515104011759CA
:1022E00004E216C450F117C451F139DF0101010EA7
:1022F0004A6F0401400E016F100E026F040E036F4F
:10230000800E006F500E066F040E076FC80E046F2C
:102310000FD00101020E4A6F0401056BC80E046F55
:10232000400E016F500E026F040E036FC80E006F57
:102330006D98120001014A6B0401400E016F100EEE
:10234000026F040E036F880E006F046B12006DA6FF
:102350000FD802D06DB613D80101460508E16DBA59
:1023600006D0686A696A69806988020E466F120041
:102370006D6A696A6D860101010E466F12006D6A11
:10238000696A0101466B1200BFEF11F0010146516D
:1023900001E139D06850040B04E06950040B01E0FE
:1023A00038D86DB230D06850010B04E06950010B91
:1023B00001E04FD86850100B04E06950100B01E0A9
:1023C00023D86850400B04E06950400B01E037D837
:1023D0006850200B04E06950200B01E032D86850AF
:1023E000020B04E06950020B01E031D8030E010139
:1023F000465D01E208D06850080B05E06950080B03
:1024000002E034DE68961200698468986D82A19AB1
:1024100012006D92699468941200010147A10ED0D8
:10242000F8DF6D840101080E526F070E536F5207DB
:10243000000E535B52515311FAE16D941200689CE7
:10244000120070A002D076DF7090689A1200689235
:1024500012006A6A686A9F0E6B6E7B0E696E6E6A06
:102460000F0EE66E710EE66E0F0EE66E11D8E55297
:10247000E552E552160E706E68A602D06896FCD73B
:102480006D9858DF01014791486B030E466F1200AB
:10249000D9CFE6FFE1CFD9FFFD0EDBCFE9FFFE0E7E
:1024A000DBCFEAFFFC0EDB5004E0EE6AFC0EDB063D
:0A24B000F9D7E552E7CFD9FF12007B
:0624BA00D9CFE6FFE1CFDF
:1024C000D9FFE652FE0EDB50C26E0A0EDF6EDF5001
:1024D00002E0DF06FCD7C282C2B2FED7C45000D0F1
:1024E000E552E552E7CFD9FF1200D9CFE6FFE1CFA1
:1024F000D9FFE652FE0EDB50AD6E9E50DF6E9EA8F9
:10250000FED7E552E552E7CFD9FF1200D9CFE6FF5B
:10251000E1CFD9FFE652080EDF6E89848994899253
:10252000FE0EDBBE02D0899601D08986DBCFF3FF99
:10253000F39EF346F3CFDBFF8982DF06F0E1898467
:10254000100EDF6EDF5002E0DF06FCD7899489862B
:102550008982E552E552E7CFD9FF1200D9CFE6FFD5
:10256000E1CFD9FF040EE126DE52010EDD6E030E2F
:10257000DB6ADF6ADF50060822E3DFCFE6FFDDD843
:10258000E552050EF36E020EF3CFDBFFDB5003E0E6
:10259000020EDB06FBD784A209D0030EDBCFE7FFD8
:1025A000010EDB50E712030EE7CFDBFF010EDBCF9E
:1025B000F3FFF39EF346F3CFDBFFDF2ADBD7030EF7
:1025C000DBCF69F000016A6B6B6B6C6BD89069377D
:1025D0006A376B376C376A696B696C6981B8698176
:1025E000691F6A1F6B1F6C1F070EDF6EDFCFE6FFD0
:1025F000A4D8E5520001618184B26191040EE15CCE
:1026000002E2E16AE552E16EE552E7CFD9FF12003E
:10261000D9CFE6FFE1CFD9FF030EE126010EDB6A39
:10262000020EDB6AFE0EDB50F36EFC0EDBCFF4FF16
:10263000F350F45C0EE3FC0EDBCFE6FFFE0EDB5046
:10264000E552E75CE76E020EE7CFDBFF000EDF80AE
:102650000DD0FE0EDBCFE6FFFC0EDB50E552E75C53
:10266000E76E020EE7CFDBFF000EDF90FB0EDBCF45
:1026700010F0D950010FE96EDACFEAFF10500F0BBE
:1026800006E0EC52D890ED32EF32E806FAE1DFA036
:1026900011D0010EDBCF10F0020EDBCF11F0D950BC
:1026A000FD0FE96EFF0EDA20EA6E1050EE26115093
:1026B000ED2210D0010EDBCF10F0020EDBCF11F0B7
:1026C000D950FD0FE96EFF0EDA20EA6E1050EE5E73
:1026D0001150ED5AFD0EDBCF10F0FE0EDBCF11F0E6
:1026E00010C0F3FF11C0F4FF030EE15C03E200D061
:1026F000E16AE552E16EE552E7CFD9FF1200D9CF8A
:10270000E6FFE1CFD9FFFD0EDBCF10F0FE0EDBCFF1
:1027100011F0126A136A10C0F6FF11C0F7FF12C061
:10272000F8FFFB0EDBCFE9FFFC0EDBCFEAFF6CEC22
:102730001AF0E552E7CFD9FF1200D9CFE6FFE1CF7B
:10274000D9FF8998899A8D90FE0EDBB08988DBB21B
:10275000898ADBB48D80E552E7CFD9FF1200D9CF4B
:10276000E6FFE1CFD9FF040EE126DE6ADE6ADE6A0B
:10277000DD6ADD52DD5269C010F06AC011F06BC035
:1027800012F06CC013F0F00E1016116A126A136A80
:10279000030E10C0DBFF69C010F06AC011F06BC0FF
:1027A00012F06CC013F00F0E1016116A126A136A41
:1027B0001050DF6EDFCF10F0010EDBCF11F010C034
:1027C000F3FF11C0F4FF040EE15C03E200D0E16A04
:1027D000E552E16EE552E7CFD9FF120068C0E6FF8F
:1027E00095DEE5521200D9CFE6FFE1CFD9FF000117
:1027F000686B010EF36EFD0EDB5004E0D890F336EB
:10280000E806FCE1F35000016813E552E7CFD9FF79
:102810001200D9CFE6FFE1CFD9FF010EF36EFD0E16
:10282000DB5004E0D890F336E806FCE1F3500001F9
:102830006813E552E7CFD9FF1200D9CFE6FFE1CF09
:10284000D9FF010EF36EFD0EDB5004E0D890F33695
:10285000E806FCE1F350106E116A10BE1168FF0E1D
:10286000101800016817E552E7CFD9FF12000001E8
:102870006151010B00D01200010EE66E1EDEE55222
:1028800012001200D9CFE6FFE1CFD9FFE552E7CF22
:10289000D9FF1200D9CFE6FFE1CFD9FFE552E7CF4C
:1028A000D9FF1200D9CFE6FFE1CFD9FFE552E7CF3C
:1028B000D9FF1200D9CFE6FFE1CFD9FFE552E7CF2C
:1028C000D9FF1200D9CFE6FFE1CFD9FFE552E7CF1C
:1028D000D9FF1200D9CFE6FFE1CFD9FFE552E7CF0C
:0428E000D9FF12000A
:0C28E40034D80001FB51040A21E0070A6F
:1028F00019E0010A11E0030A09E0010A01E01ED013
:102900008A9AFBC0E6FF31D8E55218D08B90FBC005
:10291000E6FF2BD8E55212D08A96FBC0E6FF25D8F9
:10292000E5520CD08A94FBC0E6FF1FD8E55206D0D2
:102930008A92FBC0E6FF19D8E55200D00001FB2BBC
:10294000000167510001FB5D01E3FB6B12008A90FF
:102950008C9E8C9C8C9A8C988B948C968C948A8A66
:102960008B808A868A848A821200D9CFE6FFE1CFE3
:10297000D9FFE652FE0EDB50EA6A620FE96E000EE6
:10298000EA22EFCFDFFFD9CFE9FFDACFEAFFEF503E
:10299000010B01E08A80D9CFE9FFDACFEAFFEF50DF
:1029A000020B01E08C8ED9CFE9FFDACFEAFFEF50BE
:1029B000040B01E08C8CD9CFE9FFDACFEAFFEF50AE
:1029C000080B01E08C8AD9CFE9FFDACFEAFFEF509C
:1029D000100B01E08C88D9CFE9FFDACFEAFFEF5086
:1029E000200B01E08B84D9CFE9FFDACFEAFFEF506B
:1029F000400B01E08C86D9CFE9FFDACFEAFFEF5038
:102A0000800B01E08C84E552E552E7CFD9FF12003C
:102A1000D9CFE6FFE1CFD9FF020EE126010EDB6A36
:102A2000050EF36E010EDBCFF4FFF350F45C21E2F0
:102A3000010EDB50E76EFD0EDBCFE9FFFE0EDBCFB4
:102A4000EAFFE750E926000EEA22EFCFDFFFDFCFF3
:102A5000E6FF64D8E552E66E010EDB50EA6A620FCB
:102A6000E96E000EEA22E552E750EF6E010EDB2A16
:102A7000D7D7020EE15C02E2E16AE552E16EE5526F
:102A8000E7CFD9FF1200D9CFE6FFE1CFD9FF020E81
:102A9000E126010EDB6A040EF36E010EDBCFF4FFBC
:102AA000F350F45C21E2010EDB50E76EFD0EDBCF4C
:102AB000E9FFFE0EDBCFEAFFE750E926000EEA222F
:102AC000EFCFDFFFDFCFE6FF29D8E552E66E010E3C
:102AD000DB50EA6A620FE96E000EEA22E552E75027
:102AE000EF6E010EDB2AD7D7020EE15C02E2E16A4B
:102AF000E552E16EE552E7CFD9FF1200D9CFE6FFEC
:102B0000E1CFD9FFFE0EDB50300FE66E07D8E5525D
:102B10000001666FE552E7CFD9FF1200D9CFE6FF7B
:102B2000E1CFD9FF410EF36EFE0EDBCFF4FFF35081
:102B3000F45C28E3610EF36EFE0EDBCFF4FFF3507E
:102B4000F45C0BE3610E106EFE0EDBCFE7FF10505E
:102B5000E75EFE0EE7CFDBFF0AD0410E106EFE0EE1
:102B6000DBCFE7FF1050E75EFE0EE7CFDBFFDB5069
:102B7000F76A180FF66E360EF7220800FE0EF5CF34
:102B8000DBFF26D0300EF36EFE0EDBCFF4FFF350EA
:102B9000F45C15E3300E106EFE0EDBCFE7FF105035
:102BA000E75EFE0EE7CFDBFFDB50F76A0E0FF66E37
:102BB000360EF7220800FE0EF5CFDBFF09D0FE0E21
:102BC000DB50200803E1FE0EDB6A02D0FE0EDB6A5A
:0C2BD000DB5000D0E552E7CFD9FF120027
:042BDC00D9CFE6FF68
:102BE000E1CFD9FF110EE1260001B1690001010E0C
:102BF000706F720EDE6E000EDD6E0401110501E0D5
:102C0000A2D01251B40A01E185D02F0A01E177D098
:102C1000060A69E0010A5AE0050A4CE0010A36E0BA
:102C20000F0A28E0010A1BE0BA0A13E0830A01E058
:102C300089D00001050EB16FE66A32D9E552E66A25
:102C40002FD9E552E66A2CD9E552E66A29D9E55230
:102C50007AD00001050EB16FE1EC18F074D00001DC
:102C6000050EB16FA0A805D0010EB16FE66818D9A6
:102C7000E55269D00001050EB16FB2C0E6FF10D970
:102C8000E552B3C0E6FF0CD9E5525DD00001050E58
:102C9000B16F040EB4C0DBFF050EB5C0DBFF040E40
:102CA000DBCFE9FF050EDBCFEAFFEF50E66EF8D889
:102CB000E55249D00001050EB16FB4C0E6FFF0D86F
:102CC000E552B5C0E6FFECD8E5523DD00001050E57
:102CD000B16FB6C0F6FFB7C0F7FF0800F550E66E5B
:102CE000DFD8E55230D00001050EB16FB6C0E6FF67
:102CF000D7D8E552B7C0E6FFD3D8E55224D00001BB
:102D0000050EB16F030EE66ECBD8E552E66AC8D861
:102D1000E55219D00001050EB16FA0B804D0F29EA3
:102D2000F29C11D00FD0010EB16FE668B9D8E55210
:102D3000E668B6D8E552E668B3D8E552E668B0D89A
:102D4000E55201D000D0090E0401115D01E08CD0E4
:102D50001251B40A01E184D0290A6AE0010A64E050
:102D6000060A5EE0030A48E0010A38E00F0A1EE0A6
:102D7000010A14E0BA0A01E077D023EC19F0F3CF8E
:102D800010F0F4CF11F01050111004E00001020E09
:102D9000B16F03D00001010EB16F66D00001020EC9
:102DA000B16FA0A802D0010EB16F5ED00001020E7B
:102DB000B16FDECFE9FFDDCFEAFFEFCFB2F0DECFBC
:102DC000E9FFDDCFEAFF010EE926000EEA22EFCF90
:102DD000B3F003D00001010EB16F46D00001020E26
:102DE000B16FDECFE9FFDDCFEAFFEF50B4C0E9FFFE
:102DF000B5C0EAFFEF6E38D00001020EB16FDECF32
:102E0000E9FFDDCFEAFFEFCFB4F0DECFE9FFDDCFA2
:102E1000EAFF010EE926000EEA22EFCFB5F024D03A
:102E20000001020EB16F20D00001010EB16F1CD065
:102E30000001020EB16FDECFE9FFDDCFEAFFEFCF79
:102E4000B6F0DECFE9FFDDCFEAFF010EE926000E86
:102E5000EA22EFCFB7F003D00001010EB16F04D02A
:102E60000001020EB16F00D0FF0E0001B15D01E163
:102E70000DD0090E0401115D01E108D012C450F417
:102E8000000170510101506F516B00D0110EE15CD7
:102E900002E2E16AE552E16EE552E7CFD9FF1200A6
:102EA000D9CFE6FFE1CFD9FF400E0001705D01E30D
:102EB0000AD07051EA6A500FE96E040EEA22FE0E43
:0E2EC000DBCFEFFF702BE552E7CFD9FF1200FA
:022ECE000401FD
:102ED00010511F0B010801E086D0145101E083D08E
:102EE000060E115D2EE11351230A28E0010A13E0BA
:102EF000030A01E024D00101020E4B6F01014805D5
:102F000005E10101B40E4C6F320E4D6F090E010147
:102F1000506F516B14D00101020E4B6F0101480537
:102F200005E101012E0E4C6F330E4D6F0101480576
:102F300004E17C0E0101506F516B01D000D0010102
:102F4000478304011051600BE842E842E842E8423E
:102F5000E842010801E047D011510B0A3EE0080A9F
:102F60002EE0090A26E0080A16E00B0A06E0080A25
:102F700001E039D08BEC18F036D00101710E4E6FA4
:102F8000000E4F6F010147930101506B516B01011E
:102F9000020E4B6F28D00101020E4B6F0101540E3F
:102FA0004C6F010E4D6F010147930101010E506FEF
:102FB0001AD00101020E4B6F13C454F114D0010159
:102FC000020E4B6F0101550E4C6F010E4D6F01014A
:102FD00047930101010E506F06D00101020E4B6FA5
:102FE00012C455F100D012000101566B1E0E716E15
:102FF0000401080E096F900E0A6F040E0B6F880E05
:10300000086F0401980E0E6F040E0F6F400E0C6FC8
:103010001200D9CFE6FFE1CFD9FFE652FC0EDB501C
:10302000080805E2080EF36EFC0EF3CFDBFFDF6A43
:10303000FC0EDB50DF5C19E2DF50E76EFD0EDBCFEC
:10304000E9FFFE0EDBCFEAFFE750E926000EEA2299
:10305000EF50E66EDF50EA6A980FE96E040EEA223E
:10306000E552E750EF6EDF2AE3D7FC0EDBCF0DF41D
:10307000400E04010C170C7D880E0C13E552E5522E
:10308000E7CFD9FF1200D9CFE6FFE1CFD9FF010189
:10309000566B040108BF31D0FC0EDBCF10F0095194
:1030A000D880105403E2FC0E09C4DBFF0101566B0B
:1030B000FC0EDB50565D19E25651EA6A900FE96E3C
:1030C000040EEA22EF50E66E5651E76EFD0EDBCF9E
:1030D000E9FFFE0EDBCFEAFFE750E926000EEA2209
:1030E000E552E750EF6E562BE3D70401080E096F47
:1030F000400E0817087D880E08130101565100D0B4
:08310000E552E7CFD9FF1200F0
:083108000001B889EEEC15F09E
:103110000001B89912000001B889EEEC15F0010128
:10312000020E4B6F0101500E4C6F040E4D6F0101EA
:1031300047930001B8991200D9CFE6FFE1CFD9FF3C
:10314000020EE126080EE66E570EE66E010EE66EE2
:1031500043EC18F0E552E552E552000928E0010E73
:10316000DB6A0101575108E0010E596F020E5A6FD8
:10317000DE52400EDD6E09D0010E596F020E5A6FFD
:10318000DE52040EDD6E01D000D0010EDB500FE0E8
:1031900004010CBF0CD0010EDBCFE6FF570EE66E2C
:1031A000010EE66E09EC18F0E552E552E552020E0A
:1031B000E15C02E2E16AE552E16EE552E7CFD9FF58
:1031C0001200D9CFE6FFE1CFD9FF020EE126DE5291
:1031D000010EDD6E01015F51040A11E0070A03E0F0
:1031E000010EDB6A21D0DF6A400EDF5C07E2020ECF
:1031F000E66E50EC17F0E552DF2AF6D715D0050E33
:10320000E66E50EC17F0E552060EE66E50EC17F045
:10321000E552DF6A3E0EDF5C06E2E66A50EC17F02C
:10322000E552DF2AF7D700D0010EDB50106E020EF8
:10323000E15C03E200D0E16AE552E16E1050E55234
:10324000E7CFD9FF1200D9CFE6FFE1CFD9FF020EB9
:10325000E126DE52010EDD6E72C05FF10001725197
:10326000040A06E0070A03E0010EDB6A02D001D07F
:1032700000D0010EDB50106E020EE15C03E200D0C4
:10328000E16AE552E16E1050E552E7CFD9FF120036
:103290001201100100000040AE093044100001028C
:1032A000030109022200010100A03209040000010B
:1032B00003000000092110010001227C00070581A4
:1032C000030800280403090418034A006F0065007E
:1032D00000000000000000000000000000000000EE
:1032E0002C034D00490044004900200044006500C3
:1032F0007600690063006500200000000000000007
:103300000000000000000000000000002203360062
:103310003900310032003000360030004200200019
:10332000000000000000000000000000000006FF98
:10333000FF0901A1017508950126FF00150085967A
:1033400009C0B102752085B409D2B1027510859704
:1033500009C1B1027508859809C2B1027510859935
:1033600009C3B102859C09D4B1027510859D09D5A8
:10337000B102859B09C5B102752085AF09E9B1028B
:1033800085AF09E981A276000285B009EAB102752C
:103390002085C209D6B102859A09C4B10275089583
:1033A0003F852C09040904B102C0A232A232C43202
:0833B000C832E0320C33CE2ECE
:0833B80000000000000000000D
:1033C00000000000000000000000000000000000FD
:1033D00000000000000000000000000000000000ED
:1033E00000000000000000000000000000000000DD
:1033F00000000000000000000000000000000000CD
:1034000000000000000000000000000000000000BC
:1034100000000000000000000000000000000000AC
:10342000000000000000000000000000000000009C
:10343000000000000000000000000000000000008C
:10344000000000000000000000000000000000007C
:10345000000000000000000000000000000000006C
:10346000000000000000000000000000000000005C
:10347000000000000000000000000000000000004C
:10348000000000000000000000000000000000003C
:10349000000000000000000000000000000000002C
:1034A000000000000000000000000000000000001C
:0834B000000000000000000014
:0834B800EA6AE96A0400EE6A09
:1034C000EAA6FCD712000001400EB96F0900F550C2
:1034D000EE6EB92FFBD712000001A68EA69CA68423
:1034E000A688F29E550EA76EAA0EA76EA682F28E31
:1034F0000A00020EBA6F200EB96FEE50F56E0F0083
:10350000B92FFBD7A68EA69CA684F29E550EA76E59
:10351000AA0EA76EA682BA2FEED7F28EA69412003C
:103520005CEC1AF0896A8A6A8B6A8C6A8D6A010E71
:10353000926E100E936EF80E946E956A020E966E51
:103540000001050E676FE60EAC6E900EAB6E3F0E7F
:10355000AF6EB06A400EC26E0E0EC16E860EC06EA9
:10356000200EF26E840EF16ED08ED76AD66A800E6F
:10357000D56EF28E140E6F6E0101466B0101476B22
:063580000101486B12007E
:0A358600D9CFE6FFE1CFD9FFFE0E1A
:10359000DB50A96EA69EA69CA680A85000D0E5523E
:1035A000E7CFD9FF1200D9CFE6FFE1CFD9FFFE0E5A
:1035B000DB50A96EFD0EDB50A86EA69EA69CA684CD
:1035C000F29E550EA76EAA0EA76EA6820400A6B2A2
:0E35D000FDD7F28EA694E552E7CFD9FF120088
:0235DE00D8CF44
:1035E000E4FFE0CFE4FFE46EDACFE4FFE2CFDAFFFE
:1035F000E652F2A403D0F29400016081E552E5CFD7
:0E360000DAFFE550E5CFE0FFE5CFD8FF100080
:02360E003F0675
:103610005B4F666D7D077F67777C585E79716F744D
:10362000061E003800545C7367506D071C1C007642
:023630006E5BCF
:0E363200036A080EE76ED890073603360C5078
:0E364000035C02E3036E072AE72EF7D71200A1
:02364E0017EE75
:1036500000F027EE00F0F86A0F9C15EC05F0FDD79E
:02366000120056
:053662005345512D004D
:093667000000000000000000005A
:1036700000000000000000000F00050002004B00E9
:0936800000000000000000000041
:1040000000000000000000000000000000000000B0
:1040100000000000000000000000000000000000A0
:104020000000000000000000000000000000000090
:020000040030CA
:0100000029D6
:010001000EF0
:0100020036C7
:010003000EEE
:010005008179
:010006008178
:010008000FE8
:01000900C036
:01000A000FE6
:01000B00E014
:01000C000FE4
:01000D0040B2
:00000001FF
