:020000040000FA
:0600000015EF05F01200EF
:06000800CEEF18F012001B
:060A000002EF19F01200E4
:060A0800CEEF18F0120011
:060A2A00D9CFE6FFE1CF89
:100A3000D9FF060EE12615EC18F0200EDF6EDE520F
:100A4000700EDD6E610EF36E020EF3CFDBFF720EE1
:100A5000F36E030EF3CFDBFF630EF36E040EF3CFE2
:100A6000DBFFD9CFE6FFDACFE6FFDCEC12F0E55290
:100A7000E552AA0EE66EDBEC0BF0E5520101250E05
:100A8000526FE8CF53F1050EDB6A400EF36E050E90
:100A9000DBCFF4FFF350F45C18E2050EDB50F76A8D
:100AA000F00FF66E300EF7220800F550E66E050ED8
:100AB000DB50525DEA6A120FE96E010EEA22E5523E
:100AC000E750EF6E050EDB2AE0D701010283F28EBC
:100AD000F28C32D8010100A703D00097E66A05D056
:100AE00000A907D00099200EE66E6DEC17F0E552D4
:100AF000EED700A303D00CEC19F0E9D700A104D085
:100B00000091B6EC18F0E3D7010101A104D00191E6
:100B1000F8EC0BF0DCD7010100AD03D0009D83ECB5
:100B200012F0010100AB03D0009B78EC0CF0010146
:100B300000AFCDD7009FCBD767EC11F06FBE02D0CE
:060B400083EC11F012002D
:0A0B4600020040320000AD00000084
:100B5000220000003F320000E2000000010000001F
:100B6000DEEC0AF0E652030EDF6E49EC0BF00550A6
:100B7000300FE66EDF50DF06D2EC0AF0E552E750A8
:100B8000EF6E49EC0BF0FE0E09C0DBFF09500008C8
:100B9000ECE3DF50000807E2DF50D2EC0AF0200E51
:100BA000EF6EDF06F6D7DF50D2EC0AF0200EEF6EC4
:100BB000E552E3EF0AF0DEEC0AF0040EE126D9CFAD
:100BC000E6FFDACFE6FF00019E29E66EC9DFE552B7
:100BD000E552E552500EDF6ED9CFE6FFDACFE6FFE1
:100BE00057EC0BF0C4C0B0F0C5C0B1F0040EE15C2E
:100BF00002E2E16AE552E16EE3EF0AF0DEEC0AF0B0
:100C00009EC0E6FFADC0E6FF0C0EE66E2EEC0EF0C9
:100C1000E552E552E552FE0EDB5001E0CCDFE3EF9A
:100C20000AF0DEEC0AF014EC0BF0EFCF9EF0FE0EB3
:100C3000DBCFE6FFE3DFE55200010CEC0BF0E3EF66
:100C40000AF00001A029E66EF6EC12F0E55212005F
:100C5000DEEC0AF0A1C0A3F0A2C0A4F03FEC0BF0C0
:100C6000FE0EDBCFE6FFDDDFE552EBDFE3EF0AF060
:100C7000DEEC0AF0990EE66E000EE66E99EC0BF0D3
:100C8000B0EC0BF0B9EC0CF0146E0C0EE15E1450ED
:100C90000001A06BA029E66EF6EC12F0E552FE0E04
:100CA000DB5004E03AEC0BF057EC0BF0E3EF0AF00A
:100CB000DEEC0AF0F2EC0AF0FE0EDBCFE6FFD8DF46
:100CC000E552E3EF0AF0B0EC0BF0DFEC0DF089EC4D
:100CD0000BF03AEC0BF057EF0BF00001BC5104E0C5
:100CE0003A0EE66E320E0FD0F2EC0AF03AEC0BF050
:100CF000F3CFE6FFF4CFE6FFDFEC0DF089EC0BF06D
:100D00009A0EE66E000EE66E57EF0BF0DEEC0AF080
:100D1000FFEC0AF012E1FE0EDB5015180EE1FD0E9D
:100D2000DB50C8150001166EFE0EDB500001C91520
:100D30000001176E1650171002E0000E01D0010ED0
:100D4000E3EF0AF0DEEC0AF0FFEC0AF003E1FE0E3E
:100D5000DB50151802E0000E01D0010EE3EF0AF09F
:100D6000DEEC0AF0FD0EDB500001C815146EFE0E1D
:100D7000DB50C915156EFD0EDB50141812E1FE0E86
:100D8000DB5015180EE1FD0EDB50C6150001166E86
:100D9000FE0EDB500001C7150001176E165017102C
:100DA00002E0000E01D0010EE3EF0AF00001BA519B
:100DB0000AE00001000ED880A955000EAA5503E2F2
:100DC000A907000EAA5B6DEC0BF003E2B407000E5E
:100DD000B55B51EC0BF003E2B607000EB75B000EFB
:100DE000D880B055000EB1550CE2B007000EB15BD3
:100DF000B051B11106E10001AC0502E164DF01D0A0
:100E00006CDF74EC0BF003E2B807000EB95B000E68
:100E1000D880B255000EB35551E2BB51030A22E00F
:100E2000010A0EE0030A41E1B2511F0B02E1BD517C
:100E300026D033EC0BF039E1155037E1BD5131D0FC
:100E4000B2511F0B09E1000E5CEC0BF0E552E552CC
:100E5000010E5CEC0BF020D033EC0BF026E11550CA
:100E600024E115D0B2511F0B0DE1000EB7DB010ECE
:100E7000B5DB020E5CEC0BF0E552E552030E5CECC8
:100E80000BF011D033EC0BF010E115500EE1000E19
:100E9000A5DB010EB6EC0BF0E552E552020E9EDB2F
:100EA000030EB6EC0BF0E552E5520001B207000E5E
:100EB000B35BB251B31102E10001AEDB12000001DD
:100EC000CE510EE15ADB0001A51906E11550A61915
:100ED00003E1A56BA66B1200A52B000EA623120042
:100EE0007F0E00019E5D02E19E6B12009E2B1200A0
:100EF0000001CE510BE10001A551A61103E17BECED
:100F00000BF001D0A507000EA65B120000019E5158
:100F100003E17F0E9E6F12009E0712000001CE516A
:100F200002E16DEF06F0DBEF05F00001CE5103E1C9
:100F3000E66ABEDE03D0010EE66E60DEE552120008
:100F4000A0C099F0A0C0E6FF21DB0001020EBC6F3B
:100F5000320EB86FB96B0001A06B1200AAEC0CF056
:100F6000F3CFA7F0F4CFA8F00001A16BA26BD6DB02
:100F7000E552ABDB000E0001C86FC96BC66FC76BD3
:100F8000A7EC0CF00001CB6FCA6FA3EC0CF00001D2
:100F9000AC6F120051EC0CF0F3CFC6F0F4CFC7F0F9
:100FA000A7EC0CF00001CA6FCB51CA5D13E07F0EB5
:100FB000CA15E66E00019F51EA6A8D0FE96E000EB8
:100FC000EA22EF50E66EADC0E6FF0B0EE66E31ECA6
:100FD0000EF09FDBA3EC0CF0000908E10001AC056A
:100FE00014E1AC6BA56BA66B9DDB09D00001AC5185
:100FF0000CE1010EAC6FA16BA26BE66E39DEE5521F
:101000000001A06BE66A24DEE552A0DB31E00001BE
:10101000A151A31929E1A251A41926E19905A05DC6
:1010200022E1AC510EE1A9DAA51906E11550A61985
:1010300003E1A56BA66B03D0A52B000EA62372DBE4
:101040000DD09BDAA11906E11550A21903E1A16B9D
:10105000A26B03D0A12B000EA22360DBE55200019E
:10106000A06BE66A03D0A02B010EE66EF1DDE5521F
:101070000001AC51010A01E16FD1010A01E058D22F
:101080000001BC51020A01E14DD1030A01E115D171
:10109000010A01E04DD2010E50DA08E000019F6B19
:1010A0000001CE0502E10CDB01D040DB020E45DA87
:1010B00009E00001010E9F6F0001CE0502E100DB97
:1010C00001D034DB040E39DA09E00001020E9F6F13
:1010D0000001CE0502E1F4DA01D028DB080E2DDA9A
:1010E00009E00001030E9F6F0001CE0502E1E8DA7E
:1010F00001D01CDB0001CE0537E1B451B51120E170
:10110000CD511EE1010E2FDA09E1020E2CDA06E1C3
:10111000040E29DA03E1080E26DA12E00001010EBE
:10112000CD6F82DA9EC0EFFF99C0E6FF2FDAFEDABC
:101130000001010EBB6F9FC0BDF0640EB26FB36BB8
:10114000010E16DA09E1020E13DA06E1040E10DAD6
:1011500003E1080E0DDA08E0C0DA06E2CD5104E141
:10116000E5DA0001B46BB56BF1DA09E0F6DA07E114
:101170000001B651B71103E11E0EB66FB76B000147
:10118000BA510FE1EADA0DE0E8DA0BE10001B651FD
:10119000B71107E10001A96BAA6BAB6B0001010E4F
:1011A000BA6FECDA08E000017CDA02E288DEB6DE33
:1011B0000001BA6BBADECADA09E0CFDA07E1000152
:1011C000B651B71103E11E0EB66FB76B0001BA51ED
:1011D0000FE1C3DA0DE0C1DA0BE10001B651B7113E
:1011E00007E10001A96BAA6BAB6B0001040EBA6F9B
:1011F000C5DA08E0000155DA02E27ADE8FDE00018E
:10120000BA6B93DEA3DA04E01E0E0001B86FB96B6F
:10121000A4DA0DE00001B851B91109E1BC5107E1B0
:10122000010EBC6F0001A06B040E9F6F56DDA6DAA5
:101230000FE05ADA0DE2CE5104E1010ECE6F030E3B
:1012400002D0CE6B020EBB6F640EB26FB36B66DE64
:101250000001BA5101E16CD10001A951AA1101E0CC
:1012600067D10001BA51060A25E0030A1DE0010A10
:1012700015E0070A11E0010A09E0030A01E058D16C
:101280001EDEE6D9050801E029D1F5D018DEE0D947
:10129000140801E039D101D112DE0DD029DED8D9F0
:1012A000050801E01BD115D123DED2D9140801E0D5
:1012B0002BD125D11DDE32DE37D1010E3ED908E01B
:1012C00000019F5105E09F6B010E3CD901E138DE22
:1012D000020E33D908E000019F0505E0010E9F6F63
:1012E00031D901E12DDE040E28D90AE0020E0001F9
:1012F0009F5D06E0020E9F6F010E24D901E120DE02
:10130000080E1BD90AE0030E00019F5D06E0030EE4
:101310009F6F010E17D901E113DE18DA01E108D140
:101320000FDE06D1B851B91101E002D10001995187
:10133000A05D04E10001BC6BC8D9FAD082DC9FD962
:101340006BD972D9EFCF9EF036DC0001A02B320EA4
:101350000001B86FB96BECD0010EEFD803E00001CB
:101360009F6BE4D9020EE9D804E00001010E9F6FE3
:1013700008DA040EE2D804E00001020E9F6FD6D90D
:10138000080EDBD804E00001030E9F6FCFD9DED931
:101390000EE0DFD906E11550A21903E1A16BA26BA3
:1013A00003D0A12B000EA22347D9010EBA6FE6D9B4
:1013B00001E0A8D9CBD90CE00001A151A21102E1B2
:1013C00006D901D0A107000EA25B36D9040EBA6F70
:1013D000D5D901E097D9BAD929E00001A151A319C3
:1013E00021E1A251A4191EE1A0511BE1AC510AE177
:1013F000A551A61102E17FD901D0A507000EA65B79
:1014000091D909D0A151A21102E1E1D801D0A107DF
:10141000000EA25B83D9E55200019905A06FE66A30
:1014200003D0A007010EE66E13DCE5520001BA51AD
:1014300001E17ED00001A951AA1101E079D000019B
:10144000BA51060A66E0030A4EE0010A36E0070ACE
:1014500028E0010A14E0030A6BE17BD906E115508C
:10146000A21903E1A16BA26B03D0A12B000EA22352
:10147000F4D8050833E1AB6B0001020E2DD069D919
:1014800006E11550A21903E1A16BA26B03D0A12BB9
:10149000000EA223E2D8140837E1AB6B0001030E63
:1014A00031D057D906E11550A21903E1A16BA26B07
:1014B00039D0A12B000EA22335D00001A151A211D9
:1014C00002E185D801D0A107000EA25BC6D80508AD
:1014D00005E1AB6B0001050EBA6F16D0BEC0A9F0D6
:1014E000BFC0AAF025D00001A151A21102E16FD81E
:1014F00001D0A107000EA25BB0D8140805E1AB6BC8
:101500000001060EBA6F10D0C0C0A9F0C1C0AAF089
:101510000FD00001A151A21102E159D801D0A107B9
:10152000000EA25B63EC06F0C2C0A9F0C3C0AAF033
:10153000C6C0C8F0C7C0C9F01200E66EE66A86EC05
:1015400006F018D11ED90001A051A02BEA6A910F14
:10155000E96E000EEA229FC0EFFF21EC06F0080EB4
:101560000001A05D1200E66EE66AA2EC06F002D170
:10157000E66EE66AB0EC06F0FDD0A7C014F0A8C095
:1015800015F01406000E155A14501200D2D8A1C03E
:10159000E6FFA2C0E6FF25EC0DF0146E090EE15E39
:1015A00014501200E76EFC0EDBCFE9FFFD0EDBCF1F
:1015B000EAFFE750E926000EEA221200D9CFE6FF43
:1015C000E1CFD9FF1200E552E7CFD9FF1200A7C043
:1015D000A1F0A8C0A2F0010EA15F1200C7D8E55289
:1015E000E5521200A5C0E6FFA6C0E6FFF2EC0DF042
:1015F000E552E552F3CFA1F0F4CFA2F01200FD0EB8
:10160000DB500001C615146EFE0EDB50C715156EBB
:10161000FD0EDB50141812009F51E66EE66A7DEC59
:101620000CF0E552E552120000019F51EA6A890F61
:10163000E96E000EEA22120063EC06F00001BA6BBC
:10164000BEC0A9F0BFC0AAF00001AB6B0001120040
:1016500065DC0001AB51AB2B120063EC06F000011E
:10166000AB51AB2B12001F0EB215146E156A0F0E84
:10167000141812009A0EE66E000EE66E12000001BB
:10168000A051EA6A910FE96E000EEA22EFCF9FF0B7
:1016900012000A0E146E0E6EFE0EDBCF09F0F4EF90
:1016A00018F0000ED880B655000EB7551200E9ECC0
:1016B00012F0E552E5521200E66EE66A8AEF0CF08F
:1016C0001E0EB46FB56BCD6B12000001A06B010E46
:1016D000E66E28EC06F0E55212000001000ED880FC
:1016E000B455000EB55512000001000ED880B85553
:1016F000000EB9551200A7C0A5F0A8C0A6F0010EB3
:10170000A55F12000001BA6BE66A38EC06F0E552FC
:101710001200E552E552E552E5521200010EE66E66
:1017200038EF06F0010EE66E58EF06F0010EC1EF3D
:101730000BF0910EE66E000EE66E8D0EE66E000E5C
:10174000E66E890EE66E000EE66E1200000E9DEF4C
:101750000AF013DF0001A1191200000EB3EF0AF026
:1017600089DFA1C0E6FFA2C0E6FF1200E66EE66ACE
:1017700095EF0CF0E552E55200091200000EB8EFAB
:0C1780000AF0E66E11EC06F0E5521200D3
:04178C0091DAE652B6
:10179000FE0EDB50C26E0A0EDF6EDF5002E0DF0687
:1017A000FCD7C282C2B2FED7C450E55286D280DADC
:1017B000FE0E2EDB82D27CDAE652080EDF6E8984C2
:1017C00089948992FE0EDBBE02D0899601D089866B
:1017D000B4DA8982DF06F5E18984100EDF6EDF500E
:1017E00002E0DF06FCD7899489868982E55265D2BA
:1017F0002FDBDE52010EDD6E030EDB6ADF6ADF5087
:1018000006081DE3DFCFE6FF40D8E552050EF36E74
:10181000020EF3CFDBFFDB5003E0020EDB06FBD74B
:1018200084A209D0030EDBCFE7FF010EDB50E712E5
:10183000030EE7CFDBFF010E80DADF2AE0D7030ECD
:10184000DBCF0AF101010B6B0C6B0D6BD8900A37E3
:101850000B370C370D370B690C690D6981B80A819C
:101860000A1F0B1F0C1F0D1F070EDF6EDFCFE6FFD9
:101870000CD8E5520101028184B20291040EE15CB0
:1018800002E2E16AE552E16E18D212DA8998899A89
:101890008D90FE0EDBB08988DBB2898ADBB48D8047
:1018A0000CD2D6DADE6ADE6ADE6ADD6ADD52DD522D
:1018B0000AC114F0F00E1416156A166A176A030EA0
:1018C00014C0DBFF0AC114F00F0E1416156A166A55
:1018D000176A1450DF6EDFCF14F0010EDBCF15F066
:1018E0003ADA040EE15C02E2E16AE552E16EE5D12A
:1018F00009C1E6FF60DFE5521200DAD90101096B88
:101900002FDA04E0D890F336E806FCE1F350010149
:101910000913D3D1CDD924DA04E0D890F336E80600
:10192000FCE1F35001010913C8D1C2D919DA04E06E
:10193000D890F336E806FCE1F350146EFF0EF3186E
:1019400001010917BAD101010251010B1200010175
:101950000E511200ADD9020E46DADECF14F0DDCF03
:1019600015F0F9D9020EE15C02E2E16AE552E16E9E
:10197000A4D19ED9B2D962E200DA040E77D97F0BE6
:10198000E66E92DABFD9050E89DA84DA060E6ED9D0
:10199000CAD980DA070E85DA7DDA080E67D97F0B9F
:1019A000E66E87DAAFD9090E79DA76DA0A0E5ED9F1
:1019B000BAD972DA0B0E75DA6FDA0C0E57D9070B3B
:1019C000010FE66EF30EDBCFE9FFF40E9BD9060E96
:1019D000146E0D0E2ADA04E0E8427F0BE706FCE104
:1019E000E66EF50EDBCFE9FFF60E8CD90D0E23DA8D
:1019F000010ED7D90D0E12DA020ED3D90D0E36D93B
:101A0000030BE66E030ECDD9060E146E0E0E0DDA24
:101A100004E0E8427F0BE706FCE1E66E040EC1D964
:101A20000E0E09DA050EBDD90E0EF8D9060EB9D97B
:101A30000E0E1CD9030BE66E070EB3D9040EE15C43
:101A400002E2E16AE552E16E38D132D9460EE12672
:101A50001DD9400E14C0DBFF410E15C0DBFF74D949
:101A6000C00E1416FF0E1516420E14C0DBFF430EF7
:101A700015C0DBFF3F0EE76E67D9E7501416156AF5
:101A8000440E14C0DBFF450E15C0DBFF420EDBCF5A
:101A9000E6FF430EDBCFE6FF77D8E552E55212DAD8
:101AA000DBCFEAFFEF50E66E040E5FD9010E86D958
:101AB000050E5BD9020E82D9060E57D9030E7ED9C8
:101AC000070E53D9F1D9DBCFEAFFEF507F0BE66E5B
:101AD000080E4BD9010ED8D9090E47D9020ED4D918
:101AE0000A0E43D9030ED0D90B0E3FD9F60EDB04F4
:101AF000070BE66E0C0E39D9030EAED9166E020E28
:101B0000ABD9040DF3CF15F0010EA6D9100DF3CF0C
:101B100014F0CFD9DBCFEAFFF8D80D0E26D9070E87
:101B20009BD9166E060E98D9040DF3CF15F0050E4D
:101B300093D9100DF3CF14F0040EE76E39D9E5D820
:101B40000E0E13D90001E251146E156A58D915C052
:101B50000EF098EC18F006C087F007C088F0400E31
:101B600000018727000E8823C00E8717FF0E8817F5
:101B700098EC17F0010100870089460EE15C02E253
:101B8000E16AE552E16E99D093D8E652DF6A400EE1
:101B9000DF5C13E2FD0EDBCFF6FFFE0E52D908002C
:101BA000F550E66EDF50EA6A670FE96E000EEA2232
:101BB000E552E750EF6EDF2AEAD7E5527ED048D9EA
:101BC000000EE96E430EEA6EEECFDEFFEDCFDDFFD5
:101BD000FBD801E2D2D8040EE15C02E2E16AE552F0
:101BE000E16E6BD065D879D803E3F36AF46A2FD03D
:101BF0000001E251186E196AE2C008F019C009F03C
:101C0000DECF0DF0DDCF0EF098EC18F006C016F028
:101C100007C017F0400E1626000E1722020E086E9F
:101C2000096AFD0EDBCF0DF0FE0EDBCF0EF098EC57
:101C300018F016500624146E17500720156E41D860
:101C40000900F5CF14F00800F5CF15F084D8040E84
:101C5000E15C02E2E16AE552E16E2FD029D841D879
:101C60002CD026D83ED8FB0ED3D827D0E76E020E54
:101C700034EF0FF0DBCFEAFFE750E926000EEA224F
:101C80001200670EE926000EEA2218D10001E25187
:101C9000166E176AB4D817C00EF098EC18F006C08C
:101CA00014F007C015F0400E1426000E1522120085
:101CB000D9CFE6FFE1CFD9FF1200E552E7CFD9FF38
:101CC0001200020E14C0DBFF030E15C0DBFF020E74
:101CD000DBCFF6FF030E21EF0FF0040E84D8E4EF04
:101CE0000EF0FD0EDB500F0B146EFE0EDB500F0BD3
:101CF000100DF3501410E66EFAEC17F0E552FC0EDE
:101D000008EF0FF0DBCFEAFFD9D0EF50030B400D07
:101D1000F350141015101610E66E12007F0BE66ECD
:101D2000010EE76E12007F0BE66E020EE76E1200E8
:101D30007F0BE66E030EE76E1200DBCFF3FFF39E20
:101D4000F346F3CFDBFF1200400EDBCF14F0410E61
:101D5000DBCF15F0120014C0F3FF15C0F4FF120022
:101D6000010EF36EFD0EDB501200E76E440EDBCF6A
:101D7000E9FF450E7FDF41EF0EF088DFA2DF0800AC
:101D8000F5507F0BE66E9ED8BDDF010E87D869D86F
:101D9000020EE76E69D8C7DF64D8030E82D831EF30
:101DA0000FF0E76EF50EDBCFE9FFF60E63DF86D0AE
:101DB00080D83AEF0EF078D83AEF0EF0E76E82D87E
:101DC00059DFEF50E66E1200FD0EDBCF14F0FE0E71
:101DD000DBCF15F0DECF16F0DDCF17F01650145C18
:101DE000175015581200E126000EF66E430EF76EDE
:101DF0000900F5CFDEFF0A00F5CFDDFF1200FD0E72
:101E0000DBCF08F0FE0EDBCF09F0E2C00DF01200D0
:101E1000DBCFE6FFFAEC17F0E552120027DF0C0BE0
:101E2000E840E8403F0BE66E120020DFC00B14C014
:101E3000E7FFE75212001ADF300BE8380F0BE66EAF
:101E40001200DBCFF7FF000EF626430EF72212003A
:101E50002FDF040EE1261200E76EAADFEF50030B1E
:101E6000120030D807DF2AD0DBCFF6FF030EDBCF1E
:101E7000F7FFE750F626000EF722000EF626430E77
:101E8000F7220800F5501200E76E95DFEF507F0B48
:101E9000E66E120090DF12D08BDF10D0E7DE8EEFFF
:101EA0000EF0E4DE98EF0EF0F90EDBCFE9FFFA0E4C
:101EB0001200F70EDBCFE9FFF80E1200E552E750F3
:0E1EC000EF6E1200FB0EDBCFE9FFFC0E1200EE
:021ECE0004010D
:101ED0001051600BE842E842E842E842E84200095B
:101EE00001E012001151070A3CE00B0A3AE0070A30
:101EF0002FE0010A21E00B0A1DE0020A1BE0030AA1
:101F000017E0080A0FE0010A0BE00F0A07E0030AD6
:101F100001E01200DDDA040ECF6F1200B2EF0FF015
:101F2000EAEF0FF0D5DAD10ED56F000ED66F0CD0D8
:101F300000EF10F02EEF10F0E2DA0001D56FD66B53
:101F4000D20ED527000ED623D093010ED96F1200E2
:101F5000D6DAEA6AD20FE96E000EEA2212C4EFFF67
:101F600012001200800E0401105D33E11351030AC8
:101F70001EE0010A09E0030A23E1AADAA60ED56FE2
:101F80002C0ED66F120E1AD070DAC00EF6262D0E59
:101F900085DA020E0001F76AD525F66ED651F722D2
:101FA0000900F5CFD9F00A00F5CFDAF009D05DDAF3
:101FB000C40EF6262D0E72DA79DA0001D96FDA6BCB
:101FC000020E0401125D05E0030E125D02E0000145
:101FD000D08312007DDA42DA010EE66ED20EE66E92
:101FE000000E87DA12C4D1F00401125104E100019D
:101FF000050ECF6F12000001060ECF6F25EF15F012
:102000000401506B516B10511F0B020A0FE0030AC1
:102010000BE0010A18E15CDA040150810001D0A153
:1020200012D0040150830FD053DA0DD003DA01E04F
:10203000010E2BDAD7C0E9FFEA6EEF50040B03E084
:102040000401010E506F0001D40507E1500ED56F59
:10205000040ED66FD093020ED96F12000401120540
:102060000EE110511F0B00090AE132DA030E0401E0
:10207000115D03E10001D08102D00001D091040183
:1020800012511DE110511F0B020819E114510F0BE1
:10209000000915E0CFD901E0010EF7D9030E0401C4
:1020A000115D03E1840E6CEF12F014AF06D0D7C0BF
:1020B000E9FFD8C0EAFFEF6A1200880E0DDA1200BD
:1020C0006C500BE1040100513C0BE842E8420D0862
:1020D00002E172EF10F0A3EF10F0040E6C5C01E16E
:1020E00041D81200D9CFE6FFE1CFD9FFE652000177
:1020F000D36BD46BD96BDA6BEADEDF6ADF50146E18
:10210000156A010E145C000E15581AE20001D45134
:1021100017E1F76ADF34FE0BF736F66ECC0EF626C3
:102120002D0EF7220900F5CF14F00800F5CF15F0B9
:1021300004D015C0FAFF1450F96EFBDFDF2ADED79A
:1021400089D8E552C1D1020E0001D35D09E162D800
:10215000040100BD02D0C80E01D0880E006F12002D
:1021600060EF11F0040E0001CF5D09E112C46EFFB3
:102170006E50000802E2050E01D0030ECF6FD305AA
:1021800009E110D8040104BD02D0C80E01D0880EA8
:10219000046F1200090E0401115D02E1B0EC15F0AC
:1021A00060EF11F08AD90001400ED95D000EDA59B6
:1021B00005E2D9C0DEFFDAC0DDFF03D0400EDE6EDF
:1021C000DD6A040104930491010EDB500413DFCF98
:1021D00005F4000EDB500001D95F010EDB50DA5B25
:1021E000500ED76F040ED86FD0A307D047D90BE09D
:1021F0005DD917D9FBE2DB06F9D740D904E072D9E3
:10220000FCE2DB06FAD7020EE15C02E2E16AE5528B
:10221000E16E5AD152D9030E04010015E76E010E8A
:10222000E7CFDBFF01C4DFFFDE500001D927DD501F
:10223000DA23500ED56F040ED66F20D904E052D9A0
:10224000FCE2DB06FAD7020EE15C02E2E16AE5524B
:10225000E16E3AD10001D45104E1F8D8840E006F48
:102260001CD0040110AF1BD00001D9510401165D30
:102270000001DA510401175904E216C4D9F017C459
:10228000DAF090DF0001010ED36FE0D8800E006F0E
:10229000500E066F040E076FC80E046F0FD00001BA
:1022A000020ED36F0401056BC80E046F400E016F60
:1022B000500E026F040E036FC80E006F6D9812006F
:1022C0000001D36BC3D8880E006F046B12006DA69B
:1022D0000CD80001CF0508E16DBA06D0686A696ABA
:1022E00069806988020ECF6F12006D6A696A6D8617
:1022F0000001010ECF6F12006D6A696A0001CF6B99
:1023000012007CEF11F00001CF5101E11200685082
:10231000040B04E06950040B01E038D86DB21200E0
:102320006850010B04E06950010B01E04FD8685080
:10233000100B04E06950100B01E023D86850400BEB
:1023400004E06950400B01E037D86850200B04E0EE
:102350006950200B01E032D86850020B04E069504C
:10236000020B01E031D8030E0001CF5D01E2120043
:102370006850080B05E06950080B02E0A1DE689682
:102380001200698468986D82A19A12006D92699416
:10239000689412000001D0A10ED0F8DF6D84000116
:1023A000080EDB6F070EDC6FDB07000EDC5BDB511A
:1023B000DC11FAE16D941200689C120070A002D04A
:1023C0007FDF7090689A1200689212006A6A686AE9
:1023D0009F0E6B6E7B0E696E6E6A40D8160E706E25
:1023E00068A602D06896FCD76D986ADF0001D0918C
:1023F000D16B030ECF6F1200D9CFE6FFE1CFD9FF2B
:10240000FD0EDBCFE9FFFE0EDBCFEAFFFC0EDB505B
:1024100004E0EE6AFC0EDB06F9D7E552E7CFD9FF00
:1024200012005AD8D72B000ED823D52BD623DF067F
:10243000010E120064D80F0B080DF350156A000F3F
:10244000146E040E15221451800B12000401400E6C
:10245000016F100E026F040E036F12000F0EE66E76
:10246000710EE66E0F0E79EF12F032D804011251A0
:10247000F66EF76AD890F636F7361200D9CFE9FF34
:10248000DACFEAFFEE50ED101200040DF350000118
:102490001424D76F000E1520D86F1200F722090000
:1024A000F5CFD5F00A00F5CFD6F01200D5C0F6FF73
:1024B000D6C0F7FF0800F5501200D9CFE6FFE1CFF4
:1024C000D9FF020EE1261200E552E7CFD9FF120034
:1024D0000001010ED46F1200D7C0E9FFD8C0EAFF97
:1024E000EF6E1200D5C0E9FFD6C0EAFFEF5011EF42
:1024F00012F0E66E81DFE552E552E5521200E8DFA8
:0625000004011451120059
:0A25060022D80001E151040A10E0A0
:10251000070A0CE0010A08E0030A04E0010A0DE1E1
:102520008A9A07D08B9005D08A9603D08A9401D0DE
:102530008A92E1C0E6FF18D8E5520001E12B0101C3
:1025400008510001E15D01E3E16B12008A908C9E6D
:102550008C9C8C9A8C988B948C968C948A8A8B8089
:102560008A868A848A821200CDD8E652FE0EEDD881
:10257000EFCFDFFFC1D8010B01E08A80BDD8020B8D
:1025800001E08C8EB9D8040B01E08C8CB5D8080B17
:1025900001E08C8AB1D8100B01E08C88ADD8200BFB
:1025A00001E08B84A9D8400B01E08C86A5D8800B74
:1025B00001E08C84E552ABD0CFD8050EBFD802E243
:1025C0007FD8FBD7020EE15C02E2E16AE552E16EE0
:1025D0009ED0C2D8040EB2D802E272D8FBD7020E47
:1025E000E15C02E2E16AE552E16E91D08BD8FE0E29
:1025F000DB50300FE66E04D8E5520101076F87D03B
:1026000081D8410E94D80BE3610E91D802E3610E9C
:1026100001D0410E80D8CE0FF66E310E08D0300EAC
:1026200086D80BE3300E77D8C40FF66E310EF72242
:102630000800FE0EF5CFDBFF05D0FE0EDB502008B4
:10264000FE0EDB6ADB5063D05DD8060EE126050E78
:10265000DB6AF36EDBCFF4FFE850F45C1DE2050E9D
:10266000DB5001015325EA6A120FE96E010EEA22DE
:10267000EF50E66ED9CF14F0DACF15F0050EDB502F
:102680000F01D924E96E000EDA20EA6EE552E75018
:10269000EF6E050EDB2ADDD7D9CFE6FFDACFE6FFF6
:1026A0008BDFE552E55201015307535102E152C15C
:1026B00053F1060EE15C02E2E16AE552E16E27D0D9
:1026C000010EDB50E76EFD0EDBCFE9FFFE0EDBCF28
:1026D000EAFFE750E926000EEA22EFCFDFFFDFCF67
:1026E000E6FF8EDFE552E66E010E2FD8E552E75089
:1026F000EF6E010EDB2A1200D9CFE9FFDACFEAFF35
:10270000EF501200D9CFE6FFE1CFD9FF1200E5521A
:10271000E7CFD9FF1200146EFE0EDBCFE7FF145097
:10272000E75EFE0EE7CFDBFFDB50F76A1200F36EC9
:10273000FE0EDBCFF4FFF350F45C1200F36E010EDB
:10274000DBCFF4FFF350F45C1200DB50EA6A030FB6
:10275000E96E010EEA221200D5DF020EE126010E1B
:04276000DB6A12001E
:0C276400D9CFE6FFE1CFD9FF110EE1262E
:102770000101A1690101010E606F620EDE6E010EA2
:10278000DD6E040111056BE11251B40A56E0760AC0
:1027900047E0590A3FE0020A36E0010A25E00F0A45
:1027A0001CE0010A14E0BA0A09E0830A58E1CFD814
:1027B000E66ACAD8E66AC8D8E66A2FD0C8EC15F02F
:1027C000000902E0C4D84BD00101A16948D0BFD8AC
:1027D000A0A845D0010EA16F3FD0B9D860C0E6FFD8
:1027E000B3D861C0E6FF39D0B2D8040E62C0DBFFB7
:1027F000050E63C0DBFF040EDBCFE9FF050EDBCF68
:10280000EAFFEF5018D0A3D862C0E6FF9DD863C09E
:10281000E6FF23D09CD8030EE66E96D8E66A1DD05C
:1028200096D80A0EE66E90D8140EE66E8DD8230E5A
:10283000E66E8AD8690EE66E10D089D8A0B803D0AB
:10284000F29EF29C0CD0010EA16FE6687DD8E6687E
:102850007BD8E6685BD8E552E66858D8E552090EA1
:102860000401115D3AE11251B40A34E02E0A32E05B
:10287000030A29E0010A1FE00F0A16E0010A0DE031
:10288000BA0A2BE101EC16F0000903E00101020E87
:1028900002D00101010EA16F20D00101020EA16F33
:1028A000A0A81BD0010E18D047D8EFCF60F053D8A6
:1028B000EFCF61F012D040D8EF5062C0E9FF63C0A3
:1028C000EAFFEF6E0AD038D8EFCF62F044D8EFCFEE
:1028D00063F003D00101020EA16FFF0E0101A15DA3
:1028E0000BE0090E0401115D07E012C450F4010170
:1028F00060510001D96FDA6B110EE15C02E2E16A0E
:10290000E552E16EE552E7CFD9FF1200D9CFE6FFDD
:10291000E1CFD9FF400E0101605D0AE26051EA6A31
:10292000500FE96E040EEA22FE0EDBCFEFFF602BA4
:10293000E552E7CFD9FF12000101020EA16FDECFF1
:10294000E9FFDDCFEAFF1200E1DFE55212000101ED
:10295000050EA16F1200DECFE9FFDDCFEAFF010E09
:08296000E926000EEA22120034
:08296800040110511F0B0108CE
:1029700001E01200145101E01200060E115D24E185
:102980001351230A1FE0010A0DE0030A1BE1E4D8FA
:102990000001D10505E10001CA0ED56F2C0ED66FDE
:1029A000090E0DD0D9D80001D10505E10001440E72
:1029B000D56F2D0ED66F0001D10504E17C0E00010C
:1029C000D96FDA6B0001D08304011051600BE8422B
:1029D000E842E842E842E842010801E012001151F1
:1029E0000B0A2FE0080A21E0090A1BE0080A13E09D
:1029F0000B0A05E0080A01E01200B7EF15F000012C
:102A0000610ED76F010ED86F0001D0930001D96B12
:102A1000DA6BACEF15F0A0D80001DD0ED56F000E1B
:102A200009D09AD813C4DDF0120096D80001DE0E4A
:102A3000D56F000ED66F0001D0930001010ED96F43
:102A400012008AD812C4DEF012000001DF6B1E0EE5
:102A5000716E0401080E096F900E0A6F040E0B6F61
:102A6000880E086F0401980E0E6F040E0F6F400E53
:102A70000C6F1200D9CFE6FFE1CFD9FFE652FC0E72
:102A8000DB50080805E2080EF36EFC0EF3CFDBFF07
:102A9000DF6AFC0EDB50DF5C0FE2DF5051D8EF50F5
:102AA000E66EDF50EA6A980FE96E040EEA22E552FC
:102AB000E750EF6EDF2AEDD7FC0EDBCF0DF4400EB2
:102AC00004010C170C7D880E0C13E552E552E7CF7C
:102AD000D9FF1200D9CFE6FFE1CFD9FF0001DF6BAC
:102AE000040108BF27D0FC0EDBCF14F00951D880B9
:102AF000145403E2FC0E09C4DBFF0001DF6BFC0E83
:102B0000DB50DF5D0FE2DF51EA6A900FE96E040EE1
:102B1000EA22EF50E66EDF5113D8E552E750EF6E30
:102B2000DF2BEDD70401080E096F400E0817087D52
:102B3000880E08130001DF51E552E7CFD9FF1200DC
:102B4000E76EFD0EDBCFE9FFFE0EDBCFEAFFE750BD
:102B5000E926000EEA2212000001020ED46F1200D4
:102B600000016689B2EC13F00001669912000001C1
:102B70006689B2EC13F00001020ED46F0001500E12
:102B8000D56F040ED66F0001D09300016699120034
:102B9000D9CFE6FFE1CFD9FF020EE126DE52010ECA
:102BA000DD6EE0C0E6FF7BD80001E051320A17E19C
:102BB00064C0E6FF74D865C0E6FF71D8DF6A200EF6
:102BC000DF5C0DE2DF500001F76A6425F66E6551A7
:102BD000F7220800F550E66E62D8DF2AF0D7400EE3
:102BE0000101605D05E2E66A5AD80101602BF7D762
:102BF000010EDB50146E020EE15C02E2E16AE55266
:102C000048D0D9CFE6FFE1CFD9FF040EE126DE524E
:102C1000010EDD6E62C1E0F001016251320A2CE06A
:102C2000030A09E0010A2CE163C187F064C188F05E
:102C300098EC17F025D063C187F064C188F0DF6A93
:102C4000200EDF5C14E2040EDF24EA6A610FE96EF5
:102C5000010EEA22EF50E66EDF50EA6A670FE96E76
:102C6000000EEA22E552E750EF6EDF2AE9D7E66A66
:102C70006DEC17F0E55204D063C164F064C165F0F7
:102C8000010EDB50146E040EE15C02E2E16AE552D3
:102C900000D0E16E1450E552E7CFD9FF120086EC68
:062CA00014F0E5521200E1
:0A2CA6001201100100000040AE0909
:102CB000304410000102030109022200010100A0BA
:102CC0003209040000010300000009211001000185
:102CD000227C000705810308002804030904180367
:102CE0004A006F00650000000000000000000000C6
:102CF0000000000000002C034D0049004400490082
:102D00002000440065007600690063006500200033
:102D100000000000000000000000000000000000B3
:102D20000000220336003900310032003000360046
:102D30003000420020000000000000000000000001
:102D40000000000006FFFF0901A10175089501269A
:102D5000FF001500859609C0B102752085B409D21F
:102D6000B1027510859709C1B1027508859809C22D
:102D7000B1027510859909C3B102859C09D4B102CD
:102D80007510859D09D5B102859B09C5B1027520D5
:102D900085AF09E9B10285AF09E981A27600028514
:102DA000B009EAB102752085C209D6B102859A0937
:102DB000C4B1027508953F852C09040904B102C00D
:0E2DC000B82CB82CDA2CDE2CF62C222D68292B
:022DCE00000003
:102DD00000000000000000000000000000000000F3
:102DE00000000000000000000000000000000000E3
:102DF00000000000000000000000000000000000D3
:102E000000000000000000000000000000000000C2
:102E100000000000000000000000000000000000B2
:102E200000000000000000000000000000000000A2
:102E30000000000000000000000000000000000092
:102E40000000000000000000000000000000000082
:102E50000000000000000000000000000000000072
:102E60000000000000000000000000000000000062
:102E70000000000000000000000000000000000052
:102E80000000000000000000000000000000000042
:102E90000000000000000000000000000000000032
:102EA0000000000000000000000000000000000022
:102EB0000000000000000000000000000000000012
:0E2EC000000000000000000000000000000004
:022ECE00550E9F
:102ED000A76EAA0EA76EA68212004CD8E652E00E8C
:102EE00000018717840EA66EFE0EDB50DF6EFE0E0D
:102EF000DB50200FDF5C1AE2DF50EA6A670FE96EF1
:102F0000000EEA22EFCF14F0DF500001F76A8725A8
:102F1000F66E8851F722F86A14C0F5FF0C001F0EF8
:102F2000DF141F0801E1D3DFDF2AE1D7E55227D004
:102F3000940EA66E87C0F6FF88C0F7FFF86AC7DF59
:102F4000F86A120017D8A66AFE0EDB50A96EA6809A
:102F5000A85015D00FD8A6A202D0000E0AD0FE0E9F
:102F6000DB50A96EFD0EDB50A86E040EA66EAFDF1F
:102F7000010E05D0D9CFE6FFE1CFD9FF1200E5520F
:062F8000E7CFD9FF1200AB
:0A2F8600D9CFE6FFE1CFD9FF050E19
:102F9000E1269EBA13D001015E5101015F5D02E19D
:102FA0003FD81ED09EA81CD05F51EA6A560FE96E2A
:102FB000010EEA22EF50AD6E5F2B12D0AB50020B28
:102FC00003E1AB50040B0AE0AB98010EAECFDBFF80
:102FD000AECFDBFFAB880001669302D0AE50DF6E50
:102FE000050EE15C02E2E16AE552E16EE552E7CFEF
:102FF000D9FF1200D9CFE6FFE1CFD9FF080E0101BA
:103000005E5D0AE25E51EA6A560FE96E010EEA223F
:10301000FE0EDBCFEFFF5E2BE552E7CFD9FF1200AC
:0A30200001015E6B01015F6B1200FD
:06302A0016EC19F0896AA2
:103030008A6A8B6A8C6A8D6A010E926E100E936E8C
:10304000F80E946E956A020E966E0101050E086FD9
:10305000E60EAC6E900EAB6E3F0EAF6EB06A400ED9
:10306000C26E0E0EC16E860EC06EF26A800EF16EDA
:10307000D08ED76AD66AD56ACC6AF90ECB6E0D0EA1
:10308000CA6E020E9D6EF28E140E6F6E0001CF6B33
:0A3090000001D06B0001D16B1200AB
:06309A00D9CFE6FFE1CFF3
:1030A000D9FFFE0EDB50A96EA69EA69CA680A85056
:1030B000E552E7CFD9FF1200D9CFE6FFE1CFD9FF24
:1030C000FE0EDB50A96EFD0EDB50A86EA69EA69CE0
:1030D000A684F29E550EA76EAA0EA76EA6820400C5
:1030E000A6B2FDD7F28EA694E552E7CFD9FF120023
:1030F000202020207072696E6365737320636F6E89
:103100007375656C612062616E616E612068616ECD
:103110006E6F63202000000000000000000000002F
:10312000000000000000000000000000000000009F
:1031300008C012F008500D02F4CF07F0F3CF06F0EC
:1031400009500E02F4CF09F0F3CF08F00D02F3504E
:103150000726F4500822E86A092212500E02F350A2
:0C3160000726F4500822E86A0922000C3F
:04316C000101008DD0
:103170000101102B0A0E105D10E1106B010101819D
:103180000101008F0101112B640E115D06E1116B2D
:0C319000010102A302D024EC13F0120095
:04319C00DACFE4FFA3
:1031A000E6529EA20BD09E920101008101010F2BDD
:1031B000040E0F5D03E10F6B01010081E552E5CFC5
:0431C000DAFF110021
:0C31C4003F065B4F666D7D077F67777CE0
:1031D000585E79716F74061E003800545C73675036
:0831E0006D071C1C00766E5BFC
:0831E800056A080EE76ED8909D
:1031F000093605360E50055C02E3056E092AE72EF6
:04320000F7D71200EA
:0C32040017EE00F027EE00F0F86A019CC5
:0832100015EC05F0FDD71200DA
:0832180001010093010EE66EB6
:0C322000C6EC0BF0E55201010E6F12002D
:04322C00EA6AE96AF7
:0A3230000400EE6AEAA6FCD71200C3
:05323A005345512D0079
:01323F00107E
:10324000000000000000000000000000000000007E
:10325000000F00050002004B00000000000000000D
:0232600000006C
:1043000000000000000000000000000000000000AD
:10431000000000000000000000000000000000009D
:10432000000000000000000000000000000000008D
:10433000000000000000000000000000000000007D
:020000040030CA
:0100000029D6
:010001000EF0
:0100020036C7
:010003000EEE
:010005008179
:010006008178
:010008000FE8
:01000900C036
:01000A000FE6
:01000B00E014
:01000C000FE4
:01000D0040B2
:00000001FF
