:020000040000FA
:0600000000EF05F0120004
:0600080067EF18F0120082
:060A0000DEEF19F0120008
:060A080067EF18F0120078
:060A2A00D9CFE6FFE1CF89
:100A3000D9FF060EE12604000CEC19F00400C6EC08
:100A400007F004006F0EDF6EDE526C0EDD6E6C0E72
:100A5000F36E020EF3CFDBFF650EF36E030EF3CFE2
:100A6000DBFF680EF36E040EF3CFDBFFD9CFE6FF9A
:100A7000DACFE6FF33EC13F0E552E552AA0EE66E4C
:100A800040EC0CF0E55201014E6B0400F28EF28C4A
:100A90003ED81DA606D01D96E66A11EC18F0E55268
:100AA0002BD01DA807D01D98200EE66E11EC18F073
:100AB000E55222D01DA203D0AFEC19F01DD01DA02D
:100AC00004D01D906FEC19F017D01EA004D01E901A
:100AD0005DEC0CF011D01DAA03D01D9ACCEC0CF0EB
:100AE0001DAE03D01D9EF6EC07F01EA203D01E9291
:100AF000DAEC06F0BCEC18F0C8D7060EE15C02E2B6
:100B0000E16AE552E16EE552E7CFD9FF1200B4EC9D
:0C0B100011F06FBE02D0D0EC11F012000A
:040B1C000100083498
:0A0B20000000AE000000030000001A
:060B2A000EEC0BF0E65298
:100B3000030EDF6E75EC0BF00550300FE66EDF50E4
:100B4000DF0602EC0BF0E552E750EF6E75EC0BF0B0
:100B5000FE0E09C0DBFF09500008ECE3DF5000087F
:100B600007E2DF5002EC0BF0200EEF6EDF06F6D747
:100B7000DF5002EC0BF0200EEF6EE552FEEF0AF0B4
:100B80000EEC0BF0040EE126C2EC0BF0000175290F
:100B9000E66ECBDFE552E552E552500EDF6EC2EC59
:100BA0000BF083EC0BF0800E0001836F846B040E5E
:100BB000E15C02E2E16AE552E16EFEEF0AF00EEC62
:100BC0000BF075C0E6FFE66A0C0EE66E86EC0EF0E2
:100BD000E552E552E552FE0EDB5001E0D1DFFEEFBB
:100BE0000AF00EEC0BF061EC0BF0FE0EDBCFE6FF33
:100BF000E6DFE552000142EC0BF0FEEF0AF00001E7
:100C00007729E66E5CEC13F0E55212000EEC0BF067
:100C100078C07AF079C07BF06BEC0BF0FE0EDBCF86
:100C2000E6FFDFDFE552EBDFFEEF0AF00EEC0BF044
:100C3000700EE66E000EE66ED7EC0BF0ECEC0BF0EF
:100C40000FEC0DF0146E0C0EE15E14500001776B8A
:100C50007729E66E5CEC13F0E552FE0EDB5004E003
:100C60004AEC0BF083EC0BF0FEEF0AF00EEC0BF00D
:100C700035EC0BF0FE0EDBCFE6FFD8DFE552FEEFE2
:100C80000AF0ECEC0BF0E4EC0BF083EF0BF00EEC65
:100C90000BF0040EE1260001B05112E0530EDF6E9E
:100CA000DE52450EDD6E510EF36E020EF3CFDBFF0A
:100CB0002D0EF36E030EF3CFDBFFC2EC0BF00AD068
:100CC00035EC0BF04AEC0BF0F3CFE6FFF4CFE6FF88
:100CD000E4EC0BF083EC0BF0040EE15C02E2E16A61
:100CE000E552E16EFEEF0AF00EEC0BF0E4EC0AF0D8
:100CF00019E11550EE1816E11650EE1813E11750D1
:100D0000EE1810E10FE19DEC0BF09351EE14186E0C
:100D10009451EE14196E9551EE141A6E96519FEC83
:100D20000BF002E0000E01D0010EFEEF0AF0D9CF69
:100D3000E6FFE4EC0AF008E11550EE1805E1165064
:100D4000EE1802E11750EE1802E0000E01D0010E7D
:100D5000FEEF0AF00EEC0BF0D5EC0BF00001935116
:100D6000EE14146E9451EE14156E9551EE14166E29
:100D700096510FEC0CF019E11550EE1816E11650D3
:100D8000EE1813E11750EE1810E10FE19DEC0BF097
:100D90008F51EE14186E9051EE14196E9151EE149D
:100DA0001A6E92519FEC0BF002E0000E01D0010E82
:100DB000FEEF0AF00001AE510AE00001000ED880FB
:100DC0008055000E815503E28007000E815BA6EC82
:100DD0000BF003E28707000E885B7DEC0BF003E26B
:100DE0008907000E8A5B000ED8808355000E84555B
:100DF0000BE28307000E845B8351841105E18E05AD
:100E000002E13FDF01D043DFADEC0BF003E28B07E3
:100E1000000E8C5B000ED8808555000E865554E27E
:100E20000001AF51030A24E0010A0FE0030A44E184
:100E3000000185513F0B02E18D5128D05AEC0BF097
:100E40003BE1155039E18D5133D0000185513F0B05
:100E500009E1000E88EC0BF0E552E552010E88EC3A
:100E60000BF021D05AEC0BF027E1155025E116D0FC
:100E7000000185513F0B0DE1000EDCDB010EDADBDA
:100E8000020E88EC0BF0E552E552030E88EC0BF0F5
:100E900011D05AEC0BF010E115500EE1000ECADB38
:100EA000010EF2EC0BF0E552E552020EC3DB030E2D
:100EB000F2EC0BF0E552E55200018507000E865B6F
:100EC0008551861101E1DEDB120000019C510DE12C
:100ED0006CDB7C1906E115507D1903E17C6B7D6BA1
:100EE00012007C2B000E7D2312007F0E755D02E147
:100EF000756B1200752B120000019C510EE17C51A4
:100F00007D1107E17EC07CF07FC07DF0010E7C5F2B
:100F100001D07C07000E7D5B1200755103E17F0E4E
:100F2000756F12007507120000019C5102E147EF36
:100F300006F0C0EF05F000019C5103E1E66A96DE81
:100F400003D0010EE66E3BDEE552120077C070F072
:100F500077C0E6FF47DB0001020EB06F320E0001E2
:100F60008B6F8C6B776B120029DB00017751772B2D
:100F7000EA6A680FE96E000EEA2276C0EFFF3FDEF4
:100F8000080E0001775D01E1E1DF1200FDEC0CF0DD
:100F9000F3CF7EF0F4CF7FF000018D6B836B846B19
:100FA000856B866B876B886B896B8A6B8B6B8C6BA5
:100FB000786B796BC7EC0BF0E552B3DB0001996BF2
:100FC0009A6B9C6B936B946B956B966B93C08FF045
:100FD00094C090F095C091F096C092F0FAEC0CF0AD
:100FE0000001986F976F020E8E6F1200AAEC0CF042
:100FF00006C08FF007C090F008C091F009C092F0D1
:10100000F7EC0CF000090AE100018E5116E08E6B3E
:101010007C6B7D6B010EE66E29DE09D000018E052A
:101020000CE0010E8E6F786B796BE66EFFDDE5529A
:101030000001776BE66AEADDE552080EDFDB33E09C
:10104000000178517A192BE179517B1928E170055B
:10105000775D24E18E5110E1A8DA7C1906E1155084
:101060007D1903E17C6B7D6B03D07C2B000E7D230F
:10107000010EE66EFBDD0DD098DA781906E1155009
:10108000791903E1786B796B03D0782B000E792303
:101090007EDBE5520001776BE66A03D0772B010E09
:1010A000E66EB4DDE55200018E51010A01E169D11D
:1010B000010A01E068D20001B051020A01E149D100
:1010C000030A01E11FD1010A01E05DD2B4DB07E0B0
:1010D0000001766B9C0502E1B1DA01D06FDAAEDB7C
:1010E00008E00001010E766F9C0502E1A7DA01D04D
:1010F00065DAA7DB08E00001020E766F9C0502E1CD
:101100009DDA01D05BDAA0DB08E00001030E766F08
:101110009C0502E193DA01D051DA00019C053DE122
:101120008751881126E19A5124E18FDA6ADB09E1BF
:1011300090DA67DB06E191DA64DB03E192DA61DBE6
:1011400018E00001010E9A6F9B51EA6A600FE96E88
:10115000000EEA2275C0EFFF70C0E6FF43DA2EDA18
:101160000001010EAF6F9BC08DF0640E0001856F12
:10117000866B6BDA4ADB09E16CDA47DB06E16DDA94
:1011800044DB03E16EDA41DB08E0E0DA06E29A5183
:1011900004E114DA0001876B886B020E2FDB07E095
:1011A00038DB05E1C6DA03E11E0E896F8A6B0001A8
:1011B000AE5109E131DB07E02CDB05E1BADA03E1EE
:1011C000ABDA010EAE6F020EEDDA08E0000195DA3F
:1011D00002E27BDEA9DE0001AE6BADDE010E0EDBAE
:1011E00007E01ADB05E1A5DA03E11E0E896F8A6BC1
:1011F0000001AE5109E10DDB07E00EDB05E199DAF4
:1012000003E18ADA040EAE6F010ECCDA08E00001C9
:1012100074DA02E271DE88DE0001AE6B8CDE040E51
:10122000EDDA04E0320E00018B6F8C6B040EB3DA42
:101230000EE000018B518C110AE10001B05107E171
:10124000010EB06F0001776B040E766F20DD040E87
:10125000A9DA12E082DA10E29C5105E1010E9C6FDE
:101260000001030E03D09C6B0001020EAF6F960EBF
:101270000001856F866B58DE0001AE5101E183D11C
:1012800000018051811101E07ED10001AE51060ABA
:1012900034E0030A28E0010A1BE0070A17E0010A0C
:1012A0000CE0030A01E06FD110DEF9D90A0801E071
:1012B00046D1826B0001020E13D007DEF0D914086C
:1012C00001E050D1826B0001030E15D0FEDD16D077
:1012D00013DEE5D90A0801E032D1826B0001050E68
:1012E000AE6F080E0DD008DEDAD9140801E03AD14D
:1012F000826B0001060EAE6F02D0FEDD15DE040E1D
:1013000000013FD198DA05E00001765102E0766BEA
:101310002BDE94DA06E00001760503E0010E766F1D
:1013200023DE8FDA07E0020E0001765D03E0020E95
:10133000766F1ADE89DA07E0030E0001765D03E0BE
:10134000030E766F11DE040E59DA01E11CD1FEDDC9
:101350001AD100018B518C1101E015D17051775DCC
:1013600004E10001B06BDDD90ED149DCB4D98AD9D2
:10137000A8D9C0EC05F00001772B320E8B6F8C6B77
:1013800002D159DA03E00001766B18D957DA06E08A
:101390000001010E766FE66E24DCE55252DA04E0BD
:1013A0000001020E766F0AD94FDA04E00001030E45
:1013B000766F04D9020E22DA15E02BDA13E1000170
:1013C0001E0E895D000E8A590DE2EFD8781906E1EC
:1013D0001550791903E1786B796B03D0782B000EE7
:1013E0007923C2D90001AE5109E116DA07E011DA1A
:1013F00005E19FD903E190D9010EAE6F020ED2D95B
:1014000001E0B9D9010EFAD911E006DA0FE10001C5
:101410001E0E895D000E8A5909E27851791102E1A8
:1014200002D901D07807000E795B9ED90001AE5138
:1014300009E1EFD907E0F0D905E17BD903E16CD9E7
:10144000040EAE6F010EAED901E095D9040ED6D9C7
:101450001EE0000178517A1915E179517B1912E1EA
:1014600077510FE17851791102E1DDD801D0780789
:10147000000E795B8CD9E55200017005776FE66A42
:1014800003D07707010EE66E06EC06F0E552000188
:10149000AE5101E178D000018051811174E1000169
:1014A000AE51060A61E0030A4CE0010A36E0070A81
:1014B00028E0010A14E0030A66E198D906E1155014
:1014C000791903E1786B796B03D0782B000E7923BF
:1014D000EBD80A0834E1826B0001020E2DD086D9C8
:1014E00006E11550791903E1786B796B03D0782BFD
:1014F000000E7923D9D8140835E1826B0001030E60
:101500002FD074D906E11550791903E1786B796B06
:1015100034D0782B000E792330D000017851791126
:1015200002E181D801D07807000E795BBDD80A08A6
:1015300006E1826B0001050EAE6F080E21D00C0E85
:1015400020D000017851791102E16DD801D07807DF
:10155000000E795BA9D8140805E1826B0001060E24
:10156000AE6F0DD0080E0DD000017851791102E157
:101570005AD801D07807000E795B41EC06F0040ED2
:101580000001806F816B8FC093F090C094F091C088
:1015900095F092C096F01200E552E552E552E55200
:1015A00000091200E66EFAEF0BF07EC014F07FC067
:1015B00015F01406000E155A14501200010EE66EB6
:1015C000F1EC05F0E5521200F0D800018F51EE1455
:1015D000146E9051EE14156E9151EE14166E9251D8
:1015E0000FEF0CF0E4D878C0E6FF79C0E6FF7EECA0
:1015F0000DF0146E090EE15E14501200E552E7CFB3
:10160000D9FF1200E76EFC0EDBCFE9FFFD0EDBCF4A
:10161000EAFFE750E926000EEA221200D9CFE6FFE2
:10162000E1CFD9FF12007EC078F07FC079F0010EC3
:10163000785F1200D7D8E552E5521200320E876F5C
:10164000886B76C09BF09A6B1200D4D8100EE66EB1
:101650001200D0D8800EE66E1200CCD8400EE66E96
:101660001200C8D8200EE66E12007CC0E6FF7DC0D6
:10167000E6FF58EC0EF0E552E552F3CF78F0F4CFE8
:1016800079F012007651E66EE66AD1EC0CF0E55284
:10169000E5521200710EE66E000EE66E120044DC9A
:1016A00000018251822B120041EC06F000018251B0
:1016B000822B12003F0E8515146E156A1F0E14182A
:1016C000120000017651EA6A600FE96E000EEA220C
:1016D000EFCF75F0120000017751EA6A680FE96EEA
:1016E000000EEA22EFCF76F012000A0E146E0E6E94
:1016F000FE0EDBCF09F0EFEF19F0000ED880895510
:10170000000E8A55120045EC13F0E552E552120026
:10171000E66EE66ADEEF0CF0806B816B826B000197
:1017200012000001776B010EE66E06EC06F0E55242
:101730001200000189518A111200D95076D0EE149E
:101740001B6E185019101A101B1012000001000E09
:10175000D8808755000E885512000001000ED880F1
:101760008B55000E8C55120041EC06F01E0E000148
:10177000896F8A6B12000001AE6BE66A16EC06F008
:10178000E5521200D9CFE6FFDACFE6FF1200010ED4
:10179000E66E16EF06F006DF01EF0CF074EC06F0D3
:1017A000CCEF0AF0FFDE05EF0CF0E1503ED0680E02
:1017B000E66E000EE66E640EE66E000EE66E600EDD
:1017C000E66E000EE66E120042EC0EF0E552E552B7
:1017D000E552E5524AEF0BF05DDF78C0E6FF79C0D5
:1017E000E6FF1200E66EE66AE9EF0CF0DEDE0001CD
:1017F00078191200E66AE66AE66A1200D3DECEEFD6
:101800000BF097EC06F0CCEF0AF0AAEC06F0CCEF68
:101810000AF0010ECBEF0BF0020ECBEF0BF0EE1443
:10182000176EC3DF1450EE181200FB0FE96EFF0EA7
:10183000DA20EA6E120009DFCEEF0BF00ADFCEEFFE
:0E1840000BF00BDFCEEF0BF00CDFCEEF0BF05A
:02184E0076DA48
:10185000E652FE0EDB50C26E0A0EDF6EDF5002E073
:10186000DF06FCD7C282C2B2FED7C450E5526BD2AB
:1018700065DAFE0EDBCFE6FFF1EC18F0E55263D23D
:101880005DDAE652080EDF6E898489948992FE0E35
:10189000DBBE02D0899601D08986A2DA8982DF0672
:1018A000F5E18984100EDF6EDF5002E0DF06FCD721
:1018B000899489868982E55246D213DBDE52010E75
:1018C000DD6E030EDB6ADF6ADF5006081DE3DFCF43
:1018D000E6FF34D8E552050EF36E020EF3CFDBFFC0
:1018E000DB5003E0020EDB06FBD784A209D0030E17
:1018F000DBCFE7FF010EDB50E712030EE7CFDBFF84
:10190000010E6EDADF2AE0D7030EDBCF4FF10101C3
:101910004F9F4F4781B84F814F1D4F6F070EDF6EAE
:10192000DFCFE6FF0BD8E5521F8084A21F90040E84
:10193000E15C02E2E16AE552E16E05D2FFD98998E5
:10194000899A8D90FE0EDBB08988DBB2898ADBB480
:101950008D80F9D1C6DADE6ADE6ADE6ADD6ADD52C2
:10196000DD52F00E01014F15E76E030EE7CFDBFFEE
:101970000F0E4F15DF6EDECF06F0DECF07F0DECFA5
:1019800008F0DDCF09F0DD52DD52040EE15C02E229
:10199000E16AE552E16ED7D14EC1E6FF71DFE55253
:1019A0001200CCD901014E6B22DA04E0D890F33654
:1019B000E806FCE1F35001014E13C5D1BFD917DA97
:1019C00004E0D890F336E806FCE1F35001014E1331
:1019D000BAD1B4D90CDA04E0D890F336E806FCE1C9
:1019E000F350146EFF0EF31801014E17ACD11F50C7
:1019F000010B1200010150511200A0D9020E44DA6D
:101A0000DECF14F0DDCF15F014C0F3FF15C0F4FFE6
:101A1000020EE15C02E2E16AE552E16E94D18ED9F8
:101A2000A2D965E2B8D9E8D9FEE1F8D9040E76D991
:101A30007F0BE66E7FDAACD9050E76DA6ADA060E2F
:101A40006DD9C4D966DA070E72DA63DA080E66D980
:101A50007F0BE66E74DA9CD9090E66DA5CDA0A0E40
:101A60005DD9B4D958DA0B0E62DA55DA0C0E56D9B4
:101A7000070B010FE66EF30EDBCFE9FFF40E88D9FA
:101A8000060E146E0D0E13DA04E0E8427F0BE70633
:101A9000FCE1E66EF50EDBCFE9FFF60E79D90D0E0F
:101AA0000CDA010ED4D90D0EFBD9020ED0D90D0ED1
:101AB00035D9030BE66E030ECAD9060E146E0E0E50
:101AC000F6D904E0E8427F0BE706FCE1E66E040E7F
:101AD000BED90E0EF2D9050EBAD90E0EE1D9060EF8
:101AE000B6D90E0E1BD9030BE66E070EB0D9040E45
:101AF000E15C02E2E16AE552E16E25D11FD9460EB2
:101B0000E12649D979D9FEE17CD9400E14C0DBFF2A
:101B1000410E15C0DBFF400EDBCF14F0410EDBCFD2
:101B200015F0C00E1416FF0E1516420E14C0DBFF82
:101B3000430E15C0DBFF3F0EE76E400EDBCF14F007
:101B4000410EE7501416156A440E14C0DBFF450E13
:101B500015C0DBFF420EDBCFE6FF430EDBCFE6FF17
:101B600073D8E552E552F4D9DBCFEAFFEF50E66EC9
:101B7000040E4CD9010E78D9050E48D9020E74D93D
:101B8000060E44D9030E70D9070E40D9D3D9DBCF46
:101B9000EAFFEF507F0BE66E080E38D9010EB3D97D
:101BA000090E34D9020EAFD90A0E30D9030EABD9C3
:101BB0000B0E2CD9F60EDB04070BE66E0C0E26D9A5
:101BC000030E93D9166E020E90D9040DF3CF15F0C3
:101BD000010E8BD9100DF3CF14F0B1D9DBCFEAFF92
:101BE000E7D80D0E13D9070E80D9166E060E7DD9D3
:101BF000040DF3CF15F0050E78D9100DF3CF14F0C6
:101C0000040EE76E2BD9D4D80E0E00D9100EC6D80C
:101C100006C005F107C006F1400E01010527000EC0
:101C20000623C00E0517FF0E0617000E0527490EE6
:101C300006233CEC18F01D861D88460EE15C02E28E
:101C4000E16AE552E16E7FD079D8E652DF6A400E54
:101C5000DF5C16E2FD0EDBCFF6FFDB2AFE0EDBCFEC
:101C6000F7FF01E3DB2A79D9E66EDF50EA6A070F56
:101C7000E96E010EEA22E552E750EF6EDF2AE7D760
:101C8000E55261D02ED9000EE96E490EEA6EEECF14
:101C9000DEFFEDCFDDFFEED804E27DD8ADD8FEE16A
:101CA000BDD8040EE15C02E2E16AE552E16E4BD080
:101CB00045D859D803E3F36AF46A21D0DECF16F091
:101CC000DDCF17F0040ED89016361736E806FBE184
:101CD000400E1626000E1722020E60D8165006245B
:101CE000146E17500720156E32D80900F5CF14F086
:101CF0000800F5CF15F014C0F3FF15C0F4FF040E73
:101D0000E15C02E2E16AE552E16E1DD017D82FD8FE
:101D10001AD014D82CD8FB0ED6D815D0E76EDAD846
:101D20007DEF0FF0DBCFEAFFE750E926000EEA2255
:101D30001200070EE926010EEA2206D1D9CFE6FFEE
:101D4000E1CFD9FF1200E552E7CFD9FF1200020E12
:101D500014C0DBFF030E15C0DBFFBCD8000EF62657
:101D6000490EF7221200040E8FD83AEF0FF0FD0E45
:101D7000DB500F0B146EFE0EDB500F0B100DF350EB
:101D80001410E66EF1EC18F0E552FC0E63EF0FF064
:101D9000DBCFEAFFD9D0C1D8040E1200086E096A61
:101DA000FD0EDBCF0DF0FE0EDBCF0EF091EF19F044
:101DB000EF50030B400DF350141015101610E66E83
:101DC00012007F0BE66E010EE76E12007F0BE66ECF
:101DD000020EE76E12007F0BE66E030EE76E120036
:101DE000DBCFF3FFF39EF346F3CFDBFF1200010ED0
:101DF000F36EFD0EDB501200D89014361536E8064F
:101E00001200400E1426000E15221200E76E440E3A
:101E1000DBCFE9FF450E86DF99EF0EF0F2DF97DFAB
:101E20000800F5507F0BE66E93D8B2DF010E7CD828
:101E300061D8020EE76EDBCFF6FF030EDBCFF7FFB4
:101E40005CD8C4DF57D8030E72D87AEF0FF0E76E74
:101E5000F50EDBCFE9FFF60E65DF76D070D892EF96
:101E60000EF068D892EF0EF0E76E72D85BDFEF509D
:101E7000E66E120052D8DECF16F0DDCF17F0165006
:101E8000145C175015581200E126000EF66E490E2C
:101E9000F76E0900F5CFDEFF0A00F5CFDDFF120077
:101EA0003DDF0C0BE840E8403F0BE66E120036DFEA
:101EB000C00B14C0E7FFE752120030DF300BE838E8
:101EC0000F0BE66E1200DB507F0BE66EF1EC18F0A4
:101ED000E5521200020EDBCFF6FF030EDBCFF7FF59
:101EE00012002CDF040EE1261200E76EB7DFEF5080
:101EF000030B12002DD816DF27D0E750F626000E70
:101F0000F722ADEF0FF0E76EACDFEF507F0BE66E20
:101F10001200A7DF19D0A2DF17D0FD0EDBCF14F01F
:101F2000FE0EDBCF15F01200F9DEE1EF0EF0F6DE6B
:101F3000EBEF0EF0F90EDBCFE9FFFA0E1200F70E11
:101F4000DBCFE9FFF80E1200E552E750EF6E12000A
:101F5000FB0EDBCFE9FFFC0E1200000EF626490E49
:081F6000F7220800F550120001
:081F680004011051600BE84276
:101F7000E842E842E842E842000901E0120011515B
:101F8000070A3CE00B0A3AE0070A2FE0010A21E0C9
:101F90000B0A1DE0020A1BE0030A17E0080A0FE023
:101FA000010A0BE00F0A07E0030A01E01200DDDA84
:101FB000040E9D6F1200FFEF0FF037EF10F0D5DA2F
:101FC0009F0EA36F000EA46F0CD04DEF10F07BEFAF
:101FD00010F0E2DA0001A36FA46BA00EA327000E9D
:101FE000A4239E93010EA76F1200D6DAEA6AA00F0F
:101FF000E96E000EEA2212C4EFFF12001200800EFA
:102000000401105D33E11351030A1EE0010A09E0E7
:10201000030A23E1AADAEE0EA36F2D0EA46F120EAF
:102020001AD070DA080EF6262F0E85DA020E00019D
:10203000F76AA325F66EA451F7220900F5CFA7F0A1
:102040000A00F5CFA8F009D05DDA0C0EF6262F0EA7
:1020500072DA79DA0001A76FA86B020E0401125D33
:1020600005E0030E125D02E000019E8312007DDA9E
:1020700042DA010EE66EA00EE66E000E87DA12C49A
:102080009FF00401125104E10001050E9D6F120042
:102090000001060E9D6F99EF15F00401506B516B16
:1020A00010511F0B020A0FE0030A0BE0010A18E1AE
:1020B0005CDA0401508100019EA112D0040150831A
:1020C0000FD053DA0DD003DA01E0010E2BDAA5C0F0
:1020D000E9FFEA6EEF50040B03E00401010E506FBC
:1020E0000001A20507E1500EA36F040EA46F9E939A
:1020F000020EA76F1200040112050EE110511F0B12
:1021000000090AE132DA030E0401115D03E1000166
:102110009E8102D000019E91040112511DE11051D7
:102120001F0B020819E114510F0B000915E0CFD95C
:1021300001E0010EF7D9030E0401115D03E1840EE5
:10214000B9EF12F014AF06D0A5C0E9FFA6C0EAFFB0
:10215000EF6A1200880E0DDA12006C500BE10401D8
:1021600000513C0BE842E8420D0802E1BFEF10F0DD
:10217000F0EF10F0040E6C5C01E141D81200D9CFF1
:10218000E6FFE1CFD9FFE6520001A16BA26BA76B7E
:10219000A86BEADEDF6ADF50146E156A010E145C6C
:1021A000000E15581AE20001A25117E1F76ADF3458
:1021B000FE0BF736F66E140EF6262F0EF7220900E8
:1021C000F5CF14F00800F5CF15F004D015C0FAFFD4
:1021D0001450F96EFBDFDF2ADED789D8E552C1D172
:1021E000020E0001A15D09E162D8040100BD02D028
:1021F000C80E01D0880E006F1200ADEF11F0040E72
:1022000000019D5D09E112C46EFF6E50000802E2FC
:10221000050E01D0030E9D6FA10509E110D8040140
:1022200004BD02D0C80E01D0880E046F1200090E42
:102230000401115D02E124EC16F0ADEF11F08AD932
:102240000001400EA75D000EA85905E2A7C0DEFF01
:10225000A8C0DDFF03D0400EDE6EDD6A04010493EA
:102260000491010EDB500413DFCF05F4000EDB50A8
:102270000001A75F010EDB50A85B500EA56F040E96
:10228000A66F9EA307D047D90BE05DD917D9FBE213
:10229000DB06F9D740D904E072D9FCE2DB06FAD7B5
:1022A000020EE15C02E2E16AE552E16E5AD152D9D6
:1022B000030E04010015E76E010EE7CFDBFF01C43A
:1022C000DFFFDE500001A727DD50A823500EA36FCB
:1022D000040EA46F20D904E052D9FCE2DB06FAD741
:1022E000020EE15C02E2E16AE552E16E3AD10001E0
:1022F000A25104E1F8D8840E006F1CD0040110AF85
:102300001BD00001A7510401165D0001A851040172
:10231000175904E216C4A7F017C4A8F090DF000113
:10232000010EA16FE0D8800E006F500E066F040EF4
:10233000076FC80E046F0FD00001020EA16F0401D9
:10234000056BC80E046F400E016F500E026F040E35
:10235000036FC80E006F6D9812000001A16BC3D807
:10236000880E006F046B12006DA60CD800019D054D
:1023700008E16DBA06D0686A696A69806988020EE8
:102380009D6F12006D6A696A6D860001010E9D6F76
:1023900012006D6A696A00019D6B1200C9EF11F0AD
:1023A00000019D5101E112006850040B04E06950E6
:1023B000040B01E038D86DB212006850010B04E044
:1023C0006950010B01E04FD86850100B04E06950D0
:1023D000100B01E023D86850400B04E06950400B1B
:1023E00001E037D86850200B04E06950200B01E071
:1023F00032D86850020B04E06950020B01E031D87A
:10240000030E00019D5D01E212006850080B05E01B
:102410006950080B02E0A1DE689612006984689892
:102420006D82A19A12006D92699468941200000165
:102430009EA10ED0F8DF6D840001080EA96F070E73
:10244000AA6FA907000EAA5BA951AA11FAE16D941F
:102450001200689C120070A002D07FDF7090689A12
:102460001200689212006A6A686A9F0E6B6E7B0E99
:10247000696E6E6A40D8160E706E68A602D06896B5
:10248000FCD76D986ADF00019E919F6B030E9D6FD4
:102490001200D9CFE6FFE1CFD9FFFD0EDBCFE9FF78
:1024A000FE0EDBCFEAFFFC0EDB5004E0EE6AFC0E12
:1024B000DB06F9D7E552E7CFD9FF12005AD8A52B92
:1024C000000EA623A32BA423DF06010E120064D85E
:1024D0000F0B080DF350156A000F146E040E152231
:1024E0001451800B12000401400E016F100E026F98
:1024F000040E036F12000F0EE66E710EE66E0F0EE5
:10250000C6EF12F032D804011251F66EF76AD89075
:10251000F636F7361200D9CFE9FFDACFEAFFEE50F0
:10252000ED101200040DF35000011424A56F000EED
:102530001520A66F1200F7220900F5CFA3F00A00BC
:10254000F5CFA4F01200A3C0F6FFA4C0F7FF080067
:10255000F5501200D9CFE6FFE1CFD9FF020EE126F8
:102560001200E552E7CFD9FF12000001010EA26F61
:102570001200A5C0E9FFA6C0EAFFEF6E1200A3C0DB
:10258000E9FFA4C0EAFFEF505EEF12F0E66E81DFD4
:10259000E552E552E5521200E8DF04011451120041
:1025A00000018E0502E10101008F22D80101565180
:1025B000040A10E0070A0CE0010A08E0030A04E03C
:1025C000010A0DE18A9A07D08B9005D08A9603D034
:1025D0008A9401D08A9256C1E6FF18D8E5520101CB
:1025E000562B01014D510101565D01E3566B12005E
:1025F0008A908C9E8C9C8C9A8C988B948C968C94C4
:102600008A8A8B808A868A848A821200EAD8E65275
:10261000FE0EDB50EA6A000FE96E010EEA22EFCFF0
:10262000DFFFC3D8010B01E08A80BFD8020B01E0B5
:102630008C8EBBD8040B01E08C8CB7D8080B01E062
:102640008C8AB3D8100B01E08C88AFD8200B01E046
:102650008B84ABD8400B01E08C86A7D8800B01E0BF
:102660008C84E552C3D0BDD8E3D8050EE8D804E287
:10267000A2D8DB50CBD8F9D7F28EF28C020EE15CF7
:1026800002E2E16AE552E16EB1D0ABD8D1D8040ED6
:10269000D6D809E290D8DBCFE6FF030EE552D8800A
:1026A000E754B4D8F4D7F28EF28C020EE15C02E269
:1026B000E16AE552E16E9AD094D8F29EF29CFE0E49
:1026C000DB50300FE66E06D8E5520101046FF28E42
:1026D000F28C8CD086D8410EA4D80BE3610EA1D821
:1026E00002E3610E01D0410E85D8A20FF66E330EC3
:1026F00008D0300E96D80BE3300E7CD8980FF66ECB
:10270000330EF7220800FE0EF5CFDBFF10D0FE0ED1
:10271000DB5020080AE0FE0EDB502D0806E1400EDB
:10272000F36EFE0EF3CFDBFF02D0FE0EDB6ADB5052
:102730005DD057D8060EE126050EDB6AF36EDBCFBF
:10274000F4FFE850F45C1DE2050EDB500101982512
:10275000EA6A570FE96E010EEA22EF50E66ED9CF12
:1027600014F0DACF15F0050EDB500F01D924E96E15
:10277000000EDA20EA6EE552E750EF6E050EDB2A16
:10278000DDD7D9CFE6FFDACFE6FF6DDFE552E552C0
:1027900001019807985102E197C198F1060EE15C9A
:1027A00002E2E16AE552E16E21D0D9CFE9FFDACF4A
:1027B000EAFFEF501200010EDB50E76EFD0EDBCF9B
:1027C000E9FFFE0EDBCFEAFFE750E926000EEA2222
:1027D000EFCFDFFFDFCFE6FF7DDFE552E66E010ED4
:1027E0001200D9CFE6FFE1CFD9FF1200E552E7CFC3
:1027F000D9FF1200146EFE0EDBCFE7FF1450E75E28
:10280000FE0EE7CFDBFFDB50F76A1200EA6A000F2B
:10281000E96E010EEA22E552E750EF6E010EDB2A67
:102820001200F36EFE0EDBCFF4FFF350F45C1200E7
:10283000020EE126F29EF29C010EDB6A1200F36E9C
:0C284000010EDBCFF4FFF350F45C12003B
:04284C00D9CFE6FFFB
:10285000E1CFD9FF110EE1260101E6690101010E68
:10286000A56FA70EDE6E010EDD6E040111056BE192
:102870001251B40A56E0760A47E0590A3FE0020ACC
:1028800036E0010A25E00F0A1CE0010A14E0BA0A4A
:1028900009E0830A58E1CFD8E66ACAD8E66AC8D800
:1028A000E66A2FD038EC16F0000902E0C4D84BD00D
:1028B0000101E66948D0BFD8A0A845D0010EE66F57
:1028C0003FD0B9D847C1E6FFB3D848C1E6FF39D0F9
:1028D000B2D8040E49C1DBFF050E4AC1DBFF040E6E
:1028E000DBCFE9FF050EDBCFEAFFEF5018D0A3D80E
:1028F00049C1E6FF9DD84AC1E6FF23D09CD8030E0C
:10290000E66E96D8E66A1DD096D80A0EE66E90D886
:10291000140EE66E8DD8230EE66E8AD8690EE66E2A
:1029200010D089D8A0B803D0F29EF29C0CD0010E32
:10293000E66FE6687DD8E6687BD8E6685BD8E55246
:10294000E66858D8E552090E0401115D3AE11251CA
:10295000B40A34E02E0A32E0030A29E0010A1FE03B
:102960000F0A16E0010A0DE0BA0A2BE16EEC16F030
:10297000000903E00101020E02D00101010EE66F21
:1029800020D00101020EE66FA0A81BD0010E18D0C6
:1029900047D8EFCF47F153D8EFCF48F112D040D806
:1029A000EF5049C1E9FF4AC1EAFFEF6E0AD038D8BB
:1029B000EFCF49F144D8EFCF4AF103D00101020E25
:1029C000E66FFF0E0101E65D0BE0090E0401115DEB
:1029D00007E012C450F40101A5510001A76FA86BD4
:1029E000110EE15C02E2E16AE552E16EE552E7CFE9
:1029F000D9FF1200D9CFE6FFE1CFD9FF400E010188
:102A0000A55D0AE2A551EA6A500FE96E040EEA22BA
:102A1000FE0EDBCFEFFFA52BE552E7CFD9FF12006B
:102A20000101020EE66FDECFE9FFDDCFEAFF120003
:102A3000E1DFE55212000101050EE66F1200DECF64
:102A4000E9FFDDCFEAFF010EE926000EEA221200BF
:102A5000040110511F0B010801E01200145101E0A4
:102A60001200060E115D24E11351230A1FE0010A32
:102A70000DE0030A1BE1E4D800019F0505E1000118
:102A8000120EA36F2E0EA46F090E0DD0D9D800011F
:102A90009F0505E100018C0EA36F2E0EA46F0001AF
:102AA0009F0504E17C0E0001A76FA86B00019E83C7
:102AB00004011051600BE842E842E842E842E84273
:102AC000010801E0120011510B0A2FE0080A21E071
:102AD000090A1BE0080A13E00B0A05E0080A01E0F6
:102AE000120029EF16F00001A60EA56F010EA66FC9
:102AF00000019E930001A76BA86B20EF16F0A0D8F1
:102B00000001AB0EA36F000E09D09AD813C4ABF02E
:102B1000120096D80001AC0EA36F000EA46F000146
:102B20009E930001010EA76F12008AD812C4ACF068
:102B300012000001AD6B1E0E716E0401080E096FCC
:102B4000900E0A6F040E0B6F880E086F0401980E2A
:102B50000E6F040E0F6F400E0C6F1200D9CFE6FF00
:102B6000E1CFD9FFE652FC0EDB50080805E2080E63
:102B7000F36EFC0EF3CFDBFFDF6AFC0EDB50DF5C95
:102B80000FE2DF5051D8EF50E66EDF50EA6A980F3F
:102B9000E96E040EEA22E552E750EF6EDF2AEDD728
:102BA000FC0EDBCF0DF4400E04010C170C7D880EDB
:102BB0000C13E552E552E7CFD9FF1200D9CFE6FF5B
:102BC000E1CFD9FF0001AD6B040108BF27D0FC0E97
:102BD000DBCF14F00951D880145403E2FC0E09C471
:102BE000DBFF0001AD6BFC0EDB50AD5D0FE2AD51C4
:102BF000EA6A900FE96E040EEA22EF50E66EAD51DC
:102C000013D8E552E750EF6EAD2BEDD70401080E57
:102C1000096F400E0817087D880E08130001AD519A
:102C2000E552E7CFD9FF1200E76EFD0EDBCFE9FFDB
:102C3000FE0EDBCFEAFFE750E926000EEA22120083
:082C40000001020EA26F120058
:082C48001C8826EC14F01C9816
:102C500012001C8826EC14F00001020EA26F000185
:102C6000500EA36F040EA46F00019E931C981200D7
:102C7000A0D8FFC1E6FFB7D80101FF51300A10E02C
:102C8000010A08E0030A0EE163D8200EDF5C14E2BB
:102C90006FD8FBD75DD8200EDF5C0EE269D8FBD77A
:102CA00098D80AD0E66A9FD8DF6A3E0EDF5C04E25D
:102CB000E66899D8DF2AF9D7400E0101A55D05E243
:102CC000E66A91D80101A52BF7D7010EDB50146EEF
:102CD000040EE15C02E2E16AE55275D06AD8A7C150
:102CE000FFF10101A751320A26E0030A06E0010ABA
:102CF00026E150D83CEC18F022D04CD8DF6A200EE8
:102D0000DF5C14E2050EDF24EA6AA60FE96E010E0D
:102D1000EA22EF50E66EDF50EA6A070FE96E010E15
:102D2000EA22E552E750EF6EDF2AE9D7E66A11ECB6
:102D300018F0E55204D0A9C14BF1AAC14CF1010E23
:102D4000DB50146E040EE15C02E2E16AE5523BD016
:102D500040D8000E01014B25146E490E4C21156E12
:102D6000020E14C0DBFF030E15C0DBFFDF6A12008A
:102D7000DF50E76E020EDBCFF6FF030EDBCFF7FF6F
:102D8000E750F626000EF7220800F550E66E2BD825
:102D9000DF2A1200A9C14BF1AAC14CF1000E0101BA
:102DA0004B250101056F490E01014C210101066F00
:102DB0001200D9CFE6FFE1CFD9FF040EE126DE52A3
:102DC000010EDD6E1200E16E1450E552E7CFD9FF1F
:102DD0001200010EE66E07D84BC1E6FF04D84CC1C5
:0E2DE000E6FFF3EF16F0FAEC14F0E5521200E5
:022DEE001201D0
:102DF000100100000040AE09304410000102030140
:102E000009022200010100A03209040000010300B0
:102E10000000092110010001227C00070581030840
:102E200000280403090418034A006F00650000002D
:102E300000000000000000000000000000002C0363
:102E40004D00490044004900200044006500760020
:102E50006900630065002000000000000000000021
:102E600000000000000000000000220336003900CE
:102E700031003200300036003000420020000000F7
:102E800000000000000000000000000006FFFF0935
:102E900001A1017508950126FF001500859609C05E
:102EA000B102752085B409D2B1027510859709C1A8
:102EB000B1027508859809C2B1027510859909C3D8
:102EC000B102859C09D4B1027510859D09D5B10266
:102ED000859B09C5B102752085AF09E9B10285AFAF
:102EE00009E981A276000285B009EAB10275208560
:102EF000C209D6B102859A09C4B1027508953F8509
:102F00002C09040904B102C0002E002E222E262E08
:062F10003E2E6A2E502A3D
:0A2F16000001020304050506070789
:102F200008080909090A0A0A0B0B0B0B0C0C0C0CFC
:102F30000C0C0D0D0D0D0D0D0D0E0E0E0E0E0E0EBC
:102F40000E0F0F0F0F0F0F0F101010101010101189
:102F5000111111111212121212131313131314144C
:102F60001414141515151515161616161717171708
:102F700018181818191919191A1A1A1A1B1B1B1CB8
:102F80001C1C1C1D1D1D1E1E1E1F1F1F202020215E
:102F900021212222232323242425252626262727F0
:102FA000282829292A2A2B2C2C2D2D2E2E2F303063
:102FB0003132323334343536373738393A3B3B3CAB
:102FC0003D3E3F404142434445464748494A4B4CB9
:102FD0004D4E4F505152535455565758595A5B5CA9
:102FE0005D5E5F606162636465666768696A6B6C99
:102FF0006D6E6F707172737475767778797A7B7C89
:103000007D7E7FFFFFFFFFFFFFFFFFFFFFFFFFFF53
:06301000FFFFFFFFFFFFC0
:0A301600550EA76EAA0EA76EA68243
:1030200012004CD8E652E00E01010517840EA66E80
:10303000FE0EDB50DF6EFE0EDB50200FDF5C1AE26F
:10304000DF50EA6A070FE96E010EEA22EFCF14F0B3
:10305000DF500101F76A0525F66E0651F722F86A7E
:1030600014C0F5FF0C001F0EDF141F0801E1D3DFB1
:10307000DF2AE1D7E55227D0940EA66E05C1F6FFF0
:1030800006C1F7FFF86AC7DFF86A120017D8A66A08
:10309000FE0EDB50A96EA680A85015D00FD8A6A2B0
:1030A00002D0000E0AD0FE0EDB50A96EFD0EDB50E2
:1030B000A86E040EA66EAFDF010E05D0D9CFE6FFD5
:0E30C000E1CFD9FF1200E552E7CFD9FF120091
:0230CE00DACF57
:1030D000E4FFE2CFDAFFE9CFE4FFEACFE4FFF6CF87
:1030E000E4FFF7CFE4FFF5CFE4FFF3CFE4FFF4CF45
:1030F000E4FFFACFE4FF00EE00F0140EE80403E36F
:10310000EECFE4FFFBD700EE14F0080EE80403E373
:10311000EECFE4FFFBD7E6529EA20AD09E920101B9
:10312000512B040E515D04E1516B1D80D0EC12F067
:10313000E55200EE1BF0080EE80403E3E5CFEDFFD7
:10314000FBD700EE13F0140EE80403E3E5CFEDFF28
:10315000FBD7E5CFFAFFE5CFF4FFE5CFF3FFE5CFEF
:10316000F5FFE5CFF7FFE5CFF6FFE5CFEAFFE5CFC7
:08317000E9FFE5CFDAFF1100D1
:08317800D9CFE6FFE1CFD9FF3A
:10318000050EE1269EBA13D00101A3510101A45DF1
:1031900002E13DD81CD09EA81AD0A451EA6A9B0F28
:1031A000E96E010EEA22EF50AD6EA42B10D00101A2
:1031B0004E75AB50020B03E1AB50040B08E0AB982B
:1031C000010EAECFDBFFAECFDBFFAB881C92050E4E
:1031D000E15C02E2E16AE552E16EE552E7CFD9FF38
:1031E0001200D9CFE6FFE1CFD9FF080E0101A35DA0
:1031F0000AE2A351EA6A9B0FE96E010EEA22FE0E73
:10320000DBCFEFFFA32BE552E7CFD9FF120001017F
:08321000A36B0101A46B120085
:08321800FDEC19F0896A8A6AD5
:103220008B6A8C6A8D6A010E926E100E936EF80E88
:10323000946E956A020E966E0101050E4D6FA60EF4
:10324000AC6E900EAB6E3F0EAF6EB06A400EC26EAB
:103250000E0EC16E060EC06EF26A800EF16ED08E3A
:10326000D76AD66AD56ACC6AF90ECB6E0D0ECA6ED5
:10327000020E9D6EF28E140E6F6E00019D6B0001AA
:083280009E6B00019F6B120020
:08328800D9CFE6FFE1CFD9FF29
:10329000FE0EDB50A96EA69EA69CA680A850E55205
:1032A000E7CFD9FF1200D9CFE6FFE1CFD9FFFE0E5D
:1032B000DB50A96EFD0EDB50A86EA69EA69CA684D0
:1032C000F29E550EA76EAA0EA76EA6820400A6B2A5
:0E32D000FDD7F28EA694E552E7CFD9FF12008B
:0232DE000101EC
:1032E000522B0A0E525D1CE1526B1D821D8E1D8AEF
:1032F0001E820101542B040E545D02E1546B1E80AA
:103300000101552B020E555D01E1556B0101532B57
:10331000640E535D05E1536B1FA202D099EC13F0CC
:02332000120099
:0E33220008C012F008500D02F4CF07F0F3CFF0
:1033300006F009500E02F4CF09F0F3CF08F00D02A9
:10334000F3500726F4500822E86A092212500E02B0
:0E335000F3500726F4500822E86A0922000C08
:02335E00D9CFC5
:10336000E6FFE1CFD9FFE6521D92010EE66E27EC93
:103370000CF0E552F76A160FF66E2F0EF7220800D2
:10338000F550DF6EFF0EDF5C02E0DFCF50F1E5525B
:08339000E552E7CFD9FF12005E
:083398003F065B4F666D7D07E7
:1033A0007F67777C585E79716F74061E0038005411
:0C33B0005C73E7506D071C1C00766E5B20
:0433BC0017EE00F018
:1033C00027EE00F0F86A019CEA6AE96A0400EE6AF6
:0E33D000EAA6E6EF19F015EC05F0FDD71200A5
:0233DE00056A7E
:1033E000080EE76ED890093605360E50055C02E3EC
:0A33F000056E092AE72EF7D7120038
:0633FA00EA6AE96A040022
:08340000EE6AEAA6FCD71200F7
:03340800000000C1
:1049000001000000000000000000000000000000A6
:104910000000000000000000000000000000000097
:104920000000000000000000000000000000000087
:104930000000000000000000000000000000000077
:10494000534F43311C20191800000000051BB00014
:10495000534F43320204050000000000031B000017
:10496000524F45203C2F021800000000031B00009E
:10497000455320205101031500000000051B900045
:104980000300020000000100000000000000000021
:104990000000000000000000000000000000000017
:1049A0000000000000000000000000000000000007
:1049B00000000000000000000000000000000000F7
:1049C00000000000000000000000000000000000E7
:00000001FF
