:020000040000FA
:0600000015EF05F01200EF
:06000800E3EF17F0120007
:060A00005CEF19F012008A
:060A0800E3EF17F01200FD
:060A2A00D9CFE6FFE1CF89
:100A3000D9FF060EE12689EC18F0B2EC07F06F0E34
:100A4000DF6EDE526C0EDD6E6C0EF36E020EF3CFB7
:100A5000DBFF650EF36E030EF3CFDBFF680EF36E64
:100A6000040EF3CFDBFFD9CFE6FFDACFE6FFB7EC1A
:100A700012F0E552E552AA0EE66E72EC0FF0E55266
:100A800001012E6B0400F28EF28C3ED81DA606D01A
:100A90001D96E66A8DEC17F0E5522BD01DA807D005
:100AA0001D98200EE66E8DEC17F0E55222D01DA2A7
:100AB00003D02DEC19F01DD01DA004D01D90EDEC3D
:100AC00018F017D01EA004D01E908FEC0FF011D09C
:100AD0001DAA03D01D9AFEEC0FF01DAE03D01D9E83
:100AE000E2EC07F01EA203D01E92DAEC06F038EC1E
:100AF00018F0C8D7060EE15C02E2E16AE552E16E49
:100B0000E552E7CFD9FF120041EC0EF06FBE02D0E4
:060B10005DEC0EF0120086
:0A0B1600010004330000D8010000C4
:040B200003000000CE
:0C0B240025EC0BF0E652030EDF6E7DECBA
:100B30000BF00550300FE66EDF50DF0619EC0BF0BE
:100B4000E552E750EF6E7DEC0BF0FE0E09C0DBFFC7
:100B500009500008ECE3DF50000807E2DF5019EC11
:100B60000BF0200EEF6EDF06F6D7DF5019EC0BF01E
:100B7000200EEF6EE55215EF0BF025EC0BF0040E96
:100B8000E126C6EC0BF000017529E66ECBDFE552DD
:100B9000E552E552500EDF6EC6EC0BF08BEC0BF01D
:100BA0004B0E0001836F846B040EE15C02E2E16A8C
:100BB000E552E16E15EF0BF025EC0BF075C0E6FF8A
:100BC000E66A0C0EE66E5DEC11F0E552E552E55278
:100BD000FE0EDB5001E0D1DF15EF0BF025EC0BF042
:100BE000000165EC0BF0EFCF75F0FE0EDBCFE6FFFA
:100BF000E3DFE552000142EC0BF015EF0BF00001D2
:100C00007729E66EE0EC12F0E552120025EC0BF0CD
:100C100078C07AF079C07BF073EC0BF0FE0EDBCF7E
:100C2000E6FFDCDFE552EBDF15EF0BF025EC0BF018
:100C3000700EE66E000EE66EEBEC0BF001EC0CF0C5
:100C400041EC10F0146E0C0EE15E14500001776B55
:100C50007729E66EE0EC12F0E552FE0EDB5004E080
:100C60004AEC0BF08BEC0BF015EF0BF025EC0BF0D6
:100C700035EC0BF0FE0EDBCFE6FFD8DFE55215EFCB
:100C80000BF001EC0CF0F8EC0BF08BEF0BF025EC1B
:100C90000BF0040EE1260101DA5112E0530EDF6E73
:100CA000DE52450EDD6E510EF36E020EF3CFDBFF0A
:100CB0002D0EF36E030EF3CFDBFFC6EC0BF00AD064
:100CC00035EC0BF04AEC0BF0F3CFE6FFF4CFE6FF88
:100CD000F8EC0BF08BEC0BF0040EE15C02E2E16A45
:100CE000E552E16E15EF0BF025EC0BF0FBEC0AF092
:100CF00019E11550EE1816E11650EE1813E11750D1
:100D0000EE1810E10FE1A1EC0BF09351EE14186E08
:100D10009451EE14196E9551EE141A6E9651A3EC7F
:100D20000BF002E0000E01D0010E15EF0BF0D9CF51
:100D3000E6FFFBEC0AF008E11550EE1805E116504D
:100D4000EE1802E11750EE1802E0000E01D0010E7D
:100D500015EF0BF025EC0BF0E9EC0BF000019351D3
:100D6000EE14146E9451EE14156E9551EE14166E29
:100D7000965121EC0CF019E11550EE1816E11650C1
:100D8000EE1813E11750EE1810E10FE1A1EC0BF093
:100D90008F51EE14186E9051EE14196E9151EE149D
:100DA0001A6E9251A3EC0BF002E0000E01D0010E7E
:100DB00015EF0BF00101D8510AE00001000ED880B8
:100DC0008055000E815503E28007000E815BAAEC7E
:100DD0000BF003E28707000E885B85EC0BF003E263
:100DE0008907000E8A5B000ED8808355000E84555B
:100DF0000BE28307000E845B8351841105E18E05AD
:100E000002E13FDF01D043DFB1EC0BF003E28B07DF
:100E1000000E8C5B000ED8808555000E865556E27C
:100E20000101D951030A24E0010A0FE0030A46E157
:100E3000000185511F0B02E18D512AD06CEC0BF0A3
:100E40003DE115503BE18D5135D0000185511F0B1F
:100E500009E1000E90EC0BF0E552E552010E90EC2A
:100E60000BF023D06CEC0BF029E1155027E118D0E2
:100E7000000185511F0B0FE1000E31EC0BF0010E4C
:100E800031EC0BF0020E90EC0BF0E552E552030E44
:100E900090EC0BF011D06CEC0BF010E115500EE162
:100EA000000EDFDB010E07EC0CF0E552E552020EFE
:100EB000D8DB030E07EC0CF0E552E5520001850784
:100EC000000E865B8551861101E1DCDB120000011A
:100ED0009B510DE187DB7C1906E115507D1903E17B
:100EE0007C6B7D6B12007C2B000E7D2312007F0E2D
:100EF000755D02E1756B1200752B120000019B51AC
:100F00000AE17C517D1103E1B8EC0BF001D07C07C4
:100F1000000E7D5B1200755103E17F0E756F1200AC
:100F20007507120000019B5102E147EF06F0BDEF8B
:100F300005F000019B5103E1E66A98DE03D0010E43
:100F4000E66E3ADEE552120077C070F077C0E6FF39
:100F500060DB0101020EDA6F320E00018B6F8C6BC9
:100F6000776B12002FEC10F0F3CF7EF0F4CF7FF010
:100F700000018D6B836B846B856B866B876B886BD5
:100F8000896B8A6B8B6B8C6B786B796BCBEC0BF012
:100F9000E552CFDB0001996B9A6B9B6B936B946B63
:100FA000956B966B93C08FF094C090F095C091F0C4
:100FB00096C092F02CEC10F00001986F976F020E23
:100FC0008E6F1200DCEC0FF006C08FF007C090F0BF
:100FD00008C091F009C092F02CEC10F00001976F5E
:100FE0009851975D12E07F0E9715E66E7651EA6A8A
:100FF000640FE96E000EEA22EF50E66EE66A0B0E11
:10100000E66E60EC11F037EC0CF029EC10F0000902
:1010100008E100018E5114E08E6B7C6B7D6BBFDBB1
:1010200009D000018E050CE0010E8E6F786B796B94
:10103000E66EFCDDE5520001776BE66AE7DDE5521E
:10104000CDDA200EB9DB31E0000178517A1929E1BF
:1010500079517B1926E17005775D22E18E510EE111
:10106000C1DA7C1906E115507D1903E17C6B7D6BBB
:1010700003D07C2B000E7D2392DB0DD0B3DA7819E0
:1010800006E11550791903E1786B796B03D0782B61
:10109000000E792380DBE5520001776BE66A03D00E
:1010A000772B010EE66EB2DDE55200018E51010A8A
:1010B00001E18BD1010A01E074D20101DA51020A87
:1010C00001E168D1030A01E130D1010A01E069D2EE
:1010D000010E69DB07E00001766B9B0502E124DB72
:1010E00001D067DB020E5FDB08E00001010E766FC6
:1010F0009B0502E119DB01D05CDB040E54DB08E048
:101100000001020E766F9B0502E10EDB01D051DB80
:10111000080E49DB08E00001030E766F9B0502E133
:1011200003DB01D046DB00019B0538E187518811C4
:1011300021E19A511FE1010E6EDB09E1020E6BDB2A
:1011400006E1040E68DB03E1080E65DB13E0000135
:10115000010E9A6FBADA75C0EFFF70C0E6FF59DA78
:1011600028DB0101010ED96F76C08DF0640E0001FD
:10117000856F866B010E53DB09E1020E50DB06E141
:10118000040E4DDB03E1080E4ADB08E0E3DA06E279
:101190009A5104E10EDB0001876B886B1FDA800E29
:1011A0000BDB09E040DB07E1000189518A1103E113
:1011B0001E0E896F8A6B0101D8510EE139DB0CE0FC
:1011C00032DB0AE1000189518A1106E1806B816BF3
:1011D000826B0101010ED86F3ADB08E0000195DA5D
:1011E00002E275DE9FDE0101D86BA3DEF7D9100E97
:1011F000E3DA09E01DDB07E1000189518A1103E10F
:101200001E0E896F8A6B0101D8510EE10CDB0CE0D8
:101210000FDB0AE1000189518A1106E1806B816BC5
:10122000826B0101040ED86F17DB08E000016DDA54
:1012300002E264DE77DE0101D86B7BDEFEDA04E0D9
:101240001E0E00018B6F8C6BC9D9400EE66EB9DAA9
:101250000EE000018B518C110AE10101DA5107E126
:10126000010EDA6F0001776B040E766F10DDB6D9D0
:10127000400EE66EAADA12E074DA10E29B5105E144
:10128000010E9B6F0101030E03D09B6B0101020E47
:10129000D96F640E0001856F866B44DE0101D85161
:1012A00001E17FD100018051811101E07AD101017A
:1012B000D851060A35E0030A29E0010A1DE0070AB1
:1012C00019E0010A0EE0030A01E06BD100DEE7D964
:1012D000050801E042D1826B0101020ED86F050EB4
:1012E00022D0F5DDDCD9140801E04AD1826B01017E
:1012F000030E14D0ECDD15D001DED1D9050801E0D4
:101300002CD1826B0101050ED86F0DD0F7DDC7D946
:10131000140801E035D1826B0101060ED86F02D0AE
:10132000EDDD00DE020E00013AD1010E3CDA08E0EC
:101330000001765105E0766B010E3FD901E104DE34
:10134000020E31DA08E00001760505E0010E766F45
:1013500034D901E1F9DD040E26DA0AE0020E0001BB
:10136000765D06E0020E766F010E27D901E1ECDD15
:10137000080E19DA0AE0030E0001765D06E0030E9E
:10138000766F010E1AD901E1DFDD57DA01E109D1EB
:10139000DBDD07D100018B518C1101E002D17051CE
:1013A000775D04E10101DA6BC4D9FBD028DC9BD95D
:1013B00069D900018AD9EFCF75F0BDEC05F00001C5
:1013C000772B320E8B6F8C6BECD0010EECD903E0D7
:1013D0000001766BEED9020EE6D904E00001010EA1
:1013E000766F4ADA040EDFD904E00001020E766F50
:1013F000E0D9080ED8D904E00001030E766FD9D9E0
:10140000EDD8800ED9D90EE0F8D906E1155079193A
:1014100003E1786B796B03D0782B000E79234AD9DE
:10142000010ED86F14DA01E0AAD9D8D8100EC4D9A9
:101430000CE000017851791102E10CD901D0780754
:10144000000E795B37D9040ED86F06DA01E097D920
:10145000F4D92AE0000178517A1921E179517B19F8
:101460001EE177511BE18E510AE17C517D1102E1B1
:101470007FD901D07C07000E7D5B91D909D07851CE
:10148000791102E1E7D801D07807000E795B83D9A2
:10149000E55200017005776FE66A03D07707010E09
:1014A000E66E06EC06F0E5520101D85101E179D073
:1014B00000018051811175E10101D851060A62E0F5
:1014C000030A4DE0010A38E0070A2AE0010A16E0A3
:1014D000030A67E192D906E11550791903E1786BA7
:1014E000796B03D0782B000E7923DED8050835E11F
:1014F000826B0101020ED86F050E50D07ED906E135
:101500001550791903E1786B796B03D0782B000EB5
:101510007923CAD8140834E1826B0101030E2ED05E
:101520006CD906E11550791903E1786B796B33D0EA
:10153000782B000E79232FD000017851791102E128
:1015400089D801D07807000E795BAED8050805E18F
:10155000826B0101050ED86F21D00F0E20D0000143
:101560007851791102E176D801D07807000E795BC5
:101570009BD8140805E1826B0101060ED86F0DD0CF
:10158000050E0DD000017851791102E163D801D028
:101590007807000E795B41EC06F0020E0001806FC7
:1015A000816B8FC093F090C094F091C095F092C081
:1015B00096F012005CD9000912005ED90001775143
:1015C000772BEA6A680FE96E000EEA2276C0EFFF19
:1015D000FFEC05F0080E0001775D1200E66AE66A8E
:1015E000E66A12007EC014F07FC015F01406000EEB
:1015F000155A14501200EDD800018F51EE14146EDC
:101600009051EE14156E9151EE14166E925121EF19
:101610000CF0E1D878C0E6FF79C0E6FFB6EC10F038
:10162000146E090EE15E14501200E552E7CFD9FFA7
:101630001200E76EFC0EDBCFE9FFFD0EDBCFEAFF09
:10164000E750E926000EEA221200D9CFE6FFE1CFEB
:10165000D9FF12007EC078F07FC079F0010E785F6C
:101660001200D5D8E552E55212007CC0E6FF7DC0DD
:10167000E6FF26EC11F0E552E552F3CF78F0F4CF17
:1016800079F012007651E66EE66A03EC10F0E5524E
:10169000E5521200710EE66E000EE66E120042DC9C
:1016A00000018251822B120041EC06F000018251B0
:1016B000822B120041EC06F00101D86B0F0E0001E5
:1016C000806F816B826B010112007651EA6A600FB4
:1016D000E96E000EEA2212001F0E8515146E156ABF
:1016E0000F0E1418120000017751EA6A680FE96EB4
:1016F000000EEA22EFCF76F012000A0E146E0E6E84
:10170000FE0EDBCF09F06DEF19F0000ED880895581
:10171000000E8A551200C9EC12F0E552E552120093
:10172000E66EE66A10EF10F01E0E876F886B9A6BFC
:1017300012000001776B010EE66E06EC06F0E55232
:101740001200D9508ED0EE141B6E185019101A10BA
:101750001B1012000001000ED8808755000E88551E
:1017600012000001000ED8808B55000E8C5512001F
:101770007EC07CF07FC07DF0010E7C5F1200010115
:10178000D86BE66A16EC06F0E5521200D9CFE6FFF8
:10179000DACFE6FF1200010EE66E16EF06F0010E3C
:1017A000E66E36EF06F0E66E19DF74EC06F0DAEF5F
:1017B0000AF0010E3CEF0CF0E66E74EC06F0DAEF86
:1017C0000AF097EC06F0DAEF0AF0AAEC06F0DAEF8E
:1017D0000AF0E15046D0680EE66E000EE66E640E2A
:1017E000E66E000EE66E600EE66E000EE66E12000D
:1017F00010EC11F03CD84AEF0BF0F4DE0001781940
:10180000120048DF78C0E6FF79C0E6FF1200E66EFE
:10181000E66A1BEF10F0E66EE1DEE1EF0BF0E66E3C
:10182000DDDEE5EF0BF0DADE100EE66EE1EF0BF039
:10183000D5DE800EE66EE1EF0BF0D0DE400EDCEF81
:101840000BF0EE14176EC5DF1450EE181200C6DE52
:10185000800EE66EE5EF0BF0C1DE100EE66EE5EFF2
:101860000BF0FB0FE96EFF0EDA20EA6E1200E55274
:10187000E552E552E5521200E66EEEEC05F0E55257
:02188000120054
:0E18820004011051600BE842E842E842E842DF
:10189000E842000901E012001151070A3CE00B0A7E
:1018A0003AE0070A2FE0010A21E00B0A1DE0020AD4
:1018B0001BE0030A17E0080A0FE0010A0BE00F0A19
:1018C00007E0030A01E01200DDDA040EC76F120020
:1018D0008CEF0CF0C4EF0CF0D5DAC90ECD6F010E11
:1018E000CE6F0CD0DAEF0CF008EF0DF0E2DA010168
:1018F000CD6FCE6BCA0ECD27010ECE23C893010E3D
:10190000D16F1200D6DAEA6ACA0FE96E010EEA2236
:1019100012C4EFFF12001200800E0401105D33E1CB
:101920001351030A1EE0010A09E0030A23E1AADABF
:10193000E60ECD6F2C0ECE6F120E1AD070DA000E9E
:10194000F6262E0E85DA020E0101F76ACD25F66E17
:10195000CE51F7220900F5CFD1F10A00F5CFD2F12F
:1019600009D05DDA040EF6262E0E72DA79DA01015C
:10197000D16FD26B020E0401125D05E0030E125D01
:1019800002E00101C88312007DDA42DA010EE66E40
:10199000CA0EE66E010E87DA12C4C9F104011251B3
:1019A00004E10101050EC76F12000101060EC76FA9
:1019B0001DEF15F00401506B516B10511F0B020A03
:1019C0000FE0030A0BE0010A18E15CDA0401508120
:1019D0000101C8A112D0040150830FD053DA0DD0F9
:1019E00003DA01E0010E2BDACFC1E9FFEA6EEF5016
:1019F000040B03E00401010E506F0101CC0507E167
:101A0000500ECD6F040ECE6FC893020ED16F120030
:101A1000040112050EE110511F0B00090AE132DA30
:101A2000030E0401115D03E10101C88102D001012F
:101A3000C891040112511DE110511F0B020819E158
:101A400014510F0B000915E0CFD901E0010EF7D9B1
:101A5000030E0401115D03E1840E46EF0FF014AF95
:101A600006D0CFC1E9FFD0C1EAFFEF6A1200880EAD
:101A70000DDA12006C500BE1040100513C0BE842FE
:101A8000E8420D0802E14CEF0DF07DEF0DF0040E81
:101A90006C5C01E141D81200D9CFE6FFE1CFD9FF5C
:101AA000E6520101CB6BCC6BD16BD26BEADEDF6A05
:101AB000DF50146E156A010E145C000E15581AE200
:101AC0000101CC5117E1F76ADF34FE0BF736F66EF1
:101AD0000C0EF6262E0EF7220900F5CF14F00800A2
:101AE000F5CF15F004D015C0FAFF1450F96EFBDFE6
:101AF000DF2ADED789D8E552C1D1020E0101CB5DC4
:101B000009E162D8040100BD02D0C80E01D0880EE0
:101B1000006F12003AEF0EF0040E0101C75D09E1FB
:101B200012C46EFF6E50000802E2050E01D0030ED3
:101B3000C76FCB0509E110D8040104BD02D0C80E5F
:101B400001D0880E046F1200090E0401115D02E13C
:101B5000A8EC15F03AEF0EF08AD90101400ED15DE4
:101B6000000ED25905E2D1C1DEFFD2C1DDFF03D0A4
:101B7000400EDE6EDD6A040104930491010EDB5019
:101B80000413DFCF05F4000EDB500101D15F010E1D
:101B9000DB50D25B500ECF6F040ED06FC8A307D0BE
:101BA00047D90BE05DD917D9FBE2DB06F9D740D95D
:101BB00004E072D9FCE2DB06FAD7020EE15C02E235
:101BC000E16AE552E16E5AD152D9030E04010015C3
:101BD000E76E010EE7CFDBFF01C4DFFFDE5001013E
:101BE000D127DD50D223500ECD6F040ECE6F20D9F9
:101BF00004E052D9FCE2DB06FAD7020EE15C02E215
:101C0000E16AE552E16E3AD10101CC5104E1F8D824
:101C1000840E006F1CD0040110AF1BD00101D15104
:101C20000401165D0101D2510401175904E216C4E2
:101C3000D1F117C4D2F190DF0101010ECB6FE0D8D2
:101C4000800E006F500E066F040E076FC80E046FF3
:101C50000FD00101020ECB6F0401056BC80E046F9B
:101C6000400E016F500E026F040E036FC80E006F1E
:101C70006D9812000101CB6BC3D8880E006F046B06
:101C800012006DA60CD80101C70508E16DBA06D097
:101C9000686A696A69806988020EC76F12006D6A96
:101CA000696A6D860101010EC76F12006D6A696A6B
:101CB0000101C76B120056EF0EF00101C75101E19F
:101CC00012006850040B04E06950040B01E038D89E
:101CD0006DB212006850010B04E06950010B01E085
:101CE0004FD86850100B04E06950100B01E023D866
:101CF0006850400B04E06950400B01E037D8685051
:101D0000200B04E06950200B01E032D86850020B30
:101D100004E06950020B01E031D8030E0101C75DF8
:101D200001E212006850080B05E06950080B02E060
:101D3000A1DE68961200698468986D82A19A1200EB
:101D40006D926994689412000101C8A10ED0F8DF69
:101D50006D840101080ED36F070ED46FD307000EF8
:101D6000D45BD351D411FAE16D941200689C120037
:101D700070A002D07FDF7090689A12006892120003
:101D80006A6A686A9F0E6B6E7B0E696E6E6A40D8D7
:101D9000160E706E68A602D06896FCD76D986ADF42
:101DA0000101C891C96B030EC76F1200D9CFE6FFBE
:101DB000E1CFD9FFFD0EDBCFE9FFFE0EDBCFEAFF5F
:101DC000FC0EDB5004E0EE6AFC0EDB06F9D7E552B0
:101DD000E7CFD9FF12005AD8CF2B000ED023CD2B3E
:101DE000CE23DF06010E120064D80F0B080DF3504E
:101DF000156A000F146E040E15221451800B120088
:101E00000401400E016F100E026F040E036F1200EA
:101E10000F0EE66E710EE66E0F0E53EF0FF032D816
:101E200004011251F66EF76AD890F636F7361200B2
:101E3000D9CFE9FFDACFEAFFEE50ED101200040D22
:101E4000F35001011424CF6F000E1520D06F120043
:101E5000F7220900F5CFCDF10A00F5CFCEF112003F
:101E6000CDC1F6FFCEC1F7FF0800F5501200D9CF63
:101E7000E6FFE1CFD9FF020EE1261200E552E7CFDF
:101E8000D9FF12000101010ECC6F1200CFC1E9FF92
:101E9000D0C1EAFFEF6E1200CDC1E9FFCEC1EAFF6B
:101EA000EF50EBEF0EF0E66E81DFE552E552E552C2
:0A1EB0001200E8DF040114511200D3
:061EBA0015DAE652FE0EEF
:101EC000DB50C26E0A0EDF6EDF5002E0DF06FCD789
:101ED000C282C2B2FED7C450E5520AD204DAFE0E64
:101EE0009FDA06D200DAE652080EDF6E8984899402
:101EF0008992FE0EDBBE02D0899601D0898635DA42
:101F00008982DF06F5E18984100EDF6EDF5002E082
:101F1000DF06FCD7899489868982E552E9D1A0DA67
:101F2000DE52010EDD6E030EDB6ADF6ADF5006084B
:101F30001DE3DFCFE6FF34D8E552050EF36E020E47
:101F4000F3CFDBFFDB5003E0020EDB06FBD784A2FE
:101F500009D0030EDBCFE7FF010EDB50E712030EC3
:101F6000E7CFDBFF010E01DADF2AE0D7030EDBCF7C
:101F70002FF101012F9F2F4781B82F812F1D2F6F28
:101F8000070EDF6EDFCFE6FF0BD8E5521F8084A27D
:101F90001F90040EE15C02E2E16AE552E16EA8D115
:101FA000A2D98998899A8D90FE0EDBB08988DBB220
:101FB000898ADBB48D809CD153DADE6ADE6ADE6A00
:101FC000DD6ADD52DD52F00E01012F15E76E030EC2
:101FD000E7CFDBFF0F0E2F15DF6EDECF06F0DECF73
:101FE00007F0DECF08F0DDCF09F0DD52DD52040E40
:101FF000E15C02E2E16AE552E16E7AD12EC1E6FFD0
:1020000071DFE55212006FD901012E6BB5D904E0E2
:10201000D890F336E806FCE1F35001012E1368D1A5
:1020200062D9AAD904E0D890F336E806FCE1F3506F
:1020300001012E135DD157D99FD904E0D890F33612
:10204000E806FCE1F350146EFF0EF31801012E17A1
:102050004FD11F50010B120001013051120043D922
:10206000020EC6D9DECF14F0DDCF15F014C0F3FF99
:1020700015C0F4FF020EE15C02E2E16AE552E16E96
:1020800037D131D945D96BE25ED97BD9FEE183D90D
:10209000040E1BD97F0BE66EF90EDBCFE9FFFA0EBB
:1020A0004CD9050EF4D9B0D9060E0FD954D9ACD9F4
:1020B000070EF0D9A9D9080E08D97F0BE66EF70EE6
:1020C000DBCFE9FFF80E39D9090EE1D9A3D90A0E01
:1020D000FCD841D99FD90B0EDDD99CD90C0EF5D86F
:1020E000070B010FE66EF30EDBCFE9FFF40E25D9E7
:1020F000060E146E0D0EA1D904E0E8427F0BE70630
:10210000FCE1E66EF50EDBCFE9FFF60E16D90D0EFB
:102110009AD9010E5CD90D0E89D9020E58D90D0E2F
:10212000D4D8030BE66E030E52D9060E146E0E0EB3
:1021300084D904E0E8427F0BE706FCE1E66E040E7A
:1021400046D90E0E80D9050E42D90E0E6FD9060E55
:102150003ED90E0EBAD8030BE66E070E38D9040E20
:10216000E15C02E2E16AE552E16EC2D0BCD8460E03
:10217000E126E9D806D9FEE109D9400E14C0DBFFFB
:10218000410E15C0DBFF400EDBCF14F0410EDBCF5C
:1021900015F0C00E1416FF0E1516420E14C0DBFF0C
:1021A000430E15C0DBFF3F0EE76E400EDBCF14F091
:1021B000410EE7501416156A440E14C0DBFF450E9D
:1021C00015C0DBFF420EDBCFE6FF430EDBCFE6FFA1
:1021D00009D8E552E552460EE15C02E2E16AE552B9
:1021E000E16E86D080D8E652DF6A400EDF5C16E2F0
:1021F000FD0EDBCFF6FFDB2AFE0EDBCFF7FF01E3A0
:10220000DB2A4BD9E66EDF50EA6A070FE96E010E52
:10221000EA22E552E750EF6EDF2AE7D7E55268D0B1
:102220001FD9000EE96E490EEA6EEECFDEFFEDCF4C
:10223000DDFFD4D804E287D8A4D8FEE1ACD8040EE0
:10224000E15C02E2E16AE552E16E52D04CD860D81E
:1022500003E3F36AF46A2AD0DECF16F0DDCF17F07D
:10226000040ED89016361736E806FBE1400E162607
:10227000000E1722020E086E096AFD0EDBCF0DF06C
:10228000FE0EDBCF0EF00FEC19F016500624146E84
:1022900017500720156E30D80900F5CF14F008004C
:1022A000F5CF15F014C0F3FF15C0F4FF040EE15C88
:1022B00002E2E16AE552E16E1BD015D82DD818D0A4
:1022C00012D82AD8FB0EACD813D0E76EC2D834EFA0
:1022D00012F0DBCFEAFFE750E926000EEA22E552D2
:1022E000E750EF6E1200D9CFE6FFE1CFD9FF120021
:1022F000E552E7CFD9FF1200020E14C0DBFF030E38
:1023000015C0DBFFA6D8000EF626490EF7221200F4
:10231000040E6ED8EEEF11F0FD0EDB500F0B146EB5
:10232000FE0EDB500F0B100DF3501410E66E6EEC2A
:1023300018F0E552FC0E10EF12F0DBCFEAFFE55289
:10234000E750EF6E12009CD8040E12007F0BE66E71
:10235000010EE76E12007F0BE66E020EE76E1200B2
:102360007F0BE66E030EE76E1200DBCFF3FFF39EEA
:10237000F346F3CFDBFF1200010EF36EFD0EDB50D0
:102380001200D89014361536E8061200400E1426B6
:10239000000E15221200FADFAFDF0800F5507F0BA8
:1023A000E66EFB0EDBCFE9FFFC0EC7DF010E6FD838
:1023B00061D8020EE76EDBCFF6FF030EDBCFF7FF2F
:1023C00053D8C9DF57D8030E65D83AEF12F0E76E3D
:1023D000F50EDBCFE9FFF60E69EF11F051D8DECF35
:1023E00016F0DDCF17F01650145C17501558120078
:1023F000E126000EF66E490EF76E0900F5CFDEFFFE
:102400000A00F5CFDDFF1200F90EDBCFE9FFFA0E6F
:1024100069EF11F0F70EDBCFE9FFF80E69EF11F06D
:10242000DBCFE6FF6EEC18F0E55212004EDF0C0B2E
:10243000E840E8403F0BE66E120047DFC00B14C0D7
:10244000E7FFE752120041DF300BE8380F0BE66E72
:102450001200020EDBCFF6FF030EDBCFF7FF1200F8
:1024600042DF040EE1261200E750F626000EF722A6
:102470004DEF12F0FB0EDBCFE9FFFC0E69EF11F020
:10248000FD0EDBCF14F0FE0EDBCF15F012001DDFCA
:10249000A6EF11F01ADFB0EF11F0000EF626490E8C
:0824A000F7220800F5501200BC
:0824A80000018E0502E10101B3
:1024B000008F22D801013651040A10E0070A0CE00F
:1024C000010A08E0030A04E0010A0DE18A9A07D034
:1024D0008B9005D08A9603D08A9401D08A9236C117
:1024E000E6FF18D8E5520101362B01012D510101FB
:1024F000365D01E3366B12008A908C9E8C9C8C9A20
:102500008C988B948C968C948A8A8B808A868A8409
:102510008A821200EAD8E652FE0EDB50EA6A000F09
:10252000E96E010EEA22EFCFDFFFC3D8010B01E015
:102530008A80BFD8020B01E08C8EBBD8040B01E06F
:102540008C8CB7D8080B01E08C8AB3D8100B01E053
:102550008C88AFD8200B01E08B84ABD8400B01E016
:102560008C86A7D8800B01E08C84E552C3D0BDD8FF
:10257000E3D8050EE8D804E2A2D8DB50CBD8F9D7CF
:10258000F28EF28C020EE15C02E2E16AE552E16E4B
:10259000B1D0ABD8D1D8040ED6D809E290D8DBCFD1
:1025A000E6FF030EE552D880E754B4D8F4D7F28E94
:1025B000F28C020EE15C02E2E16AE552E16E9AD031
:1025C00094D8F29EF29CFE0EDB50300FE66E06D8D9
:1025D000E5520101046FF28EF28C8CD086D8410E48
:1025E000A4D80BE3610EA1D802E3610E01D0410E25
:1025F00085D89E0FF66E320E08D0300E96D80BE3BB
:10260000300E7CD8940FF66E320EF7220800FE0EC4
:10261000F5CFDBFF10D0FE0EDB5020080AE0FE0EE7
:10262000DB502D0806E1400EF36EFE0EF3CFDBFF0C
:1026300002D0FE0EDB6ADB505DD057D8060EE126D5
:10264000050EDB6AF36EDBCFF4FFE850F45C1DE2AD
:10265000050EDB5001017825EA6A370FE96E010E9D
:10266000EA22EF50E66ED9CF14F0DACF15F0050E5E
:10267000DB500F01D924E96E000EDA20EA6EE55234
:10268000E750EF6E050EDB2ADDD7D9CFE6FFDACFB4
:10269000E6FF6DDFE552E55201017807785102E16E
:1026A00077C178F1060EE15C02E2E16AE552E16E83
:1026B00021D0D9CFE9FFDACFEAFFEF501200010EA7
:1026C000DB50E76EFD0EDBCFE9FFFE0EDBCFEAFF4E
:1026D000E750E926000EEA22EFCFDFFFDFCFE6FF6B
:1026E0007DDFE552E66E010E1200D9CFE6FFE1CFA5
:1026F000D9FF1200E552E7CFD9FF1200146EFE0E8B
:10270000DBCFE7FF1450E75EFE0EE7CFDBFFDB50C9
:10271000F76A1200EA6A000FE96E010EEA22E5523A
:10272000E750EF6E010EDB2A1200F36EFE0EDBCFD8
:10273000F4FFF350F45C1200020EE126F29EF29CCC
:10274000010EDB6A1200F36E010EDBCFF4FFF350D3
:04275000F45C120023
:0C275400D9CFE6FFE1CFD9FF110EE1263E
:102760000101C6690101010E856F870EDE6E010E43
:10277000DD6E040111056BE11251B40A56E0760AD0
:1027800047E0590A3FE0020A36E0010A25E00F0A55
:102790001CE0010A14E0BA0A09E0830A58E1CFD824
:1027A000E66ACAD8E66AC8D8E66A2FD0BCEC15F04B
:1027B000000902E0C4D84BD00101C66948D0BFD897
:1027C000A0A845D0010EC66F3FD0B9D827C1E6FFFB
:1027D000B3D828C1E6FF39D0B2D8040E29C1DBFF37
:1027E000050E2AC1DBFF040EDBCFE9FF050EDBCFB0
:1027F000EAFFEF5018D0A3D829C1E6FF9DD82AC11F
:10280000E6FF23D09CD8030EE66E96D8E66A1DD06C
:1028100096D80A0EE66E90D8140EE66E8DD8230E6A
:10282000E66E8AD8690EE66E10D089D8A0B803D0BB
:10283000F29EF29C0CD0010EC66FE6687DD8E66869
:102840007BD8E6685BD8E552E66858D8E552090EB1
:102850000401115D3AE11251B40A34E02E0A32E06B
:10286000030A29E0010A1FE00F0A16E0010A0DE041
:10287000BA0A2BE110EC16F0000903E00101020E88
:1028800002D00101010EC66F20D00101020EC66FF9
:10289000A0A81BD0010E18D047D8EFCF27F153D8EE
:1028A000EFCF28F112D040D8EF5029C1E9FF2AC15B
:1028B000EAFFEF6E0AD038D8EFCF29F144D8EFCF36
:1028C0002AF103D00101020EC66FFF0E0101C65DA1
:1028D0000BE0090E0401115D07E012C450F4010180
:1028E00085510101D16FD26B110EE15C02E2E16A08
:1028F000E552E16EE552E7CFD9FF1200D9CFE6FFEE
:10290000E1CFD9FF400E0101855D0AE28551EA6AF7
:10291000500FE96E040EEA22FE0EDBCFEFFF852B8F
:10292000E552E7CFD9FF12000101020EC66FDECFDC
:10293000E9FFDDCFEAFF1200E1DFE55212000101FD
:10294000050EC66F1200DECFE9FFDDCFEAFF010EF4
:08295000E926000EEA22120044
:08295800040110511F0B0108DE
:1029600001E01200145101E01200060E115D24E195
:102970001351230A1FE0010A0DE0030A1BE1E4D80A
:102980000101C90505E101010A0ECD6F2D0ECE6FC3
:10299000090E0DD0D9D80101C90505E10101840E48
:1029A000CD6F2D0ECE6F0101C90504E17C0E010132
:1029B000D16FD26B0101C88304011051600BE84252
:1029C000E842E842E842E842010801E01200115101
:1029D0000B0A2FE0080A21E0090A1BE0080A13E0AD
:1029E0000B0A05E0080A01E01200ADEF15F0010145
:1029F000860ECF6F010ED06F0101C8930101D16B1C
:102A0000D26BA4EF15F0A0D80101D50ECD6F010E49
:102A100009D09AD813C4D5F1120096D80101D60E68
:102A2000CD6F010ECE6F0101C8930101010ED16F70
:102A300012008AD812C4D6F112000101D76B1E0E03
:102A4000716E0401080E096F900E0A6F040E0B6F71
:102A5000880E086F0401980E0E6F040E0F6F400E63
:102A60000C6F1200D9CFE6FFE1CFD9FFE652FC0E82
:102A7000DB50080805E2080EF36EFC0EF3CFDBFF17
:102A8000DF6AFC0EDB50DF5C0FE2DF5051D8EF5005
:102A9000E66EDF50EA6A980FE96E040EEA22E5520C
:102AA000E750EF6EDF2AEDD7FC0EDBCF0DF4400EC2
:102AB00004010C170C7D880E0C13E552E552E7CF8C
:102AC000D9FF1200D9CFE6FFE1CFD9FF0101D76BC3
:102AD000040108BF27D0FC0EDBCF14F00951D880C9
:102AE000145403E2FC0E09C4DBFF0101D76BFC0E9A
:102AF000DB50D75D0FE2D751EA6A900FE96E040E02
:102B0000EA22EF50E66ED75113D8E552E750EF6E48
:102B1000D72BEDD70401080E096F400E0817087D6A
:102B2000880E08130101D751E552E7CFD9FF1200F3
:102B3000E76EFD0EDBCFE9FFFE0EDBCFEAFFE750CD
:102B4000E926000EEA2212000101020ECC6F1200EB
:102B50001C88AAEC13F01C9812001C88AAEC13F035
:102B60000101020ECC6F0101500ECD6F040ECE6F2D
:102B70000101C8931C981200D9CFE6FFE1CFD9FF1D
:102B8000020EE126DE52010EDD6EDBC1E6FF90D8BB
:102B90000101DB51300A26E0010A17E0030A24E1B3
:102BA000010EE66E85D82BC1E6FF82D82CC1E6FF68
:102BB0007FD8DF6A200EDF5C21E2DF500101F76A77
:102BC0002B25F66E2C5188D8F5D77CD8DF6A200EDD
:102BD000DF5C14E2DF500101F76A0525F66E06514D
:102BE0007BD8F5D76FD80AD0E66A62D8DF6A3E0E86
:102BF000DF5C04E2E6685CD8DF2AF9D7400E010109
:102C0000855D05E2E66A54D80101852BF7D7010EF0
:102C1000DB50146E020EE15C02E2E16AE5524CD038
:102C2000D9CFE6FFE1CFD9FF040EE126DE52010E37
:102C3000DD6E87C1DBF101018751320A2CE0030A06
:102C400009E0010A2CE189C105F18AC106F1B8EC5D
:102C500017F025D089C105F18AC106F1DF6A200E7F
:102C6000DF5C14E2050EDF24EA6A860FE96E010ECE
:102C7000EA22EF50E66EDF50EA6A070FE96E010EB6
:102C8000EA22E552E750EF6EDF2AE9D7E66A8DECDB
:102C900017F0E55204D089C12BF18AC12CF1010E45
:102CA000DB50146E040EE15C02E2E16AE55204D0EE
:102CB0007EEC14F0E5521200E16E1450E552E7CFBD
:102CC000D9FF1200010EE66EF3DF05C1E6FFF0DF6B
:102CD00006C1E6FF58EF16F0F7220800F550E66E41
:062CE000E7DFDF2A12000D
:0A2CE6001201100100000040AE09C9
:102CF000304410000102030109022200010100A07A
:102D00003209040000010300000009211001000144
:102D1000227C000705810308002804030904180326
:102D20004A006F0065000000000000000000000085
:102D30000000000000002C034D0049004400490041
:102D400020004400650076006900630065002000F3
:102D50000000000000000000000000000000000073
:102D60000000220336003900310032003000360006
:102D700030004200200000000000000000000000C1
:102D80000000000006FFFF0901A10175089501265A
:102D9000FF001500859609C0B102752085B409D2DF
:102DA000B1027510859709C1B1027508859809C2ED
:102DB000B1027510859909C3B102859C09D4B1028D
:102DC0007510859D09D5B102859B09C5B102752095
:102DD00085AF09E9B10285AF09E981A276000285D4
:102DE000B009EAB102752085C209D6B102859A09F7
:102DF000C4B1027508953F852C09040904B102C0CD
:0E2E0000F82CF82C1A2D1E2D362D622D582977
:022E0E000001C1
:102E1000020304050506070708080909090A0A0A42
:102E20000B0B0B0B0C0C0C0C0C0C0D0D0D0D0D0DE0
:102E30000D0E0E0E0E0E0E0E0E0F0F0F0F0F0F0FAC
:102E40001010101010101011111111111212121275
:102E50001213131313131414141414151515151534
:102E600016161616171717171818181819191919EA
:102E70001A1A1A1A1B1B1B1C1C1C1C1D1D1D1E1E96
:102E80001E1F1F1F20202021212122222323232433
:102E90002425252626262727282829292A2A2B2CB7
:102EA0002C2D2D2E2E2F3030313232333434353616
:102EB000373738393A3B3B3C3D3E3F404142434443
:102EC00045464748494A4B4C4D4E4F50515253543A
:102ED00055565758595A5B5C5D5E5F60616263642A
:102EE00065666768696A6B6C6D6E6F70717273741A
:102EF00075767778797A7B7C7D7E7FFFFFFFFFFF99
:0E2F0000FFFFFFFFFFFFFFFFFFFFFFFFFFFFD1
:022F0E00550E5E
:102F1000A76EAA0EA76EA68212004CD8E652E00E4B
:102F200001010517840EA66EFE0EDB50DF6EFE0E4D
:102F3000DB50200FDF5C1AE2DF50EA6A070FE96E10
:102F4000010EEA22EFCF14F0DF500101F76A0525E8
:102F5000F66E0651F722F86A14C0F5FF0C001F0E3A
:102F6000DF141F0801E1D3DFDF2AE1D7E55227D0C4
:102F7000940EA66E05C1F6FF06C1F7FFF86AC7DF1B
:102F8000F86A120017D8A66AFE0EDB50A96EA6805A
:102F9000A85015D00FD8A6A202D0000E0AD0FE0E5F
:102FA000DB50A96EFD0EDB50A86E040EA66EAFDFDF
:102FB000010E05D0D9CFE6FFE1CFD9FF1200E552CF
:062FC000E7CFD9FF12006B
:0A2FC600DACFE4FFE2CFDAFFE9CF33
:102FD000E4FFEACFE4FFF6CFE4FFF7CFE4FFF5CF5D
:102FE000E4FFF3CFE4FFF4CFE4FFFACFE4FF00EE19
:102FF00000F0140EE80403E3EECFE4FFFBD700EE8D
:1030000014F0080EE80403E3EECFE4FFFBD7E6522A
:103010009EA20AD09E920101312B040E315D04E183
:10302000316B1D8054EC12F0E55200EE1BF0080EDF
:10303000E80403E3E5CFEDFFFBD700EE13F0140E39
:10304000E80403E3E5CFEDFFFBD7E5CFFAFFE5CFDB
:10305000F4FFE5CFF3FFE5CFF5FFE5CFF7FFE5CFD1
:10306000F6FFE5CFEAFFE5CFE9FFE5CFDAFF110094
:10307000D9CFE6FFE1CFD9FF050EE1269EBA13D0E6
:10308000010183510101845D02E13ED81DD09EA85B
:103090001BD08451EA6A7B0FE96E010EEA22EF50E1
:1030A000AD6E842B11D0AB50020B03E1AB50040B7F
:1030B00009E0AB98010EAECFDBFFAECFDBFFAB88F4
:1030C0001C9202D0AE50DF6E050EE15C02E2E16AB6
:1030D000E552E16EE552E7CFD9FF1200D9CFE6FF06
:1030E000E1CFD9FF080E0101835D0AE28351EA6A4C
:1030F0007B0FE96E010EEA22FE0EDBCFEFFF832B82
:10310000E552E7CFD9FF12000101836B0101846B07
:023110001200AB
:0E3112007BEC19F0896A8A6A8B6A8C6A8D6A76
:10312000010E926E100E936EF80E946E956A020E5A
:10313000966E0101050E2D6FA60EAC6E900EAB6E55
:10314000100EAF6E010EB06E400EC26E0E0EC16E4E
:10315000060EC06EF26A800EF16ED08ED76AD66A05
:10316000D56ACC6AF90ECB6E0D0ECA6E020E9D6E3C
:10317000F28E140E6F6E0101C76B0101C86B010165
:04318000C96B120005
:0C318400D9CFE6FFE1CFD9FFFE0EDB50F3
:10319000A96EA69EA69CA680A850E552E7CFD9FFAF
:1031A0001200D9CFE6FFE1CFD9FFFE0EDB50A96EAA
:1031B000FD0EDB50A86EA69EA69CA684F29E550E20
:1031C000A76EAA0EA76EA6820400A6B2FDD7F28E45
:0A31D000A694E552E7CFD9FF1200E4
:0631DA000101322B0A0E78
:1031E000325D1CE1326B1D821D8E1D8A1E82010123
:1031F000342B040E345D02E1346B1E800101352B4B
:10320000020E355D01E1356B0101332B640E335D38
:0E32100005E1336B1FA202D01DEC13F012007B
:02321E0008C0E6
:1032200012F008500D02F4CF07F0F3CF06F009506A
:103230000E02F4CF09F0F3CF08F00D02F350072689
:10324000F4500822E86A092212500E02F3500726B1
:0A325000F4500822E86A0922000C7D
:06325A00D9CFE6FFE1CF31
:10326000D9FFE6521D92010EE66E5DEC0FF0E552BD
:10327000F76A0E0FF66E2E0EF7220800F550DF6E7D
:10328000FF0EDF5C02E0DFCF30F1E552E552E7CF21
:04329000D9FF120050
:0C3294003F065B4F666D7D077F67777C0F
:1032A000585E79716F74061E003800545C73E750E5
:0832B0006D071C1C00766E5B2B
:0832B80017EE00F027EE00F014
:1032C000F86A019CEA6AE96A0400EE6AEAA664EF19
:0A32D00019F015EC05F0FDD712000F
:0632DA00056A080EE76E14
:1032E000D890093605360E50055C02E3056E092AB2
:0632F000E72EF7D71200E3
:0A32F600EA6AE96A0400EE6AEAA63B
:04330000FCD71200E4
:03330400000000C6
:1049000004000000000000000000000000000000A3
:104910000000000000000000000000000000000097
:104920000000000000000000000000000000000087
:104930000000000000000000000000000000000077
:10494000534F43311314030200000000051BB00055
:10495000534F43320204050000000000031B000017
:10496000524F45203C2F021800000000031B00009E
:10497000455320205101031500000000051B900045
:104980000300020000000100000000000000000021
:104990000000000000000000000000000000000017
:1049A0000000000000000000000000000000000007
:1049B00000000000000000000000000000000000F7
:1049C00000000000000000000000000000000000E7
:020000040030CA
:0100000029D6
:010001000EF0
:0100020026D7
:010003000FED
:010005008179
:010006008178
:010008000FE8
:01000900C036
:01000A000FE6
:01000B00E014
:01000C000FE4
:01000D0040B2
:00000001FF
