:020000040000FA
:0600000015EF05F01200EF
:060008002AEF18F01200BF
:060A0000A6EF19F0120040
:060A08002AEF18F01200B5
:060A2A00D9CFE6FFE1CF89
:100A3000D9FF060EE126D1EC18F0A2EC07F06F0EFC
:100A4000DF6EDE526C0EDD6EF36E020EF3CFDBFF57
:100A5000650EF36E030EF3CFDBFF680EF36E040E2C
:100A6000F3CFDBFFD9CFE6FFDACFE6FF11EC13F0CF
:100A7000E552E552AA0EE66E0EEC0CF0E5520101CD
:100A80002E6BF28EF28C36D81DA603D01D96E66A28
:100A900005D01DA807D01D98200EE66ED4EC17F0E7
:100AA000E552EFD71DA203D053EC19F0EAD71DA0F1
:100AB00004D01D9070EC19F0E4D71EA004D01E9055
:100AC0002BEC0CF0DED71DAC03D01D9CB8EC12F063
:100AD0001DAA03D01D9AAEEC0CF01DAE03D01D9ED6
:100AE000C6EC07F01EA203D01E92CAEC06F080EC02
:100AF00018F0C7D79CEC11F06FBE02D0B8EC11F023
:020B00001200E1
:0E0B0200020074330000C7010000280000004C
:0C0B1000733300008600000001000000AC
:040B1C000CEC0BF0E2
:100B2000E652030EDF6E5FEC0BF00550300FE66E01
:100B3000DF50DF06F5EC0AF0E552E750EF6E5FECB0
:100B40000BF0FE0E09C0DBFF09500008ECE3DF509C
:100B5000000807E2DF50F5EC0AF0200EEF6EDF062A
:100B6000F6D7DF50F5EC0AF0200EEF6EE55201EFFC
:100B70000BF00CEC0BF0040EE126D9CFE6FFDACF38
:100B8000E6FF00017529E66EC9DFE552E552E55240
:100B9000500EDF6ED9CFE6FFDACFE6FF6DEC0BF03B
:100BA000E0C1CCF1E1C1CDF1040EE15C02E2E16A09
:100BB000E552E16E01EF0BF00CEC0BF075C0E6FFB7
:100BC000C7C1E6FF0C0EE66E68EC0EF0E552E5528A
:100BD000E552FE0EDB5001E0CCDF01EF0BF00CEC38
:100BE0000BF02AEC0BF0EFCF75F0FE0EDBCFE6FF3B
:100BF000E3DFE552000122EC0BF001EF0BF0000106
:100C00007729E66E37EC13F0E55212000CEC0BF08E
:100C100078C07AF079C07BF055EC0BF0FE0EDBCF9C
:100C2000E6FFDDDFE552EBDF01EF0BF00CEC0BF044
:100C3000700EE66E000EE66EBDEC0BF0D4EC0BF021
:100C4000F1EC0CF0146E0C0EE15E14500001776BA9
:100C50007729E66E37EC13F0E552FE0EDB5004E028
:100C600050EC0BF06DEC0BF001EF0BF00CEC0BF01B
:100C700015EC0BF0FE0EDBCFE6FFD8DFE55201EFFF
:100C80000BF0D4EC0BF016EC0EF0B5EC0BF050ECD6
:100C90000BF06DEF0BF00101D85104E06E0EE66E23
:100CA000330E0FD015EC0BF050EC0BF0F3CFE6FF4A
:100CB000F4CFE6FF16EC0EF0B5EC0BF0710EE66E1D
:100CC000000EE66E6DEF0BF00CEC0BF0DBEC0AF0B7
:100CD00019E11550EE1816E11650EE1813E11750F1
:100CE000EE1810E10FE183EC0BF0E651EE14186EF4
:100CF000E751EE14196EE851EE141A6EE95185ECC5
:100D00000BF002E0000E01D0010E01EF0BF0D9CF85
:100D1000E6FFDBEC0AF008E11550EE1805E116508D
:100D2000EE1802E11750EE1802E0000E01D0010E9D
:100D300001EF0BF00CEC0BF0B3EC0BF00101E65102
:100D4000EE14146EE751EE14156EE851EE14166EA3
:100D5000E951E8EC0BF019E11550EE1816E11650C8
:100D6000EE1813E11750EE1810E10FE183EC0BF0D1
:100D7000E251EE14186EE351EE14196EE451EE14C4
:100D80001A6EE55185EC0BF002E0000E01D0010E69
:100D900001EF0BF00101D6510AE00001000ED880EE
:100DA0008055000E815503E28007000E815B8CECBC
:100DB0000BF003E2D007000ED15B67EC0BF003E20F
:100DC000D207000ED35B000ED880CC55000ECD5557
:100DD0000CE2CC07000ECD5BCC51CD1106E1000139
:100DE000830502E14EDF01D056DF93EC0BF003E206
:100DF000D407000ED55B000ED880CE55000ECF551F
:100E000051E2D751030A22E0010A0EE0030A41E150
:100E1000CE511F0B02E1D95126D049EC0BF039E13C
:100E2000155037E1D95131D0CE511F0B09E1000ED9
:100E300072EC0BF0E552E552010E72EC0BF020D093
:100E400049EC0BF026E1155024E115D0CE511F0BD3
:100E50000DE1000EE6DB010EE4DB020E72EC0BF09E
:100E6000E552E552030E72EC0BF011D049EC0BF099
:100E700010E115500EE1000ED4DB010EDAEC0BF0A0
:100E8000E552E552020ECDDB030EDAEC0BF0E55233
:100E9000E5520101CE07000ECF5BCE51CF1102E12A
:100EA0000001D0DB12000101EE510EE17BDB0001FD
:100EB0007C1906E115507D1903E17C6B7D6B1200F6
:100EC0007C2B000E7D2312007F0E0001755D02E178
:100ED000756B1200752B12000101EE510BE1000140
:100EE0007C517D1103E19AEC0BF001D07C07000EE0
:100EF0007D5B12000001755103E17F0E756F1200DA
:100F0000750712000101EE5102E14BEF06F0B9EF57
:100F100005F00101EE5103E1E66AA8DE03D0010EFF
:100F2000E66E4ADEE552120077C070F077C0E6FF49
:100F300050DB0101020ED86F320ED46FD56B000169
:100F4000776B1200DFEC0CF0F3CF7EF0F4CF7FF084
:100F50000001786B796BA8EC0BF0E552CCDB01015A
:100F6000E66BE76BE86BE96BE6C1E2F1E7C1E3F141
:100F7000E8C1E4F1E9C1E5F1DCEC0CF00101EB6F53
:100F8000EA6FD9EC0CF00001836F120083EC0CF0D7
:100F900006C0E2F107C0E3F108C0E4F109C0E5F1E1
:100FA000DCEC0CF00101EA6FEB51EA5D13E07F0E1F
:100FB000EA15E66E00017651EA6A640FE96E000EEA
:100FC000EA22EF50E66EC7C1E6FF0B0EE66E6BEC51
:100FD0000EF0CBDBD9EC0CF0000908E10001830531
:100FE00014E1836B7C6B7D6BB7DB09D0000183510F
:100FF0000CE1010E836F786B796BE66E17DEE552BC
:101000000001776BE66A02DEE552E66ADADB000E83
:10101000000931E0000178517A1929E179517B19F1
:1010200026E17005775D22E183510EE1BBDA7C1980
:1010300006E115507D1903E17C6B7D6B03D07C2BA1
:10104000000E7D2389DB0DD0ADDA781906E115504D
:10105000791903E1786B796B03D0782B000E792333
:1010600077DBE5520001776BE66A03D0772B010E40
:10107000E66ECCDDE55200018351010A01E178D131
:10108000010A01E062D20101D851020A01E155D101
:10109000030A01E11DD1010A01E057D2010E6ADB0A
:1010A00008E00001766B0101EE0502E11FDB01D0D3
:1010B00057DB020E5FDB09E00001010E766F0101D4
:1010C000EE0502E113DB01D04BDB040E53DB09E03C
:1010D0000001020E766F0101EE0502E107DB01D08F
:1010E0003FDB080E47DB09E00001030E766F0101CC
:1010F000EE0502E1FBDA01D033DB0101EE053FE151
:10110000D051D11124E1ED5122E1010EE66E29DA30
:101110000CE1020EE66E25DA08E1040EE66E21DA35
:1011200004E1080EE66E1DDA12E00101010EED6F1A
:1011300091DA75C0EFFF70C0E6FF4BDA11DB0101F9
:10114000010ED76F76C0D9F1640ECE6FCF6B010E52
:10115000E66E0FDA0CE1020EE66E0BDA08E1040E21
:10116000E66E07DA04E1080EE66E03DA08E0D4DA88
:1011700006E2ED5104E1F4DA0101D06BD16B0EDB34
:1011800009E00FDB07E10101D251D31103E11E0E8B
:10119000D26FD36B0101D6510FE103DB0DE001DB10
:1011A0000BE10101D251D31107E10001806B816B8A
:1011B000826B0101010ED66F01DB08E0010187DAC5
:1011C00002E271DE9FDE0101D66BA3DEE7DA09E001
:1011D000E8DA07E10101D251D31103E11E0ED26F0B
:1011E000D36B0101D6510FE1DCDA0DE0DADA0BE165
:1011F0000101D251D31107E10001806B816B826B39
:101200000101040ED66FDADA08E0010160DA02E2C9
:1012100063DE78DE0101D66B7CDEC0DA04E01E0EF0
:101220000101D46FD56BBDDA0DE00101D451D511A8
:1012300009E1D85107E1010ED86F0001776B040E68
:10124000766F29DDBBDA0FE06EDA0DE2EE5104E1D4
:10125000010EEE6F030E02D0EE6B020ED76F640E1E
:10126000CE6FCF6B4FDE0101D65101E16ED100018F
:101270008051811101E069D10101D651060A25E0B2
:10128000030A1DE0010A15E0070A11E0010A09E05E
:10129000030A01E05AD107DEF1D9050801E02BD19C
:1012A000F7D001DEEBD9140801E03BD103D1FBDD1F
:1012B0000DD012DEE3D9050801E01DD117D10CDEF7
:1012C000DDD9140801E02DD127D106DE1BDE39D18E
:1012D000010E50DA08E00001765105E0766B010E50
:1012E00050D901E121DE020E45DA08E00001760561
:1012F00005E0010E766F45D901E116DE040E3ADAFB
:101300000AE0020E0001765D06E0020E766F010E25
:1013100038D901E109DE080E2DDA0AE0030E0001DA
:10132000765D06E0030E766F010E2BD901E1FCDD40
:1013300035DA01E10AD1F8DD08D1D451D51101E047
:1013400004D100017051775D04E10101D86BD3D95C
:10135000FCD055DCAAD976D97DD9EFCF75F0B9ECA0
:1013600005F00001772B320E0101D46FD56BEDD063
:10137000010E00DA03E00001766BF2D9020EFAD911
:1013800004E00001010E766F2FDA040EF3D904E0B9
:101390000001020E766FE4D9080EECD904E00001DA
:1013A000030E766FDDD9FAD90EE0F4D906E11550B7
:1013B000791903E1786B796B03D0782B000E7923D0
:1013C00051D9010ED66FFAD901E0BBD9E7D90CE0AB
:1013D00000017851791102E118D901D07807000E87
:1013E000795B40D9040ED66FE9D901E0AAD9D6D9E4
:1013F0002AE0000178517A1921E179517B191EE127
:1014000077511BE183510AE17C517D1102E192D9B0
:1014100001D07C07000E7D5B9FD909D078517911EE
:1014200002E1F3D801D07807000E795B91D9E5523B
:1014300000017005776FE66A03D07707010EE66E4C
:1014400006EC06F0E5520101D65101E17ED0000123
:101450008051811101E079D00101D651060A66E080
:10146000030A4EE0010A36E0070A28E0010A14E008
:10147000030A6BE18FD906E11550791903E1786B06
:10148000796B03D0782B000E7923FDD8050833E162
:10149000826B0101020E2DD07DD906E1155079191C
:1014A00003E1786B796B03D0782B000E7923EBD8AE
:1014B000140837E1826B0101030E31D06BD906E1CC
:1014C0001550791903E1786B796B39D0782B000EC0
:1014D000792335D000017851791102E196D801D0F5
:1014E0007807000E795BCFD8050805E1826B010112
:1014F000050ED66F16D0DAC180F0DBC181F025D0A1
:1015000000017851791102E180D801D07807000EEE
:10151000795BB9D8140805E1826B0101060ED66F1C
:1015200010D0DCC180F0DDC181F00FD00001785116
:10153000791102E16AD801D07807000E795B41EC9D
:1015400006F0DEC180F0DFC181F0E2C1E6F1E3C167
:10155000E7F1E4C1E8F1E5C1E9F1120032D900098F
:101560001200E66AE66AE66A87EC06F0FED8000931
:101570001200E66AE66AE66A9AEC06F0F6D8000916
:10158000120032D900017751772BEA6A680FE96EB1
:10159000000EEA2276C0EFFFFFEC05F0080E000116
:1015A000775D12007EC014F07FC015F01406000EA7
:1015B000155A14501200D7D80101E251EE14146EDE
:1015C000E351EE14156EE451EE14166EE551E8EF9A
:1015D0000BF0D3D878C0E6FF79C0E6FF5DEC0DF0E4
:1015E000146E090EE15E14501200E76EFC0EDBCFA4
:1015F000E9FFFD0EDBCFEAFFE750E926000EEA2205
:101600001200E552E7CFD9FF12007EC078F07FC00C
:1016100079F0010E785F1200D9CFE6FFE1CFD9FF54
:101620001200C8D8E552E55212007CC0E6FF7DC02A
:10163000E6FF29EC0EF0E552E552F3CF78F0F4CF57
:1016400079F012007651E66EE66AB3EC0CF0E552E2
:10165000E552120000017651EA6A600FE96E000E51
:10166000EA22120041EC06F00101D66BDAC180F0EB
:10167000DBC181F00001826B0101120043DC00013B
:101680008251822B120041EC06F000018251822B24
:1016900012001F0ECE15146E156A0F0E14181200CC
:1016A000710EE66E000EE66E120000017751EA6AD6
:1016B000680FE96E000EEA22EFCF76F012000A0EF4
:1016C000146E0E6EFE0EDBCF09F098EF19F0000ECF
:1016D000D880D255000ED355120022EC13F0E552FB
:1016E000E5521200E66EE66AC0EF0CF01E0ED06FF7
:1016F000D16BED6B12000001776B010EE66E06EC0C
:1017000006F0E5521200D95069D0EE141B6E185045
:1017100019101A101B1012000101000ED880D055AC
:10172000000ED15512000101000ED880D455000ED4
:10173000D55512007EC07CF07FC07DF0010E7C5F2D
:1017400012000101D66BE66A16EC06F0E5521200B3
:10175000010EE66E16EF06F0010EE66E36EF06F0AD
:10176000010EF4EF0BF0E15039D0E552E552E552AD
:10177000E5521200E66EAEEF0AF0680EE66E000E5D
:10178000E66E640EE66E000EE66E600EE66E000E0D
:10179000E66E120007DF000178191200E66AAEEF6C
:1017A0000AF0E66AB1EF0AF07BDF78C0E6FF79C0A5
:1017B000E6FF1200E66EE66ACBEF0CF0E66AB9EFE0
:1017C0000AF0E66AE66AE66A64EC06F0B5EF0BF04A
:1017D000EE14176EC8DF1450EE181200FB0FE96EFE
:1017E000FF0EDA20EA6E1200E66EEFEC05F0E5522D
:0217F0001200E5
:0E17F20098DAE652FE0EDB50C26E0A0EDF6E73
:10180000DF5002E0DF06FCD7C282C2B2FED7C4506E
:10181000E5528DD287DAFE0E30DB89D283DAE652CA
:10182000080EDF6E898489948992FE0EDBBE02D099
:10183000899601D08986BBDA8982DF06F5E1898441
:10184000100EDF6EDF5002E0DF06FCD78994898638
:101850008982E5526CD231DBDE52010EDD6E030E61
:10186000DB6ADF6ADF5006081DE3DFCFE6FF3FD803
:10187000E552050EF36E020EF3CFDBFFDB5003E003
:10188000020EDB06FBD784A209D0030EDBCFE7FFF5
:10189000010EDB50E712030EE7CFDBFF010E87DA04
:1018A000DF2AE0D7030EDBCF2FF10101306B316B64
:1018B000326BD8902F373037313732373069316952
:1018C000326981B82F812F1F301F311F321F070E41
:1018D000DF6EDFCFE6FF0BD8E5521F8084B21F908A
:1018E000040EE15C02E2E16AE552E16E20D21ADA0E
:1018F0008998899A8D90FE0EDBB08988DBB2898A3F
:10190000DBB48D8014D2D9DADE6ADE6ADE6ADD6A83
:10191000DD52DD522FC114F0F00E1416156A166A4E
:10192000176A030E14C0DBFF2FC114F00F0E14163C
:10193000156A166A176A1450DF6EDECF06F0DECF26
:1019400007F0DECF08F0DDCF09F0DD52DD52040EE6
:10195000E15C02E2E16AE552E16EE9D12EC1E6FF07
:101960005DDFE5521200DED901012E6B2EDA04E0B4
:10197000D890F336E806FCE1F35001012E13D7D1DD
:10198000D1D923DA04E0D890F336E806FCE1F3502D
:1019900001012E13CCD1C6D918DA04E0D890F33661
:1019A000E806FCE1F350146EFF0EF31801012E1748
:1019B000BED11F50010B1200010133511200B2D9E8
:1019C000020E46DADECF14F0DDCF15F014C0F3FFBF
:1019D00015C0F4FF020EE15C02E2E16AE552E16E3D
:1019E000A6D1A0D9B4D962E2FDD9040E79D97F0B72
:1019F000E66E8FDAC1D9050E86DA81DA060E70D965
:101A0000CCD97DDA070E82DA7ADA080E69D97F0B33
:101A1000E66E84DAB1D9090E76DA73DA0A0E60D985
:101A2000BCD96FDA0B0E72DA6CDA0C0E59D9070BCF
:101A3000010FE66EF30EDBCFE9FFF40E9DD9060E23
:101A4000146E0D0E27DA04E0E8427F0BE706FCE196
:101A5000E66EF50EDBCFE9FFF60E8ED90D0E20DA1D
:101A6000010ED4D90D0E0FDA020ED0D90D0E38D9D1
:101A7000030BE66E030ECAD9060E146E0E0E0ADABA
:101A800004E0E8427F0BE706FCE1E66E040EBED9F7
:101A90000E0E06DA050EBAD90E0EF5D9060EB6D917
:101AA0000E0E1ED9030BE66E070EB0D9040EE15CD4
:101AB00002E2E16AE552E16E3AD134D9460EE126FE
:101AC0001FD9400E14C0DBFF410E15C0DBFF76D9D5
:101AD000C00E1416FF0E1516420E14C0DBFF430E87
:101AE00015C0DBFF3F0EE76E69D9E7501416156A83
:101AF000440E14C0DBFF450E15C0DBFF420EDBCFEA
:101B0000E6FF430EDBCFE6FF76D8E552E5520FDA6B
:101B1000DBCFEAFFEF50E66E040E5CD9010E83D9ED
:101B2000050E58D9020E7FD9060E54D9030E7BD963
:101B3000070E50D9EED9DBCFEAFFEF507F0BE66EF0
:101B4000080E48D9010ED5D9090E44D9020ED1D9B3
:101B50000A0E40D9030ECDD90B0E3CD9F60EDB048C
:101B6000070BE66E0C0E36D9030EABD9166E020EBD
:101B7000A8D9040DF3CF15F0010EA3D9100DF3CFA2
:101B800014F0CCD9DBCFEAFFFAD80D0E23D9070E1B
:101B900098D9166E060E95D9040DF3CF15F0050EE3
:101BA00090D9100DF3CF14F0040EE76E36D9E7D8B4
:101BB0000E0E10D900018651146E156A55D915C044
:101BC0000EF035EC19F006C005F107C006F1400E25
:101BD00001010527000E0623C00E0517FF0E06178C
:101BE000FFEC17F01D861D88460EE15C02E2E16AFB
:101BF000E552E16E9CD096D8E652DF6A400EDF5C7B
:101C000013E2FD0EDBCFF6FFFE0E50D90800F550B3
:101C1000E66EDF50EA6A070FE96E010EEA22E5522E
:101C2000E750EF6EDF2AEAD7E55281D046D9000EA1
:101C3000E96E340EEA6EEECFDEFFEDCFDDFFF9D8B0
:101C400001E2D0D8040EE15C02E2E16AE552E16E05
:101C50006ED068D87CD803E3F36AF46A32D000010E
:101C60008651186E196A86C008F019C009F0DECFD7
:101C70000DF0DDCF0EF035EC19F006C016F007C000
:101C800017F0400E1626000E1722020E086E096A83
:101C9000FD0EDBCF0DF0FE0EDBCF0EF035EC19F0B4
:101CA00016500624146E17500720156E44D80900EC
:101CB000F5CF14F00800F5CF15F014C0F3FF15C0F0
:101CC000F4FF040EE15C02E2E16AE552E16E2FD01E
:101CD00029D841D82CD026D83ED8FB0ECED827D034
:101CE000E76E020E69EF0FF0DBCFEAFFE750E9265F
:101CF000000EEA221200070EE926010EEA2213D195
:101D000000018651166E176AAFD817C00EF035EC79
:101D100019F006C014F007C015F0400E1426000E8E
:101D200015221200D9CFE6FFE1CFD9FF1200E5520C
:101D3000E7CFD9FF1200020E14C0DBFF030E15C05F
:101D4000DBFF020EDBCFF6FF030E56EF0FF0040EA3
:101D50007FD819EF0FF0FD0EDB500F0B146EFE0E47
:101D6000DB500F0B100DF3501410E66EB6EC18F0AC
:101D7000E552FC0E3DEF0FF0DBCFEAFFD4D0EF5081
:101D8000030B400DF350141015101610E66E1200E0
:101D90007F0BE66E010EE76E12007F0BE66E020E01
:101DA000E76E12007F0BE66E030EE76E1200DBCFCC
:101DB000F3FFF39EF346F3CFDBFF1200400EDBCFC1
:101DC00014F0410EDBCF15F01200010EF36EFD0E84
:101DD000DB501200E76E440EDBCFE9FF450E84DFD7
:101DE0007BEF0EF08DDFA7DF0800F5507F0BE66E6E
:101DF0009ED8C2DF010E87D869D8020EE76E69D877
:101E0000CCDF64D8030E82D866EF0FF0E76EF50ED4
:101E1000DBCFE9FFF60E68DF86D080D874EF0EF0D6
:101E200078D874EF0EF0E76E82D85EDFEF50E66E82
:101E30001200FD0EDBCF14F0FE0EDBCF15F0DECF6F
:101E400016F0DDCF17F01650145C1750155812001D
:101E5000E126000EF66E340EF76E0900F5CFDEFFB8
:101E60000A00F5CFDDFF1200FD0EDBCF08F0FE0EFD
:101E7000DBCF09F086C00DF01200DBCFE6FFB6EC39
:101E800018F0E55212002CDF0C0BE840E8403F0B45
:101E9000E66E120025DFC00B14C0E7FFE752120008
:101EA0001FDF300BE8380F0BE66E1200DBCFF7FFB9
:101EB000000EF626340EF722120034DF040EE1265F
:101EC0001200E76EAADFEF50030B120030D80CDFD0
:101ED0002AD0DBCFF6FF030EDBCFF7FFE750F62665
:101EE000000EF722000EF626340EF7220800F550F9
:101EF0001200E76E95DFEF507F0BE66E120090DF69
:101F000012D08BDF10D0ECDEC8EF0EF0E9DED2EF9E
:101F10000EF0F90EDBCFE9FFFA0E1200F70EDBCF61
:101F2000E9FFF80E1200E552E750EF6E1200FB0ECB
:081F3000DBCFE9FFFC0E1200FB
:081F380004011051600BE842A6
:101F4000E842E842E842E842000901E0120011518B
:101F5000070A3CE00B0A3AE0070A2FE0010A21E0F9
:101F60000B0A1DE0020A1BE0030A17E0080A0FE053
:101F7000010A0BE00F0A07E0030A01E01200DDDAB4
:101F8000040EEF6F1200E7EF0FF01FEF10F0D5DA3D
:101F9000F10EF56F010EF66F0CD035EF10F063EF18
:101FA00010F0E2DA0101F56FF66BF20EF527010E83
:101FB000F623F093010EF96F1200D6DAEA6AF20FF7
:101FC000E96E010EEA2212C4EFFF12001200800E29
:101FD0000401105D33E11351030A1EE0010A09E018
:101FE000030A23E1AADA740EF56F2D0EF66F120EB6
:101FF0001AD070DA8E0EF6262E0E85DA020E010148
:10200000F76AF525F66EF651F7220900F5CFF9F1DA
:102010000A00F5CFFAF109D05DDA920EF6262E0EFF
:1020200072DA79DA0101F96FFA6B020E0401125DBE
:1020300005E0030E125D02E00101F08312007DDA7B
:1020400042DA010EE66EF20EE66E010E87DA12C477
:10205000F1F10401125104E10101050EEF6F1200CC
:102060000101060EEF6F64EF15F00401506B516B28
:1020700010511F0B020A0FE0030A0BE0010A18E1DE
:102080005CDA040150810101F0A112D004015083F7
:102090000FD053DA0DD003DA01E0010E2BDAF7C1CD
:1020A000E9FFEA6EEF50040B03E00401010E506FEC
:1020B0000101F40507E1500EF56F040EF66FF09381
:1020C000020EF96F1200040112050EE110511F0BF0
:1020D00000090AE132DA030E0401115D03E1010196
:1020E000F08102D00101F091040112511DE1105163
:1020F0001F0B020819E114510F0B000915E0CFD98D
:1021000001E0010EF7D9030E0401115D03E1840E15
:10211000A1EF12F014AF06D0F7C1E9FFF8C1EAFF52
:10212000EF6A1200880E0DDA12006C500BE1040108
:1021300000513C0BE842E8420D0802E1A7EF10F025
:10214000D8EF10F0040E6C5C01E141D81200D9CF39
:10215000E6FFE1CFD9FFE6520101F36BF46BF96BB7
:10216000FA6BEADEDF6ADF50146E156A010E145C4A
:10217000000E15581AE20101F45117E1F76ADF3435
:10218000FE0BF736F66E9A0EF6262E0EF722090093
:10219000F5CF14F00800F5CF15F004D015C0FAFF04
:1021A0001450F96EFBDFDF2ADED789D8E552C1D1A2
:1021B000020E0101F35D09E162D8040100BD02D005
:1021C000C80E01D0880E006F120095EF11F0040EBA
:1021D0000101EF5D09E112C46EFF6E50000802E2DA
:1021E000050E01D0030EEF6FF30509E110D80401CD
:1021F00004BD02D0C80E01D0880E046F1200090E73
:102200000401115D02E1EFEC15F095EF11F08AD9B0
:102210000101400EF95D000EFA5905E2F9C1DEFF39
:10222000FAC1DDFF03D0400EDE6EDD6A04010493C7
:102230000491010EDB500413DFCF05F4000EDB50D8
:102240000101F95F010EDB50FA5B500EF76F040ECF
:10225000F86FF0A307D047D90BE05DD917D9FBE29F
:10226000DB06F9D740D904E072D9FCE2DB06FAD7E5
:10227000020EE15C02E2E16AE552E16E5AD152D906
:10228000030E04010015E76E010EE7CFDBFF01C46A
:10229000DFFFDE500101F927DD50FA23500EF56F04
:1022A000040EF66F20D904E052D9FCE2DB06FAD71F
:1022B000020EE15C02E2E16AE552E16E3AD101010F
:1022C000F45104E1F8D8840E006F1CD0040110AF63
:1022D0001BD00101F9510401165D0101FA510401FD
:1022E000175904E216C4F9F117C4FAF190DF01019D
:1022F000010EF36FE0D8800E006F500E066F040ED3
:10230000076FC80E046F0FD00101020EF36F0401B6
:10231000056BC80E046F400E016F500E026F040E65
:10232000036FC80E006F6D9812000101F36BC3D8E4
:10233000880E006F046B12006DA60CD80101EF052A
:1023400008E16DBA06D0686A696A69806988020E18
:10235000EF6F12006D6A696A6D860101010EEF6F01
:1023600012006D6A696A0101EF6B1200B1EF11F0A2
:102370000101EF5101E112006850040B04E06950C3
:10238000040B01E038D86DB212006850010B04E074
:102390006950010B01E04FD86850100B04E0695000
:1023A000100B01E023D86850400B04E06950400B4B
:1023B00001E037D86850200B04E06950200B01E0A1
:1023C00032D86850020B04E06950020B01E031D8AA
:1023D000030E0101EF5D01E212006850080B05E0F9
:1023E0006950080B02E0A1DE6896120069846898C3
:1023F0006D82A19A12006D92699468941200010195
:10240000F0A10ED0F8DF6D840101080EFB6F070EFE
:10241000FC6FFB07000EFC5BFB51FC11FAE16D94B5
:102420001200689C120070A002D07FDF7090689A42
:102430001200689212006A6A686A9F0E6B6E7B0EC9
:10244000696E6E6A40D8160E706E68A602D06896E5
:10245000FCD76D986ADF0101F091F16B030EEF6F0D
:102460001200D9CFE6FFE1CFD9FFFD0EDBCFE9FFA8
:10247000FE0EDBCFEAFFFC0EDB5004E0EE6AFC0E42
:10248000DB06F9D7E552E7CFD9FF12005AD8F72B70
:10249000000EF823F52BF623DF06010E120064D898
:1024A0000F0B080DF350156A000F146E040E152261
:1024B0001451800B12000401400E016F100E026FC8
:1024C000040E036F12000F0EE66E710EE66E0F0E15
:1024D000AEEF12F032D804011251F66EF76AD890BE
:1024E000F636F7361200D9CFE9FFDACFEAFFEE5021
:1024F000ED101200040DF35001011424F76F000ECB
:102500001520F86F1200F7220900F5CFF5F10A0047
:10251000F5CFF6F11200F5C1F6FFF6C1F7FF08009E
:10252000F5501200D9CFE6FFE1CFD9FF020EE12628
:102530001200E552E7CFD9FF12000101010EF46F3E
:102540001200F7C1E9FFF8C1EAFFEF6E1200F5C112
:10255000E9FFF6C1EAFFEF5046EF12F0E66E81DFC9
:10256000E552E552E5521200E8DF04011451120071
:1025700022D800018551040A10E0070A0CE0010A84
:1025800008E0030A04E0010A0DE18A9A07D08B9063
:1025900005D08A9603D08A9401D08A9285C0E6FF3E
:1025A00018D8E5520001852B01012D510001855DF0
:1025B00001E3856B12008A908C9E8C9C8C9A8C987F
:1025C0008B948C968C948A8A8B808A868A848A8261
:1025D0001200DDD8E652FE0EFDD8EFCFDFFFD1D8D6
:1025E000010B01E08A80CDD8020B01E08C8EC9D8A6
:1025F000040B01E08C8CC5D8080B01E08C8AC1D893
:10260000100B01E08C88BDD8200B01E08B84B9D879
:10261000400B01E08C86B5D8800B01E08C84E5523C
:10262000BBD0B5D8020EE126010EDB6A050ECBD871
:1026300002E28BD8FBD7020EE15C02E2E16AE552CE
:10264000E16EAAD0A4D8020EE126F29EF29C010E01
:10265000DB6A040EB8D802E278D8FBD7F28EF28C8F
:10266000020EE15C02E2E16AE552E16E95D08FD89C
:10267000F29EF29CFE0EDB50300FE66E06D8E5525D
:102680000101046FF28EF28C87D081D8410E94D86C
:102690000BE3610E91D802E3610E01D0410E80D8A8
:1026A000160FF66E330E08D0300E86D80BE3300EC0
:1026B00077D80C0FF66E330EF7220800FE0EF5CF1A
:1026C000DBFF05D0FE0EDB502008FE0EDB6ADB5080
:1026D00063D05DD8060EE126050EDB6AF36EDBCF14
:1026E000F4FFE850F45C1DE2050EDB500101782593
:1026F000EA6A370FE96E010EEA22EF50E66ED9CF93
:1027000014F0DACF15F0050EDB500F01D924E96E75
:10271000000EDA20EA6EE552E750EF6E050EDB2A76
:10272000DDD7D9CFE6FFDACFE6FF7BDFE552E55212
:1027300001017807785102E177C178F1060EE15C7A
:1027400002E2E16AE552E16E27D0010EDB50E76E4E
:10275000FD0EDBCFE9FFFE0EDBCFEAFFE750E926F7
:10276000000EEA22EFCFDFFFDFCFE6FF8EDFE5527C
:10277000E66E010E2FD8E552E750EF6E010EDB2A10
:102780001200D9CFE9FFDACFEAFFEF501200D9CF1C
:10279000E6FFE1CFD9FF1200E552E7CFD9FF1200E3
:1027A000146EFE0EDBCFE7FF1450E75EFE0EE7CFA0
:1027B000DBFFDB50F76A1200F36EFE0EDBCFF4FF97
:1027C000F350F45C1200F36E010EDBCFF4FFF35014
:1027D000F45C1200DB50EA6A000FE96E010EEA2297
:0227E0001200E5
:0E27E200D9CFE6FFE1CFD9FF110EE1260101AC
:1027F000C6690101010E856F870EDE6E010EDD6E6A
:10280000040111056BE11251B40A56E0760A47E063
:10281000590A3FE0020A36E0010A25E00F0A1CE0EF
:10282000010A14E0BA0A09E0830A58E1CFD8E66A3F
:10283000CAD8E66AC8D8E66A2FD003EC16F00009B9
:1028400002E0C4D84BD00101C66948D0BFD8A0A8C7
:1028500045D0010EC66F3FD0B9D827C1E6FFB3D827
:1028600028C1E6FF39D0B2D8040E29C1DBFF050E1E
:102870002AC1DBFF040EDBCFE9FF050EDBCFEAFF49
:10288000EF5018D0A3D829C1E6FF9DD82AC1E6FF92
:1028900023D09CD8030EE66E96D8E66A1DD096D853
:1028A0000A0EE66E90D8140EE66E8DD8230EE66EF4
:1028B0008AD8690EE66E10D089D8A0B803D0F29EEF
:1028C000F29C0CD0010EC66FE6687DD8E6687BD816
:1028D000E6685BD8E552E66858D8E552090E04016F
:1028E000115D3AE11251B40A34E02E0A32E0030AD3
:1028F00029E0010A1FE00F0A16E0010A0DE0BA0AFA
:102900002BE157EC16F0000903E00101020E02D0A2
:102910000101010EC66F20D00101020EC66FA0A8F2
:102920001BD0010E18D047D8EFCF27F153D8EFCFE7
:1029300028F112D040D8EF5029C1E9FF2AC1EAFF9F
:10294000EF6E0AD038D8EFCF29F144D8EFCF2AF173
:1029500003D00101020EC66FFF0E0101C65D0BE040
:10296000090E0401115D07E012C450F40101855104
:102970000101F96FFA6B110EE15C02E2E16AE552C6
:10298000E16EE552E7CFD9FF1200D9CFE6FFE1CFE4
:10299000D9FF400E0101855D0AE28551EA6A500FB8
:1029A000E96E040EEA22FE0EDBCFEFFF852BE55227
:1029B000E7CFD9FF12000101020EC66FDECFE9FF9B
:1029C000DDCFEAFF1200E1DFE55212000101050E42
:1029D000C66F1200DECFE9FFDDCFEAFF010EE92668
:0629E000000EEA221200C5
:0A29E600040110511F0B010801E06D
:1029F0001200145101E01200060E115D24E1135182
:102A0000230A1FE0010A0DE0030A1BE1E4D80101DB
:102A1000F10505E10101980EF56F2D0EF66F090E17
:102A20000DD0D9D80101F10505E10101120EF56FB4
:102A30002E0EF66F0101F10504E17C0E0101F96F24
:102A4000FA6B0101F08304011051600BE842E84287
:102A5000E842E842E842010801E0120011510B0A85
:102A60002FE0080A21E0090A1BE0080A13E00B0A1C
:102A700005E0080A01E01200F4EF15F00101860EEE
:102A8000F76F010EF86F0101F0930101F96BFA6B1A
:102A9000EBEF15F0A0D80101FD0EF56F010E09D086
:102AA0009AD813C4FDF1120096D80101FE0EF56FFD
:102AB000010EF66F0101F0930101010EF96F120092
:102AC0008AD812C4FEF112000101FF6B1E0E716E56
:102AD0000401080E096F900E0A6F040E0B6F880E2A
:102AE000086F0401980E0E6F040E0F6F400E0C6FEE
:102AF0001200D9CFE6FFE1CFD9FFE652FC0EDB5042
:102B0000080805E2080EF36EFC0EF3CFDBFFDF6A68
:102B1000FC0EDB50DF5C0FE2DF5051D8EF50E66E69
:102B2000DF50EA6A980FE96E040EEA22E552E75098
:102B3000EF6EDF2AEDD7FC0EDBCF0DF4400E040163
:102B40000C170C7D880E0C13E552E552E7CFD9FF28
:102B50001200D9CFE6FFE1CFD9FF0101FF6B0401DD
:102B600008BF27D0FC0EDBCF14F00951D8801454D5
:102B700003E2FC0E09C4DBFF0101FF6BFC0EDB501E
:102B8000FF5D0FE2FF51EA6A900FE96E040EEA2240
:102B9000EF50E66EFF5113D8E552E750EF6EFF2B72
:102BA000EDD70401080E096F400E0817087D880E46
:102BB00008130101FF51E552E7CFD9FF1200E76E7C
:102BC000FD0EDBCFE9FFFE0EDBCFEAFFE750E92683
:0E2BD000000EEA2212000101020EF46F120044
:022BDE001C8851
:102BE000F1EC13F01C9812001C88F1EC13F00101B9
:102BF000020EF46F0101500EF56F040EF66F010125
:102C0000F0931C981200D9CFE6FFE1CFD9FF020E56
:102C1000E126DE52010EDD6E84C0E6FF90D8000191
:102C20008451300A26E0010A17E0030A24E1010E6C
:102C3000E66E85D82BC1E6FF82D82CC1E6FF7FD88F
:102C4000DF6A200EDF5C21E2DF500101F76A2B25ED
:102C5000F66E2C5188D8F5D77CD8DF6A200EDF5C61
:102C600014E2DF500101F76A0525F66E06517BD8A4
:102C7000F5D76FD80AD0E66A62D8DF6A3E0EDF5C0D
:102C800004E2E6685CD8DF2AF9D7400E0101855DD1
:102C900005E2E66A54D80101852BF7D7010EDB5017
:102CA000146E020EE15C02E2E16AE5524CD0D9CF2B
:102CB000E6FFE1CFD9FF040EE126DE52010EDD6E04
:102CC00087C184F001018751320A2CE0030A09E030
:102CD000010A2CE189C105F18AC106F1FFEC17F068
:102CE00025D089C105F18AC106F1DF6A200EDF5CBB
:102CF00014E2050EDF24EA6A860FE96E010EEA226D
:102D0000EF50E66EDF50EA6A070FE96E010EEA2225
:102D1000E552E750EF6EDF2AE9D7E66AD4EC17F008
:102D2000E55204D089C12BF18AC12CF1010EDB5090
:102D3000146E040EE15C02E2E16AE55204D0C5ECD7
:102D400014F0E5521200E16E1450E552E7CFD9FFBE
:102D50001200010EE66EF3DF05C1E6FFF0DF06C1EB
:102D6000E6FF9FEF16F0F7220800F550E66EE7DF6A
:042D7000DF2A120044
:0C2D74001201100100000040AE093044C4
:102D800010000102030109022200010100A0320922
:102D90000400000103000000092110010001227C51
:102DA00000070581030800280403090418034A00EA
:102DB0006F0065000000000000000000000000003F
:102DC000000000002C034D00490044004900200091
:102DD0004400650076006900630065002000000083
:102DE00000000000000000000000000000000000E3
:102DF0002203360039003100320030003600300046
:102E00004200200000000000000000000000000060
:102E1000000006FFFF0901A1017508950126FF00CA
:102E20001500859609C0B102752085B409D2B1029A
:102E30007510859709C1B1027508859809C2B1025C
:102E40007510859909C3B102859C09D4B10275102A
:102E5000859D09D5B102859B09C5B102752085AF55
:102E600009E9B10285AF09E981A276000285B009BE
:102E7000EAB102752085C209D6B102859A09C4B1AA
:102E8000027508953F852C09040904B102C0862DFE
:0C2E9000862DA82DAC2DC42DF02DE629B8
:042E9C00000102032C
:102EA00004050506070708080909090A0A0A0B0BA1
:102EB0000B0B0C0C0C0C0C0C0D0D0D0D0D0D0D0E4B
:102EC0000E0E0E0E0E0E0E0F0F0F0F0F0F0F101017
:102ED00010101010101111111111121212121213E0
:102EE000131313131414141414151515151516169D
:102EF00016161717171718181818191919191A1A52
:102F00001A1A1B1B1B1C1C1C1C1D1D1D1E1E1E1FFC
:102F10001F1F202020212121222223232324242596
:102F2000252626262727282829292A2A2B2C2C2D16
:102F30002D2E2E2F30303132323334343536373770
:102F400038393A3B3B3C3D3E3F4041424344454695
:102F50004748494A4B4C4D4E4F5051525354555689
:102F60005758595A5B5C5D5E5F6061626364656679
:102F70006768696A6B6C6D6E6F7071727374757669
:102F80007778797A7B7C7D7E7FFFFFFFFFFFFFFFF5
:0C2F9000FFFFFFFFFFFFFFFFFFFFFFFF41
:042F9C00550EA76EB9
:102FA000AA0EA76EA68212004CD8E652E00E0101CE
:102FB0000517840EA66EFE0EDB50DF6EFE0EDB5094
:102FC000200FDF5C1AE2DF50EA6A070FE96E010E9C
:102FD000EA22EFCF14F0DF500101F76A0525F66E03
:102FE0000651F722F86A14C0F5FF0C001F0EDF141B
:102FF0001F0801E1D3DFDF2AE1D7E55227D0940E85
:10300000A66E05C1F6FF06C1F7FFF86AC7DFF86ACA
:10301000120017D8A66AFE0EDB50A96EA680A85033
:1030200015D00FD8A6A202D0000E0AD0FE0EDB509B
:10303000A96EFD0EDB50A86E040EA66EAFDF010E6A
:1030400005D0D9CFE6FFE1CFD9FF1200E552E7CF97
:04305000D9FF120092
:0C305400DACFE4FFE2CFDAFFE9CFE4FFBF
:10306000EACFE4FFF6CFE4FFF7CFE4FFF5CFE4FFCC
:10307000F3CFE4FFF4CFE4FFFACFE4FF00EE00F07B
:10308000140EE80403E3EECFE4FFFBD700EE14F0E8
:10309000080EE80403E3EECFE4FFFBD7E6529EA25E
:1030A0000BD09E921D800101342B040E345D04E18F
:1030B000346B1D80B8EC12F0E55200EE1BF0080EE8
:1030C000E80403E3E5CFEDFFFBD700EE13F0140EA9
:1030D000E80403E3E5CFEDFFFBD7E5CFFAFFE5CF4B
:1030E000F4FFE5CFF3FFE5CFF5FFE5CFF7FFE5CF41
:1030F000F6FFE5CFEAFFE5CFE9FFE5CFDAFF110004
:10310000D9CFE6FFE1CFD9FF050EE1269EBA13D055
:10311000010183510101845D02E13ED81DD09EA8CA
:103120001BD08451EA6A7B0FE96E010EEA22EF5050
:10313000AD6E842B11D0AB50020B03E1AB50040BEE
:1031400009E0AB98010EAECFDBFFAECFDBFFAB8863
:103150001C9202D0AE50DF6E050EE15C02E2E16A25
:10316000E552E16EE552E7CFD9FF1200D9CFE6FF75
:10317000E1CFD9FF080E0101835D0AE28351EA6ABB
:103180007B0FE96E010EEA22FE0EDBCFEFFF832BF1
:10319000E552E7CFD9FF12000101836B0101846B77
:0231A00012001B
:0E31A200B0EC19F0896A8A6A8B6A8C6A8D6AB1
:1031B000010E926E100E936EF80E946E956A020ECA
:1031C000966E0101050E2D6FA60EAC6E900EAB6EC5
:1031D000100EAF6E010EB06E400EC26E0E0EC16EBE
:1031E000060EC06EF26A800EF16ED08ED76AD66A75
:1031F000D56ACC6AF90ECB6E0D0ECA6E020E9D6EAC
:10320000F28E140E6F6E0101EF6B0101F06B010184
:04321000F16B12004C
:0C321400D9CFE6FFE1CFD9FFFE0EDB5062
:10322000A96EA69EA69CA680A850E552E7CFD9FF1E
:103230001200D9CFE6FFE1CFD9FFFE0EDB50A96E19
:10324000FD0EDB50A86EA69EA69CA684F29E550E8F
:10325000A76EAA0EA76EA6820400A6B2FDD7F28EB4
:0A326000A694E552E7CFD9FF120053
:06326A0008C012F008503C
:103270000D02F4CF07F0F3CF06F009500E02F4CFA1
:1032800009F0F3CF08F00D02F3500726F45008229E
:10329000E86A092212500E02F3500726F450082261
:0632A000E86A0922000C9F
:0A32A600D9CFE6FFE1CFD9FFE652D1
:1032B0001D92010EE66EF9EC0BF0E552F76A9C0FD9
:1032C000F66E2E0EF7220800F550DF6EFF0EDF5C63
:1032D00002E0DFCF33F1E552E552E7CFD9FF12002C
:1032E0000101352B0A0E355D10E1356B1D821E8004
:1032F0001D8E1E820101362B640E365D06E1366B93
:0C3300001D8A1FA202D069EC13F012001D
:04330C003F065B4FCE
:10331000666D7D077F67777C585E79716F74061ED6
:10332000003800545C7367506D071C1C00766E5BA0
:10333000056A080EE76ED890093605360E50055C12
:0C33400002E3056E092AE72EF7D7120001
:04334C0017EE00F088
:1033500027EE00F0F86A019C15EC05F0FDD712008D
:0E336000EA6AE96A0400EE6AEAA6FCD71200E7
:02336E005345C5
:03337000512D00DC
:013373001049
:0C3374000000000000000000000000004D
:10338000000000000000000F00050002004B0000DC
:0C33900000000000000000000000000031
:1034000004000000000000000000000000000000B8
:1034100000000000000000000000000000000000AC
:10342000000000000000000000000000000000009C
:10343000000000000000000000000000000000008C
:10344000534F43311314030200000000051BB0006A
:10345000534F43320204050000000000031B00002C
:10346000524F45203C2F021800000000031B0000B3
:10347000455320205101031500000000051B90005A
:103480000300020000000100000000000000000036
:10349000000000000000000000000000000000002C
:1034A000000000000000000000000000000000001C
:1034B000000000000000000000000000000000000C
:1034C00000000000000000000000000000000000FC
:020000040030CA
:0100000029D6
:010001000EF0
:0100020036C7
:010003000EEE
:010005008179
:010006008178
:010008000FE8
:01000900C036
:01000A000FE6
:01000B00E014
:01000C000FE4
:01000D0040B2
:00000001FF
