:020000040000FA
:0600000015EF05F01200EF
:06000800F5EF17F01200F5
:060A000038EF18F01200AF
:060A0800F5EF17F01200EB
:060A2A00D9CFE6FFE1CF89
:100A3000D9FF060EE12654EC17F0200EDF6EDE52D1
:100A4000700EDD6E610EF36E020EF3CFDBFF720EE1
:100A5000F36E030EF3CFDBFF630EF36E040EF3CFE2
:100A6000DBFFD9CFE6FFDACFE6FF6DEC12F0E552FF
:100A7000E552AA0EE66EBCEC0BF0E5520001250E25
:100A8000B16FE8CFB2F0050EDB6A400EF36E050ED3
:100A9000DBCFF4FFF350F45C18E2050EDB50F76A8D
:100AA0006E0FF66E2F0EF7220800F550E66E050E5B
:100AB000DB50B15DEA6A710FE96E000EEA22E55281
:100AC000E750EF6E050EDB2AE0D7F28EF28C0001C4
:100AD00060A302D042EC18F0000160A107D0609141
:100AE0001BEC18F0D8EC0BF014EC12F001D8EDD799
:0E0AF000F8EC10F06FBE02D014EC11F0120002
:020AFE000200F4
:100B0000AC3000004D01000022000000AB300000BE
:080B1000F900000001000000E3
:080B1800BAEC0AF0E652030EEC
:100B2000DF6E25EC0BF00550300FE66EDF50DF0670
:100B3000AEEC0AF0E552E750EF6E25EC0BF0FE0E3E
:100B400009C0DBFF09500008ECE3DF50000807E2B2
:100B5000DF50AEEC0AF0200EEF6EDF06F6D7DF5066
:100B6000AEEC0AF0200EEF6EE552BFEF0AF0BAECE1
:100B70000AF0040EE126D9CFE6FFDACFE6FF010145
:100B80003E29E66EC9DFE552E552E552500EDF6EB2
:100B9000D9CFE6FFDACFE6FF33EC0BF064C150F1BA
:100BA00065C151F1040EE15C02E2E16AE552E16ED9
:100BB000BFEF0AF0BAEC0AF03EC1E6FF4DC1E6FF16
:100BC0000C0EE66ECCEC0DF0E552E552E552FE0E51
:100BD000DB5001E0CCDFBFEF0AF0BAEC0AF0F0EC3A
:100BE0000AF0EFCF3EF1FE0EDBCFE6FFE3DFE5528A
:100BF0000101E8EC0AF0BFEF0AF001014029E66EBE
:100C000087EC12F0E5521200BAEC0AF041C143F150
:100C100042C144F11BEC0BF0FE0EDBCFE6FFDDDF43
:100C2000E552EBDFBFEF0AF0BAEC0AF0390EE66EE0
:100C3000010EE66E75EC0BF08CEC0BF09AEC0CF000
:100C4000146E0C0EE15E14500101406B4029E66EFB
:100C500087EC12F0E552FE0EDB5004E016EC0BF0D0
:100C600033EC0BF0BFEF0AF0BAEC0AF0CEEC0AF06E
:100C7000FE0EDBCFE6FFD8DFE552BFEF0AF08CECCB
:100C80000BF081EC0DF065EC0BF016EC0BF033EF94
:100C90000BF001015C5104E0A60EE66E300E0FD0A1
:100CA000CEEC0AF016EC0BF0F3CFE6FFF4CFE6FF44
:100CB00081EC0DF065EC0BF03A0EE66E010EE66E7F
:100CC00033EF0BF0BAEC0AF0DBEC0AF012E1FE0EA7
:100CD000DB5015180EE1FD0EDB5068150001166E95
:100CE000FE0EDB50010169150001176E165017103A
:100CF00002E0000E01D0010EBFEF0AF0BAEC0AF0DC
:100D0000DBEC0AF003E1FE0EDB50151802E0000EEA
:100D100001D0010EBFEF0AF0BAEC0AF0FD0EDB5075
:100D200001016815146EFE0EDB506915156EFD0E7F
:100D3000DB50141812E1FE0EDB5015180EE1FD0E0B
:100D4000DB5066150001166EFE0EDB5001016715C3
:100D50000001176E1650171002E0000E01D0010EB0
:100D6000BFEF0AF001015A510AE00101000ED880DC
:100D70004955000E4A5503E24907000E4A5B49EC0B
:100D80000BF003E25407000E555B2DEC0BF003E271
:100D90005607000E575B000ED8805055000E515577
:100DA0000CE25007000E515B5051511106E1010158
:100DB0004C0502E164DF01D06CDF50EC0BF003E284
:100DC0005807000E595B000ED8805255000E53553F
:100DD00051E25B51030A22E0010A0EE0030A41E1FD
:100DE00052511F0B02E15D5126D00FEC0BF039E19F
:100DF000155037E15D5131D052511F0B09E1000E02
:100E000038EC0BF0E552E552010E38EC0BF020D037
:100E10000FEC0BF026E1155024E115D052511F0BB9
:100E20000DE1000EB7DB010EB5DB020E38EC0BF066
:100E3000E552E552030E38EC0BF011D00FEC0BF03D
:100E400010E115500EE1000EA5DB010E92EC0BF047
:100E5000E552E552020E9EDB030E92EC0BF0E552DA
:100E6000E55201015207000E535B5251531102E14A
:100E70000101AEDB120001016E510EE15ADB0101EE
:100E8000451906E11550461903E1456B466B120002
:100E9000452B000E462312007F0E01013E5D02E14C
:100EA0003E6B12003E2B120001016E510BE101015D
:100EB0004551461103E157EC0BF001D04507000EF8
:100EC000465B120001013E5103E17F0E3E6F1200AE
:100ED0003E07120001016E5102E149EF06F0B7EF43
:100EE00005F001016E5103E1E66ABEDE03D0010E9A
:100EF000E66E60DEE552120040C139F140C1E6FF06
:100F000021DB0101020E5C6F320E586F596B01013B
:100F1000406B12008BEC0CF0F3CF47F1F4CF48F1AB
:100F20000101416B426BD6DBE552ABDB000E0101E8
:100F3000686F696B666F676B88EC0CF001016B6F13
:100F40006A6F84EC0CF001014C6F120031EC0CF074
:100F5000F3CF66F1F4CF67F188EC0CF001016A6F12
:100F60006B516A5D13E07F0E6A15E66E01013F5119
:100F7000EA6A2D0FE96E010EEA22EF50E66E4DC1CE
:100F8000E6FF0B0EE66ECFEC0DF09FDB84EC0CF071
:100F9000000908E101014C0514E14C6B456B466BFF
:100FA0009DDB09D001014C510CE1010E4C6F416BEE
:100FB000426BE66E39DEE5520101406BE66A24DEE3
:100FC000E552A0DB31E001014151431929E14251D1
:100FD000441926E13905405D22E14C510EE1A9DAC0
:100FE000451906E11550461903E1456B466B03D0E0
:100FF000452B000E462372DB0DD09BDA411906E12A
:101000001550421903E1416B426B03D0412B000E96
:10101000422360DBE5520101406BE66A03D0402BBE
:10102000010EE66EF1DDE55201014C51010A01E1CC
:101030006FD1010A01E058D201015C51020A01E1BD
:101040004DD1030A01E115D1010A01E04DD2010E93
:1010500050DA08E001013F6B01016E0502E10CDB93
:1010600001D040DB020E45DA09E00101010E3F6FBD
:1010700001016E0502E100DB01D034DB040E39DA38
:1010800009E00101020E3F6F01016E0502E1F4DA91
:1010900001D028DB080E2DDA09E00101030E3F6FB5
:1010A00001016E0502E1E8DA01D01CDB01016E05E9
:1010B00037E15451551120E16D511EE1010E2FDA37
:1010C00009E1020E2CDA06E1040E29DA03E1080E2A
:1010D00026DA12E00101010E6D6F82DA3EC1EFFFE8
:1010E00039C1E6FF2FDAFEDA0101010E5B6F3FC165
:1010F0005DF1640E526F536B010E16DA09E1020EB8
:1011000013DA06E1040E10DA03E1080E0DDA08E046
:10111000C0DA06E26D5104E1E5DA0101546B556B6A
:10112000F1DA09E0F6DA07E101015651571103E15E
:101130001E0E566F576B01015A510FE1EADA0DE0AE
:10114000E8DA0BE101015651571107E10101496B42
:101150004A6B4B6B0101010E5A6FECDA08E001019A
:101160007CDA02E288DEB6DE01015A6BBADECADA48
:1011700009E0CFDA07E101015651571103E11E0ED4
:10118000566F576B01015A510FE1C3DA0DE0C1DA16
:101190000BE101015651571107E10101496B4A6BFF
:1011A0004B6B0101040E5A6FC5DA08E0010155DAF4
:1011B00002E27ADE8FDE01015A6B93DEA3DA04E0ED
:1011C0001E0E0101586F596BA4DA0DE00101585150
:1011D000591109E15C5107E1010E5C6F0101406B9F
:1011E000040E3F6F56DDA6DA0FE05ADA0DE26E51BB
:1011F00004E1010E6E6F030E02D06E6B020E5B6F88
:10120000640E526F536B66DE01015A5101E16CD1DD
:10121000010149514A1101E067D101015A51060A01
:1012200025E0030A1DE0010A15E0070A11E0010AA2
:1012300009E0030A01E058D11EDEE6D9050801E005
:1012400029D1F5D018DEE0D9140801E039D101D157
:1012500012DE0DD029DED8D9050801E01BD115D149
:1012600023DED2D9140801E02BD125D11DDE32DED8
:1012700037D1010E3ED908E001013F5105E03F6B37
:10128000010E3CD901E138DE020E33D908E001013C
:101290003F0505E0010E3F6F31D901E12DDE040E5F
:1012A00028D90AE0020E01013F5D06E0020E3F6F01
:1012B000010E24D901E120DE080E1BD90AE0030E3D
:1012C00001013F5D06E0030E3F6F010E17D901E1FA
:1012D00013DE18DA01E108D10FDE06D15851591199
:1012E00001E002D101013951405D04E101015C6B73
:1012F000C8D9FAD082DC9FD96BD972D9EFCF3EF131
:1013000036DC0101402B320E0101586F596BECD0D5
:10131000010EEFD803E001013F6BE4D9020EE9D8DA
:1013200004E00101010E3F6F08DA040EE2D804E088
:101330000101020E3F6FD6D9080EDBD804E001018F
:10134000030E3F6FCFD9DED90EE0DFD906E115508D
:10135000421903E1416B426B03D0412B000E422343
:1013600047D9010E5A6FE6D901E0A8D9CBD90CE0D4
:1013700001014151421102E106D901D04107000E9D
:10138000425B36D9040E5A6FD5D901E097D9BAD944
:1013900029E001014151431921E1425144191EE163
:1013A00040511BE14C510AE14551461102E17FD900
:1013B00001D04507000E465B91D909D04151421139
:1013C00002E1E1D801D04107000E425B83D9E5522A
:1013D00001013905406FE66A03D04007010EE66E51
:1013E00013DCE55201015A5101E17ED0010149515E
:1013F0004A1101E079D001015A51060A66E0030A58
:101400004EE0010A36E0070A28E0010A14E0030A68
:101410006BE17BD906E11550421903E1416B426B48
:1014200003D0412B000E4223F4D8050833E14B6B67
:101430000101020E2DD069D906E11550421903E1D0
:10144000416B426B03D0412B000E4223E2D81408BB
:1014500037E14B6B0101030E31D057D906E115502E
:10146000421903E1416B426B39D0412B000E4223FC
:1014700035D001014151421102E185D801D0410727
:10148000000E425BC6D8050805E14B6B0101050E55
:101490005A6F16D05EC149F15FC14AF125D00101F2
:1014A0004151421102E16FD801D04107000E425B69
:1014B000B0D8140805E14B6B0101060E5A6F10D02D
:1014C00060C149F161C14AF10FD00101415142119E
:1014D00002E159D801D04107000E425B3FEC06F013
:1014E00062C149F163C14AF166C168F167C169F13E
:1014F0001200E66EE66A62EC06F018D11ED9010110
:101500004051402BEA6A310FE96E010EEA223FC1D9
:10151000EFFFFDEC05F0080E0101405D1200E66EE4
:10152000E66A7EEC06F002D1E66EE66A8CEC06F026
:10153000FDD047C114F048C115F01406000E155A2D
:1015400014501200D2D841C1E6FF42C1E6FF05ECBB
:101550000DF0146E090EE15E14501200E76EFC0EE1
:10156000DBCFE9FFFD0EDBCFEAFFE750E926000EF7
:10157000EA221200D9CFE6FFE1CFD9FF1200E552EF
:10158000E7CFD9FF120047C141F148C142F1010E36
:10159000415F1200C7D8E552E552120045C1E6FF8F
:1015A00046C1E6FF94EC0DF0E552E552F3CF41F170
:1015B000F4CF42F11200FD0EDB5001016615146EEE
:1015C000FE0EDB506715156EFD0EDB501418120071
:1015D0003F51E66EE66A5DEC0CF0E552E552120012
:1015E00001013F51EA6A290FE96E010EEA22120059
:1015F0003FEC06F001015A6B5EC149F15FC14AF14F
:1016000001014B6B0101120065DC01014B514B2BB9
:1016100012003FEC06F001014B514B2B12001F0E44
:101620005215146E156A0F0E141812003A0EE66E5B
:10163000010EE66E120001014051EA6A310FE96EB7
:10164000010EEA22EFCF3FF112000A0E146E0E6E69
:10165000FE0EDBCF09F02AEF18F0000ED8805655A9
:10166000000E575512007AEC12F0E552E5521200C6
:10167000E66EE66A6DEF0CF01E0E546F556B6D6BE7
:1016800012000101406B010EE66E04EC06F0E5521B
:1016900012000101000ED8805455000E555512005D
:1016A0000101000ED8805855000E5955120047C14F
:1016B00045F148C146F1010E455F120001015A6B28
:1016C000E66A14EC06F0E5521200E552E552E552E6
:1016D000E5521200010EE66E14EF06F0010EE66E02
:1016E00034EF06F0010E9DEF0BF0310EE66E010EA9
:1016F000E66E2D0EE66E010EE66E290EE66E010E0A
:10170000E66E1200000E79EF0AF013DF01014119B5
:101710001200000E8FEF0AF089DF41C1E6FF42C1DF
:10172000E6FF1200E66EE66A77EF0CF0E552E5524E
:1017300000091200000E94EF0AF0E66EEDEC05F0E1
:04174000E55212005C
:0C17440098DAFE0EDB50C26E0A0EDF6E5B
:10175000DF5002E0DF06FCD7C282C2B2FED7C4501F
:10176000E55264D288DAFE0EDB50AD6E9E50DF6E1D
:101770009EA8FED7E5525AD27EDA080EDF6E898423
:1017800089948992FE0EDBBE02D0899601D08986AB
:1017900084DA8982DF06F5E18984100EDF6EDF507E
:1017A00002E0DF06FCD7899489868982E5523ED221
:1017B0000CDBDE52010EDD6E030EDB6ADF6ADF50EA
:1017C00006081DE3DFCFE6FF40D8E552050EF36EB5
:1017D000020EF3CFDBFFDB5003E0020EDB06FBD78C
:1017E00084A209D0030EDBCFE7FF010EDB50E71226
:1017F000030EE7CFDBFF010E50DADF2AE0D7030E3E
:10180000DBCF69F000016A6B6B6B6C6BD89069374A
:101810006A376B376C376A696B696C6981B8698143
:10182000691F6A1F6B1F6C1F070EDF6EDFCFE6FF9D
:101830000CD8E5520001618184B26191040EE15C33
:1018400002E2E16AE552E16EF1D15ADA8998899AA9
:101850008D90FE0EDBB08988DBB2898ADBB48D8087
:10186000E5D1B3DADE6ADE6ADE6ADD6ADD52DD52B8
:1018700069C014F0F00E1416156A166A176A030E82
:1018800014C0DBFF69C014F00F0E1416156A166A37
:10189000176A1450DF6EDFCF14F0010EDBCF15F0A6
:1018A0000ADA040EE15C02E2E16AE552E16EBED1C1
:1018B00068C0E6FF61DFE552120022DA0001686BC2
:1018C000010EF36EFD0EDB5004E0D890F336E8060F
:1018D000FCE1F35000016813A9D1C7D904E0D89006
:1018E000F336E806FCE1F350000168139FD1BDD93F
:1018F00004E0D890F336E806FCE1F350146EFF0ED6
:10190000F3180001681792D100016151010B120018
:1019100000016D511200F4D9020E1DDADECF14F071
:10192000DDCF15F0C8D9020EE15C02E2E16AE552B2
:10193000E16E7CD17FD962E2C3D9040E33D97F0B2B
:10194000E66EFFD988D9050E44DA46DA060E2AD9A2
:101950009AD942DA070E43DA3FDA080E23D97F0B11
:10196000E66EF4D978D9090E34DA3CDA0A0E1AD9BF
:101970008AD938DA0B0E33DA35DA0C0E13D9070BA5
:10198000010FE66EF30EDBCFE9FFF40E64D9060E0D
:10199000146E0D0EF3D904E0E8427F0BE706FCE17C
:1019A000E66EF50EDBCFE9FFF60E55D90D0EECD93C
:1019B000010E9FD90D0EDBD9020E9BD90D0EF2D868
:1019C000030BE66E030E95D9060E146E0E0ED6D9D5
:1019D00004E0E8427F0BE706FCE1E66E040E89D9DD
:1019E0000E0ED2D9050E85D90E0EC1D9060E81D99B
:1019F0000E0ED8D8030BE66E070E7BD9040EE15C01
:101A000002E2E16AE552E16E11D17AD9460EE12691
:101A1000E7D8400E14C0DBFF410E15C0DBFF44D9F0
:101A2000C00E1416FF0E1516420E14C0DBFF430E37
:101A300015C0DBFF3F0EE76E37D9E7501416156A65
:101A4000440E14C0DBFF450E15C0DBFFAED9DBCF63
:101A5000EAFFEF505AD9040EA9D8010EE1D8050EBD
:101A6000A5D8020EDDD8060EA1D8030ED9D8070ED0
:101A70009DD867D9DBCFEAFFEF507F0B46D9080E20
:101A800095D8010EC6D8090E91D8020EC2D80A0EFA
:101A90008DD8030EBED80B0E89D8F60EDB04070BCB
:101AA00034D90C0E83D8030E95D81A6E020E92D834
:101AB000040DF3CF19F0010E8DD8100DF3CF18F0EF
:101AC00045D9DBCFEAFFEF50030BC8D80D0E6ED817
:101AD000070E80D81A6E060E7DD8040DF3CF19F0CC
:101AE000050E78D8100DF3CF18F0040E73D8B6D8C1
:101AF0000E0E5CD8460EE15C02E2E16AE552E16E50
:101B000095D063D9000EE96E430EEA6EEECFDEFF8C
:101B1000EDCFDDFF00D901E2D3D8040EE15C02E293
:101B2000E16AE552E16E82D085D82FE20001F951D9
:101B3000186E196AF9C008F019C009F0DECF0DF06F
:101B4000DDCF0EF0D7EC17F006C016F007C017F087
:101B5000400E1626000E1722020E086E096AFD0EB0
:101B6000DBCF0DF0FE0EDBCF0EF0D7EC17F01650EA
:101B70000624146E17500720156E61D80900F5CFA2
:101B800014F00800F5CF15F096D8040EE15C02E2DF
:101B9000E16AE552E16E4AD0D9CFE6FF47D0D9CF0E
:101BA000E6FF44D0E76EF6D8DAEF0EF0E76E440EAB
:101BB000DBCF16F0450EDBCF17F0E7501626000EF0
:101BC0001722D9501624E96EDA501720EA6EE9D0B0
:101BD000B1D8E7D0E76EBAD8ADD8EF50030B1200FA
:101BE0000001F951166E176AFD0EDBCF08F0FE0EEC
:101BF000DBCF09F0F9C00DF017C00EF0D7EC17F0ED
:101C000006C014F007C015F0400E1426000E152271
:101C10001200E76E96D88ED8EF507F0B85EF0EF04E
:101C2000E76EC3D887D8EF5085EF0EF0E552E7CFC7
:101C3000D9FF120065D8040E8ED88BEF0EF0020E7D
:101C400014C0DBFF030E15C0DBFFA4D8000EF62680
:101C5000430EF7221200DBCFEAFFA3D0400DF35072
:101C6000181019101A1085EF0EF04AD8010EF36EF5
:101C7000FD0EDB50120044D8E65212007F0BE66ED8
:101C8000010EE76E12007F0BE66E020EE76E120089
:101C90007F0BE66E030EE76E1200DBCFF3FFF39EC1
:101CA000F346F3CFDBFF1200400EDBCF14F0410E02
:101CB000DBCF15F0120014C0F3FF15C0F4FF1200C3
:101CC0008FDFBDDF0800F5507F0BE66E6ED8C3DFF7
:101CD000010E7FD88AD8020EE76EDBCFF6FF030E27
:101CE000DBCFF7FF67D8CFDF80D8030E78D8F5EFCA
:101CF0000EF0E76EF50EDBCFE9FFF60EE8EF0DF024
:101D0000D9CFE6FFE1CFD9FF1200E66ED9CF14F0AC
:101D1000DACF15F01200FD0EDBCF14F0FE0EDBCF94
:101D200015F0DECF16F0DDCF17F01650145C17500B
:101D300015581200DBCFEAFFE750E926000EEA2231
:101D40001200F90EDBCFE9FFFA0E1200F70EDBCF1F
:101D5000E9FFF80E1200E126000EF66E430EF76E54
:101D60000900F5CFDEFF0A00F5CFDDFF12001ADF14
:101D70000C0BE840E8403F0BE66E120013DFC00B8F
:101D800014C0E7FFE75212000DDF300BE8380F0BED
:101D9000E66E1200020EDBCFF6FF030EDBCFF7FF7D
:101DA0001200E552E750EF6E1200FB0EDBCFE9FFA9
:101DB000FC0E1200E750F626000EF722000EF62663
:101DC000430EF7220800F55012009ADF040EE126B8
:101DD0001200E8DE3EEF0EF0B4DFE8EF0DF0E2DED9
:101DE00048EF0EF0B3DFE8EF0DF0DFDFE8EF0DF0C6
:101DF00004011051600BE842E842E842E842E84240
:101E0000000901E012001151070A3CE00B0A3AE018
:101E1000070A2FE0010A21E00B0A1DE0020A1BE07D
:101E2000030A17E0080A0FE0010A0BE00F0A07E0B7
:101E3000030A01E01200DDDA040E6F6F120043EFB7
:101E40000FF07BEF0FF0D5DA710E756F010E766F24
:101E50000CD091EF0FF0BFEF0FF0E2DA0101756FD8
:101E6000766B720E7527010E76237093010E796FD3
:101E70001200D6DAEA6A720FE96E010EEA2212C483
:101E8000EFFF12001200800E0401105D33E11351C8
:101E9000030A1EE0010A09E0030A23E1AADAD00ED0
:101EA000756F2B0E766F120E1AD070DAEA0EF626C8
:101EB0002C0E85DA020E0101F76A7525F66E765151
:101EC000F7220900F5CF79F10A00F5CF7AF109D0B0
:101ED0005DDAEE0EF6262C0E72DA79DA0101796FF0
:101EE0007A6B020E0401125D05E0030E125D02E042
:101EF0000101708312007DDA42DA010EE66E720E85
:101F0000E66E010E87DA12C471F10401125104E188
:101F10000101050E6F6F12000101060E6F6FBCEF1D
:101F200014F00401506B516B10511F0B020A0FE0AB
:101F3000030A0BE0010A18E15CDA04015081010197
:101F400070A112D0040150830FD053DA0DD003DA00
:101F500001E0010E2BDA77C1E9FFEA6EEF50040BC6
:101F600003E00401010E506F0101740507E1500EFA
:101F7000756F040E766F7093020E796F1200040174
:101F800012050EE110511F0B00090AE132DA030EAF
:101F90000401115D03E10101708102D00101709122
:101FA000040112511DE110511F0B020819E11451D7
:101FB0000F0B000915E0CFD901E0010EF7D9030E90
:101FC0000401115D03E1840EFDEF11F014AF06D0A2
:101FD00077C1E9FF78C1EAFFEF6A1200880E0DDAD7
:101FE00012006C500BE1040100513C0BE842E84246
:101FF0000D0802E103EF10F034EF10F0040E6C5CFA
:1020000001E141D81200D9CFE6FFE1CFD9FFE65276
:102010000101736B746B796B7A6BEADEDF6ADF50F8
:10202000146E156A010E145C000E15581AE20101B7
:10203000745117E1F76ADF34FE0BF736F66EF60ED1
:10204000F6262C0EF7220900F5CF14F00800F5CF84
:1020500015F004D015C0FAFF1450F96EFBDFDF2A2B
:10206000DED789D8E552C1D1020E0101735D09E1C5
:1020700062D8040100BD02D0C80E01D0880E006FE6
:102080001200F1EF10F0040E01016F5D09E112C4BE
:102090006EFF6E50000802E2050E01D0030E6F6F56
:1020A000730509E110D8040104BD02D0C80E01D0A7
:1020B000880E046F1200090E0401115D02E147EC65
:1020C00015F0F1EF10F08AD90101400E795D000E94
:1020D0007A5905E279C1DEFF7AC1DDFF03D0400EF7
:1020E000DE6EDD6A040104930491010EDB500413DB
:1020F000DFCF05F4000EDB500101795F010EDB50EC
:102100007A5B500E776F040E786F70A307D047D9B3
:102110000BE05DD917D9FBE2DB06F9D740D904E023
:1021200072D9FCE2DB06FAD7020EE15C02E2E16A58
:10213000E552E16E5AD152D9030E04010015E76E43
:10214000010EE7CFDBFF01C4DFFFDE50010179277D
:10215000DD507A23500E756F040E766F20D904E09F
:1021600052D9FCE2DB06FAD7020EE15C02E2E16A38
:10217000E552E16E3AD10101745104E1F8D8840EC0
:10218000006F1CD0040110AF1BD001017951040174
:10219000165D01017A510401175904E216C479F160
:1021A00017C47AF190DF0101010E736FE0D8800E41
:1021B000006F500E066F040E076FC80E046F0FD02D
:1021C0000101020E736F0401056BC80E046F400E0F
:1021D000016F500E026F040E036FC80E006F6D98F2
:1021E00012000101736BC3D8880E006F046B1200DC
:1021F0006DA60CD801016F0508E16DBA06D0686ABA
:10220000696A69806988020E6F6F12006D6A696A77
:102210006D860101010E6F6F12006D6A696A01011E
:102220006F6B12000DEF11F001016F5101E112000F
:102230006850040B04E06950040B01E038D86DB21B
:1022400012006850010B04E06950010B01E04FD807
:102250006850100B04E06950100B01E023D868505F
:10226000400B04E06950400B01E037D86850200B68
:1022700004E06950200B01E032D86850020B04E002
:102280006950020B01E031D8030E01016F5D01E2DC
:1022900012006850080B05E06950080B02E0A1DE4F
:1022A00068961200698468986D82A19A12006D92F6
:1022B000699468941200010170A10ED0F8DF6D845A
:1022C0000101080E7B6F070E7C6F7B07000E7C5BA5
:1022D0007B517C11FAE16D941200689C120070A091
:1022E00002D07FDF7090689A1200689212006A6ACA
:1022F000686A9F0E6B6E7B0E696E6E6A40D8160E12
:10230000706E68A602D06896FCD76D986ADF0101EE
:102310007091716B030E6F6F1200D9CFE6FFE1CFA2
:10232000D9FFFD0EDBCFE9FFFE0EDBCFEAFFFC0E8F
:10233000DB5004E0EE6AFC0EDB06F9D7E552E7CF8E
:10234000D9FF12005AD8772B000E7823752B7623ED
:10235000DF06010E120064D80F0B080DF350156A4A
:10236000000F146E040E15221451800B120004018C
:10237000400E016F100E026F040E036F12000F0E5D
:10238000E66E710EE66E0F0E0AEF12F032D80401FF
:102390001251F66EF76AD890F636F7361200D9CF9A
:1023A000E9FFDACFEAFFEE50ED101200040DF35012
:1023B00001011424776F000E1520786F1200F722A8
:1023C0000900F5CF75F10A00F5CF76F1120075C15D
:1023D000F6FF76C1F7FF0800F5501200D9CFE6FFEF
:1023E000E1CFD9FF020EE1261200E552E7CFD9FF77
:1023F00012000101010E746F120077C1E9FF78C16C
:10240000EAFFEF6E120075C1E9FF76C1EAFFEF50F7
:10241000A2EF11F0E66E81DFE552E552E5521200BF
:08242000E8DF04011451120071
:0824280022D80001F851040A5A
:1024300010E0070A0CE0010A08E0030A04E0010AC0
:102440000DE18A9A07D08B9005D08A9603D08A94A2
:1024500001D08A92F8C0E6FF18D8E5520001F82BA7
:10246000000167510001F85D01E3F86B12008A90EA
:102470008C9E8C9C8C9A8C988B948C968C948A8A4B
:102480008B808A868A848A821200CDD8E652FE0E1C
:10249000EDD8EFCFDFFFC1D8010B01E08A80BDD8B6
:1024A000020B01E08C8EB9D8040B01E08C8CB5D8FE
:1024B000080B01E08C8AB1D8100B01E08C88ADD8F4
:1024C000200B01E08B84A9D8400B01E08C86A5D8B5
:1024D000800B01E08C84E552ABD0CFD8050EBFD87D
:1024E00002E27FD8FBD7020EE15C02E2E16AE5522C
:1024F000E16E9ED0C2D8040EB2D802E272D8FBD7E9
:10250000020EE15C02E2E16AE552E16E91D08BD805
:10251000FE0EDB50300FE66E04D8E5520001666F08
:1025200087D081D8410E94D80BE3610E91D802E395
:10253000610E01D0410E80D81C0FF66E300E08D00F
:10254000300E86D80BE3300E77D8120FF66E300EB1
:10255000F7220800FE0EF5CFDBFF05D0FE0EDB50A4
:102560002008FE0EDB6ADB5063D05DD8060EE12644
:10257000050EDB6AF36EDBCFF4FFE850F45C1DE27E
:10258000050EDB500001B225EA6A710FE96E000EFC
:10259000EA22EF50E66ED9CF14F0DACF15F0050E2F
:1025A000DB500F01D924E96E000EDA20EA6EE55205
:1025B000E750EF6E050EDB2ADDD7D9CFE6FFDACF85
:1025C000E6FF8BDFE552E5520001B207B25102E1AE
:1025D000B1C0B2F0060EE15C02E2E16AE552E16EE2
:1025E00027D0010EDB50E76EFD0EDBCFE9FFFE0EBC
:1025F000DBCFEAFFE750E926000EEA22EFCFDFFF4C
:10260000DFCFE6FF8EDFE552E66E010E2FD8E552F2
:10261000E750EF6E010EDB2A1200D9CFE9FFDACFC7
:10262000EAFFEF501200D9CFE6FFE1CFD9FF120049
:10263000E552E7CFD9FF1200146EFE0EDBCFE7FFA5
:102640001450E75EFE0EE7CFDBFFDB50F76A1200A7
:10265000F36EFE0EDBCFF4FFF350F45C1200F36E6A
:10266000010EDBCFF4FFF350F45C1200DB50EA6A9A
:10267000620FE96E000EEA221200D5DF020EE1269B
:06268000010EDB6A1200EE
:0A268600D9CFE6FFE1CFD9FF110E16
:10269000E1260001F6690001010EB56FB70EDE6E8E
:1026A000000EDD6E0401110570E11251B40A5BE009
:1026B000760A4CE0590A44E0020A3BE0010A2AE0AB
:1026C0000F0A21E0010A19E0BA0A09E0830A5DE174
:1026D000D5D8E66AD0D8E66ACED8E66A34D05FECC0
:1026E00015F0F3CF14F0F4CF15F0F350F41002E02E
:1026F000C5D84BD00001F66948D0C0D8A0A845D0B5
:10270000010EF66F3FD0BAD800C1E6FFB4D801C1C0
:10271000E6FF39D0B3D8040E02C1DBFF050E03C1BA
:10272000DBFF040EDBCFE9FF050EDBCFEAFFEF5046
:1027300018D0A4D802C1E6FF9ED803C1E6FF23D07B
:102740009DD8030EE66E97D8E66A1DD097D80A0E7C
:10275000E66E91D8140EE66E8ED8230EE66E8BD8F8
:10276000690EE66E10D08AD8A0B803D0F29EF29C13
:102770000CD0010EF66FE6687ED8E6687CD8E66875
:102780005CD8E552E66859D8E552090E0401115D9E
:102790003BE11251B40A35E02E0A33E0030A2AE085
:1027A000010A20E00F0A17E0010A0EE0BA0A2CE144
:1027B00098EC15F0F350F41003E00001020E02D083
:1027C0000001010EF66F20D00001020EF66FA0A8E6
:1027D0001BD0010E18D047D8EFCF00F153D8EFCF60
:1027E00001F112D040D8EF5002C1E9FF03C1EAFF66
:1027F000EF6E0AD038D8EFCF02F144D8EFCF03F113
:1028000003D00001020EF66FFF0E0001F65D0BE033
:10281000090E0401115D07E012C450F40001B55126
:102820000101796F7A6B110EE15C02E2E16AE55217
:10283000E16EE552E7CFD9FF1200D9CFE6FFE1CF35
:10284000D9FF400E0001B55D0AE2B551EA6A500FAA
:10285000E96E040EEA22FE0EDBCFEFFFB52BE55248
:10286000E7CFD9FF12000001020EF66FDECFE9FFBD
:10287000DDCFEAFF1200E1DFE55212000001050E94
:10288000F66F1200DECFE9FFDDCFEAFF010EE92689
:06289000000EEA22120016
:0A289600040110511F0B010801E0BE
:1028A0001200145101E01200060E115D24E11351D3
:1028B000230A1FE0010A0DE0030A1BE1E4D801012D
:1028C000710505E10101F40E756F2B0E766F090E8F
:1028D0000DD0D9D80101710505E101016E0E756FAA
:1028E0002C0E766F0101710504E17C0E0101796FF8
:1028F0007A6B0101708304011051600BE842E842D9
:10290000E842E842E842010801E0120011510B0AD6
:102910002FE0080A21E0090A1BE0080A13E00B0A6D
:1029200005E0080A01E012004EEF15F00101B60EB5
:10293000776F000E786F010170930101796B7A6BEC
:1029400043EF15F0A0D801017D0E756F010E09D07F
:102950009AD813C47DF1120096D801017E0E756FCE
:10296000010E766F010170930101010E796F120063
:102970008AD812C47EF1120001017F6B1E0E716EA7
:102980000401080E096F900E0A6F040E0B6F880E7B
:10299000086F0401980E0E6F040E0F6F400E0C6F3F
:1029A0001200D9CFE6FFE1CFD9FFE652FC0EDB5093
:1029B000080805E2080EF36EFC0EF3CFDBFFDF6ABA
:1029C000FC0EDB50DF5C0FE2DF5051D8EF50E66EBB
:1029D000DF50EA6A980FE96E040EEA22E552E750EA
:1029E000EF6EDF2AEDD7FC0EDBCF0DF4400E0401B5
:1029F0000C170C7D880E0C13E552E552E7CFD9FF7A
:102A00001200D9CFE6FFE1CFD9FF01017F6B0401AE
:102A100008BF27D0FC0EDBCF14F00951D880145426
:102A200003E2FC0E09C4DBFF01017F6BFC0EDB50EF
:102A30007F5D0FE27F51EA6A900FE96E040EEA2291
:102A4000EF50E66E7F5113D8E552E750EF6E7F2BC3
:102A5000EDD70401080E096F400E0817087D880E97
:102A6000081301017F51E552E7CFD9FF1200E76E4D
:102A7000FD0EDBCFE9FFFE0EDBCFEAFFE750E926D4
:0E2A8000000EEA2212000101020E746F120015
:022A8E00010144
:102A9000068943EC13F00101069912000101068931
:102AA00043EC13F00101020E746F0101500E756FBB
:102AB000040E766F01017093010106991200D9CFBF
:102AC000E6FFE1CFD9FF020EE126DE52010EDD6EF8
:102AD000F7C0E6FF79D80001F751320A17E104C1C7
:102AE000E6FF72D805C1E6FF6FD8DF6A200EDF5C13
:102AF0000DE2DF500101F76A0425F66E0551F72259
:102B00000800F550E66E60D8DF2AF0D7400E0001CD
:102B1000B55D05E2E66A58D80001B52BF7D7010E7E
:102B2000DB50146E020EE15C02E2E16AE55246D02F
:102B3000D9CFE6FFE1CFD9FF040EE126DE52010E28
:102B4000DD6EB7C0F7F00001B751320A2AE0030A80
:102B500009E0010A2AE1B8C027F1B9C028F129EC3F
:102B600017F023D0B8C027F1B9C028F1DF6A200ED2
:102B7000DF5C14E2040EDF24EA6AB60FE96E000E91
:102B8000EA22EF50E66EDF50EA6A070FE96E010EA7
:102B9000EA22E552E750EF6EDF2AE9D702EC17F0A0
:102BA00004D0B8C004F1B9C005F1010EDB50146EB9
:102BB000040EE15C02E2E16AE55200D0E16E1450DD
:102BC000E552E7CFD9FF12001DEC14F0E5521200D8
:102BD0001201100100000040AE0930441000010253
:102BE000030109022200010100A0320904000001D2
:102BF00003000000092110010001227C000705816B
:102C0000030800280403090418034A006F00650044
:102C100000000000000000000000000000000000B4
:102C20002C034D0049004400490020004400650089
:102C300076006900630065002000000000000000CD
:102C40000000000000000000000000002203360029
:102C500039003100320030003600300042002000E0
:102C6000000000000000000000000000000006FF5F
:102C7000FF0901A1017508950126FF001500859641
:102C800009C0B102752085B409D2B10275108597CB
:102C900009C1B1027508859809C2B10275108599FC
:102CA00009C3B102859C09D4B1027510859D09D56F
:102CB000B102859B09C5B102752085AF09E9B10252
:102CC00085AF09E981A276000285B009EAB10275F3
:102CD0002085C209D6B102859A09C4B1027508954A
:102CE0003F852C09040904B102C0E22BE22B042C1D
:082CF000082C202C4C2C962826
:082CF8000000000000000000D4
:102D000000000000000000000000000000000000C3
:102D100000000000000000000000000000000000B3
:102D200000000000000000000000000000000000A3
:102D30000000000000000000000000000000000093
:102D40000000000000000000000000000000000083
:102D50000000000000000000000000000000000073
:102D60000000000000000000000000000000000063
:102D70000000000000000000000000000000000053
:102D80000000000000000000000000000000000043
:102D90000000000000000000000000000000000033
:102DA0000000000000000000000000000000000023
:102DB0000000000000000000000000000000000013
:102DC0000000000000000000000000000000000003
:102DD00000000000000000000000000000000000F3
:102DE00000000000000000000000000000000000E3
:082DF0000000000000000000DB
:082DF800550EA76EAA0EA76E8E
:102E0000A682120048D8E652E00E01012717840E70
:102E1000A66EDF6A200EDF5C1AE2DF50EA6A070F57
:102E2000E96E010EEA22EFCF14F0DF500101F76ADC
:102E30002725F66E2851F722F86A14C0F5FF0C001A
:102E40001F0EDF141F0801E1D7DFDF2AE3D7E552A9
:102E500027D0940EA66E27C1F6FF28C1F7FFF86AA7
:102E6000CBDFF86A120017D8A66AFE0EDB50A96EF7
:102E7000A680A85015D00FD8A6A202D0000E0AD066
:102E8000FE0EDB50A96EFD0EDB50A86E040EA66E82
:102E9000B3DF010E05D0D9CFE6FFE1CFD9FF120095
:082EA000E552E7CFD9FF120053
:082EA8004CEC18F0896A8A6AFB
:102EB0008B6A8C6A8D6A010E926E100E936EF80EFC
:102EC000946E956A020E966E0001050E676FE60E0F
:102ED000AC6E900EAB6E3F0EAF6EB06A400EC26E1F
:102EE0000E0EC16E860EC06EF26A800EF16ED08E2E
:102EF000D76AD66AD56ACC6AF90ECB6E0D0ECA6E49
:102F0000020E9D6EF28E140E6F6E01016F6B010149
:082F1000706B0101716B1200EE
:082F1800D9CFE6FFE1CFD9FF9C
:102F2000FE0EDB50A96EA69EA69CA680A850E55278
:102F3000E7CFD9FF1200D9CFE6FFE1CFD9FFFE0ED0
:102F4000DB50A96EFD0EDB50A86EA69EA69CA68443
:102F5000F29E550EA76EAA0EA76EA6820400A6B218
:0E2F6000FDD7F28EA694E552E7CFD9FF1200FE
:022F6E00202021
:102F700020207072696E6365737320636F6E737562
:102F8000656C612062616E616E612068616E6E6F5A
:102F9000632020000000000000000000000000008E
:0E2FA000000000000000000000000000000023
:022FAE0008C059
:102FB00012F008500D02F4CF07F0F3CF06F00950DD
:102FC0000E02F4CF09F0F3CF08F00D02F3500726FC
:102FD000F4500822E86A092212500E02F350072624
:0A2FE000F4500822E86A0922000CF0
:062FEA00DACFE4FFE6521D
:102FF0009EA20BD09E920001608100016E2B040EF8
:103000006E5D03E16E6B00016081E552E5CFDAFF92
:023010001100AD
:0E3012003F065B4F666D7D077F67777C585EDB
:1030200079716F74061E003800545C7367506D0729
:063030001C1C00766E5B23
:0A30360000016F2B0A0E6F5D09E127
:103040006F6B0001702B640E705D03E1706BB5EC6B
:0430500012F0120068
:0C305400056A080EE76ED89009360536B4
:103060000E50055C02E3056E092AE72EF7D7120021
:1030700017EE00F027EE00F0F86A019C15EC05F061
:04308000FDD7120066
:0C30840000016093010EE66EA2EC0BF060
:08309000E55200016D6F120012
:08309800EA6AE96A0400EE6A2D
:0630A000EAA6FCD71200B5
:0530A6005345512D000F
:0130AB001014
:0430AC000000000020
:1030B000000000000000000000000000000F0005FC
:0E30C0000002004B00000000000000000000B5
:1043000000000000000000000000000000000000AD
:10431000000000000000000000000000000000009D
:10432000000000000000000000000000000000008D
:10433000000000000000000000000000000000007D
:020000040030CA
:0100000029D6
:010001000EF0
:0100020036C7
:010003000EEE
:010005008179
:010006008178
:010008000FE8
:01000900C036
:01000A000FE6
:01000B00E014
:01000C000FE4
:01000D0040B2
:00000001FF
