:020000040000FA
:0600000015EF05F01200EF
:06000800E6EF18F0120003
:060A000006EF19F01200E0
:060A0800E6EF18F01200F9
:060A2A00D9CFE6FFE1CF89
:100A3000D9FF060EE1261EEC18F08CEC07F06F0EC5
:100A4000DF6EDE526C0EDD6EF36E020EF3CFDBFF57
:100A5000650EF36E030EF3CFDBFF680EF36E040E2C
:100A6000F3CFDBFFD9CFE6FFDACFE6FFBEEC12F023
:100A7000E552E552AA0EE66EC0EC0BF0E55201011C
:100A80002E6BF28EF28C36D81BA603D01B96E66A2C
:100A900005D01BA807D01B98200EE66E77EC17F048
:100AA000E552EFD71BA203D0A0EC18F0EAD71BA0A9
:100AB00004D01B90BDEC18F0E4D71CA004D01C900F
:100AC000DDEC0BF0DED71BAC03D01B9C65EC12F009
:100AD0001BAA03D01B9A5CEC0CF01BAE03D01B9E30
:100AE000A8EC07F01CA203D01C92B4EC06F0CDECED
:100AF00017F0C7D749EC11F06FBE02D065EC11F0CA
:020B00001200E1
:0E0B02000200343200006000000022000000FB
:0C0B100033320000FE0100000100000074
:040B1C00C6EC0AF029
:100B2000E652030EDF6E31EC0BF00550300FE66E2F
:100B3000DF50DF06BAEC0AF0E552E750EF6E31EC19
:100B40000BF0FE0E09C0DBFF09500008ECE3DF509C
:100B5000000807E2DF50BAEC0AF0200EEF6EDF0665
:100B6000F6D7DF50BAEC0AF0200EEF6EE552CBEF6D
:100B70000AF0C6EC0AF0040EE126D9CFE6FFDACF80
:100B8000E6FF0101DC29E66EC9DFE552E552E552D8
:100B9000500EDF6ED9CFE6FFDACFE6FF3FEC0BF069
:100BA00077C063F078C064F0040EE15C02E2E16AB1
:100BB000E552E16ECBEF0AF0C6EC0AF0DCC1E6FFCD
:100BC00060C0E6FF0C0EE66E10EC0EF0E552E5524A
:100BD000E552FE0EDB5001E0CCDFCBEF0AF0C6ECB5
:100BE0000AF0FCEC0AF0EFCFDCF1FE0EDBCFE6FF03
:100BF000E3DFE5520101F4EC0AF0CBEF0AF001016A
:100C0000DE29E66ED8EC12F0E5521200C6EC0AF0CE
:100C1000DFC1E1F1E0C1E2F127EC0BF0FE0EDBCF2A
:100C2000E6FFDDDFE552EBDFCBEF0AF0C6EC0AF0C2
:100C3000D70EE66E010EE66E83EC0BF09AEC0BF02D
:100C40009CEC0CF0146E0C0EE15E14500101DE6B96
:100C5000DE29E66ED8EC12F0E552FE0EDB5004E021
:100C600022EC0BF03FEC0BF0CBEF0AF0C6EC0AF0F5
:100C7000DAEC0AF0FE0EDBCFE6FFD8DFE552CBEF71
:100C80000AF09AEC0BF0C1EC0DF071EC0BF022ECD9
:100C90000BF03FEF0BF000016F5104E02E0EE66EFB
:100CA000320E0FD0DAEC0AF022EC0BF0F3CFE6FFB5
:100CB000F4CFE6FFC1EC0DF071EC0BF0D80EE66E50
:100CC000010EE66E3FEF0BF0C6EC0AF0E7EC0AF01F
:100CD00012E1FE0EDB5015180EE1FD0EDB507B1508
:100CE0000001166EFE0EDB5000017C150001176E30
:100CF0001650171002E0000E01D0010ECBEF0AF0E3
:100D0000C6EC0AF0E7EC0AF003E1FE0EDB50151822
:100D100002E0000E01D0010ECBEF0AF0C6EC0AF0A3
:100D2000FD0EDB5000017B15146EFE0EDB507C15B2
:100D3000156EFD0EDB50141812E1FE0EDB50151877
:100D40000EE1FD0EDB5079150001166EFE0EDB5034
:100D500000017A150001176E1650171002E0000E00
:100D600001D0010ECBEF0AF000016D510AE0010144
:100D7000000ED880E755000EE85503E2E707000EA5
:100D8000E85B55EC0BF003E26707000E685B39EC9B
:100D90000BF003E26907000E6A5B000ED880635512
:100DA000000E64550CE26307000E645B635164112E
:100DB00006E10101EA0502E164DF01D06CDF5CECD1
:100DC0000BF003E26B07000E6C5B000ED8806555DC
:100DD000000E665551E26E51030A22E0010A0EE050
:100DE000030A41E165511F0B02E1705126D01BEC53
:100DF0000BF039E1155037E1705131D065511F0BBF
:100E000009E1000E44EC0BF0E552E552010E44EC12
:100E10000BF020D01BEC0BF026E1155024E115D08F
:100E200065511F0B0DE1000EC1DB010EBFDB020E91
:100E300044EC0BF0E552E552030E44EC0BF011D0FC
:100E40001BEC0BF010E115500EE1000EAFDB010EB4
:100E5000A0EC0BF0E552E552020EA8DB030EA0EC6D
:100E60000BF0E552E55200016507000E665B655127
:100E7000661102E10101B8DB1200000181510EE1AF
:100E800064DB0101E31906E11550E41903E1E36BAA
:100E9000E46B1200E32B000EE42312007F0E01012D
:100EA000DC5D02E1DC6B1200DC2B120000018151E1
:100EB0000BE10101E351E41103E163EC0BF001D01C
:100EC000E307000EE45B12000101DC5103E17F0E39
:100ED000DC6F1200DC0712000001815102E14BEFD0
:100EE00006F0B9EF05F00001815103E1E66ABEDECC
:100EF00003D0010EE66E60DEE5521200DEC1D7F1CE
:100F0000DEC1E6FF2BDB0001020E6F6F320E6B6F4E
:100F10006C6B0101DE6B12008DEC0CF0F3CFE5F190
:100F2000F4CFE6F10101DF6BE06BE0DBE552B5DB0E
:100F3000000E00017B6F7C6B796F7A6B8AEC0CF092
:100F400000017E6F7D6F87EC0CF00101EA6F1200EB
:100F500035EC0CF0F3CF79F0F4CF7AF08AEC0CF0AA
:100F600000017D6F7E517D5D13E07F0E7D15E66E85
:100F70000101DD51EA6ACB0FE96E010EEA22EF5062
:100F8000E66E60C0E6FF0B0EE66E13EC0EF0A9DB1A
:100F900087EC0CF0000908E10101EA0514E1EA6BB5
:100FA000E36BE46BA7DB09D00101EA510CE1010E10
:100FB000EA6FDF6BE06BE66E39DEE5520101DE6B56
:100FC000E66A24DEE552ACDB31E00101DF51E119D4
:100FD00029E1E051E21926E1D705DE5D22E1EA517F
:100FE0000EE1B3DAE31906E11550E41903E1E36B0E
:100FF000E46B03D0E32B000EE4237CDB0DD0A5DAF9
:10100000DF1906E11550E01903E1DF6BE06B03D057
:10101000DF2B000EE0236ADBE5520101DE6BE66A9E
:1010200003D0DE2B010EE66EF1DDE5520101EA513F
:10103000010A01E175D1010A01E062D200016F519C
:10104000020A01E153D1030A01E11BD1010A01E0C7
:1010500057D2010E5ADA09E00101DD6B000181056A
:1010600002E116DB02D0010E49DB020E4EDA0AE085
:101070000101010EDD6F0001810502E109DB02D0F3
:10108000020E3CDB040E41DA0AE00101020EDD6FC4
:101090000001810502E1FCDA02D0030E2FDB080E0D
:1010A00034DA0AE00101030EDD6F0001810502E17F
:1010B000EFDA02D0040E22DB0001810539E167512D
:1010C000681121E180511FE1010E35DA09E1020EBC
:1010D00032DA06E1040E2FDA03E1080E2CDA13E00F
:1010E0000001010E806F88DADCC1EFFFD7C1E6FF97
:1010F00035DA010E03DB0001010E6E6FDDC170F009
:10110000640E656F666B010E1BDA09E1020E18DAD8
:1011100006E1040E15DA03E1080E12DA09E0C5DA79
:1011200007E2805105E1010EE9DA0001676B686BA7
:10113000F7DA09E0FCDA07E1000169516A1103E11D
:101140001E0E696F6A6B00016D510FE1F0DA0DE060
:10115000EEDA0BE1000169516A1107E10101E76B69
:10116000E86BE96B0001010E6D6FF2DA08E0000137
:1011700080DA02E282DEB0DE00016D6BB4DED0DA2E
:1011800009E0D5DA07E1000169516A1103E11E0E99
:10119000696F6A6B00016D510FE1C9DA0DE0C7DAC2
:1011A0000BE1000169516A1107E10101E76BE86B8E
:1011B000E96B0001040E6D6FCBDA08E0000159DA2B
:1011C00002E274DE89DE00016D6B8DDEA9DA04E0D7
:1011D0001E0E00016B6F6C6BAADA0DE000016B5103
:1011E0006C1109E16F5107E1010E6F6F0101DE6BB8
:1011F000040EDD6F50DDACDA0FE05EDA0DE28151F6
:1012000004E1010E816F030E02D0816B020E6E6F3E
:10121000640E656F666B60DE00016D5101E170D197
:101220000101E751E81101E06BD100016D51060A9F
:1012300025E0030A1DE0010A15E0070A11E0010A92
:1012400009E0030A01E05CD118DEEAD9050801E0F3
:101250002DD1F9D012DEE4D9140801E03DD105D139
:101260000CDE0DD023DEDCD9050801E01FD119D139
:101270001DDED6D9140801E02FD129D117DE2CDECE
:101280003BD1010E42D908E00101DD5105E0DD6BE3
:10129000010E40D901E132DE020E37D908E001012A
:1012A000DD0505E0010EDD6F35D901E127DE040E15
:1012B0002CD90AE0020E0101DD5D06E0020EDD6FB1
:1012C000010E28D901E11ADE080E1FD90AE0030E2B
:1012D0000101DD5D06E0030EDD6F010E1BD901E1AA
:1012E0000DDE1EDA01E10CD109DE0AD16B516C1161
:1012F00001E006D10101D751DE5D04E100016F6B11
:10130000CCD9FED07CDCA3D96FD976D9EFCFDCF174
:1013100030DC0101DE2B320E00016B6F6C6BF0D004
:10132000010EF3D804E00101DD6B010EE7D9020ED6
:10133000ECD804E00101010EDD6FE0D9040EE5D820
:1013400005E00101020EDD6F010ED8D9080EDDD8CF
:1013500005E00101030EDD6F010ED0D9E1D90EE0E9
:10136000E2D906E11550E01903E1DF6BE06B03D031
:10137000DF2B000EE02348D9010E6D6FE9D901E0A3
:10138000A9D9CED90CE00101DF51E01102E107D962
:1013900001D0DF07000EE05B37D9040E6D6FD8D99E
:1013A00001E098D9BDD92AE00101DF51E11921E11D
:1013B000E051E2191EE1DE511BE1EA510AE1E3517D
:1013C000E41102E180D901D0E307000EE45B92D979
:1013D00009D0DF51E01102E1E2D801D0DF07000EB1
:1013E000E05B84D9E5520101D705DE6FE66A03D0E0
:1013F000DE07010EE66E06EC06F0E55200016D51C7
:1014000001E17ED00101E751E81101E079D000014E
:101410006D51060A66E0030A4EE0010A36E0070A4B
:1014200028E0010A14E0030A6BE17DD906E11550BA
:10143000E01903E1DF6BE06B03D0DF2B000EE0234C
:10144000F4D8050833E1E96B0001020E2DD06BD909
:1014500006E11550E01903E1DF6BE06B03D0DF2BF1
:10146000000EE023E2D8140837E1E96B0001030E17
:1014700031D059D906E11550E01903E1DF6BE06B7B
:1014800039D0DF2B000EE02335D00101DF51E01110
:1014900002E185D801D0DF07000EE05BC6D8050861
:1014A00005E1E96B0001050E6D6F16D071C0E7F123
:1014B00072C0E8F125D00101DF51E01102E16FD8DF
:1014C00001D0DF07000EE05BB0D8140805E1E96B3E
:1014D0000001060E6D6F10D073C0E7F174C0E8F123
:1014E0000FD00101DF51E01102E159D801D0DF072F
:1014F000000EE05B41EC06F075C0E7F176C0E8F164
:1015000079C07BF07AC07CF01200E66EE66A64EC8B
:1015100006F01AD1F3D80101DE51DE2BEA6ACF0FB3
:10152000E96E010EEA22DDC1EFFFFFEC05F0080EC7
:101530000101DE5D1200E66EE66A80EC06F004D181
:10154000E66EE66A8EEC06F0FFD0E5C114F0E6C167
:1015500015F01406000E155A14501200D4D8DFC12D
:10156000E6FFE0C1E6FF08EC0DF0146E090EE15E47
:1015700014501200E76EFC0EDBCFE9FFFD0EDBCF4F
:10158000EAFFE750E926000EEA221200D9CFE6FF73
:10159000E1CFD9FF1200E552E7CFD9FF1200E5C134
:1015A000DFF1E6C1E0F1010EDF5F1200C9D8E552BC
:1015B000E5521200E3C1E6FFE4C1E6FFD4EC0DF012
:1015C000E552E552F3CFDFF1F4CFE0F11200FD0E6A
:1015D000DB5000017915146EFE0EDB507A15156E86
:1015E000FD0EDB5014181200DD51E66EE66A61EC68
:1015F0000CF0E552E55212000101DD51EA6AC70F15
:10160000E96E010EEA22120041EC06F000016D6B5A
:1016100071C0E7F172C0E8F10101E96B000112004D
:101620005BDC0101E951E92B120041EC06F00101FC
:10163000E951E92B12001F0E6515146E156A0F0E85
:1016400014181200D80EE66E010EE66E12000101AB
:10165000DE51EA6ACF0FE96E010EEA22EFCFDDF12B
:1016600012000A0E146E0E6EFE0EDBCF09F0F8EFBC
:1016700018F0000ED8806955000E6A551200CBECA8
:1016800012F0E552E5521200E66EE66A6EEF0CF0DB
:101690001E0E676F686B806B12000101DE6B010E1E
:1016A000E66E06EC06F0E55212000001000ED8804E
:1016B0006755000E685512000001000ED8806B556A
:1016C000000E6C551200E5C1E3F1E6C1E4F1010E34
:1016D000E35F120000016D6BE66A16EC06F0E5525E
:1016E0001200E552E552E552E5521200010EE66E97
:1016F00016EF06F0010EE66E36EF06F0E66EEFEC42
:1017000005F0E5521200CF0EE66E010EE66ECB0E2E
:10171000E66E010EE66EC70EE66E010EE66E120074
:10172000000E85EF0AF011DF0101DF191200000E33
:101730009BEF0AF087DFDFC1E6FFE0C1E6FF1200A2
:10174000E66EE66A79EF0CF0E552E5520009120008
:06175000000EA0EF0AF0FC
:0A1756008EDAE652FE0EDB50C26E82
:101760000A0EDF6EDF5002E0DF06FCD7C282C2B293
:10177000FED7C450E55283D27DDAFE0E2BDB7FD23A
:1017800079DAE652080EDF6E898489948992FE0E1A
:10179000DBBE02D0899601D08986B1DA8982DF0664
:1017A000F5E18984100EDF6EDF5002E0DF06FCD722
:1017B000899489868982E55262D22CDBDE52010E41
:1017C000DD6E030EDB6ADF6ADF5006081DE3DFCF44
:1017D000E6FF3FD8E552050EF36E020EF3CFDBFFB6
:1017E000DB5003E0020EDB06FBD784A209D0030E18
:1017F000DBCFE7FF010EDB50E712030EE7CFDBFF85
:10180000010E7DDADF2AE0D7030EDBCF2FF10101D5
:10181000306B316B326BD8902F37303731373237EE
:1018200030693169326981B82F812F1F301F311F14
:10183000321F070EDF6EDFCFE6FF0BD8E5521D80AB
:1018400084B21D90040EE15C02E2E16AE552E16EB1
:1018500016D210DA8998899A8D90FE0EDBB08988AD
:10186000DBB2898ADBB48D800AD2D4DADE6ADE6A22
:10187000DE6ADD6ADD52DD522FC114F0F00E14165F
:10188000156A166A176A030E14C0DBFF2FC114F025
:101890000F0E1416156A166A176A1450DF6EDFCF22
:1018A00014F0010EDBCF15F038DA040EE15C02E231
:1018B000E16AE552E16EE3D12EC1E6FF61DFE55258
:1018C0001200D8D901012E6B2DDA04E0D890F3363E
:1018D000E806FCE1F35001012E13D1D1CBD922DA75
:1018E00004E0D890F336E806FCE1F35001012E1332
:1018F000C6D1C0D917DA04E0D890F336E806FCE187
:10190000F350146EFF0EF31801012E17B8D11D50BD
:10191000010B1200010133511200ACD9020E45DA5D
:10192000DECF14F0DDCF15F0F8D9020EE15C02E253
:10193000E16AE552E16EA3D19DD9B1D962E2FFD946
:10194000040E76D97F0BE66E91DABED9050E88DAE1
:1019500083DA060E6DD9C9D97FDA070E84DA7CDA0C
:10196000080E66D97F0BE66E86DAAED9090E78DAF4
:1019700075DA0A0E5DD9B9D971DA0B0E74DA6EDA3E
:101980000C0E56D9070B010FE66EF30EDBCFE9FF05
:10199000F40E9AD9060E146E0D0E29DA04E0E84210
:1019A0007F0BE706FCE1E66EF50EDBCFE9FFF60EF6
:1019B0008BD90D0E22DA010ED6D90D0E11DA020ED8
:1019C000D2D90D0E35D9030BE66E030ECCD9060E17
:1019D000146E0E0E0CDA04E0E8427F0BE706FCE121
:1019E000E66E040EC0D90E0E08DA050EBCD90E0E36
:1019F000F7D9060EB8D90E0E1BD9030BE66E070EEB
:101A0000B2D9040EE15C02E2E16AE552E16E37D13F
:101A100031D9460EE1261CD9400E14C0DBFF410E21
:101A200015C0DBFF73D9C00E1416FF0E1516420E3B
:101A300014C0DBFF430E15C0DBFF3F0EE76E66D917
:101A4000E7501416156A440E14C0DBFF450E15C08E
:101A5000DBFF420EDBCFE6FF430EDBCFE6FF76D89F
:101A6000E552E55211DADBCFEAFFEF50E66E040EE5
:101A70005ED9010E85D9050E5AD9020E81D9060EFE
:101A800056D9030E7DD9070E52D9F0D9DBCFEAFF24
:101A9000EF507F0BE66E080E4AD9010ED7D9090E1A
:101AA00046D9020ED3D90A0E42D9030ECFD90B0E56
:101AB0003ED9F60EDB04070BE66E0C0E38D9030E8A
:101AC000ADD9166E020EAAD9040DF3CF15F0010E92
:101AD000A5D9100DF3CF14F0CED9DBCFEAFFF7D89C
:101AE0000D0E25D9070E9AD9166E060E97D9040D3C
:101AF000F3CF15F0050E92D9100DF3CF14F0040EAC
:101B0000E76E38D9E4D80E0E12D90101FE51146ED9
:101B1000156A57D915C00EF082EC18F006C005F111
:101B200007C006F1400E01010527000E0623C00E76
:101B30000517FF0E0617A2EC17F01B861B88460E32
:101B4000E15C02E2E16AE552E16E99D093D8E65297
:101B5000DF6A400EDF5C13E2FD0EDBCFF6FFFE0E08
:101B600052D90800F550E66EDF50EA6A070FE96EB9
:101B7000010EEA22E552E750EF6EDF2AEAD7E5527E
:101B80007ED048D9000EE96E330EEA6EEECFDEFF4E
:101B9000EDCFDDFFFBD801E2D2D8040EE15C02E21A
:101BA000E16AE552E16E6BD065D879D803E3F36A58
:101BB000F46A2FD00101FE51186E196AFEC108F0B7
:101BC00019C009F0DECF0DF0DDCF0EF082EC18F079
:101BD00006C016F007C017F0400E1626000E17229A
:101BE000020E086E096AFD0EDBCF0DF0FE0EDBCF94
:101BF0000EF082EC18F016500624146E17500720D1
:101C0000156E41D80900F5CF14F00800F5CF15F096
:101C100084D8040EE15C02E2E16AE552E16E2FD065
:101C200029D841D82CD026D83ED8FB0ED3D827D0DF
:101C3000E76E020E16EF0FF0DBCFEAFFE750E92662
:101C4000000EEA221200070EE926010EEA2218D140
:101C50000101FE51166E176AB4D817C00EF082EC5F
:101C600018F006C014F007C015F0400E1426000E40
:101C700015221200D9CFE6FFE1CFD9FF1200E552BD
:101C8000E7CFD9FF1200020E14C0DBFF030E15C010
:101C9000DBFF020EDBCFF6FF030E03EF0FF0040EA7
:101CA00084D8C6EF0EF0FD0EDB500F0B146EFE0E47
:101CB000DB500F0B100DF3501410E66E03EC18F010
:101CC000E552FC0EEAEF0EF0DBCFEAFFD9D0EF5081
:101CD000030B400DF350141015101610E66E120091
:101CE0007F0BE66E010EE76E12007F0BE66E020EB2
:101CF000E76E12007F0BE66E030EE76E1200DBCF7D
:101D0000F3FFF39EF346F3CFDBFF1200400EDBCF71
:101D100014F0410EDBCF15F0120014C0F3FF15C014
:101D2000F4FF1200010EF36EFD0EDB501200E76EA1
:101D3000440EDBCFE9FF450E7FDF23EF0EF088DF97
:101D4000A2DF0800F5507F0BE66E9ED8BDDF010EC6
:101D500087D869D8020EE76E69D8C7DF64D8030E4A
:101D600082D813EF0FF0E76EF50EDBCFE9FFF60E2A
:101D700063DF86D080D81CEF0EF078D81CEF0EF011
:101D8000E76E82D859DFEF50E66E1200FD0EDBCF12
:101D900014F0FE0EDBCF15F0DECF16F0DDCF17F01E
:101DA0001650145C175015581200E126000EF66EFE
:101DB000330EF76E0900F5CFDEFF0A00F5CFDDFF29
:101DC0001200FD0EDBCF08F0FE0EDBCF09F0FEC1E6
:101DD0000DF01200DBCFE6FF03EC18F0E552120025
:101DE00027DF0C0BE840E8403F0BE66E120020DFD7
:101DF000C00B14C0E7FFE75212001ADF300BE838BF
:101E00000F0BE66E1200DBCFF7FF000EF626330E47
:101E1000F72212002FDF040EE1261200E76EAADF80
:101E2000EF50030B120030D807DF2AD0DBCFF6FFCC
:101E3000030EDBCFF7FFE750F626000EF722000E69
:101E4000F626330EF7220800F5501200E76E95DFF4
:101E5000EF507F0BE66E120090DF12D08BDF10D0B8
:101E6000E7DE70EF0EF0E4DE7AEF0EF0F90EDBCF76
:101E7000E9FFFA0E1200F70EDBCFE9FFF80E1200B1
:101E8000E552E750EF6E1200FB0EDBCFE9FFFC0ED0
:021E900012003E
:0E1E920004011051600BE842E842E842E842C9
:101EA000E842000901E012001151070A3CE00B0A68
:101EB0003AE0070A2FE0010A21E00B0A1DE0020ABE
:101EC0001BE0030A17E0080A0FE0010A0BE00F0A03
:101ED00007E0030A01E01200DDDA040EEB6F1200E6
:101EE00094EF0FF0CCEF0FF0D5DAED0EF16F010E9D
:101EF000F26F0CD0E2EF0FF010EF10F0E2DA010118
:101F0000F16FF26BEE0EF127010EF223EC93010E4E
:101F1000F56F1200D6DAEA6AEE0FE96E010EEA22D8
:101F200012C4EFFF12001200800E0401105D33E1B5
:101F30001351030A1EE0010A09E0030A23E1AADAA9
:101F4000BA0EF16F2C0EF26F120E1AD070DAD40E98
:101F5000F6262D0E85DA020E0101F76AF125F66EDE
:101F6000F251F7220900F5CFF5F10A00F5CFF6F1AD
:101F700009D05DDAD80EF6262D0E72DA79DA010173
:101F8000F56FF66B020E0401125D05E0030E125DA3
:101F900002E00101EC8312007DDA42DA010EE66E06
:101FA000EE0EE66E010E87DA12C4EDF10401125155
:101FB00004E10101050EEB6F12000101060EEB6F4B
:101FC00007EF15F00401506B516B10511F0B020A03
:101FD0000FE0030A0BE0010A18E15CDA040150810A
:101FE0000101ECA112D0040150830FD053DA0DD0BF
:101FF00003DA01E0010E2BDAF3C1E9FFEA6EEF50DC
:10200000040B03E00401010E506F0101F00507E12C
:10201000500EF16F040EF26FEC93020EF56F12008A
:10202000040112050EE110511F0B00090AE132DA1A
:10203000030E0401115D03E10101EC8102D00101F5
:10204000EC91040112511DE110511F0B020819E11E
:1020500014510F0B000915E0CFD901E0010EF7D99B
:10206000030E0401115D03E1840E4EEF12F014AF74
:1020700006D0F3C1E9FFF4C1EAFFEF6A1200880E4F
:102080000DDA12006C500BE1040100513C0BE842E8
:10209000E8420D0802E154EF10F085EF10F0040E55
:1020A0006C5C01E141D81200D9CFE6FFE1CFD9FF46
:1020B000E6520101EF6BF06BF56BF66BEADEDF6A5F
:1020C000DF50146E156A010E145C000E15581AE2EA
:1020D0000101F05117E1F76ADF34FE0BF736F66EB7
:1020E000E00EF6262D0EF7220900F5CF14F00800B9
:1020F000F5CF15F004D015C0FAFF1450F96EFBDFD0
:10210000DF2ADED789D8E552C1D1020E0101EF5D89
:1021100009E162D8040100BD02D0C80E01D0880ECA
:10212000006F120042EF11F0040E0101EB5D09E1B6
:1021300012C46EFF6E50000802E2050E01D0030EBD
:10214000EB6FEF0509E110D8040104BD02D0C80E01
:1021500001D0880E046F1200090E0401115D02E126
:1021600092EC15F042EF11F08AD90101400EF55DB5
:10217000000EF65905E2F5C1DEFFF6C1DDFF03D022
:10218000400EDE6EDD6A040104930491010EDB5003
:102190000413DFCF05F4000EDB500101F55F010EE3
:1021A000DB50F65B500EF36F040EF46FECA307D018
:1021B00047D90BE05DD917D9FBE2DB06F9D740D947
:1021C00004E072D9FCE2DB06FAD7020EE15C02E21F
:1021D000E16AE552E16E5AD152D9030E04010015AD
:1021E000E76E010EE7CFDBFF01C4DFFFDE50010128
:1021F000F527DD50F623500EF16F040EF26F20D953
:1022000004E052D9FCE2DB06FAD7020EE15C02E2FE
:10221000E16AE552E16E3AD10101F05104E1F8D8EA
:10222000840E006F1CD0040110AF1BD00101F551CA
:102230000401165D0101F6510401175904E216C4A8
:10224000F5F117C4F6F190DF0101010EEF6FE0D850
:10225000800E006F500E066F040E076FC80E046FDD
:102260000FD00101020EEF6F0401056BC80E046F61
:10227000400E016F500E026F040E036FC80E006F08
:102280006D9812000101EF6BC3D8880E006F046BCC
:1022900012006DA60CD80101EB0508E16DBA06D05D
:1022A000686A696A69806988020EEB6F12006D6A5C
:1022B000696A6D860101010EEB6F12006D6A696A31
:1022C0000101EB6B12005EEF11F00101EB5101E136
:1022D00012006850040B04E06950040B01E038D888
:1022E0006DB212006850010B04E06950010B01E06F
:1022F0004FD86850100B04E06950100B01E023D850
:102300006850400B04E06950400B01E037D868503A
:10231000200B04E06950200B01E032D86850020B1A
:1023200004E06950020B01E031D8030E0101EB5DBE
:1023300001E212006850080B05E06950080B02E04A
:10234000A1DE68961200698468986D82A19A1200D5
:102350006D926994689412000101ECA10ED0F8DF2F
:102360006D840101080EF76F070EF86FF707000E76
:10237000F85BF751F811FAE16D941200689C1200B5
:1023800070A002D07FDF7090689A120068921200ED
:102390006A6A686A9F0E6B6E7B0E696E6E6A40D8C1
:1023A000160E706E68A602D06896FCD76D986ADF2C
:1023B0000101EC91ED6B030EEB6F1200D9CFE6FF3C
:1023C000E1CFD9FFFD0EDBCFE9FFFE0EDBCFEAFF49
:1023D000FC0EDB5004E0EE6AFC0EDB06F9D7E5529A
:1023E000E7CFD9FF12005AD8F32B000EF423F12BBC
:1023F000F223DF06010E120064D80F0B080DF35014
:10240000156A000F146E040E15221451800B120071
:102410000401400E016F100E026F040E036F1200D4
:102420000F0EE66E710EE66E0F0E5BEF12F032D8F5
:1024300004011251F66EF76AD890F636F73612009C
:10244000D9CFE9FFDACFEAFFEE50ED101200040D0C
:10245000F35001011424F36F000E1520F46F1200E5
:10246000F7220900F5CFF1F10A00F5CFF2F11200E1
:10247000F1C1F6FFF2C1F7FF0800F5501200D9CF05
:10248000E6FFE1CFD9FF020EE1261200E552E7CFC9
:10249000D9FF12000101010EF06F1200F3C1E9FF34
:1024A000F4C1EAFFEF6E1200F1C1E9FFF2C1EAFFE9
:1024B000EF50F3EF11F0E66E81DFE552E552E552A1
:0A24C0001200E8DF040114511200BD
:0624CA0022D80101FD51C2
:1024D000040A10E0070A0CE0010A08E0030A04E01D
:1024E000010A0DE18A9A07D08B9005D08A9603D015
:1024F0008A9401D08A92FDC1E6FF18D8E552010105
:10250000FD2B01012D510101FD5D01E3FD6B120069
:102510008A908C9E8C9C8C9A8C988B948C968C94A4
:102520008A8A8B808A868A848A821200CDD8E65273
:10253000FE0EEDD8EFCFDFFFC1D8010B01E08A809E
:10254000BDD8020B01E08C8EB9D8040B01E08C8C55
:10255000B5D8080B01E08C8AB1D8100B01E08C884B
:10256000ADD8200B01E08B84A9D8400B01E08C860C
:10257000A5D8800B01E08C84E552ABD0CFD8050EF6
:10258000BFD802E27FD8FBD7020EE15C02E2E16A2B
:10259000E552E16E9ED0C2D8040EB2D802E272D8E3
:1025A000FBD7020EE15C02E2E16AE552E16E91D0F6
:1025B0008BD8FE0EDB50300FE66E04D8E5520101D9
:1025C000046F87D081D8410E94D80BE3610E91D867
:1025D00002E3610E01D0410E80D8B20FF66E310ECB
:1025E00008D0300E86D80BE3300E77D8A80FF66EE1
:1025F000310EF7220800FE0EF5CFDBFF05D0FE0EF0
:10260000DB502008FE0EDB6ADB5063D05DD8060E7F
:10261000E126050EDB6AF36EDBCFF4FFE850F45CD5
:102620001DE2050EDB5001017825EA6A370FE96EDD
:10263000010EEA22EF50E66ED9CF14F0DACF15F092
:10264000050EDB500F01D924E96E000EDA20EA6E88
:10265000E552E750EF6E050EDB2ADDD7D9CFE6FF56
:10266000DACFE6FF8BDFE552E552010178077851BA
:1026700002E177C178F1060EE15C02E2E16AE5521F
:10268000E16E27D0010EDB50E76EFD0EDBCFE9FFD8
:10269000FE0EDBCFEAFFE750E926000EEA22EFCF7D
:1026A000DFFFDFCFE6FF8EDFE552E66E010E2FD8AB
:1026B000E552E750EF6E010EDB2A1200D9CFE9FF99
:1026C000DACFEAFFEF501200D9CFE6FFE1CFD9FF12
:1026D0001200E552E7CFD9FF1200146EFE0EDBCFD9
:1026E000E7FF1450E75EFE0EE7CFDBFFDB50F76A33
:1026F0001200F36EFE0EDBCFF4FFF350F45C120019
:10270000F36E010EDBCFF4FFF350F45C1200DB50EC
:10271000EA6A000FE96E010EEA221200D5DF020E0E
:08272000E126010EDB6A120044
:08272800D9CFE6FFE1CFD9FF94
:10273000110EE1260101C6690101010E856F870EA8
:10274000DE6E010EDD6E040111056BE11251B40A5B
:1027500056E0760A47E0590A3FE0020A36E0010AED
:1027600025E00F0A1CE0010A14E0BA0A09E0830A16
:1027700058E1CFD8E66ACAD8E66AC8D8E66A2FD048
:10278000A6EC15F0000902E0C4D84BD00101C669DF
:1027900048D0BFD8A0A845D0010EC66F3FD0B9D849
:1027A00027C1E6FFB3D828C1E6FF39D0B2D8040E5E
:1027B00029C1DBFF050E2AC1DBFF040EDBCFE9FFD9
:1027C000050EDBCFEAFFEF5018D0A3D829C1E6FFF2
:1027D0009DD82AC1E6FF23D09CD8030EE66E96D87A
:1027E000E66A1DD096D80A0EE66E90D8140EE66EF4
:1027F0008DD8230EE66E8AD8690EE66E10D089D881
:10280000A0B803D0F29EF29C0CD0010EC66FE66811
:102810007DD8E6687BD8E6685BD8E552E66858D88C
:10282000E552090E0401115D3AE11251B40A34E097
:102830002E0A32E0030A29E0010A1FE00F0A16E01F
:10284000010A0DE0BA0A2BE1FAEC15F0000903E0E9
:102850000101020E02D00101010EC66F20D001015C
:10286000020EC66FA0A81BD0010E18D047D8EFCF1C
:1028700027F153D8EFCF28F112D040D8EF5029C11B
:10288000E9FF2AC1EAFFEF6E0AD038D8EFCF29F16D
:1028900044D8EFCF2AF103D00101020EC66FFF0E1C
:1028A0000101C65D0BE0090E0401115D07E012C4D1
:1028B00050F4010185510101F56FF66B110EE15CD9
:1028C00002E2E16AE552E16EE552E7CFD9FF12007C
:1028D000D9CFE6FFE1CFD9FF400E0101855D0AE2C5
:1028E0008551EA6A500FE96E040EEA22FE0EDBCF34
:1028F000EFFF852BE552E7CFD9FF12000101020E51
:10290000C66FDECFE9FFDDCFEAFF1200E1DFE5525F
:1029100012000101050EC66F1200DECFE9FFDDCF08
:0C292000EAFF010EE926000EEA22120078
:04292C000401105141
:102930001F0B010801E01200145101E01200060E05
:10294000115D24E11351230A1FE0010A0DE0030A7F
:102950001BE1E4D80101ED0505E10101DE0EF16F97
:102960002C0EF26F090E0DD0D9D80101ED0505E14D
:102970000101580EF16F2D0EF26F0101ED0504E11A
:102980007C0E0101F56FF66B0101EC83040110511F
:10299000600BE842E842E842E842E842010801E010
:1029A000120011510B0A2FE0080A21E0090A1BE06E
:1029B000080A13E00B0A05E0080A01E0120097EF8D
:1029C00015F00101860EF36F010EF46F0101EC9317
:1029D0000101F56BF66B8EEF15F0A0D80101F90E31
:1029E000F16F010E09D09AD813C4F9F1120096D8EC
:1029F0000101FA0EF16F010EF26F0101EC9301017A
:102A0000010EF56F12008AD812C4FAF1120001010A
:102A1000FB6B1E0E716E0401080E096F900E0A6F9B
:102A2000040E0B6F880E086F0401980E0E6F040ED3
:102A30000F6F400E0C6F1200D9CFE6FFE1CFD9FF28
:102A4000E652FC0EDB50080805E2080EF36EFC0EA1
:102A5000F3CFDBFFDF6AFC0EDB50DF5C0FE2DF5001
:102A600051D8EF50E66EDF50EA6A980FE96E040E17
:102A7000EA22E552E750EF6EDF2AEDD7FC0EDBCFFE
:102A80000DF4400E04010C170C7D880E0C13E5525A
:102A9000E552E7CFD9FF1200D9CFE6FFE1CFD9FF4A
:102AA0000101FB6B040108BF27D0FC0EDBCF14F043
:102AB0000951D880145403E2FC0E09C4DBFF010164
:102AC000FB6BFC0EDB50FB5D0FE2FB51EA6A900FE3
:102AD000E96E040EEA22EF50E66EFB5113D8E55280
:102AE000E750EF6EFB2BEDD70401080E096F400E87
:102AF0000817087D880E08130101FB51E552E7CF46
:102B0000D9FF1200E76EFD0EDBCFE9FFFE0EDBCF33
:102B1000EAFFE750E926000EEA2212000101020E48
:042B2000F06F120040
:0C2B24001A8894EC13F01A9812001A881A
:102B300094EC13F00101020EF06F0101500EF16FE1
:102B4000040EF26F0101EC931A981200D9CFE6FF40
:102B5000E1CFD9FF020EE126DE52010EDD6EFCC18F
:102B6000E6FF90D80101FC51300A26E0010A17E087
:102B7000030A24E1010EE66E85D82BC1E6FF82D858
:102B80002CC1E6FF7FD8DF6A200EDF5C21E2DF5038
:102B90000101F76A2B25F66E2C5188D8F5D77CD821
:102BA000DF6A200EDF5C14E2DF500101F76A0525C1
:102BB000F66E06517BD8F5D76FD80AD0E66A62D890
:102BC000DF6A3E0EDF5C04E2E6685CD8DF2AF9D7F4
:102BD000400E0101855D05E2E66A54D80101852BAE
:102BE000F7D7010EDB50146E020EE15C02E2E16ADF
:102BF000E5524CD0D9CFE6FFE1CFD9FF040EE12654
:102C0000DE52010EDD6E87C1FCF101018751320AEF
:102C10002CE0030A09E0010A2CE189C105F18AC10F
:102C200006F1A2EC17F025D089C105F18AC106F1A1
:102C3000DF6A200EDF5C14E2050EDF24EA6A860FED
:102C4000E96E010EEA22EF50E66EDF50EA6A070FE6
:102C5000E96E010EEA22E552E750EF6EDF2AE9D76E
:102C6000E66A77EC17F0E55204D089C12BF18AC1EE
:102C70002CF1010EDB50146E040EE15C02E2E16AFD
:102C8000E55204D068EC14F0E5521200E16E1450E5
:102C9000E552E7CFD9FF1200010EE66EF3DF05C162
:102CA000E6FFF0DF06C1E6FF42EF16F0F72208006C
:0A2CB000F550E66EE7DFDF2A1200A0
:062CBA00120110010000F0
:102CC0000040AE0930441000010203010902220055
:102CD000010100A0320904000001030000000921E5
:102CE00010010001227C000705810308002804036D
:102CF000090418034A006F0065000000000000008E
:102D0000000000000000000000002C034D004900FE
:102D1000440049002000440065007600690063001B
:102D2000650020000000000000000000000000001E
:102D3000000000000000220336003900310032009C
:102D4000300036003000420020000000000000008B
:102D5000000000000000000006FFFF0901A101754E
:102D600008950126FF001500859609C0B10275205F
:102D700085B409D2B1027510859709C1B1027508F1
:102D8000859809C2B1027510859909C3B102859C65
:102D900009D4B1027510859D09D5B102859B09C57D
:102DA000B102752085AF09E9B10285AF09E981A2B9
:102DB00076000285B009EAB102752085C209D6B154
:102DC00002859A09C4B1027508953F852C0904094A
:102DD00004B102C0CC2CCC2CEE2CF22C0A2D362DBA
:022DE0002C299C
:0E2DE200000102030405050607070808090999
:102DF000090A0A0A0B0B0B0B0C0C0C0C0C0C0D0D1E
:102E00000D0D0D0D0D0E0E0E0E0E0E0E0E0F0F0FE4
:102E10000F0F0F0F101010101010101111111111B1
:102E20001212121212131313131314141414141570
:102E3000151515151616161617171717181818182A
:102E4000191919191A1A1A1A1B1B1B1C1C1C1C1DD8
:102E50001D1D1E1E1E1F1F1F20202021212122227A
:102E60002323232424252526262627272828292905
:102E70002A2A2B2C2C2D2D2E2E2F3030313232336E
:102E800034343536373738393A3B3B3C3D3E3F40AA
:102E90004142434445464748494A4B4C4D4E4F50AA
:102EA0005152535455565758595A5B5C5D5E5F609A
:102EB0006162636465666768696A6B6C6D6E6F708A
:102EC0007172737475767778797A7B7C7D7E7FFFFB
:102ED000FFFFFFFFFFFFFFFFFFFFFFFFFFFFFFFF02
:022EE000FFFFF2
:0E2EE200550EA76EAA0EA76EA68212004CD83F
:102EF000E652E00E01010517840EA66EFE0EDB50B1
:102F0000DF6EFE0EDB50200FDF5C1AE2DF50EA6A54
:102F1000070FE96E010EEA22EFCF14F0DF50010136
:102F2000F76A0525F66E0651F722F86A14C0F5FF18
:102F30000C001F0EDF141F0801E1D3DFDF2AE1D7E9
:102F4000E55227D0940EA66E05C1F6FF06C1F7FF25
:102F5000F86AC7DFF86A120017D8A66AFE0EDB50BF
:102F6000A96EA680A85015D00FD8A6A202D0000E38
:102F70000AD0FE0EDB50A96EFD0EDB50A86E040ECB
:102F8000A66EAFDF010E05D0D9CFE6FFE1CFD9FFA6
:0A2F90001200E552E7CFD9FF12004E
:062F9A00D9CFE6FFE1CFF4
:102FA000D9FF050EE1269EBA13D00101835101011C
:102FB000845D02E13ED81DD09EA81BD08451EA6AF0
:102FC0007B0FE96E010EEA22EF50AD6E842B11D01B
:102FD000AB50020B03E1AB50040B09E0AB98010EC0
:102FE000AECFDBFFAECFDBFFAB881A9202D0AE5084
:102FF000DF6E050EE15C02E2E16AE552E16EE55248
:10300000E7CFD9FF1200D9CFE6FFE1CFD9FF080EF5
:103010000101835D0AE28351EA6A7B0FE96E010ECA
:10302000EA22FE0EDBCFEFFF832BE552E7CFD9FF7D
:0C30300012000101836B0101846B12008F
:04303C0010EC19F08B
:10304000896A8A6A8B6A8C6A8D6A010E926E100E8A
:10305000936EF80E946E956A020E966E0101050E3F
:103060002D6FA60EAC6E900EAB6E100EAF6E010EF5
:10307000B06E400EC26E0E0EC16E060EC06EF26ACB
:10308000800EF16ED08ED76AD66AD56ACC6AF90EF8
:10309000CB6E0D0ECA6E020E9D6EF28E140E6F6E0A
:0E30A0000101EB6B0101EC6B0101ED6B120005
:0230AE00D9CF78
:1030B000E6FFE1CFD9FFFE0EDB50A96EA69EA69CCF
:1030C000A680A850E552E7CFD9FF1200D9CFE6FF7E
:1030D000E1CFD9FFFE0EDB50A96EFD0EDB50A86ECE
:1030E000A69EA69CA684F29E550EA76EAA0EA76E5B
:1030F000A6820400A6B2FDD7F28EA694E552E7CFD1
:04310000D9FF1200E1
:0C31040008C012F008500D02F4CF07F0D4
:10311000F3CF06F009500E02F4CF09F0F3CF08F018
:103120000D02F3500726F4500822E86A09221250D3
:103130000E02F3500726F4500822E86A0922000C18
:10314000D9CFE6FFE1CFD9FFE6521B92010EE66E22
:10315000ABEC0BF0E552F76AE20FF66E2D0EF7229C
:103160000800F550DF6EFF0EDF5C02E0DFCF33F1C9
:0A317000E552E552E7CFD9FF120047
:06317A001B8C0101352B46
:103180000A0E355D10E1356B1B821C801B8E1C8284
:103190000101362B640E365D06E1366B1B8A1DA2DB
:0831A00002D006EC13F012004E
:0831A8003F065B4F666D7D07D9
:1031B0007F67777C585E79716F74061E0038005403
:0C31C0005C7367506D071C1C00766E5B92
:0431CC00DACFE4FF73
:1031D000E6529EA209D09E921B800101342B040E60
:1031E000345D02E1346B1B80E552E5CFDAFF11005C
:1031F000056A080EE76ED890093605360E50055C54
:0C32000002E3056E092AE72EF7D7120042
:04320C0017EE00F0C9
:1032100027EE00F0F86A019C15EC05F0FDD71200CE
:0E322000EA6AE96A0400EE6AEAA6FCD7120028
:02322E00534506
:03323000512D001D
:01323300108A
:0C3234000000000000000000000000008E
:1032400000000000000F00050002004B000000001D
:0632500000000000000078
:1033000001000000000000000000000000000000BC
:1033100000000000000000000000000000000000AD
:10332000000000000000000000000000000000009D
:10333000000000000000000000000000000000008D
:10334000000000000000000000000000000000007D
:020000040030CA
:0100000029D6
:010001000EF0
:0100020036C7
:010003000EEE
:010005008179
:010006008178
:010008000FE8
:01000900C036
:01000A000FE6
:01000B00E014
:01000C000FE4
:01000D0040B2
:00000001FF
