:020000040000FA
:0600000015EF05F01200EF
:06000800D2EF17F0120018
:060A0000A2EF19F0120044
:060A0800D2EF17F012000E
:060A2A00D9CFE6FFE1CF89
:100A3000D9FF060EE126C7EC18F08EEC07F06F0E1A
:100A4000DF6EDE526C0EDD6EF36E020EF3CFDBFF57
:100A5000650EF36E030EF3CFDBFF680EF36E040E2C
:100A6000F3CFDBFFD9CFE6FFDACFE6FF0DEC13F0D3
:100A7000E552E552AA0EE66E28EC0CF0E5520101B3
:100A80002E6BF28EF28C28D81DA203D049EC19F0FF
:100A9000F8D71DA004D01D9066EC19F0F2D71EA067
:100AA00004D01E9045EC0CF0ECD71DAC03D01D9C7F
:100AB000AFEC12F01DAA03D01D9AB4EC0CF01DAEE1
:100AC00003D01D9EBEEC07F01EA203D01E92B6EC12
:100AD00006F028EC18F0D5D793EC11F06FBE02D0D9
:060AE000AFEC11F0120062
:0A0AE60001006B330000D601000090
:040AF00003000000FF
:0C0AF40008EC0BF0E652030EDF6E59EC2C
:100B00000BF00550300FE66EDF50DF06F1EC0AF017
:100B1000E552E750EF6E59EC0BF0FE0E09C0DBFF1B
:100B200009500008ECE3DF50000807E2DF50F1EC69
:100B30000AF0200EEF6EDF06F6D7DF50F1EC0AF078
:100B4000200EEF6EE552FDEF0AF008EC0BF0040EFC
:100B5000E126D9CFE6FFDACFE6FF00017529E66E80
:100B6000C9DFE552E552E552500EDF6ED9CFE6FF00
:100B7000DACFE6FF67EC0BF04B0E0001836F846B5E
:100B8000040EE15C02E2E16AE552E16EFDEF0AF07B
:100B900008EC0BF075C0E6FFE66A0C0EE66E68EC3A
:100BA0000EF0E552E552E552FE0EDB5001E0CDDFDE
:100BB000FDEF0AF008EC0BF000013CEC0BF0EFCF7E
:100BC00075F0FE0EDBCFE6FFE3DFE55200011EEC21
:100BD0000BF0FDEF0AF000017729E66E36EC13F01A
:100BE000E552120008EC0BF078C07AF079C07BF087
:100BF0004FEC0BF0FE0EDBCFE6FFDCDFE552EBDF68
:100C0000FDEF0AF008EC0BF0700EE66E000EE66EDB
:100C1000C2EC0BF0D8EC0BF0F7EC0CF0146E0C0EF1
:100C2000E15E14500001776B7729E66E36EC13F025
:100C3000E552FE0EDB5004E04AEC0BF067EC0BF0E3
:100C4000FDEF0AF008EC0BF011EC0BF0FE0EDBCF21
:100C5000E6FFD8DFE552FDEF0AF0D8EC0BF024EC0C
:100C60000EF0CFEC0BF04AEC0BF067EF0BF001014C
:100C7000D85104E0660EE66E330E0FD011EC0BF087
:100C80004AEC0BF0F3CFE6FFF4CFE6FF24EC0EF0D6
:100C9000CFEC0BF0710EE66E000EE66E67EF0BF018
:100CA00008EC0BF0D7EC0AF019E11550EE1816E13C
:100CB0001650EE1813E11750EE1810E10FE17DEC1D
:100CC0000BF09351EE14186E9451EE14196E955169
:100CD000EE141A6E96517FEC0BF002E0000E01D07C
:100CE000010EFDEF0AF0D9CFE6FFD7EC0AF008E1DC
:100CF0001550EE1805E11650EE1802E11750EE18E7
:100D000002E0000E01D0010EFDEF0AF008EC0BF03E
:100D1000C0EC0BF000019351EE14146E9451EE14DC
:100D2000156E9551EE14166E9651F8EC0BF019E114
:100D30001550EE1816E11650EE1813E11750EE1884
:100D400010E10FE17DEC0BF08F51EE14186E905115
:100D5000EE14196E9151EE141A6E92517FEC0BF055
:100D600002E0000E01D0010EFDEF0AF00101D651A4
:100D70000AE00001000ED8808055000E815503E284
:100D80008007000E815B86EC0BF003E28707000E04
:100D9000885B61EC0BF003E28907000E8A5B000EB2
:100DA000D8808355000E84550BE28307000E845BC8
:100DB0008351841105E18E0502E14FDF01D057DF39
:100DC0008DEC0BF003E28B07000E8C5B000ED880DD
:100DD0008555000E865556E20101D751030A24E0DD
:100DE000010A0FE0030A46E1000185511F0B02E1F1
:100DF0008D512AD043EC0BF03DE115503BE18D5174
:100E000035D0000185511F0B09E1000E6CEC0BF091
:100E1000E552E552010E6CEC0BF023D043EC0BF0E5
:100E200029E1155027E118D0000185511F0B0FE172
:100E3000000E0DEC0BF0010E0DEC0BF0020E6CEC45
:100E40000BF0E552E552030E6CEC0BF011D043ECC5
:100E50000BF010E115500EE1000EDFDB010EDEECB1
:100E60000BF0E552E552020ED8DB030EDEEC0BF080
:100E7000E552E55200018507000E865B855186111B
:100E800001E1DCDB120000019B510DE187DB7C19E5
:100E900006E115507D1903E17C6B7D6B12007C2B04
:100EA000000E7D2312007F0E755D02E1756B12004E
:100EB000752B120000019B510AE17C517D1103E169
:100EC00094EC0BF001D07C07000E7D5B1200755195
:100ED00003E17F0E756F12007507120000019B5130
:100EE00002E137EF06F0A5EF05F000019B5103E1A9
:100EF000E66AA8DE03D0010EE66E4ADEE552120075
:100F000077C070F077C0E6FF60DB0101020ED86F9A
:100F1000320E00018B6F8C6B776B1200E5EC0CF0DE
:100F2000F3CF7EF0F4CF7FF000018D6B836B846B89
:100F3000856B866B876B886B896B8A6B8B6B8C6B15
:100F4000786B796BA2EC0BF0E552CFDB0001996B6B
:100F50009A6B9B6B936B946B956B966B93C08FF0B6
:100F600094C090F095C091F096C092F0E2EC0CF035
:100F70000001986F976F020E8E6F120092EC0CF0CA
:100F800006C08FF007C090F008C091F009C092F041
:100F9000E2EC0CF00001976F9851975D12E07F0E24
:100FA0009715E66E7651EA6A640FE96E000EEA2242
:100FB000EF50E66EE66A0B0EE66E6BEC0EF0CFECD1
:100FC0000BF0DFEC0CF0000908E100018E5114E099
:100FD0008E6B7C6B7D6BBADB09D000018E050CE05B
:100FE000010E8E6F786B796BE66E0CDEE5520001B8
:100FF000776BE66AF7DDE552CDDA800EB4DB31E0DF
:10100000000178517A1929E179517B1926E170059F
:10101000775D22E18E510EE1C1DA7C1906E11550AF
:101020007D1903E17C6B7D6B03D07C2B000E7D234F
:101030008DDB0DD0B3DA781906E11550791903E18B
:10104000786B796B03D0782B000E79237BDBE5522C
:101050000001776BE66A03D0772B010EE66EC2DDE6
:10106000E55200018E51010A01E18BD1010A01E034
:1010700074D20101D851020A01E168D1030A01E1E9
:1010800030D1010A01E069D2010E64DB07E0000102
:10109000766B9B0502E124DB01D062DB020E5ADB9A
:1010A00008E00001010E766F9B0502E119DB01D01B
:1010B00057DB040E4FDB08E00001020E766F9B0544
:1010C00002E10EDB01D04CDB080E44DB08E000013E
:1010D000030E766F9B0502E103DB01D041DB0001CB
:1010E0009B0538E18751881121E19A511FE1010EDA
:1010F00069DB09E1020E66DB06E1040E63DB03E156
:10110000080E60DB13E00001010E9A6FB5DA75C0BE
:10111000EFFF70C0E6FF59DA23DB0101010ED76F44
:1011200076C08DF0640E0001856F866B010E4EDB7C
:1011300009E1020E4BDB06E1040E48DB03E1080E79
:1011400045DB08E0E3DA06E29A5104E109DB00013D
:10115000876B886B1FDA200E06DB09E03BDB07E1BB
:10116000000189518A1103E11E0E896F8A6B01010A
:10117000D6510EE134DB0CE02DDB0AE10001895190
:101180008A1106E1806B816B826B0101010ED66FC3
:1011900035DB08E0000195DA02E275DE9FDE010131
:1011A000D66BA3DEF7D9100EDEDA09E018DB07E113
:1011B000000189518A1103E11E0E896F8A6B0101BA
:1011C000D6510EE107DB0CE00ADB0AE10001895190
:1011D0008A1106E1806B816B826B0101040ED66F70
:1011E00012DB08E000016DDA02E264DE77DE010165
:1011F000D66B7BDEF9DA04E01E0E00018B6F8C6B80
:10120000C9D9400EE66EB4DA0EE000018B518C11A4
:101210000AE10101D85107E1010ED86F0001776B97
:10122000040E766F24DDB6D9400EE66EA5DA12E024
:1012300074DA10E29B5105E1010E9B6F0101030E70
:1012400003D09B6B0101020ED76F640E0001856F06
:10125000866B44DE0101D65101E17FD1000180514E
:10126000811101E07AD10101D651060A35E0030A65
:1012700029E0010A1DE0070A19E0010A0EE0030A4D
:1012800001E06BD100DEE2D9050801E042D1826BBA
:101290000101020ED66F050E22D0F5DDD7D9140854
:1012A00001E04AD1826B0101030E14D0ECDD15D0B0
:1012B00001DECCD9050801E02CD1826B0101050EBD
:1012C000D66F0DD0F7DDC2D9140801E035D1826B9D
:1012D0000101060ED66F02D0EDDD00DE020E000128
:1012E0003AD1010E37DA08E00001765105E0766B5D
:1012F000010E3FD901E104DE020E2CDA08E0000104
:10130000760505E0010E766F34D901E1F9DD040EB2
:1013100021DA0AE0020E0001765D06E0020E766F29
:10132000010E27D901E1ECDD080E14DA0AE0030E04
:101330000001765D06E0030E766F010E1AD901E119
:10134000DFDD52DA01E109D1DBDD07D100018B518C
:101350008C1101E002D17051775D04E10101D86B7D
:10136000C4D9FBD038DC9BD969D9000185D9EFCF2E
:1013700075F0A5EC05F00001772B320E8B6F8C6BAE
:10138000ECD0010EE7D903E00001766BE9D9020E3B
:10139000E1D904E00001010E766F40DA040EDAD9DB
:1013A00004E00001020E766FDBD9080ED3D904E009
:1013B0000001030E766FD4D9EDD8200ED4D90EE0FB
:1013C000F3D906E11550791903E1786B796B03D0F5
:1013D000782B000E792345D9010ED66F0FDA01E084
:1013E000AAD9D8D8100EBFD90CE0000178517911D4
:1013F00002E107D901D07807000E795B32D9040EDB
:10140000D66F01DA01E097D9EFD92AE000017851CF
:101410007A1921E179517B191EE177511BE18E5137
:101420000AE17C517D1102E17FD901D07C07000ED9
:101430007D5B8CD909D07851791102E1E2D801D0D5
:101440007807000E795B7ED9E55200017005776F51
:10145000E66A03D07707010EE66EF2EC05F0E5527E
:101460000101D65101E179D000018051811175E16E
:101470000101D651060A62E0030A4DE0010A38E094
:10148000070A2AE0010A16E0030A67E18DD906E19E
:101490001550791903E1786B796B03D0782B000E26
:1014A0007923D9D8050835E1826B0101020ED66F88
:1014B000050E50D079D906E11550791903E1786B02
:1014C000796B03D0782B000E7923C5D8140834E14A
:1014D000826B0101030E2ED067D906E115507919F0
:1014E00003E1786B796B33D0782B000E79232FD002
:1014F00000017851791102E184D801D07807000EFB
:10150000795BA9D8050805E1826B0101050ED66F4C
:1015100021D00F0E20D000017851791102E171D84D
:1015200001D07807000E795B96D8140805E1826B2C
:101530000101060ED66F0DD0050E0DD000017851B9
:10154000791102E15ED801D07807000E795B2DECAD
:1015500006F0020E0001806F816B8FC093F090C087
:1015600094F091C095F092C096F0120018D900093D
:10157000120054D900017751772BEA6A680FE96E9F
:10158000000EEA2276C0EFFFEBEC05F0080E00013A
:10159000775D1200E66AE66AE66A12007EC014F021
:1015A0007FC015F01406000E155A14501200E8D82A
:1015B00000018F51EE14146E9051EE14156E91517E
:1015C000EE14166E9251F8EF0BF0DCD878C0E6FFFF
:1015D00079C0E6FF66EC0DF0146E090EE15E145062
:1015E0001200E76EFC0EDBCFE9FFFD0EDBCFEAFF5A
:1015F000E750E926000EEA221200E552E7CFD9FFB4
:1016000012007EC078F07FC079F0010E785F120082
:10161000D9CFE6FFE1CFD9FF1200D0D8E552E5528D
:1016200012007CC0E6FF7DC0E6FF3AEC0EF0E5520A
:10163000E552F3CF78F0F4CF79F012007651E66EF0
:10164000E66AB9EC0CF0E552E552120047DC000105
:101650008251822B12002DEC06F000018251822B68
:1016600012002DEC06F00101D66B0F0E0001806F09
:10167000816B826B010112007651EA6A600FE96E9C
:10168000000EEA2212001F0E8515146E156A0F0E49
:1016900014181200710EE66E000EE66E12000001C4
:1016A0007751EA6A680FE96E000EEA22EFCF76F012
:1016B00012000A0E146E0E6EFE0EDBCF09F094EFD0
:1016C00019F0000ED8808955000E8A5512001FECC3
:1016D00013F0E552E5521200E66EE66AC6EF0CF032
:1016E0001E0E876F886B9A6B12000001776B010EDC
:1016F000E66EF2EC05F0E5521200D95089D0EE14F6
:101700001B6E185019101A101B1012000001000E49
:10171000D8808755000E885512000001000ED88031
:101720008B55000E8C5512007EC07CF07FC07DF082
:10173000010E7C5F12000101D66BE66A02EC06F036
:10174000E5521200010EE66E02EF06F0010EE66EA3
:1017500022EF06F0E66E1EDF50EC06F0B6EF0AF060
:10176000010E0EEF0CF0E66E50EC06F0B6EF0AF04C
:1017700073EC06F0B6EF0AF086EC06F0B6EF0AF06E
:10178000E15046D0680EE66E000EE66E640EE66E20
:10179000000EE66E600EE66E000EE66E1200E5527A
:1017A000E552E552E5521200F9DE00017819120007
:1017B00071DF78C0E6FF79C0E6FF1200E66EE66AE8
:1017C000D1EF0CF0E66EE6DEB8EF0BF0E66EE2DE8F
:1017D000BCEF0BF0DFDE100EE66EB8EF0BF0DADEDA
:1017E000200EE66EB8EF0BF0D5DE400EB3EF0BF037
:1017F000EE14176EC5DF1450EE181200CBDE200E6B
:10180000E66EBCEF0BF0C6DE100EE66EBCEF0BF022
:10181000FB0FE96EFF0EDA20EA6E1200E66EDAECDC
:0618200005F0E552120084
:0A18260070DAE652FE0EDB50C26ECF
:101830000A0EDF6EDF5002E0DF06FCD7C282C2B2C2
:10184000FED7C450E5525CD25FDAFE0E06DB58D2FA
:101850005BDAE652080EDF6E898489948992FE0E67
:10186000DBBE02D0899601D089869CDA8982DF06A8
:10187000F5E18984100EDF6EDF5002E0DF06FCD751
:10188000899489868982E5523BD207DBDE52010EBC
:10189000DD6E030EDB6ADF6ADF5006081DE3DFCF73
:1018A000E6FF34D8E552050EF36E020EF3CFDBFFF0
:1018B000DB5003E0020EDB06FBD784A209D0030E47
:1018C000DBCFE7FF010EDB50E712030EE7CFDBFFB4
:1018D000010E68DADF2AE0D7030EDBCF2FF101011A
:1018E0002F9F2F4781B82F812F1D2F6F070EDF6E7F
:1018F000DFCFE6FF0BD8E5521F8084B21F90040EA5
:10190000E15C02E2E16AE552E16EFAD1FDD9899823
:10191000899A8D90FE0EDBB08988DBB2898ADBB4B0
:101920008D80EED1BADADE6ADE6ADE6ADD6ADD5209
:10193000DD52F00E01012F15E76E030EE7CFDBFF3E
:101940000F0E2F15DF6EDECF06F0DECF07F0DECFF5
:1019500008F0DDCF09F0DD52DD52040EE15C02E259
:10196000E16AE552E16ECCD12EC1E6FF71DFE552AE
:101970001200CAD901012E6B1CDA04E0D890F336AC
:10198000E806FCE1F35001012E13BAD1BDD911DAFA
:1019900004E0D890F336E806FCE1F35001012E1381
:1019A000AFD1B2D906DA04E0D890F336E806FCE10C
:1019B000F350146EFF0EF31801012E17A1D11F5022
:1019C000010B12000101305112009ED9020E39DACA
:1019D000DECF14F0DDCF15F014C0F3FF15C0F4FF17
:1019E000020EE15C02E2E16AE552E16E89D18CD936
:1019F0009CD965E2D4D9E2D9FEE1F2D9040E70D9BE
:101A00007F0BE66E7DDAA6D9050E74DA68DA060E6B
:101A100067D9BBD964DA070E70DA61DA080E60D9CB
:101A20007F0BE66E72DA96D9090E64DA5ADA0A0E7C
:101A300057D9ABD956DA0B0E60DA53DA0C0E50D9FF
:101A4000070B010FE66EF30EDBCFE9FFF40E82D930
:101A5000060E146E0D0E0EDA04E0E8427F0BE70668
:101A6000FCE1E66EF50EDBCFE9FFF60E73D90D0E45
:101A700007DA010EC9D90D0EF6D9020EC5D90D0E21
:101A80002FD9030BE66E030EBFD9060E146E0E0E91
:101A9000F1D904E0E8427F0BE706FCE1E66E040EB4
:101AA000B3D90E0EEDD9050EAFD90E0EDCD9060E48
:101AB000ABD90E0E15D9030BE66E070EA5D9040E91
:101AC000E15C02E2E16AE552E16E1AD1D9CFE6FFAC
:101AD000460EE12697D072D9FEE175D9400E14C0AA
:101AE000DBFF410E15C0DBFF400EDBCF14F0410ED3
:101AF000DBCF15F0C00E1416FF0E1516420E14C0E3
:101B0000DBFF430E15C0DBFF3F0EE76E400EDBCF61
:101B100014F0410EE7501416156A440E14C0DBFF92
:101B2000450E15C0DBFF420EDBCFE6FF430EDBCFD9
:101B3000E6FF6FD8E552E552F1D9DBCFEAFFEF506F
:101B4000E66E040E45D9010E6CD9050E41D9020E80
:101B500068D9060E3DD9030E64D9070E39D9D0D9FC
:101B6000DBCFEAFFEF507F0BE66E080E31D9010E96
:101B7000B0D9090E2DD9020EACD90A0E29D9030EFF
:101B8000A8D90B0E25D9F60EDB04070BE66E0C0E5A
:101B90001FD9030E86D9166E020E83D9040DF3CF1A
:101BA00015F0010E7ED9100DF3CF14F0AED9DBCFB6
:101BB000EAFFDDD80D0E0CD9070E73D9166E060E8E
:101BC00070D9040DF3CF15F0050E6BD9100DF3CFBE
:101BD00014F0040EE76E1FD9CAD80E0EF9D8100EF5
:101BE000BCD806C005F107C006F1400E010105276B
:101BF000000E0623C00E0517FF0E0617A4EC18F002
:101C00001D861D88460EE15C02E2E16AE552E16E46
:101C100077D07AD8E652DF6A400EDF5C13E2FD0E21
:101C2000DBCFF6FFFE0E32D90800F550E66EDF502E
:101C3000EA6A070FE96E010EEA22E552E750EF6EFD
:101C4000DF2AEAD7E5525CD028D9000EE96E340EBF
:101C5000EA6EEECFDEFFEDCFDDFFE9D804E29FD8DC
:101C6000ADD8FEE1BDD8040EE15C02E2E16AE552C6
:101C7000E16E46D049D859D803E3F36AF46A21D01B
:101C8000DECF16F0DDCF17F0040ED89016361736DB
:101C9000E806FBE1400E1626000E1722020E5DD864
:101CA00016500624146E17500720156E32D80900FE
:101CB000F5CF14F00800F5CF15F014C0F3FF15C0F0
:101CC000F4FF040EE15C02E2E16AE552E16E18D035
:101CD0001BD82FD815D018D82CD8FB0EBED810D0B2
:101CE000E76E020E59EF0FF0DBCFEAFFE750E9266F
:101CF000000EEA221200070EE926010EEA220AD19E
:101D0000E552E7CFD9FF1200D9CFE6FFE1CFD9FFE7
:101D10001200020E14C0DBFF030E15C0DBFF020E23
:101D2000DBCFF6FF030E46EF0FF0040E8AD817EF55
:101D30000FF0FD0EDB500F0B146EFE0EDB500F0B81
:101D4000100DF3501410E66E5EEC18F0E552FC0E28
:101D50002DEF0FF0DBCFEAFFDDD0086E096AFD0E34
:101D6000DBCF0DF0FE0EDBCF0EF02BEF19F0EF50B6
:101D7000030B400DF350141015101610E66E1200F0
:101D80007F0BE66E010EE76E12007F0BE66E020E11
:101D9000E76E12007F0BE66E030EE76E1200A3D80B
:101DA000040E1200DBCFF3FFF39EF346F3CFDBFF0D
:101DB0001200010EF36EFD0EDB501200D8901436A7
:101DC0001536E8061200400E1426000E15221200E9
:101DD000E76E440EDBCFE9FF450E86DF7BEF0EF0AA
:101DE000F2DF97DF0800F5507F0BE66E97D8B2DF81
:101DF000010E80D85BD8020EE76E5BD8C6DF56D8DE
:101E0000030E7BD856EF0FF0E76EF50EDBCFE9FF40
:101E1000F60E6ADF7FD079D874EF0EF071D874EFC8
:101E20000EF0E76E7BD860DFEF50E66E12005BD8F5
:101E3000DECF16F0DDCF17F01650145C1750155892
:101E40001200E126000EF66E340EF76E0900F5CF93
:101E5000DEFF0A00F5CFDDFF1200DBCFE6FF5EEC10
:101E600018F0E55212003CDF0C0BE840E8403F0B55
:101E7000E66E120035DFC00B14C0E7FFE752120018
:101E80002FDF300BE8380F0BE66E1200DBCFF7FFC9
:101E9000000EF626340EF722120036DF040EE1267D
:101EA0001200E76EB8DFEF50030B120037D81CDFCB
:101EB00031D0DBCFF6FF030EDBCFF7FFE750F6267E
:101EC000000EF722000EF626340EF7220800F55019
:101ED0001200E76EA3DFEF507F0BE66E12009EDF6D
:101EE00019D099DF17D0FD0EDBCF14F0FE0EDBCF3B
:101EF00015F01200F5DEC0EF0EF0F2DECAEF0EF0C4
:101F0000F90EDBCFE9FFFA0E1200F70EDBCFE9FF87
:101F1000F80E1200E552E750EF6E1200FB0EDBCF19
:061F2000E9FFFC0E1200B7
:0A1F260004011051600BE842E8428C
:101F3000E842E842E842000901E012001151070AB4
:101F40003CE00B0A3AE0070A2FE0010A21E00B0A05
:101F50001DE0020A1BE0030A17E0080A0FE0010A6D
:101F60000BE00F0A07E0030A01E01200DDDA040EBD
:101F7000C56F1200DEEF0FF016EF10F0D5DAC70EC6
:101F8000CB6F010ECC6F0CD02CEF10F05AEF10F08D
:101F9000E2DA0101CB6FCC6BC80ECB27010ECC234C
:101FA000C693010ECF6F1200D6DAEA6AC80FE96E47
:101FB000010EEA2212C4EFFF12001200800E04018B
:101FC000105D33E11351030A1EE0010A09E0030A20
:101FD00023E1AADA7C0ECB6F2D0ECC6F120E1AD035
:101FE00070DA960EF6262E0E85DA020E0101F76AD9
:101FF000CB25F66ECC51F7220900F5CFCFF10A00C0
:10200000F5CFD0F109D05DDA9A0EF6262E0E72DAEF
:1020100079DA0101CF6FD06B020E0401125D05E089
:10202000030E125D02E00101C68312007DDA42DA7E
:10203000010EE66EC80EE66E010E87DA12C4C7F115
:102040000401125104E10101050EC56F12000101E6
:10205000060EC56F68EF15F00401506B516B1051FF
:102060001F0B020A0FE0030A0BE0010A18E15CDA19
:10207000040150810101C6A112D0040150830FD088
:1020800053DA0DD003DA01E0010E2BDACDC1E9FFFE
:10209000EA6EEF50040B03E00401010E506F0101E2
:1020A000CA0507E1500ECB6F040ECC6FC693020E2B
:1020B000CF6F1200040112050EE110511F0B000931
:1020C0000AE132DA030E0401115D03E10101C68168
:1020D00002D00101C691040112511DE110511F0BE4
:1020E000020819E114510F0B000915E0CFD901E0E6
:1020F000010EF7D9030E0401115D03E1840E98EF80
:1021000012F014AF06D0CDC1E9FFCEC1EAFFEF6AED
:102110001200880E0DDA12006C500BE10401005120
:102120003C0BE842E8420D0802E19EEF10F0CFEFD1
:1021300010F0040E6C5C01E141D81200D9CFE6FF2B
:10214000E1CFD9FFE6520101C96BCA6BCF6BD06BEF
:10215000EADEDF6ADF50146E156A010E145C000EB1
:1021600015581AE20101CA5117E1F76ADF34FE0B74
:10217000F736F66EA20EF6262E0EF7220900F5CFE0
:1021800014F00800F5CF15F004D015C0FAFF145074
:10219000F96EFBDFDF2ADED789D8E552C1D1020E06
:1021A0000101C95D09E162D8040100BD02D0C80E79
:1021B00001D0880E006F12008CEF11F0040E0101A7
:1021C000C55D09E112C46EFF6E50000802E2050E03
:1021D00001D0030EC56FC90509E110D8040104BD83
:1021E00002D0C80E01D0880E046F1200090E04013F
:1021F000115D02E1F3EC15F08CEF11F08AD90101C9
:10220000400ECF5D000ED05905E2CFC1DEFFD0C138
:10221000DDFF03D0400EDE6EDD6A040104930491FD
:10222000010EDB500413DFCF05F4000EDB5001017B
:10223000CF5F010EDB50D05B500ECD6F040ECE6F22
:10224000C6A307D047D90BE05DD917D9FBE2DB065F
:10225000F9D740D904E072D9FCE2DB06FAD7020EC6
:10226000E15C02E2E16AE552E16E5AD152D9030E15
:1022700004010015E76E010EE7CFDBFF01C4DFFFAD
:10228000DE500101CF27DD50D023500ECB6F040E5E
:10229000CC6F20D904E052D9FCE2DB06FAD7020E5B
:1022A000E15C02E2E16AE552E16E3AD10101CA5114
:1022B00004E1F8D8840E006F1CD0040110AF1BD0CD
:1022C0000101CF510401165D0101D05104011759DC
:1022D00004E216C4CFF117C4D0F190DF0101010E62
:1022E000C96FE0D8800E006F500E066F040E076FA6
:1022F000C80E046F0FD00101020EC96F0401056BF7
:10230000C80E046F400E016F500E026F040E036F73
:10231000C80E006F6D9812000101C96BC3D8880EFA
:10232000006F046B12006DA60CD80101C50508E111
:102330006DBA06D0686A696A69806988020EC56FDD
:1023400012006D6A696A6D860101010EC56F120087
:102350006D6A696A0101C56B1200A8EF11F00101F5
:10236000C55101E112006850040B04E06950040BF0
:1023700001E038D86DB212006850010B04E06950DA
:10238000010B01E04FD86850100B04E06950100BAE
:1023900001E023D86850400B04E06950400B01E095
:1023A00037D86850200B04E06950200B01E032D888
:1023B0006850020B04E06950020B01E031D8030EB3
:1023C0000101C55D01E212006850080B05E069508B
:1023D000080B02E0A1DE68961200698468986D829D
:1023E000A19A12006D926994689412000101C6A12D
:1023F0000ED0F8DF6D840101080ED16F070ED26F89
:10240000D107000ED25BD151D211FAE16D941200C6
:10241000689C120070A002D07FDF7090689A120052
:10242000689212006A6A686A9F0E6B6E7B0E696E14
:102430006E6A40D8160E706E68A602D06896FCD7F9
:102440006D986ADF0101C691C76B030EC56F12005C
:10245000D9CFE6FFE1CFD9FFFD0EDBCFE9FFFE0EBE
:10246000DBCFEAFFFC0EDB5004E0EE6AFC0EDB067D
:10247000F9D7E552E7CFD9FF12005AD8CD2B000E7D
:10248000CE23CB2BCC23DF06010E120064D80F0B1A
:10249000080DF350156A000F146E040E1522145126
:1024A000800B12000401400E016F100E026F040E2B
:1024B000036F12000F0EE66E710EE66E0F0EA5EFA3
:1024C00012F032D804011251F66EF76AD890F6363F
:1024D000F7361200D9CFE9FFDACFEAFFEE50ED1060
:1024E0001200040DF35001011424CD6F000E1520CD
:1024F000CE6F1200F7220900F5CFCBF10A00F5CF1D
:10250000CCF11200CBC1F6FFCCC1F7FF0800F550AB
:102510001200D9CFE6FFE1CFD9FF020EE12612006B
:10252000E552E7CFD9FF12000101010ECA6F120078
:10253000CDC1E9FFCEC1EAFFEF6E1200CBC1E9FFCA
:10254000CCC1EAFFEF503DEF12F0E66E81DFE552BD
:0E255000E552E5521200E8DF040114511200BA
:02255E0022D881
:102560000101DA51040A10E0070A0CE0010A08E050
:10257000030A04E0010A0DE18A9A07D08B9005D086
:102580008A9603D08A9401D08A92DAC1E6FF18D8DD
:10259000E5520101DA2B01012D510101DA5D01E360
:1025A000DA6B12008A908C9E8C9C8C9A8C988B94FF
:1025B0008C968C948A8A8B808A868A848A8212007E
:1025C000DFD8E652FE0EDB50EA6A000FE96E010E1C
:1025D000EA22EFCFDFFFB8D8010B01E08A80B4D840
:1025E000020B01E08C8EB0D8040B01E08C8CACD8CF
:1025F000080B01E08C8AA8D8100B01E08C88A4D8C5
:10260000200B01E08B84A0D8400B01E08C869CD885
:10261000800B01E08C84E552B8D0B2D8D8D8050E32
:10262000DDD804E297D8DB50C0D8F9D7F28EF28C0F
:10263000020EE15C02E2E16AE552E16EA6D0A0D8AA
:10264000C6D8040ECBD809E285D8DBCFE6FF030E4F
:10265000E552D880E754A9D8F4D7F28EF28C020E56
:10266000E15C02E2E16AE552E16E8FD089D8F29E28
:10267000F29CFE0EDB50300FE66E06D8E5520101EB
:10268000046FF28EF28C81D07BD8410E99D80BE387
:10269000610E96D802E3610E01D0410E7AD80E0F7A
:1026A000F66E330E08D0300E8BD80BE3300E71D897
:1026B000040FF66E330EF7220800FE0EF5CFDBFF97
:1026C00005D0FE0EDB502008FE0EDB6ADB505DD02D
:1026D00057D8060EE126050EDB6AF36EDBCFF4FF5A
:1026E000E850F45C1DE2050EDB5001017625EA6A34
:1026F000350FE96E010EEA22EF50E66ED9CF14F0E5
:10270000DACF15F0050EDB500F01D924E96E000E6B
:10271000DA20EA6EE552E750EF6E050EDB2ADDD7D0
:10272000D9CFE6FFDACFE6FF78DFE552E5520101C7
:102730007607765102E175C176F1060EE15C02E2A0
:10274000E16AE552E16E21D0D9CFE9FFDACFEAFFA5
:10275000EF501200010EDB50E76EFD0EDBCFE9FFFC
:10276000FE0EDBCFEAFFE750E926000EEA22EFCFAC
:10277000DFFFDFCFE6FF88DFE552E66E010E1200D5
:10278000D9CFE6FFE1CFD9FF1200E552E7CFD9FF5D
:102790001200146EFE0EDBCFE7FF1450E75EFE0E54
:1027A000E7CFDBFFDB50F76A1200EA6A000FE96E41
:1027B000010EEA22E552E750EF6E010EDB2A12000D
:1027C000F36EFE0EDBCFF4FFF350F45C1200020E4A
:1027D000E126F29EF29C010EDB6A1200F36E010EFE
:0A27E000DBCFF4FFF350F45C1200AD
:0627EA00D9CFE6FFE1CFAC
:1027F000D9FF110EE1260101C4690101010E836FA9
:10280000850EDE6E010EDD6E040111056BE11251C5
:10281000B40A56E0760A47E0590A3FE0020A36E079
:10282000010A25E00F0A1CE0010A14E0BA0A09E0D7
:10283000830A58E1CFD8E66ACAD8E66AC8D8E66AF9
:102840002FD007EC16F0000902E0C4D84BD00101EC
:10285000C46948D0BFD8A0A845D0010EC46F3FD0EE
:10286000B9D827C1E6FFB3D828C1E6FF39D0B2D81E
:10287000040E29C1DBFF050E2AC1DBFF040EDBCFEE
:10288000E9FF050EDBCFEAFFEF5018D0A3D829C12E
:10289000E6FF9DD82AC1E6FF23D09CD8030EE66E42
:1028A00096D8E66A1DD096D80A0EE66E90D8140E19
:1028B000E66E8DD8230EE66E8AD8690EE66E10D0CD
:1028C00089D8A0B803D0F29EF29C0CD0010EC46F40
:1028D000E6687DD8E6687BD8E6685BD8E552E668AE
:1028E00058D8E552090E0401115D3AE11251B40ABB
:1028F00034E02E0A32E0030A29E0010A1FE00F0A41
:1029000016E0010A0DE0BA0A2BE15BEC16F00009B3
:1029100003E00101020E02D00101010EC46F20D0BC
:102920000101020EC46FA0A81BD0010E18D047D819
:10293000EFCF27F153D8EFCF28F112D040D8EF5086
:1029400029C1E9FF2AC1EAFFEF6E0AD038D8EFCFDC
:1029500029F144D8EFCF2AF103D00101020EC46F50
:10296000FF0E0101C45D0BE0090E0401115D07E0DB
:1029700012C450F4010183510101CF6FD06B110ECD
:10298000E15C02E2E16AE552E16EE552E7CFD9FF90
:102990001200D9CFE6FFE1CFD9FF400E0101835DE0
:1029A0000AE28351EA6A500FE96E040EEA22FE0E33
:1029B000DBCFEFFF832BE552E7CFD9FF12000101F8
:1029C000020EC46FDECFE9FFDDCFEAFF1200E1DFC8
:1029D000E55212000101050EC46F1200DECFE9FFBF
:0E29E000DDCFEAFF010EE926000EEA2212000A
:0229EE000401E2
:1029F00010511F0B010801E01200145101E01200F8
:102A0000060E115D24E11351230A1FE0010A0DE0B7
:102A1000030A1BE1E4D80101C70505E10101A00E8D
:102A2000CB6F2D0ECC6F090E0DD0D9D80101C70583
:102A300005E101011A0ECB6F2E0ECC6F0101C70507
:102A400004E17C0E0101CF6FD06B0101C68304014C
:102A50001051600BE842E842E842E842E8420108CF
:102A600001E0120011510B0A2FE0080A21E0090AC7
:102A70001BE0080A13E00B0A05E0080A01E0120057
:102A8000F8EF15F00101840ECD6F010ECE6F01013C
:102A9000C6930101CF6BD06BEFEF15F0A0D8010109
:102AA000D30ECB6F010E09D09AD813C4D3F1120004
:102AB00096D80101D40ECB6F010ECC6F0101C693E5
:102AC0000101010ECF6F12008AD812C4D4F1120096
:102AD0000101D56B1E0E716E0401080E096F900E78
:102AE0000A6F040E0B6F880E086F0401980E0E6FAC
:102AF000040E0F6F400E0C6F1200D9CFE6FFE1CF2E
:102B0000D9FFE652FC0EDB50080805E2080EF36E12
:102B1000FC0EF3CFDBFFDF6AFC0EDB50DF5C0FE265
:102B2000DF5051D8EF50E66EDF50EA6A980FE96E39
:102B3000040EEA22E552E750EF6EDF2AEDD7FC0ED5
:102B4000DBCF0DF4400E04010C170C7D880E0C1326
:102B5000E552E552E7CFD9FF1200D9CFE6FFE1CF2A
:102B6000D9FF0101D56B040108BF27D0FC0EDBCFD4
:102B700014F00951D880145403E2FC0E09C4DBFFA1
:102B80000101D56BFC0EDB50D55D0FE2D551EA6A31
:102B9000900FE96E040EEA22EF50E66ED55113D87D
:102BA000E552E750EF6ED52BEDD70401080E096F03
:102BB000400E0817087D880E08130101D551E55213
:102BC000E7CFD9FF1200E76EFD0EDBCFE9FFFE0E67
:102BD000DBCFEAFFE750E926000EEA2212000101EE
:062BE000020ECA6F120094
:0A2BE6001C88F5EC13F01C98120097
:102BF0001C88F5EC13F00101020ECA6F0101500EA2
:102C0000CB6F040ECC6F0101C6931C981200D9CF74
:102C1000E6FFE1CFD9FF020EE126DE52010EDD6EA6
:102C2000D9C1E6FF90D80101D951300A26E0010A46
:102C300017E0030A24E1010EE66E85D82BC1E6FFFA
:102C400082D82CC1E6FF7FD8DF6A200EDF5C21E24C
:102C5000DF500101F76A2B25F66E2C5188D8F5D785
:102C60007CD8DF6A200EDF5C14E2DF500101F76AD6
:102C70000525F66E06517BD8F5D76FD80AD0E66ADF
:102C800062D8DF6A3E0EDF5C04E2E6685CD8DF2AC9
:102C9000F9D7400E0101835D05E2E66A54D80101CF
:102CA000832BF7D7010EDB50146E020EE15C02E2BB
:102CB000E16AE5524CD0D9CFE6FFE1CFD9FF040E4F
:102CC000E126DE52010EDD6E85C1D9F1010185518B
:102CD000320A2CE0030A09E0010A2CE187C105F160
:102CE00088C106F1A4EC18F025D087C105F188C190
:102CF00006F1DF6A200EDF5C14E2050EDF24EA6ACB
:102D0000840FE96E010EEA22EF50E66EDF50EA6AA8
:102D1000070FE96E010EEA22E552E750EF6EDF2A57
:102D2000E9D7E66A7FEC18F0E55204D087C12BF1B1
:102D300088C12CF1010EDB50146E040EE15C02E23E
:102D4000E16AE55204D0C9EC14F0E5521200E16EDC
:102D50001450E552E7CFD9FF1200010EE66EF3DF03
:102D600005C1E6FFF0DF06C1E6FFA3EF16F0F7228C
:0C2D70000800F550E66EE7DFDF2A1200D5
:042D7C00120110012F
:102D800000000040AE0930441000010203010902B6
:102D90002200010100A0320904000001030000002C
:102DA000092110010001227C000705810308002889
:102DB0000403090418034A006F00650000000000C6
:102DC0000000000000000000000000002C034D0087
:102DD0004900440049002000440065007600690075
:102DE00063006500200000000000000000000000FB
:102DF000000000000000000022033600390031000E
:102E00003200300036003000420020000000000098
:102E10000000000000000000000006FFFF0901A103
:102E2000017508950126FF001500859609C0B102BD
:102E3000752085B409D2B1027510859709C1B10218
:102E40007508859809C2B1027510859909C3B10248
:102E5000859C09D4B1027510859D09D5B102859B69
:102E600009C5B102752085AF09E9B10285AF09E94D
:102E700081A276000285B009EAB102752085C209F7
:102E8000D6B102859A09C4B1027508953F852C090F
:102E9000040904B102C08E2D8E2DB02DB42DCC2D81
:042EA000F82DEE29F2
:0C2EA400000102030405050607070808EA
:102EB0000909090A0A0A0B0B0B0B0C0C0C0C0C0C65
:102EC0000D0D0D0D0D0D0D0E0E0E0E0E0E0E0E0F28
:102ED0000F0F0F0F0F0F10101010101010111111F5
:102EE00011111212121212131313131314141414B7
:102EF0001415151515151616161617171717181871
:102F00001818191919191A1A1A1A1B1B1B1C1C1C20
:102F10001C1D1D1D1E1E1E1F1F1F202020212121C4
:102F20002222232323242425252626262727282852
:102F300029292A2A2B2C2C2D2D2E2E2F30303132C0
:102F4000323334343536373738393A3B3B3C3D3E03
:102F50003F404142434445464748494A4B4C4D4E09
:102F60004F505152535455565758595A5B5C5D5EF9
:102F70005F606162636465666768696A6B6C6D6EE9
:102F80006F707172737475767778797A7B7C7D7ED9
:102F90007FFFFFFFFFFFFFFFFFFFFFFFFFFFFFFFC1
:042FA000FFFFFFFF31
:0C2FA400DACFE4FFE2CFDAFFE9CFE4FF70
:102FB000EACFE4FFF6CFE4FFF7CFE4FFF5CFE4FF7D
:102FC000F3CFE4FFF4CFE4FFFACFE4FF00EE00F02C
:102FD000140EE80403E3EECFE4FFFBD700EE14F099
:102FE000080EE80403E3EECFE4FFFBD7E6529EA20F
:102FF0000BD09E921D800101312B040E315D04E146
:10300000316B1D80AFEC12F0E55200EE1BF0080EA4
:10301000E80403E3E5CFEDFFFBD700EE13F0140E59
:10302000E80403E3E5CFEDFFFBD7E5CFFAFFE5CFFB
:10303000F4FFE5CFF3FFE5CFF5FFE5CFF7FFE5CFF1
:10304000F6FFE5CFEAFFE5CFE9FFE5CFDAFF1100B4
:10305000D9CFE6FFE1CFD9FF050EE1269EBA13D006
:10306000010181510101825D02E13ED81DD09EA87F
:103070001BD08251EA6A790FE96E010EEA22EF5005
:10308000AD6E822B11D0AB50020B03E1AB50040BA1
:1030900009E0AB98010EAECFDBFFAECFDBFFAB8814
:1030A0001C9202D0AE50DF6E050EE15C02E2E16AD6
:1030B000E552E16EE552E7CFD9FF1200D9CFE6FF26
:1030C000E1CFD9FF080E0101815D0AE28151EA6A70
:1030D000790FE96E010EEA22FE0EDBCFEFFF812BA6
:1030E000E552E7CFD9FF12000101816B0101826B2C
:0230F0001200CC
:0E30F200550EA76EAA0EA76EA6821200D9CFA9
:10310000E6FFE6521FD0F5DFDF2AFE0EDB50200F70
:10311000DF5C18E2DF50EA6A070FE96E010EEA226F
:10312000EFCF14F0DF500101F76A0525F66E065166
:10313000F722F86A14C0F5FF0C001F0EDF141F08F9
:10314000E3E1E1D7E5521FD01200D9CFE6FFE1CF8E
:10315000D9FFA66AFE0EDB50A96EA680A85013D038
:10316000D9CFE6FFE1CFD9FFA6A202D0000E0AD048
:10317000FE0EDB50A96EFD0EDB50A86E040EA66E8F
:0E318000B8DF010E00D0E552E7CFD9FF1200F4
:02318E00ACECA7
:1031900019F0896A8A6A8B6A8C6A8D6A010E926E4E
:1031A000100E936EF80E946E956A020E966E0101E3
:1031B000050E2D6FA60EAC6E900EAB6E100EAF6EA0
:1031C000010EB06E400EC26E0E0EC16E060EC06EC7
:1031D000F26A800EF16ED08ED76AD66AD56ACC6A52
:1031E000F90ECB6E0D0ECA6E020E9D6EF28E140E8F
:1031F0006F6E0101C56B0101C66B0101C76B120047
:10320000D9CFE6FFE1CFD9FFFE0EDB50A96EA69E17
:10321000A69CA680A850E552E7CFD9FF1200D9CFCF
:10322000E6FFE1CFD9FFFE0EDB50A96EFD0EDB50AD
:10323000A86EA69EA69CA684F29E550EA76EAA0E08
:10324000A76EA6820400A6B2FDD7F28EA694E55220
:06325000E7CFD9FF1200D8
:0A32560008C012F008500D02F4CF7A
:1032600007F0F3CF06F009500E02F4CF09F0F3CFC8
:1032700008F00D02F3500726F4500822E86A0922EC
:1032800012500E02F3500726F4500822E86A092271
:02329000000C30
:0E329200D9CFE6FFE1CFD9FFE6521D92010E23
:1032A000E66E13EC0CF0E552F76AA40FF66E2E0EE4
:1032B000F7220800F550DF6EFF0EDF5C02E0DFCF83
:0C32C00030F1E552E552E7CFD9FF1200D3
:0432CC000101322B9F
:1032D0000A0E325D16E1326B1D821D8E1E820101C7
:1032E000342B040E345D02E1346B1E800101332B5C
:1032F000640E335D06E1336B1D8A1FA202D068ECB9
:0433000013F01200B4
:0C3304003F065B4F666D7D077F67777C9E
:10331000585E79716F74061E003800545C736750F4
:083320006D071C1C00766E5BBA
:08332800056A080EE76ED8905B
:10333000093605360E50055C02E3056E092AE72EB4
:04334000F7D71200A9
:0C33440017EE00F027EE00F0F86A019C84
:0833500015EC05F0FDD7120099
:08335800EA6AE96A0400EE6A6A
:06336000EAA6FCD71200F2
:053366005345512D004C
:03336B000000005F
:1034000004000000000000000000000000000000B8
:1034100000000000000000000000000000000000AC
:10342000000000000000000000000000000000009C
:10343000000000000000000000000000000000008C
:10344000534F43311314030200000000051BB0006A
:10345000534F43320204050000000000031B00002C
:10346000524F45203C2F021800000000031B0000B3
:10347000455320205101031500000000051B90005A
:103480000300020000000100000000000000000036
:10349000000000000000000000000000000000002C
:1034A000000000000000000000000000000000001C
:1034B000000000000000000000000000000000000C
:1034C00000000000000000000000000000000000FC
:020000040030CA
:0100000029D6
:010001000EF0
:0100020036C7
:010003000EEE
:010005008179
:010006008178
:010008000FE8
:01000900C036
:01000A000FE6
:01000B00E014
:01000C000FE4
:01000D0040B2
:00000001FF
