:020000040000FA
:0600000000EF05F0120004
:060008006CEF18F012007D
:060A0000E4EF19F0120002
:060A08006CEF18F0120073
:060A2A00D9CFE6FFE1CF89
:100A3000D9FF060EE126040012EC19F00400C3EC05
:100A400007F004006F0EDF6EDE526C0EDD6E6C0E72
:100A5000F36E020EF3CFDBFF650EF36E030EF3CFE2
:100A6000DBFF680EF36E040EF3CFDBFFD9CFE6FF9A
:100A7000DACFE6FF40EC13F0E552E552AA0EE66E3F
:100A80004EEC0CF0E55201014E6B0400F28EF28C3C
:100A90003ED81DA606D01D96E66A16EC18F0E55263
:100AA0002BD01DA807D01D98200EE66E16EC18F06E
:100AB000E55222D01DA203D0B5EC19F01DD01DA027
:100AC00004D01D9075EC19F017D01EA004D01E9014
:100AD0006BEC0CF011D01DAA03D01D9ADAEC0CF0CF
:100AE0001DAE03D01D9EF3EC07F01EA203D01E9294
:100AF000DAEC06F0C1EC18F0C8D7060EE15C02E2B1
:100B0000E16AE552E16EE552E7CFD9FF1200C1EC90
:0C0B100011F06FBE02D0DDEC11F01200FD
:040B1C00010014348C
:0A0B20000000F801000003000000CF
:060B2A001FEC0BF0E65287
:100B3000030EDF6E82EC0BF00550300FE66EDF50D7
:100B4000DF0613EC0BF0E552E750EF6E82EC0BF092
:100B5000FE0E09C0DBFF09500008ECE3DF5000087F
:100B600007E2DF5013EC0BF0200EEF6EDF06F6D736
:100B7000DF5013EC0BF0200EEF6EE5520FEF0BF091
:100B80001FEC0BF0040EE126C6EC0BF000017529FA
:100B9000E66ECBDFE552E552E552500EDF6EC6EC55
:100BA0000BF090EC0BF04B0E0001836F846B040E86
:100BB000E15C02E2E16AE552E16E0FEF0BF01FEC3F
:100BC0000BF075C0E6FFE66A0C0EE66E94EC0EF0D4
:100BD000E552E552E552FE0EDB5001E0D1DF0FEFAA
:100BE0000BF01FEC0BF06EEC0BF0FE0EDBCFE6FF14
:100BF000E6DFE552000149EC0BF00FEF0BF00001CE
:100C00007729E66E69EC13F0E55212001FEC0BF049
:100C100078C07AF079C07BF078EC0BF0FE0EDBCF79
:100C2000E6FFDFDFE552EBDF0FEF0BF01FEC0BF021
:100C3000700EE66E000EE66EE8EC0BF0FEEC0BF0CC
:100C40001DEC0DF0146E0C0EE15E14500001776B7C
:100C50007729E66E69EC13F0E552FE0EDB5004E0F6
:100C600051EC0BF090EC0BF00FEF0BF01FEC0BF0D6
:100C70003CEC0BF0FE0EDBCFE6FFD8DFE5520FEFCA
:100C80000BF0FEEC0BF0F5EC0BF090EF0BF01FEC23
:100C90000BF0040EE1260101FA5112E0530EDF6E53
:100CA000DE52450EDD6E510EF36E020EF3CFDBFF0A
:100CB0002D0EF36E030EF3CFDBFFC6EC0BF00AD064
:100CC0003CEC0BF051EC0BF0F3CFE6FFF4CFE6FF7A
:100CD000F5EC0BF090EC0BF0040EE15C02E2E16A43
:100CE000E552E16E0FEF0BF01FEC0BF0F5EC0AF0A4
:100CF00019E11550EE1816E11650EE1813E11750D1
:100D0000EE1810E10FE1A1EC0BF09351EE14186E08
:100D10009451EE14196E9551EE141A6E9651A3EC7F
:100D20000BF002E0000E01D0010E0FEF0BF0D9CF57
:100D3000E6FFF5EC0AF008E11550EE1805E1165053
:100D4000EE1802E11750EE1802E0000E01D0010E7D
:100D50000FEF0BF01FEC0BF0E6EC0BF000019351E2
:100D6000EE14146E9451EE14156E9551EE14166E29
:100D700096511EEC0CF019E11550EE1816E11650C4
:100D8000EE1813E11750EE1810E10FE1A1EC0BF093
:100D90008F51EE14186E9051EE14196E9151EE149D
:100DA0001A6E9251A3EC0BF002E0000E01D0010E7E
:100DB0000FEF0BF00101F8510AE00001000ED8809E
:100DC0008055000E815503E28007000E815BAAEC7E
:100DD0000BF003E28707000E885B8AEC0BF003E25E
:100DE0008907000E8A5B000ED8808355000E84555B
:100DF0000BE28307000E845B8351841105E18E05AD
:100E000002E13FDF01D043DFB1EC0BF003E28B07DF
:100E1000000E8C5B000ED8808555000E865555E27D
:100E20000101F951030A24E0010A0FE0030A45E138
:100E3000000185513F0B02E18D5129D067EC0BF089
:100E40003CE115503AE18D5134D0000185513F0B02
:100E500009E1000E95EC0BF0E552E552010E95EC20
:100E60000BF022D067EC0BF028E1155026E117D0EB
:100E7000000185513F0B0EE1000E2BEC0BF0010E33
:100E8000EADB020E95EC0BF0E552E552030E95EC11
:100E90000BF011D067EC0BF010E115500EE1000ED5
:100EA000DADB010E04EC0CF0E552E552020ED3DB66
:100EB000030E04EC0CF0E552E55200018507000E2C
:100EC000865B8551861101E1E4DB120000019C5133
:100ED0000DE17CDB7C1906E115507D1903E17C6B8B
:100EE0007D6B12007C2B000E7D2312007F0E755D42
:100EF00002E1756B1200752B120000019C510AE192
:100F00007C517D1103E1B8EC0BF001D07C07000EA1
:100F10007D5B1200755103E17F0E756F120075073E
:100F2000120000019C5102E147EF06F0C0EF05F00E
:100F300000019C5103E1E66A99DE03D0010EE66EE2
:100F40003EDEE552120077C070F077C0E6FF5BDB53
:100F50000101020EFA6F320E00018B6F8C6B776B02
:100F600012003DDB00017751772BEA6A680FE96ECA
:100F7000000EEA2276C0EFFF42DE080E0001775D28
:100F800001E1E1DF12000BEC0DF0F3CF7EF0F4CFC6
:100F90007FF000018D6B836B846B856B866B876B39
:100FA000886B896B8A6B8B6B8C6B786B796BCBECFA
:100FB0000BF0E552BEDB0001996B9A6B9C6B936B57
:100FC000946B956B966B93C08FF094C090F095C026
:100FD00091F096C092F008EC0DF00001986F976FB9
:100FE000020E8E6F1200B8EC0CF006C08FF007C036
:100FF00090F008C091F009C092F008EC0DF00001EB
:10100000976F9851975D12E07F0E9715E66E7651B7
:10101000EA6A640FE96E000EEA22EF50E66EE66AB5
:101020000B0EE66E97EC0EF034EC0CF005EC0DF0C8
:10103000000908E100018E5114E08E6B7C6B7D6B22
:10104000AEDB09D000018E050CE0010E8E6F786BCF
:10105000796BE66EEBDDE5520001776BE66AD6DD73
:10106000E552B0DA200EA5DB31E0000178517A19A3
:1010700029E179517B1926E17005775D22E18E51D6
:101080000EE1A4DA7C1906E115507D1903E17C6BB1
:101090007D6B03D07C2B000E7D2381DB0DD096DA97
:1010A000781906E11550791903E1786B796B03D053
:1010B000782B000E79236FDBE5520001776BE66A2F
:1010C00003D0772B010EE66EA1DDE55200018E51B3
:1010D000010A01E17DD1010A01E068D20101FA5162
:1010E000020A01E15DD1030A01E130D1010A01E008
:1010F0005DD2010E58DB07E00001766B9C0502E132
:10110000AEDA01D06CDA020E4EDB08E00001010E0F
:10111000766F9C0502E1A3DA01D061DA040E43DBAD
:1011200008E00001020E766F9C0502E198DA01D01A
:1011300056DA080E38DB08E00001030E766F9C05D6
:1011400002E18DDA01D04BDA00019C053DE18751C7
:10115000881126E19A5124E1010E5ADB09E1020EC1
:1011600057DB06E1040E54DB03E1080E51DB18E007
:101170000001010E9A6F9B51EA6A600FE96E000E42
:10118000EA2275C0EFFF70C0E6FF3DDA28DA010100
:10119000010EF96F9BC08DF0640E0001856F866BA8
:1011A000010E3ADB09E1020E37DB06E1040E34DB07
:1011B00003E1080E31DB08E0CDDA06E29A5104E1E2
:1011C0000EDA0001876B886BFDD9800EF2DA09E038
:1011D00027DB07E1000189518A1103E11E0E896FA7
:1011E0008A6B0101F8510EE120DB0CE019DB0AE10A
:1011F000000189518A1106E1806B816B826B0101CC
:10120000010EF86F21DB08E0000184DA02E25EDE05
:1012100088DE0101F86B8CDED5D9100ECADA09E040
:1012200004DB07E1000189518A1103E11E0E896F79
:101230008A6B0101F8510EE1F3DA0CE0F6DA0AE10B
:10124000000189518A1106E1806B816B826B01017B
:10125000040EF86FFEDA08E000015CDA02E24DDE0F
:1012600060DE0101F86B64DEE5DA04E0320E0001B5
:101270008B6F8C6BA7D9400EE66EA0DA0EE00001F2
:101280008B518C110AE10101FA5107E1010EFA6F4D
:101290000001776B040E766FFADC94D9400EE66E8F
:1012A00091DA12E05EDA10E29C5105E1010E9C6FCA
:1012B0000101030E03D09C6B0101020EF96F960E23
:1012C0000001856F866B2DDE0101F85101E16ED1C1
:1012D00000018051811101E069D10101F851060A34
:1012E00030E0030A25E0010A19E0070A15E0010AC7
:1012F0000BE0030A01E05AD1E9DDB8D901E032D1AF
:10130000826B0101020E11D0E1DDB0D901E03DD1C7
:10131000826B0101030E13D0D9DD14D0EEDDA6D906
:1013200001E020D1826B0101050EF86F0F0E0CD089
:10133000E4DD9CD901E029D1826B0101060EF86F32
:1013400002D0DBDDEEDD0A0E00012ED1010E2BDA1C
:1013500005E00001765102E0766B03DE020E23DA2F
:1013600006E00001760503E0010E766FFADD040E5B
:101370001ADA07E0020E0001765D03E0020E766FD6
:10138000F0DD080E10DA07E0030E0001765D03E0E1
:10139000030E766FE6DD4EDA01E108D1D4DD06D129
:1013A00000018B518C1101E001D17051775D04E196
:1013B0000101FA6BBED9FAD022DC9AD96AD98ED94A
:1013C000C0EC05F00001772B320E8B6F8C6BEED0EA
:1013D000010EE9D903E00001766B01D9020EE3D9D1
:1013E00007E00001010E766FE66EF1EC05F0E552C4
:1013F000040ED9D904E00001020E766FF0D8080E71
:10140000D2D904E00001030E766FE9D8DBD8800E54
:10141000D0D90EE0EFD906E11550791903E1786BC8
:10142000796B03D0782B000E792346D9010EF86F23
:101430000BDA01E0A4D9C6D8100EBBD90CE000012C
:101440007851791102E100D901D07807000E795B5B
:1014500033D9040EF86FFDD901E091D9EBD92AE018
:10146000000178517A1921E179517B191EE17751F8
:101470001BE18E510AE17C517D1102E179D901D045
:101480007C07000E7D5B8BD909D07851791102E180
:10149000DBD801D07807000E795B7DD9E5520001D9
:1014A0007005776FE66A03D07707010EE66E06ECEB
:1014B00006F0E5520101F85101E178D000018051B8
:1014C000811174E10101F851060A61E0030A4CE060
:1014D000010A36E0070A28E0010A14E0030A66E17F
:1014E00089D906E11550791903E1786B796B03D03E
:1014F000782B000E7923DAD8050834E1826B0101DC
:10150000020E2DD077D906E11550791903E1786BD9
:10151000796B03D0782B000E7923C8D8140835E1F5
:10152000826B0101030E2FD065D906E115507919A0
:1015300003E1786B796B34D0782B000E792330D0AF
:1015400000017851791102E17FD801D07807000EAF
:10155000795BACD8050806E1826B0101050EF86FD6
:101560000F0E21D0140E20D000017851791102E124
:101570006BD801D07807000E795B98D8140805E184
:10158000826B0101060EF86F0DD00F0E0DD0000119
:101590007851791102E158D801D07807000E795BB3
:1015A00041EC06F00A0E0001806F816B8FC093F052
:1015B00090C094F091C095F092C096F0120054D96A
:1015C00000091200E66AE66AE66A12007EC014F0BC
:1015D0007FC015F01406000E155A14501200010EAB
:1015E000E66EF1EC05F0E5521200F0D800018F51E3
:1015F000EE14146E9051EE14156E9151EE14166E99
:1016000092511EEF0CF0E4D878C0E6FF79C0E6FFF7
:101610008CEC0DF0146E090EE15E14501200E552D0
:10162000E7CFD9FF1200E76EFC0EDBCFE9FFFD0E1E
:10163000DBCFEAFFE750E926000EEA221200D9CFFD
:10164000E6FFE1CFD9FF12007EC078F07FC079F0CD
:10165000010E785F1200D8D8E552E5521200320E22
:10166000876F886B76C09BF09A6B12005ADC000182
:101670008251822B0A0812007CC0E6FF7DC0E6FF83
:1016800066EC0EF0E552E552F3CF78F0F4CF79F046
:1016900012007651E66EE66ADFEC0CF0E552E55298
:1016A0001200710EE66E000EE66E120041EC06F0BE
:1016B00000018251822B120041EC06F00101F86B0F
:1016C000140E0001806F816B826B010112003F0ECE
:1016D0008515146E156A1F0E14181200000176513C
:1016E000EA6A600FE96E000EEA22EFCF75F0120091
:1016F00000017751EA6A680FE96E000EEA22EFCF27
:1017000076F012000A0E146E0E6EFE0EDBCF09F09C
:10171000F5EF19F0000ED8808955000E8A55120099
:1017200052EC13F0E552E5521200E66EE66AECEF79
:101730000CF00001776B010EE66E06EC06F0E55248
:101740001200D9508BD0EE141B6E185019101A10BD
:101750001B1012000001000ED8808755000E88551E
:1017600012000001000ED8808B55000E8C5512001F
:101770007EC07CF07FC07DF0010E7C5F1200010115
:10178000F86BE66A16EC06F0E5521200D9CFE6FFD8
:10179000DACFE6FF1200010EE66E16EF06F0010E3C
:1017A000E66E36EF06F0E66E0DDF74EC06F0DFEF66
:1017B0000AF0E66E74EC06F0DFEF0AF097EC06F044
:1017C000DFEF0AF0AAEC06F0DFEF0AF0E15046D0B6
:1017D000680EE66E000EE66E640EE66E000EE66EB5
:1017E000600EE66E000EE66E120050EC0EF03CD875
:1017F00051EF0BF0EBDE00017819120052DF78C0D8
:10180000E6FF79C0E6FF1200E66EE66AF7EF0CF03D
:10181000E66ED8DEDEEF0BF0E66ED4DEE2EF0BF024
:10182000D1DE100EE66EDEEF0BF0CCDE800EE66E43
:10183000DEEF0BF0C7DE400ED9EF0BF0EE14176EA3
:10184000C5DF1450EE181200BDDE800EE66EE2EF2A
:101850000BF0B8DE100EE66EE2EF0BF0FB0FE96E58
:10186000FF0EDA20EA6E1200E552E552E552E5522B
:02187000120064
:0E18720072DAE652FE0EDB50C26E0A0EDF6E18
:10188000DF5002E0DF06FCD7C282C2B2FED7C450EE
:10189000E55267D261DAFE0E11DB63D25DDAE65201
:1018A000080EDF6E898489948992FE0EDBBE02D019
:1018B000899601D08986A2DA8982DF06F5E18984DA
:1018C000100EDF6EDF5002E0DF06FCD789948986B8
:1018D0008982E55246D212DBDE52010EDD6E030E26
:1018E000DB6ADF6ADF5006081DE3DFCFE6FF34D88E
:1018F000E552050EF36E020EF3CFDBFFDB5003E083
:10190000020EDB06FBD784A209D0030EDBCFE7FF74
:10191000010EDB50E712030EE7CFDBFF010E6EDA9C
:10192000DF2AE0D7030EDBCF4FF101014F9F4F4776
:1019300081B84F814F1D4F6F070EDF6EDFCFE6FF7F
:101940000BD8E5521F8084A21F90040EE15C02E2D6
:10195000E16AE552E16E05D2FFD98998899A8D90A6
:10196000FE0EDBB08988DBB2898ADBB48D80F9D1C9
:10197000C5DADE6ADE6ADE6ADD6ADD52DD52F00E4D
:1019800001014F15E76E030EE7CFDBFF0F0E4F157A
:10199000DF6EDECF06F0DECF07F0DECF08F0DDCF62
:1019A00009F0DD52DD52040EE15C02E2E16AE5522B
:1019B000E16ED7D14EC1E6FF71DFE5521200CCD9FE
:1019C00001014E6B22DA04E0D890F336E806FCE120
:1019D000F35001014E13C5D1BFD917DA04E0D890F6
:1019E000F336E806FCE1F35001014E13BAD1B4D945
:1019F0000CDA04E0D890F336E806FCE1F350146EFC
:101A0000FF0EF31801014E17ACD11F50010B12004D
:101A1000010150511200A0D9020E44DADECF14F0B9
:101A2000DDCF15F014C0F3FF15C0F4FF020EE15C2A
:101A300002E2E16AE552E16E94D18ED9A2D965E263
:101A4000B8D9E8D9FEE1F8D9040E76D97F0BE66E55
:101A50007EDAACD9050E75DA69DA060E6DD9C4D90D
:101A600065DA070E71DA62DA080E66D97F0BE66E68
:101A700073DA9CD9090E65DA5BDA0A0E5DD9B4D93E
:101A800057DA0B0E61DA54DA0C0E56D9070B010F38
:101A9000E66EF30EDBCFE9FFF40E88D9060E146E66
:101AA0000D0E19DA04E0E8427F0BE706FCE1E66E72
:101AB000F50EDBCFE9FFF60E79D90D0E12DA010E25
:101AC000D4D90D0E01DA020ED0D90D0E35D9030B83
:101AD000E66E030ECAD9060E146E0E0EFCD904E093
:101AE000E8427F0BE706FCE1E66E040EBED90E0E5F
:101AF000F8D9050EBAD90E0EE7D9060EB6D90E0ED4
:101B00001BD9030BE66E070EB0D9040EE15C02E2AE
:101B1000E16AE552E16E25D11FD9460EE12649D989
:101B200079D9FEE17CD9400E14C0DBFF410E15C00F
:101B3000DBFF400EDBCF14F0410EDBCF15F0C00E03
:101B40001416FF0E1516420E14C0DBFF430E15C00F
:101B5000DBFF3F0EE76E400EDBCF14F0410EE75087
:101B60001416156A440E14C0DBFF450E15C0DBFFCA
:101B7000420EDBCFE6FF430EDBCFE6FF73D8E55224
:101B8000E552F3D9DBCFEAFFEF50E66E040E4CD9F5
:101B9000010E78D9050E48D9020E74D9060E44D923
:101BA000030E70D9070E40D9D2D9DBCFEAFFEF5030
:101BB0007F0BE66E080E38D9010EB2D9090E34D962
:101BC000020EAED90A0E30D9030EAAD90B0E2CD9AB
:101BD000F60EDB04070BE66E0C0E26D9030E92D927
:101BE000166E020E8FD9040DF3CF15F0010E8AD9AF
:101BF000100DF3CF14F0B0D9DBCFEAFFE7D80D0E0C
:101C000013D9070E7FD9166E060E7CD9040DF3CFBB
:101C100015F0050E77D9100DF3CF14F0040EE76E12
:101C20002BD9D4D80E0E00D9100EC6D806C005F197
:101C300007C006F1400E01010527000E0623C00E65
:101C40000517FF0E0617000E0527490E062341EC67
:101C500018F01D861D88460EE15C02E2E16AE5523D
:101C6000E16E7FD079D8E652DF6A400EDF5C16E283
:101C7000FD0EDBCFF6FFDB2AFE0EDBCFF7FF01E325
:101C8000DB2A78D9E66EDF50EA6A070FE96E010EAB
:101C9000EA22E552E750EF6EDF2AE7D7E55261D03E
:101CA0002DD9000EE96E490EEA6EEECFDEFFEDCFC4
:101CB000DDFFEED804E27DD8ADD8FEE1BDD8040E3C
:101CC000E15C02E2E16AE552E16E4BD045D859D8B9
:101CD00003E3F36AF46A21D0DECF16F0DDCF17F00C
:101CE000040ED89016361736E806FBE1400E16268D
:101CF000000E1722020E60D816500624146E1750DC
:101D00000720156E32D80900F5CF14F00800F5CF82
:101D100015F014C0F3FF15C0F4FF040EE15C02E2FD
:101D2000E16AE552E16E1DD017D82FD81AD014D829
:101D30002CD8FB0EC3D815D0E76ED9D88AEF0FF098
:101D4000DBCFEAFFE750E926000EEA221200070E79
:101D5000E926010EEA2205D1D9CFE6FFE1CFD9FF6E
:101D60001200E552E7CFD9FF1200020E14C0DBFFCC
:101D7000030E15C0DBFFBBD8000EF626490EF72276
:101D80001200040E8FD848EF0FF0FD0EDB500F0B42
:101D9000146EFE0EDB500F0B100DF3501410E66E98
:101DA000F7EC18F0E552FC0E5EEF0FF0DBCFEAFF28
:101DB000D8D0C0D8040E1200086E096AFD0EDBCF21
:101DC0000DF0FE0EDBCF0EF097EF19F0EF50030B86
:101DD000400DF350141015101610E66E12007F0B14
:101DE000E66E010EE76E12007F0BE66E020EE76EE6
:101DF00012007F0BE66E030EE76E1200DBCFF3FFDF
:101E0000F39EF346F3CFDBFF1200010EF36EFD0EDF
:101E1000DB501200D89014361536E8061200400E3A
:101E20001426000E15221200E76E440EDBCFE9FFE8
:101E3000450E86DFA7EF0EF0F2DF97DF0800F550C2
:101E40007F0BE66E92D8B2DF010E7BD860D8020E0F
:101E5000E76EDBCFF6FF030EDBCFF7FF5BD8C4DF07
:101E600056D8030E71D887EF0FF0E76EF50EDBCF73
:101E7000E9FFF60E65DF75D06FD8A0EF0EF067D8DA
:101E8000A0EF0EF0E76E71D85BDFEF50E66E120048
:101E900051D8DECF16F0DDCF17F01650145C175076
:101EA00015581200E126000EF66E490EF76E090075
:101EB000F5CFDEFF0A00F5CFDDFF1200DBCFE6FF36
:101EC000F7EC18F0E552120037DF0C0BE840E84061
:101ED0003F0BE66E120030DFC00B14C0E7FFE75285
:101EE00012002ADF300BE8380F0BE66E1200020EEC
:101EF000DBCFF6FF030EDBCFF7FF12002DDF040E62
:101F0000E1261200E76EB8DFEF50030B12002DD868
:101F100017DF27D0E750F626000EF722BAEF0FF0B2
:101F2000E76EADDFEF507F0BE66E1200A8DF19D031
:101F3000A3DF17D0FD0EDBCF14F0FE0EDBCF15F0C4
:101F40001200FADEEFEF0EF0F7DEF9EF0EF0F90E09
:101F5000DBCFE9FFFA0E1200F70EDBCFE9FFF80E38
:101F60001200E552E750EF6E1200FB0EDBCFE9FFE7
:101F7000FC0E1200000EF626490EF7220800F5505E
:021F800012004D
:0E1F820004011051600BE842E842E842E842D8
:101F9000E842000901E012001151070A3CE00B0A77
:101FA0003AE0070A2FE0010A21E00B0A1DE0020ACD
:101FB0001BE0030A17E0080A0FE0010A0BE00F0A12
:101FC00007E0030A01E01200DDDA040EE76F1200F9
:101FD0000CEF10F044EF10F0D5DAE90EED6F010EC2
:101FE000EE6F0CD05AEF10F088EF10F0E2DA01013A
:101FF000ED6FEE6BEA0EED27010EEE23E893010E76
:10200000F16F1200D6DAEA6AEA0FE96E010EEA22EF
:1020100012C4EFFF12001200800E0401105D33E1C4
:102020001351030A1EE0010A09E0030A23E1AADAB8
:10203000F80EED6F2D0EEE6F120E1AD070DA120E32
:10204000F6262F0E85DA020E0101F76AED25F66EEF
:10205000EE51F7220900F5CFF1F10A00F5CFF2F1C8
:1020600009D05DDA160EF6262F0E72DA79DA010142
:10207000F16FF26B020E0401125D05E0030E125DBA
:1020800002E00101E88312007DDA42DA010EE66E19
:10209000EA0EE66E010E87DA12C4E9F1040112516C
:1020A00004E10101050EE76F12000101060EE76F62
:1020B000A6EF15F00401506B516B10511F0B020A73
:1020C0000FE0030A0BE0010A18E15CDA0401508119
:1020D0000101E8A112D0040150830FD053DA0DD0D2
:1020E00003DA01E0010E2BDAEFC1E9FFEA6EEF50EF
:1020F000040B03E00401010E506F0101EC0507E140
:10210000500EED6F040EEE6FE893020EF16F1200A9
:10211000040112050EE110511F0B00090AE132DA29
:10212000030E0401115D03E10101E88102D0010108
:10213000E891040112511DE110511F0B020819E131
:1021400014510F0B000915E0CFD901E0010EF7D9AA
:10215000030E0401115D03E1840EC6EF12F014AF0B
:1021600006D0EFC1E9FFF0C1EAFFEF6A1200880E66
:102170000DDA12006C500BE1040100513C0BE842F7
:10218000E8420D0802E1CCEF10F0FDEF10F0040E74
:102190006C5C01E141D81200D9CFE6FFE1CFD9FF55
:1021A000E6520101EB6BEC6BF16BF26BEADEDF6A7E
:1021B000DF50146E156A010E145C000E15581AE2F9
:1021C0000101EC5117E1F76ADF34FE0BF736F66ECA
:1021D0001E0EF6262F0EF7220900F5CF14F0080088
:1021E000F5CF15F004D015C0FAFF1450F96EFBDFDF
:1021F000DF2ADED789D8E552C1D1020E0101EB5D9D
:1022000009E162D8040100BD02D0C80E01D0880ED9
:10221000006F1200BAEF11F0040E0101E75D09E151
:1022200012C46EFF6E50000802E2050E01D0030ECC
:10223000E76FEB0509E110D8040104BD02D0C80E18
:1022400001D0880E046F1200090E0401115D02E135
:1022500031EC16F0BAEF11F08AD90101400EF15DB0
:10226000000EF25905E2F1C1DEFFF2C1DDFF03D03D
:10227000400EDE6EDD6A040104930491010EDB5012
:102280000413DFCF05F4000EDB500101F15F010EF6
:10229000DB50F25B500EEF6F040EF06FE8A307D037
:1022A00047D90BE05DD917D9FBE2DB06F9D740D956
:1022B00004E072D9FCE2DB06FAD7020EE15C02E22E
:1022C000E16AE552E16E5AD152D9030E04010015BC
:1022D000E76E010EE7CFDBFF01C4DFFFDE50010137
:1022E000F127DD50F223500EED6F040EEE6F20D972
:1022F00004E052D9FCE2DB06FAD7020EE15C02E20E
:10230000E16AE552E16E3AD10101EC5104E1F8D8FD
:10231000840E006F1CD0040110AF1BD00101F151DD
:102320000401165D0101F2510401175904E216C4BB
:10233000F1F117C4F2F190DF0101010EEB6FE0D86B
:10234000800E006F500E066F040E076FC80E046FEC
:102350000FD00101020EEB6F0401056BC80E046F74
:10236000400E016F500E026F040E036FC80E006F17
:102370006D9812000101EB6BC3D8880E006F046BDF
:1023800012006DA60CD80101E70508E16DBA06D070
:10239000686A696A69806988020EE76F12006D6A6F
:1023A000696A6D860101010EE76F12006D6A696A44
:1023B0000101E76B1200D6EF11F00101E75101E1D5
:1023C00012006850040B04E06950040B01E038D897
:1023D0006DB212006850010B04E06950010B01E07E
:1023E0004FD86850100B04E06950100B01E023D85F
:1023F0006850400B04E06950400B01E037D868504A
:10240000200B04E06950200B01E032D86850020B29
:1024100004E06950020B01E031D8030E0101E75DD1
:1024200001E212006850080B05E06950080B02E059
:10243000A1DE68961200698468986D82A19A1200E4
:102440006D926994689412000101E8A10ED0F8DF42
:102450006D840101080EF36F070EF46FF307000E91
:10246000F45BF351F411FAE16D941200689C1200D0
:1024700070A002D07FDF7090689A120068921200FC
:102480006A6A686A9F0E6B6E7B0E696E6E6A40D8D0
:10249000160E706E68A602D06896FCD76D986ADF3B
:1024A0000101E891E96B030EE76F1200D9CFE6FF57
:1024B000E1CFD9FFFD0EDBCFE9FFFE0EDBCFEAFF58
:1024C000FC0EDB5004E0EE6AFC0EDB06F9D7E552A9
:1024D000E7CFD9FF12005AD8EF2B000EF023ED2BD7
:1024E000EE23DF06010E120064D80F0B080DF35027
:1024F000156A000F146E040E15221451800B120081
:102500000401400E016F100E026F040E036F1200E3
:102510000F0EE66E710EE66E0F0ED3EF12F032D88C
:1025200004011251F66EF76AD890F636F7361200AB
:10253000D9CFE9FFDACFEAFFEE50ED101200040D1B
:10254000F35001011424EF6F000E1520F06F1200FC
:10255000F7220900F5CFEDF10A00F5CFEEF11200F8
:10256000EDC1F6FFEEC1F7FF0800F5501200D9CF1C
:10257000E6FFE1CFD9FF020EE1261200E552E7CFD8
:10258000D9FF12000101010EEC6F1200EFC1E9FF4B
:10259000F0C1EAFFEF6E1200EDC1E9FFEEC1EAFF04
:1025A000EF506BEF12F0E66E81DFE552E552E55237
:0A25B0001200E8DF040114511200CC
:0625BA0000018E0502E1A4
:1025C0000101008F22D801015651040A10E0070AC8
:1025D0000CE0010A08E0030A04E0010A0DE18A9A0E
:1025E00007D08B9005D08A9603D08A9401D08A9226
:1025F00056C1E6FF18D8E5520101562B01014D5195
:102600000101565D01E3566B12008A908C9E8C9CF2
:102610008C9A8C988B948C968C948A8A8B808A86E0
:102620008A848A821200EAD8E652FE0EDB50EA6AF9
:10263000000FE96E010EEA22EFCFDFFFC3D8010BD6
:1026400001E08A80BFD8020B01E08C8EBBD8040B5E
:1026500001E08C8CB7D8080B01E08C8AB3D8100B42
:1026600001E08C88AFD8200B01E08B84ABD8400B05
:1026700001E08C86A7D8800B01E08C84E552C3D0A2
:10268000BDD8E3D8050EE8D804E2A2D8DB50CBD8F9
:10269000F9D7F28EF28C020EE15C02E2E16AE552B9
:1026A000E16EB1D0ABD8D1D8040ED6D809E290D81B
:1026B000DBCFE6FF030EE552D880E754B4D8F4D759
:1026C000F28EF28C020EE15C02E2E16AE552E16E0A
:1026D0009AD094D8F29EF29CFE0EDB50300FE66E3C
:1026E00006D8E5520101046FF28EF28C8CD086D8A8
:1026F000410EA4D80BE3610EA1D802E3610E01D014
:10270000410E85D8AE0FF66E330E08D0300E96D837
:102710000BE3300E7CD8A40FF66E330EF7220800C0
:10272000FE0EF5CFDBFF10D0FE0EDB5020080AE0D6
:10273000FE0EDB502D0806E1400EF36EFE0EF3CFC9
:10274000DBFF02D0FE0EDB6ADB505DD057D8060EF1
:10275000E126050EDB6AF36EDBCFF4FFE850F45C94
:102760001DE2050EDB5001019825EA6A570FE96E5C
:10277000010EEA22EF50E66ED9CF14F0DACF15F051
:10278000050EDB500F01D924E96E000EDA20EA6E47
:10279000E552E750EF6E050EDB2ADDD7D9CFE6FF15
:1027A000DACFE6FF6DDFE552E55201019807985157
:1027B00002E197C198F1060EE15C02E2E16AE5529E
:1027C000E16E21D0D9CFE9FFDACFEAFFEF50120056
:1027D000010EDB50E76EFD0EDBCFE9FFFE0EDBCF17
:1027E000EAFFE750E926000EEA22EFCFDFFFDFCF56
:1027F000E6FF7DDFE552E66E010E1200D9CFE6FF5F
:10280000E1CFD9FF1200E552E7CFD9FF1200146ED5
:10281000FE0EDBCFE7FF1450E75EFE0EE7CFDBFFD7
:10282000DB50F76A1200EA6A000FE96E010EEA2235
:10283000E552E750EF6E010EDB2A1200F36EFE0E3A
:10284000DBCFF4FFF350F45C1200020EE126F29E9F
:10285000F29C010EDB6A1200F36E010EDBCFF4FF77
:06286000F350F45C1200CD
:0A286600D9CFE6FFE1CFD9FF110E34
:10287000E1260101E6690101010EA56FA70EDE6EDA
:10288000010EDD6E040111056BE11251B40A56E030
:10289000760A47E0590A3FE0020A36E0010A25E0DD
:1028A0000F0A1CE0010A14E0BA0A09E0830A58E1A1
:1028B000CFD8E66ACAD8E66AC8D8E66A2FD045EC0F
:1028C00016F0000902E0C4D84BD00101E66948D0F7
:1028D000BFD8A0A845D0010EE66F3FD0B9D847C1F8
:1028E000E6FFB3D848C1E6FF39D0B2D8040E49C1DB
:1028F000DBFF050E4AC1DBFF040EDBCFE9FF050E4F
:10290000DBCFEAFFEF5018D0A3D849C1E6FF9DD82E
:102910004AC1E6FF23D09CD8030EE66E96D8E66A3D
:102920001DD096D80A0EE66E90D8140EE66E8DD89D
:10293000230EE66E8AD8690EE66E10D089D8A0B84C
:1029400003D0F29EF29C0CD0010EE66FE6687DD8B3
:10295000E6687BD8E6685BD8E552E66858D8E55269
:10296000090E0401115D3AE11251B40A34E02E0A55
:1029700032E0030A29E0010A1FE00F0A16E0010A0B
:102980000DE0BA0A2BE199EC16F0000903E0010111
:10299000020E02D00101010EE66F20D00101020EED
:1029A000E66FA0A81BD0010E18D047D8EFCF47F193
:1029B00053D8EFCF48F112D040D8EF5049C1E9FFCA
:1029C0004AC1EAFFEF6E0AD038D8EFCF49F144D8B8
:1029D000EFCF4AF103D00101020EE66FFF0E0101B5
:1029E000E65D0BE0090E0401115D07E012C450F42E
:1029F0000101A5510101F16FF26B110EE15C02E2E0
:102A0000E16AE552E16EE552E7CFD9FF1200D9CF76
:102A1000E6FFE1CFD9FF400E0101A55D0AE2A55115
:102A2000EA6A500FE96E040EEA22FE0EDBCFEFFFDA
:102A3000A52BE552E7CFD9FF12000101020EE66F88
:102A4000DECFE9FFDDCFEAFF1200E1DFE552120041
:102A50000101050EE66F1200DECFE9FFDDCFEAFFD0
:0A2A6000010EE926000EEA22120022
:062A6A00040110511F0BD6
:102A7000010801E01200145101E01200060E115D80
:102A800024E11351230A1FE0010A0DE0030A1BE1B0
:102A9000E4D80101E90505E101011C0EED6F2E0EE0
:102AA000EE6F090E0DD0D9D80101E90505E101014C
:102AB000960EED6F2E0EEE6F0101E90504E17C0E1E
:102AC0000101F16FF26B0101E88304011051600B09
:102AD000E842E842E842E842E842010801E0120028
:102AE00011510B0A2FE0080A21E0090A1BE0080A2D
:102AF00013E00B0A05E0080A01E0120036EF16F0B9
:102B00000101A60EEF6F010EF06F0101E8930101C4
:102B1000F16BF26B2DEF16F0A0D80101F50EED6F01
:102B2000010E09D09AD813C4F5F1120096D801010C
:102B3000F60EED6F010EEE6F0101E8930101010E3B
:102B4000F16F12008AD812C4F6F112000101F76B7E
:102B50001E0E716E0401080E096F900E0A6F040EAE
:102B60000B6F880E086F0401980E0E6F040E0F6F26
:102B7000400E0C6F1200D9CFE6FFE1CFD9FFE6522D
:102B8000FC0EDB50080805E2080EF36EFC0EF3CFD6
:102B9000DBFFDF6AFC0EDB50DF5C0FE2DF5051D859
:102BA000EF50E66EDF50EA6A980FE96E040EEA22F3
:102BB000E552E750EF6EDF2AEDD7FC0EDBCF0DF4C8
:102BC000400E04010C170C7D880E0C13E552E552E3
:102BD000E7CFD9FF1200D9CFE6FFE1CFD9FF01013E
:102BE000F76B040108BF27D0FC0EDBCF14F00951AE
:102BF000D880145403E2FC0E09C4DBFF0101F76B1B
:102C0000FC0EDB50F75D0FE2F751EA6A900FE96EB8
:102C1000040EEA22EF50E66EF75113D8E552E75062
:102C2000EF6EF72BEDD70401080E096F400E081761
:102C3000087D880E08130101F751E552E7CFD9FF4F
:102C40001200E76EFD0EDBCFE9FFFE0EDBCFEAFFE1
:102C5000E750E926000EEA2212000101020EEC6F95
:022C6000120060
:0E2C62001C8833EC14F01C9812001C8833EC14
:102C700014F00101020EEC6F0101500EED6F040E15
:102C8000EE6F0101E8931C981200D9CFE6FFE1CF67
:102C9000D9FF020EE126DE52010EDD6EFBC1E6FF1A
:102CA00090D80101FB51300A26E0010A17E0030A1F
:102CB00024E1010EE66E85D84BC1E6FF82D84CC1F7
:102CC000E6FF7FD8DF6A200EDF5C21E2DF500101E2
:102CD000F76A4B25F66E4C5188D8F5D77CD8DF6A59
:102CE000200EDF5C14E2DF500101F76A0525F66E65
:102CF00006517BD8F5D76FD80AD0E66A62D8DF6A6A
:102D00003E0EDF5C04E2E6685CD8DF2AF9D7400EAD
:102D10000101A55D05E2E66A54D80101A52BF7D7AC
:102D2000010EDB50146E020EE15C02E2E16AE55234
:102D30004CD0D9CFE6FFE1CFD9FF040EE126DE5219
:102D4000010EDD6EA7C1FBF10101A751320A2CE093
:102D5000030A09E0010A2CE1A9C105F1AAC106F1A3
:102D600041EC18F025D0A9C105F1AAC106F1DF6A2E
:102D7000200EDF5C14E2050EDF24EA6AA60FE96E7E
:102D8000010EEA22EF50E66EDF50EA6A070FE96EA5
:102D9000010EEA22E552E750EF6EDF2AE9D7E66A34
:102DA00016EC18F0E55204D0A9C14BF1AAC14CF1C0
:102DB000010EDB50146E040EE15C02E2E16AE552A2
:102DC00004D007EC15F0E5521200E16E1450E55204
:102DD000E7CFD9FF1200010EE66EF3DF05C1E6FF73
:102DE000F0DF06C1E6FFE1EF16F0F7220800F5502C
:082DF000E66EE7DFDF2A1200A6
:082DF80012011001000000406F
:102E0000AE09304410000102030109022200010151
:102E100000A0320904000001030000000921100194
:102E20000001227C0007058103080028040309042F
:102E300018034A006F006500000000000000000059
:102E400000000000000000002C034D004900440079
:102E500049002000440065007600690063006500B9
:102E60002000000000000000000000000000000042
:102E7000000000002203360039003100320030002B
:102E8000360030004200200000000000000000007A
:102E900000000000000006FFFF0901A10175089570
:102EA0000126FF001500859609C0B102752085B482
:102EB00009D2B1027510859709C1B10275088598CC
:102EC00009C2B1027510859909C3B102859C09D464
:102ED000B1027510859D09D5B102859B09C5B10266
:102EE000752085AF09E9B10285AF09E981A27600B5
:102EF0000285B009EAB102752085C209D6B1028502
:102F00009A09C4B1027508953F852C09040904B1DA
:102F100002C00A2E0A2E2C2E302E482E742E6A2A1B
:102F20000001020304050506070708080909090A44
:102F30000A0A0B0B0B0B0C0C0C0C0C0C0D0D0D0DD5
:102F40000D0D0D0E0E0E0E0E0E0E0E0F0F0F0F0F9F
:102F50000F0F10101010101010111111111112126A
:102F60001212121313131313141414141415151529
:102F700015151616161617171717181818181919E1
:102F800019191A1A1A1A1B1B1B1C1C1C1C1D1D1D8F
:102F90001E1E1E1F1F1F202020212121222223232D
:102FA00023242425252626262727282829292A2AB6
:102FB0002B2C2C2D2D2E2E2F303031323233343419
:102FC0003536373738393A3B3B3C3D3E3F4041424E
:102FD000434445464748494A4B4C4D4E4F50515249
:102FE000535455565758595A5B5C5D5E5F60616239
:102FF000636465666768696A6B6C6D6E6F70717229
:10300000737475767778797A7B7C7D7E7FFFFFFF9E
:10301000FFFFFFFFFFFFFFFFFFFFFFFFFFFFFFFFC0
:10302000550EA76EAA0EA76EA68212004CD8E652C5
:10303000E00E01010517840EA66EFE0EDB50DF6E5A
:10304000FE0EDB50200FDF5C1AE2DF50EA6A070F4A
:10305000E96E010EEA22EFCF14F0DF500101F76AAA
:103060000525F66E0651F722F86A14C0F5FF0C002C
:103070001F0EDF141F0801E1D3DFDF2AE1D7E5527D
:1030800027D0940EA66E05C1F6FF06C1F7FFF86AB9
:10309000C7DFF86A120017D8A66AFE0EDB50A96EC9
:1030A000A680A85015D00FD8A6A202D0000E0AD034
:1030B000FE0EDB50A96EFD0EDB50A86E040EA66E50
:1030C000AFDF010E05D0D9CFE6FFE1CFD9FF120067
:0830D000E552E7CFD9FF120021
:0830D800DACFE4FFE2CFDAFFDA
:1030E000E9CFE4FFEACFE4FFF6CFE4FFF7CFE4FF58
:1030F000F5CFE4FFF3CFE4FFF4CFE4FFFACFE4FF32
:1031000000EE00F0140EE80403E3EECFE4FFFBD77B
:1031100000EE14F0080EE80403E3EECFE4FFFBD763
:10312000E6529EA20AD09E920101512B040E515DDF
:1031300004E1516B1D80DDEC12F0E55200EE1BF056
:10314000080EE80403E3E5CFEDFFFBD700EE13F034
:10315000140EE80403E3E5CFEDFFFBD7E5CFFAFF5C
:10316000E5CFF4FFE5CFF3FFE5CFF5FFE5CFF7FFC0
:10317000E5CFF6FFE5CFEAFFE5CFE9FFE5CFDAFFE0
:0231800011003C
:0E318200D9CFE6FFE1CFD9FF050EE1269EBAB8
:1031900013D00101A3510101A45D02E13ED81DD06D
:1031A0009EA81BD0A451EA6A9B0FE96E010EEA2289
:1031B000EF50AD6EA42B11D0AB50020B03E1AB501E
:1031C000040B09E0AB98010EAECFDBFFAECFDBFF07
:1031D000AB881C9202D0AE50DF6E050EE15C02E2BD
:1031E000E16AE552E16EE552E7CFD9FF1200D9CF8F
:1031F000E6FFE1CFD9FF080E0101A35D0AE2A3516A
:10320000EA6A9B0FE96E010EEA22FE0EDBCFEFFFAA
:10321000A32BE552E7CFD9FF12000101A36B0101F7
:04322000A46B120089
:0C32240003EC1AF0896A8A6A8B6A8C6AD3
:103230008D6A010E926E100E936EF80E946E956A62
:10324000020E966E0101050E4D6FE60EAC6E900EED
:10325000AB6E3F0EAF6EB06A400EC26E0E0EC16E08
:10326000060EC06EF26A800EF16ED08ED76AD66AF4
:10327000D56ACC6AF90ECB6E0D0ECA6E020E9D6E2B
:10328000F28E140E6F6E0101E76B0101E86B010114
:04329000E96B1200D4
:0C329400D9CFE6FFE1CFD9FFFE0EDB50E2
:1032A000A96EA69EA69CA680A850E552E7CFD9FF9E
:1032B0001200D9CFE6FFE1CFD9FFFE0EDB50A96E99
:1032C000FD0EDB50A86EA69EA69CA684F29E550E0F
:1032D000A76EAA0EA76EA6820400A6B2FDD7F28E34
:0A32E000A694E552E7CFD9FF1200D3
:0632EA000101522B0A0E47
:1032F000525D1CE1526B1D821D8E1D8A1E820101D2
:10330000542B040E545D02E1546B1E800101552BB9
:10331000020E555D01E1556B0101532B640E535DA7
:0E33200005E1536B1FA202D0A6EC13F01200C1
:02332E0008C0D5
:1033300012F008500D02F4CF07F0F3CF06F0095059
:103340000E02F4CF09F0F3CF08F00D02F350072678
:10335000F4500822E86A092212500E02F3500726A0
:0A336000F4500822E86A0922000C6C
:06336A00D9CFE6FFE1CF20
:10337000D9FFE6521D92010EE66E39EC0CF0E552D3
:10338000F76A200FF66E2F0EF7220800F550DF6E59
:10339000FF0EDF5C02E0DFCF50F1E552E552E7CFF0
:0433A000D9FF12003F
:0C33A4003F065B4F666D7D077F67777CFE
:1033B000585E79716F74061E003800545C73E750D4
:0833C0006D071C1C00766E5B1A
:0833C80017EE00F027EE00F003
:1033D000F86A019CEA6AE96A0400EE6AEAA6ECEF80
:0A33E00019F015EC05F0FDD71200FE
:0633EA00056A080EE76E03
:1033F000D890093605360E50055C02E3056E092AA1
:06340000E72EF7D71200D1
:0A340600EA6AE96A0400EE6AEAA629
:04341000FCD71200D3
:03341400000000B5
:1049000004000000000000000000000000000000A3
:104910000000000000000000000000000000000097
:104920000000000000000000000000000000000087
:104930000000000000000000000000000000000077
:10494000534F43311314030200000000051BB00055
:10495000534F43320204050000000000031B000017
:10496000524F45203C2F021800000000031B00009E
:10497000455320205101031500000000051B900045
:104980000300020000000100000000000000000021
:104990000000000000000000000000000000000017
:1049A0000000000000000000000000000000000007
:1049B00000000000000000000000000000000000F7
:1049C00000000000000000000000000000000000E7
:00000001FF
