:020000040000FA
:0600000097EF0EF0120064
:060A0000A5EF0FF012004B
:020A2A000000CA
:040A2C00D9CFE6FF39
:100A3000E1CFD9FF110EE1260201C2690201C3B95B
:100A400011D0C3910201BB5102E00EEF09F0020187
:100A5000C395C3970201040EBB6FD70EDE6E020E64
:100A6000DD6E07D00201010EC46FCC0EDE6E020EE9
:100A7000DD6E0201C351100B04E1030E0201D45DCF
:100A800009E00201C351100B01E105D20401110577
:100A900001E001D20201C351100B03E00401125125
:100AA00002D00201D651B40A01E1DCD1040A01E10D
:100AB00096D11F0A01E15BD1340A01E14DD1060A4A
:100AC00001E134D1010A01E11DD1050A01E104D19E
:100AD000010A01E1E6D00F0A01E1CDD0010A01E1EE
:100AE000BFD0BC0A01E18ED0480A5DE0490A5BE054
:100AF000020A2AE0240A05E0030A03E0260A01E0CC
:100B0000C9D10201050EC26F0201160EDE6F02018D
:100B1000C3A905D0020EE66E8BDBE552BCD1040EF4
:100B20000201DE250201BB6F040EBB5D0201D6256A
:100B30007E0F050F0201C16F0201C385C387C39FEA
:100B40000201460EBF6FA7D10201050EC26F02015E
:100B5000110EDE6F0201C3A905D0030EE66E68DB3D
:100B6000E55299D1040E0201DE250201BB6F040E8D
:100B7000BB5D0201D6257E0F050F0201C16F020188
:100B8000C385C397C38FD950070FE96EDACFEAFF49
:100B9000980EEE6E1C0EED6E080EDBCFC0F2070E47
:100BA000DBCFBFF278D10201050EC26F02010C0E3D
:100BB000DE6F0201C3A905D0010EE66E39DBE552F6
:100BC0006AD1040E0201DE250201BB6F040EBB5D7B
:100BD0000201D6257E0F050F0201C16F0201C385F8
:100BE000C397C39FD950070FE96EDACFEAFF480ECB
:100BF000EE6E1C0EED6E080EDBCFC0F2070EDBCFE3
:100C0000BFF249D10201050EC26F0201DE6F02017F
:100C1000C3A905D0040EE66E0BDBE5523CD1040EF1
:100C20000201DE250201BB6F040EBB5D0201D62569
:100C30007E0F050F0201C16F0201C385C397C39FD9
:100C4000D950070FE96EDACFEAFF620EEE6E1C0E86
:100C5000ED6E080EDBCFC0F2070EDBCFBFF21BD16B
:100C60000201050EC26FA0A805D0010EC26FE66892
:100C7000DFDAE55210D10201050EC26FC5C2E6FFF0
:100C8000D7DAE552C6C2E6FFD3DAE55209D002014F
:100C9000010EC26FE668CCDAE552E668C9DAE552C1
:100CA000FAD00201050EC26F040EC7C2DBFF050EAB
:100CB000C8C2DBFF040EDBCFE9FF050EDBCFEAFF86
:100CC000EF50E66EB5DAE55206D00201010EC26FB2
:100CD000E668AEDAE552DFD00201050EC26FC7C288
:100CE000E6FFA6DAE552C8C2E6FFA2DAE55209D06D
:100CF0000201010EC26FE6689BDAE552E66898DAF7
:100D0000E552C9D00201050EC26FC9C2F6FFCAC2C0
:100D1000F7FF0800F550E66E8BDAE55206D00201C7
:100D2000010EC26FE66884DAE552B5D00201050E05
:100D3000C26FC9C2E6FF7CDAE552CAC2E6FF78DAC2
:100D4000E55209D00201010EC26FE66871DAE55280
:100D5000E6686EDAE5529FD00201050EC26F030EFF
:100D6000E66E66DAE552E66A63DAE55294D002018D
:100D7000050EC26FA0C0E6FF5BDAE5520001A0518C
:100D8000E96EEA6AD890E936EA36030EE926010EE2
:100D9000EA22EF50E66E4CDAE5520001A051E96E0E
:100DA000EA6AD890E936EA36030EE926010EEA220D
:100DB000EE52EF50E66E3CDAE552E66A39DAE55279
:100DC0000001A02BA051026E036AD890035004E6E4
:100DD000C80E025C000E035801E3A0695CD002015A
:100DE000050EC26FA0C0E6FF23DAE552030EDB6AF0
:100DF0001E0EF36E030EDBCFF4FFF350F45C24E21F
:100E00000001A051E96EEA6AD890E936EA36030E8D
:100E1000E926010EEA22EF50E66E0ADAE5520001F9
:100E2000A051E96EEA6AD890E936EA36030EE9265F
:100E3000010EEA22EE52EF50E66EFAD9E5520001B9
:100E4000A02B030EDB2AD4D70001A051026E036A47
:100E5000D890035004E6C80E025C000E035801E36C
:100E6000A06919D00201050EC26FA0B804D0F29E8D
:100E7000F29C11D00FD0010EC26FE668D9D9E552AD
:100E8000E668D6D9E552E668D3D9E552E668D0D906
:100E9000E55201D000D00201C351100B04E1040E51
:100EA0000201D45D0AE00201C351100B01E15FD1E0
:100EB000090E0401115D01E05AD10201C351100B6A
:100EC00003E00401125102D00201D651B40A01E13B
:100ED0001ED1290A01E1EFD0010A01E1E0D0060AA2
:100EE00001E183D0030A59E0010A41E00F0A13E04F
:100EF000010A01E03CD10201020EC26FA0A802D09B
:100F0000010EC26FDECFE9FFDDCFEAFFEF50E66EE4
:100F10008FD9E5522CD10201020EC26FDECFE9FF5C
:100F2000DDCFEAFFEFCFC5F2DECFE9FFDDCFEAFF8D
:100F3000010EE926000EEA22EFCFC6F203D002012D
:100F4000010EC26FDECFE9FFDDCFEAFFEF50E66EA4
:100F50006FD9E552DECFE9FFDDCFEAFF010EE926CA
:100F6000000EEA22EF50E66E63D9E55200D102018D
:100F7000020EC26FDECFE9FFDDCFEAFFEF50C7C23E
:100F8000E9FFC8C2EAFFEF6EDECFE9FFDDCFEAFF7F
:100F9000EF50E66E4DD9E552EAD00201020EC26F63
:100FA000DECFE9FFDDCFEAFFEFCFC7F2DECFE9FF0B
:100FB000DDCFEAFF010EE926000EEA22EFCFC8F2EC
:100FC000DECFE9FFDDCFEAFFEF50E66E31D9E55223
:100FD000DECFE9FFDDCFEAFF010EE926000EEA22AF
:100FE000EF50E66E25D9E552C2D00201020EC26F63
:100FF000DECFE9FFDDCFEAFFEF50420823E1DECF8D
:10100000E9FFDDCFEAFF010EE926000EEA22EF50EC
:10101000190818E1DECFE9FFDDCFEAFF020EE9266D
:10102000000EEA22EF506E080DE1DECFE9FFDDCFC2
:10103000EAFF030EE926000EEA22EF50860802E1DD
:101040000201C38DDECFE9FFDDCFEAFFEF50E66E90
:10105000EFD8E552DECFE9FFDDCFEAFF010EE9264A
:10106000000EEA22EF50E66EE3D8E552DECFE9FF4C
:10107000DDCFEAFF020EE926000EEA22EF50E66E0F
:10108000D7D8E552DECFE9FFDDCFEAFF030EE92630
:10109000000EEA22EF50E66ECBD8E55268D002018E
:1010A000010EC26FDECFE9FFDDCFEAFFEF50E66E43
:1010B000BFD8E5525CD00201020EC26FDECFE9FF5D
:1010C000DDCFEAFFEFCFC9F2DECFE9FFDDCFEAFFE8
:1010D000010EE926000EEA22EFCFCAF203D0020188
:1010E000010EC26FDECFE9FFDDCFEAFFEF50E66E03
:1010F0009FD8E552DECFE9FFDDCFEAFF010EE926FA
:10110000000EEA22EF50E66E93D8E55230D002018D
:10111000020EC26FDECFE9FFDDCFEAFFEF50E66ED1
:1011200087D8E552DECFE9FFDDCFEAFF010EE926E1
:10113000000EEA22EF50E66E7BD8E552DECFE9FFE3
:10114000DDCFEAFF020EE926000EEA22EF50E66E3E
:101150006FD8E552DECFE9FFDDCFEAFF030EE926C7
:10116000000EEA22EF50E66E63D8E55200D002018D
:10117000C3A913D0FF0E0201C25D01E14FD0090ED9
:101180000401115D01E14AD012C418F40201C451F6
:101190000001AB6FAC6B42D040D002017E0EDC6F21
:1011A000C2C2DDF2D6C2DFF20201C3B505D0030E22
:1011B0000201BB5D0201DE6F0201C3B528D002014E
:1011C000BB51020824E2030EDB6A020EDB6ABB514C
:1011D000F36E020EDBCFF4FFF350F45C12E2020E6A
:1011E000DB50EA6ADC0FE96E020EEA22030EDBCF67
:1011F000E7FFEF50E726030EE7CFDBFF020EDB2A07
:10120000E6D7030EDBCFE6FF13D8E55207D0020185
:10121000C3930201BE6B0201BD6B00D0110EE15CF5
:1012200002E2E16AE552E16EE552E7CFD9FF120032
:10123000D9CFE6FFE1CFD9FF0201C3B910D0090E23
:101240000201BB5D01E31AD0BB51EA6ADC0FE96E13
:10125000020EEA22FE0EDBCFEFFFBB2B0FD0400EBB
:101260000201C45D01E30AD0C451EA6A180FE96EB5
:10127000040EEA22FE0EDBCFEFFFC42BE552E7CFD0
:0E128000D9FF12000201BB6B0201BC6B120011
:02128E00040159
:101290001051600BE842E842E842E842E8420009A7
:1012A00001E04FD01151070A4BE00B0A49E0070A51
:1012B0003AE0010A28E00B0A24E0020A22E0030ACD
:1012C0001EE0080A11E0010A0DE00F0A09E0030A16
:1012D00001E036D00001010EA66F040EA16F31D0DF
:1012E00031D82FD090D82DD00001010EA66FA30EBB
:1012F000A76F000EA86FA293010EAB6F22D0A9D8E2
:1013000020D0F1D81ED00001010EA66F04011451A7
:101310000001A76FA86BA40EA727000EA823A29315
:10132000010EAB6F0ED00001010EA66F0401145127
:10133000EA6AA40FE96E000EEA2212C4EFFF01D0A0
:1013400000D01200800E0401105D5CE11351030A0D
:1013500032E0010A0EE0030A01E04BD00001010E69
:10136000A66F100EA76F1C0EA86F120EAB6FAC6BA2
:1013700040D00001010EA66F04011251F66EF76A0B
:10138000D890F636F7361D0EF6261D0EF722090008
:10139000F5CFA7F00A00F5CFA8F0020E0001F76A1A
:1013A000A725F66EA851F7220900F5CFABF00A0089
:1013B000F5CFACF01ED00001010EA66F0401125152
:1013C000F66EF76AD890F636F736210EF6261D0E21
:1013D000F7220900F5CFA7F00A00F5CFA8F0A7C0C3
:1013E000F6FFA8C0F7FF0800F5500001AB6FAC6B2B
:1013F00000D0020E0401125D05E0030E125D02E052
:101400000001A28312000001010EA66F0F0EE66E0E
:10141000710EE66E0F0EE66EC9DAE552E552E55240
:10142000010EE66EA40EE66E000EE66EBFDAE55221
:10143000E552E55212C4A3F00401125104E1000187
:10144000050EA16F05D00001060EA16F78EC0DF01E
:1014500012000401186B196B10511F0B020A14E0E3
:10146000030A0EE0010A01E033D00001010EA66F6D
:10147000040118810001A2A102D00401188328D020
:101480000001010EA66F24D00001010EA66F040119
:1014900014510F0B080DF350036A000F026E040E77
:1014A00003221451800B01E0010E040DF3500001E2
:1014B0000224A96F000E0320AA6FA9C0E9FFAAC0E9
:1014C000EAFFEF50040B03E00401010E186F00D097
:1014D0000001A60507E1180EA76F040EA86FA293DE
:1014E000020EAB6F12000401120510E110511F0B28
:1014F00000090CE10001010EA66F030E0401115D4D
:1015000003E10001A28102D00001A2910401125165
:101510003AE110511F0B020836E114510F0B00097C
:1015200032E00001010EA66F040114510F0B080DEB
:10153000F350036A000F026E040E03221451800B55
:1015400001E0010E040DF35000010224A96F000E0A
:101550000320AA6F030E0401115D07E1840EA9C0E8
:10156000E9FFAAC0EAFFEF6E0ED014AF06D0A9C003
:10157000E9FFAAC0EAFFEF6A06D0880EA9C0E9FF1A
:10158000AAC0EAFFEF6E12006C500BE1040100519B
:101590003C0BE842E8420D0802E108D801D03BD8F4
:1015A00004D0040E6C5C01E146D81200D9CFE6FFEE
:1015B000E1CFD9FFE6520001A56BA66BAB6BAC6B1C
:1015C00066DEDF6ADF50026E036A010E025C000E07
:1015D00003581BE20001A65101E017D0F76ADF347F
:1015E000FE0BF736F66E2B0EF6261D0EF7220900BF
:1015F000F5CF02F00800F5CF03F004D003C0FAFFE6
:101600000250F96EFBDFDF2ADDD7DFD8E552E55265
:10161000E7CFD9FF1200020E0001A55D0AE198D8BC
:10162000040100BD03D0C80E006F02D0880E006F09
:1016300001D00ED91200040E0001A15D0AE112C40E
:101640006EFF6E50000803E2050EA16F02D0030E7C
:10165000A16FA5050AE111D8040104BD03D0C80E8D
:10166000046F02D0880E046F07D0090E0401115DCB
:1016700002E124EC0FF0ECD81200D9CFE6FFE1CF65
:10168000D9FF020EE1260001080EAB5D000EAC5939
:1016900005E2ABC0DEFFACC0DDFF03D0080EDE6E9E
:1016A000DD6A040104930491010EDB500413DFCFC3
:1016B00005F4000EDB500001AB5F010EDB50AC5BAC
:1016C000180EA96F040EAA6FA2A31DD0D9CFE9FFEF
:1016D000DACFEAFFEE50ED1015E0A7C0F6FFA8C084
:1016E000F7FF0800F550A9C0E9FFAAC0EAFFEF6EB6
:1016F000A92B000EAA23A72BA823DF06010E01E2C7
:10170000DB06E4D71BD0D9CFE9FFDACFEAFFEE50F2
:10171000ED1014E0A7C0E9FFA8C0EAFFEF50A9C090
:10172000E9FFAAC0EAFFEF6EA92B000EAA23A72BA0
:10173000A823DF06010E01E2DB06E5D7020EE15C1D
:1017400002E2E16AE552E16EE552E7CFD9FF12000D
:10175000D9CFE6FFE1CFD9FF020EE126030E040147
:101760000015E76E010EE7CFDBFF01C4DFFFDE509F
:101770000001AB27DD50AC23180EA76F040EA86F35
:10178000D9CFE9FFDACFEAFFEE50ED1014E0A7C0A1
:10179000E9FFA8C0EAFFEF50A9C0E9FFAAC0EAFF2D
:1017A000EF6EA92B000EAA23A72BA823DF06010E9C
:1017B00001E2DB06E5D7020EE15C02E2E16AE552F6
:1017C000E16EE552E7CFD9FF12000001A6510BE10F
:1017D0000401080E016F100E026F040E036F840ED9
:1017E000006F046F33D0040110AF21D00001AB5162
:1017F0000401165D0001AC510401175904E216C43E
:10180000ABF017C4ACF039DF0001010EA56F040185
:10181000080E016F100E026F040E036F800E006F32
:10182000180E066F040E076FC80E046F0FD000016C
:10183000020EA56F0401056BC80E046F080E016F40
:10184000180E026F040E036FC80E006F6D98120021
:101850000001A56B0401080E016F100E026F040E4B
:10186000036F880E006F046B12006DA60FD802D0B4
:101870006DB613D80001A10508E16DBA06D0686AFB
:10188000696A69806988020EA16F12006D6A696ACF
:101890006D860001010EA16F12006D6A696A000178
:1018A000A16B12004DEF0CF00001A15101E139D004
:1018B0006850040B04E06950040B01E038D86DB2A5
:1018C00030D06850010B04E06950010B01E04FD8A3
:1018D0006850100B04E06950100B01E023D86850E9
:1018E000400B04E06950400B01E037D86850200BF2
:1018F00004E06950200B01E032D86850020B04E08C
:101900006950020B01E031D8030E0001A15D01E234
:1019100008D06850080B05E06950080B02E034DE7F
:1019200068961200698468986D82A19A12006D927F
:101930006994689412000001A2A10ED0F8DF6D84B2
:101940000001080EAD6F070EAE6FAD07000EAE5B67
:10195000AD51AE11FAE16D941200689C120070A0B6
:1019600002D076DF7090689A1200689212006A6A5C
:10197000686A9F0E6B6E7B0E696E6E6A0F0EE66E66
:10198000710EE66E0F0EE66E11D8E552E552E55285
:10199000160E706E68A602D06896FCD76D9858DF58
:1019A0000001A291A36B030EA16F1200D9CFE6FF35
:1019B000E1CFD9FFFD0EDBCFE9FFFE0EDBCFEAFF63
:1019C000FC0EDB5004E0EE6AFC0EDB06F9D7E552B4
:0619D000E7CFD9FF120071
:0A19D600040110511F0B010801E08D
:1019E00086D0145101E083D0060E115D2EE1135113
:1019F000230A28E0010A13E0030A01E024D00001D1
:101A0000020EA66F0001A30505E10001340EA76FC9
:101A10001C0EA86F090E0001AB6FAC6B14D0000157
:101A2000020EA66F0001A30505E10001B80EA76F25
:101A30001C0EA86F0001A30504E1650E0001AB6F49
:101A4000AC6B01D000D00001A28304011051600BE7
:101A5000E842E842E842E842E842010801E047D0B3
:101A600011510B0A3EE0080A2EE0090A26E0080A96
:101A700016E00B0A06E0080A01E039D02BEC0FF063
:101A800036D00001CB0EA96F020EAA6F0001A293FF
:101A90000001AB6BAC6B0001020EA66F28D00001F9
:101AA000020EA66F0001AF0EA76F000EA86F000117
:101AB000A2930001010EAB6F1AD00001020EA66FB7
:101AC00013C4AFF014D00001020EA66F0001B00ED7
:101AD000A76F000EA86F0001A2930001010EAB6F6B
:101AE00006D00001020EA66F12C4B0F000D01200A2
:101AF0000001B16B1E0E716E0401080E096F580EC5
:101B00000A6F040E0B6F880E086F0401600E0E6FD3
:101B1000040E0F6F400E0C6F1200D9CFE6FFE1CF1D
:101B2000D9FFE652FC0EDB50080805E2080EF36E02
:101B3000FC0EF3CFDBFFDF6AFC0EDB50DF5C19E24B
:101B4000DF50E76EFD0EDBCFE9FFFE0EDBCFEAFFD5
:101B5000E750E926000EEA22EF50E66EDF50EA6A0F
:101B6000600FE96E040EEA22E552E750EF6EDF2ABD
:101B7000E3D7FC0EDBCF0DF4400E04010C170C7DF7
:101B8000880E0C13E552E552E7CFD9FF1200D9CFEA
:101B9000E6FFE1CFD9FF0001B16B040108BF31D0EE
:101BA000FC0EDBCF02F00951D880025403E2FC0E98
:101BB00009C4DBFF0001B16BFC0EDB50B15D19E223
:101BC000B151EA6A580FE96E040EEA22EF50E66E50
:101BD000B151E76EFD0EDBCFE9FFFE0EDBCFEAFF72
:101BE000E750E926000EEA22E552E750EF6EB12BEE
:101BF000E3D70401080E096F400E0817087D880E10
:101C000008130001B15100D0E552E7CFD9FF12000F
:101C10001201100100000008AE0929441000010261
:101C2000030109022200010100A0320904000001A1
:101C30000300000009211001000122650007058151
:101C4000030800280403090418034A006F00650014
:101C50000000000000000000000000000000000084
:101C60000A0350006200410043002C034A006F0049
:101C70006500192073002000530063006F0070009E
:101C800065002000000000000000000000000000CF
:101C9000000000000000220336003900310032004D
:101CA000300036003000410020000000000000003D
:101CB000000000000000000006FFFF0901A10175FF
:101CC00008950126FF001500859609C0B102752010
:101CD00085B409D2B1027510859709C1B1027508A2
:101CE000859809C2B1027510859909C3B102859C16
:101CF00009D4B1027510859D09D5B102859B09C52E
:101D0000B10285AF09E9B10285AF09E981A2752069
:101D100085C209D6B102859A09C4B102C0221C222B
:0D1D20001C441C481C6A1C961C601CD61933
:021D2E00D9CF0B
:101D3000E6FFE1CFD9FF020EE126966A956ABF0E53
:101D4000946EA60EAC6E900EAB6E400EC26E090E77
:101D5000C16E860EC06E100EAF6E010EB06E140E08
:101D60006F6E0001A16B0001A26B0001A36B010E5D
:101D7000E66E4BD8E5520101006F00C18CFF550E95
:101D80008D6EDE52AA0EDD6EDF6ADF50026E036AD0
:101D9000D890035004E6DC0E025C000E035819E2F2
:101DA000010EE66E32D8E552C3CF01F1C4CF02F185
:101DB000EA6ADF34FE0BEA36E96E030EE926010E0D
:101DC000EA2201C1EEFF02C1EDFF8D1C8D6EDF2AFC
:101DD000DCD70001A06B31D8010EE66E16D8E552B3
:101DE0000001A051026E036AFF0E021801E10350C8
:101DF000F2E1CAD7BCD7020EE15C02E2E16AE55229
:101E0000E16EE552E7CFD9FF1200D9CFE6FFE1CF6F
:101E1000D9FFE652FE0EDB50C26E0A0EDF6EDF50B7
:101E200002E0DF06FCD7C282C2B2FED7C45000D0A7
:101E3000E552E552E7CFD9FF120035EC0CF06FBE4A
:081E400002D054EC0CF012007A
:081E48000201C38916EC05F04C
:101E50000201C39912000201C38916EC05F00001CA
:101E6000020EA66F0001180EA76F040EA86F0001E6
:101E7000A2930201C3991200D9CFE6FFE1CFD9FFA7
:101E8000040EE1260201C39B0001B00E606FA0C0EA
:101E900061F0020EDB6A030EDB6A1E0EF36E030EA8
:101EA000DBCFF4FFF350F45C34E2030EEA6ADB3478
:101EB000FE0BEA36E96E030EE926010EEA22EF5028
:101EC000E66E020EDB50EA6A600FE96E000EEA224F
:101ED000E552E750EF6E020EDB2A030EEA6ADB34AE
:101EE000FE0BEA36E96E030EE926010EEA22EE52F7
:101EF000EF50E66E020EDB50EA6A600FE96E000EEC
:101F0000EA22E552E750EF6E020EDB2A030EDB2ACF
:101F1000C4D7DE52400EDD6E04010CBF0CD0010EA2
:101F2000DBCFE6FF600EE66E000EE66E8DEC0DF088
:101F3000E552E552E552040EE15C02E2E16AE55247
:0A1F4000E16EE552E7CFD9FF120071
:061F4A0017EE00F027EE87
:0E1F500000F0F86A019C97EC0EF0FDD712002D
:020000040030CA
:0100000031CE
:010001000EF0
:0100020036C7
:010003000EEE
:010005008179
:010006008178
:010008000FE8
:01000900C036
:01000A000FE6
:01000B00E014
:01000C000FE4
:01000D0040B2
:00000001FF
