:020000040000FA
:0600000015EF05F01200EF
:06000800A6EF1CF012003F
:060A0000DEEF1CF0120005
:060A0800A6EF1CF0120035
:060A2A00D9CFE6FFE1CF89
:100A3000D9FF050EE12647EC1CF0200EDF6EDE52DA
:100A4000700EDD6E610EF36E020EF3CFDBFF720EE1
:100A5000F36E030EF3CFDBFF630EF36E040EF3CFE2
:100A6000DBFFD9CFE6FFDACFE6FF9BEC18F0E552CB
:100A7000E552AA0EE66E19EC16F0E552000EF66E7F
:100A8000400EF76E0800F550DF6E010EF66E400E58
:100A9000F76E0800010EF5CFDBFF0101AA0E736FA0
:100AA000550E746F730EE66E010EE66E000EE66E66
:100AB000400EE66E12EC17F0E552E552E552E552B3
:100AC000000EF66E400EF76E0800F550DF6E010E58
:100AD000F66E400EF76E0800010EF5CFDBFF010148
:100AE00000A106D041EC16F005EC18F0CEEC1BF09E
:100AF0000BD8F5D7050EE15C02E2E16AE552E16E42
:100B0000E552E7CFD9FF1200A9EC11F06FBE02D079
:060B1000C8EC11F0120018
:0A0B16000100D5390000D7010000EE
:040B200022000000AF
:0C0B2400D9CFE6FFE1CFD9FFE652030E67
:100B3000DF6E0A0E106E10C00CF0FE0EDBCF07F059
:100B4000D0EC1CF00350300FE66EDF50DF06E76E8E
:100B5000FC0EDBCFE9FFFD0EDBCFEAFFE750E92615
:100B6000000EEA22E552E750EF6E0A0E106E10C03A
:100B70000CF0FE0EDBCF07F0D0EC1CF0FE0E07C031
:100B8000DBFF07500008D5E3DF50000810E2DF501C
:100B9000E76EFC0EDBCFE9FFFD0EDBCFEAFFE7508F
:100BA000E926000EEA22200EEF6EDF06EDD7DF50B9
:100BB000E76EFC0EDBCFE9FFFD0EDBCFEAFFE7506F
:100BC000E926000EEA22200EEF6EE552E552E7CF4D
:100BD000D9FF1200D9CFE6FFE1CFD9FF040EE126FD
:100BE000D9CFE6FFDACFE6FF0101C829E66E9ADF2A
:100BF000E552E552E552500EDF6ED9CFE6FFDACF6F
:100C0000E6FFD6EC18F0E552E552EEC1DAF1EFC19D
:100C1000DBF1040EE15C02E2E16AE552E16EE552CD
:100C2000E7CFD9FF1200D9CFE6FFE1CFD9FFC8C186
:100C3000E6FFD7C1E6FF0C0EE66EF5EC17F0E552C5
:100C4000E552E552FE0EDB5001E0C4DFE552E7CF8E
:100C5000D9FF1200D9CFE6FFE1CFD9FF0101C95179
:100C6000EA6AB30FE96E010EEA22EFCFC8F1FE0E79
:100C7000DBCFE6FFD8DFE5520101C951E66EE66A37
:100C800086EC17F0E552E552E552E7CFD9FF1200A6
:100C90000101CA29E66E11EC19F0E5521200D9CF14
:100CA000E6FFE1CFD9FFCBC1CDF1CCC1CEF101013F
:100CB000CA51EA6ABB0FE96E010EEA22EFCFC9F111
:100CC000FE0EDBCFE6FFC6DFE552E2DFE552E7CFFF
:100CD000D9FF1200D9CFE6FFE1CFD9FFC30EE66EF0
:100CE000010EE66EBB0EE66E010EE66EB70EE66E08
:100CF000010EE66EB30EE66E010EE66EC40EE66EF3
:100D0000010EE66ECBC1E6FFCCC1E6FFD5EC17F0D5
:100D1000106E0C0EE15E10500101CA6BCA29E66E1E
:100D200011EC19F0E552FE0EDB5008E0C40EE66E41
:100D3000010EE66ED6EC18F0E552E552E552E7CF2B
:100D4000D9FF1200D9CFE6FFE1CFD9FFCFC1E6FF2F
:100D5000D0C1E6FFEDEC17F0E552E552F3CFCBF151
:100D6000F4CFCCF1FE0EDBCFE6FFB4DFE552E55267
:100D7000E7CFD9FF1200C40EE66E010EE66ECBC1BE
:100D8000E6FFCCC1E6FFE5EC17F0E552E552E5528F
:100D9000E552C40EE66E010EE66ED6EC18F0E55292
:100DA000E55212000101E65109E0D00EE66E390E5F
:100DB000E66ED6EC18F0E552E55222D0CFC1E6FF40
:100DC000D0C1E6FFEDEC17F0E552E552F3CFCBF1E1
:100DD000F4CFCCF1C40EE66E010EE66ECBC1E6FF99
:100DE000CCC1E6FFE5EC17F0E552E552E552E552DD
:100DF000C40EE66E010EE66ED6EC18F0E552E55232
:100E00001200D9CFE6FFE1CFD9FFFD0EDB50010183
:100E1000F0150001106EFE0EDB500101F11500010E
:100E2000116EFD0EDB50101803E1FE0EDB501118A1
:100E30000FE1FD0EDB500101F2150001126EFE0EF6
:100E4000DB500101F3150001136E1250131002E084
:100E5000000E01D0010E00D0E552E7CFD9FF1200FD
:100E6000D9CFE6FFE1CFD9FFFD0EDB500101F01530
:100E70000001106EFE0EDB500101F1150001116E34
:100E8000FD0EDB50101803E1FE0EDB50111802E0DE
:100E9000000E01D0010E00D0E552E7CFD9FF1200BD
:100EA000D9CFE6FFE1CFD9FFFD0EDB500101F215EE
:100EB0000001106EFE0EDB500101F3150001116EF2
:100EC000FD0EDB50101803E1FE0EDB5011180FE190
:100ED000FD0EDB500101F0150001126EFE0EDB501D
:100EE0000101F1150001136E1250131002E0000E03
:100EF00001D0010E00D0E552E7CFD9FF1200010169
:100F0000E4510AE00101000ED880D355000ED455FB
:100F100003E2D307000ED45B0101000ED880DE553A
:100F2000000EDF5503E2DE07000EDF5B000ED88007
:100F3000E055000EE15503E2E007000EE15B000E14
:100F4000D880DA55000EDB550CE2DA07000EDB5BC9
:100F5000DA51DB1106E10101D60502E10CDF01D017
:100F600021DF0101000ED880E255000EE35503E2B7
:100F7000E207000EE35B000ED880DC55000EDD5565
:100F800001E3BFD0E551030A67E0010A1FE0030A4D
:100F900001E0A8D0DC511F0B08E1E751E66EE66ADC
:100FA0009CEC17F0E552E55210D01F0EDC15106EC8
:100FB000116A0F0E101801E1115007E1E751E66EBA
:100FC000E66AB0EC17F0E552E5528CD0DC511F0B0D
:100FD0001DE1000EE66EE66A9CEC17F0E552E55264
:100FE000010EE66EE66A9CEC17F0E552E552020E41
:100FF000E66EE66AB0EC17F0E552E552030EE66ED7
:10100000E66AB0EC17F0E552E55225D01F0EDC156C
:10101000106E116A0F0E101801E111501CE1000E44
:10102000E66EE66AB0EC17F0E552E552010EE66EA8
:10103000E66AB0EC17F0E552E552020EE66EE66A9B
:10104000B0EC17F0E552E552030EE66EE66AB0EC3E
:1010500017F0E552E55246D0DC511F0B1DE1000EA2
:10106000E66EE66AB0EC17F0E552E552010EE66E68
:10107000E66AB0EC17F0E552E552020EE66EE66A5B
:101080009CEC17F0E552E552030EE66EE66A9CEC26
:1010900017F0E552E55225D01F0EDC15106E116ACF
:1010A0000F0E101801E111501CE1000EE66EE66A09
:1010B000B0EC17F0E552E552010EE66EE66AB0ECD0
:1010C00017F0E552E552020EE66EE66AB0EC17F054
:1010D000E552E552030EE66EE66AB0EC17F0E55213
:1010E000E55200D00101DC07000EDD5BDC51DD11B3
:1010F00008E10101C951E66EE66A86EC17F0E55297
:10110000E55212000101F85115E1D1C110F0D2C130
:1011100011F01006000E115A10500101CF1902E112
:101120001150D01903E1CF6BD06B03D0CF2B000E41
:10113000D02307D07F0E0101C85D02E1C86B01D04A
:10114000C82B12000101F85111E10101CF51D0115A
:1011500009E1D1C1CFF1D2C1D0F1010ECF5F000EB4
:10116000D05B03D0CF07000ED05B07D00101C85180
:1011700003E17F0EC86F01D0C80712000101F851CA
:1011800002E110DE01D026DD12000101F85104E178
:10119000E66AD8DDE55204D0010EE66E44DDE55284
:1011A0001200CAC1C3F1C3C1E6FFBB0EE66E010E59
:1011B000E66EB70EE66E010EE66EB30EE66E010E3B
:1011C000E66ECBC1E6FFCCC1E6FFDDEC17F0106E9A
:1011D000090EE15E10500101020EE66F320EE26F61
:1011E000E36B0101CA6B1200D4EC17F0F3CFD1F11D
:1011F000F4CFD2F10101CB6BCC6B010EE66E6ADD50
:10120000E5520101CA6B010EE66E49DDE552000EA2
:101210000101F26FF36BF06FF16BCFEC17F001018E
:10122000F56FF46FCAEC17F00101D66F120042ECB3
:1012300017F0F3CFF0F1F4CFF1F1CFEC17F001019B
:10124000F46FF551F45D16E07F0EF415E66E0101C2
:10125000C951EA6AB70FE96E010EEA22EF50E66E55
:10126000D7C1E6FF0B0EE66EFDEC17F0E552E55236
:10127000E552E552CAEC17F0000910E10101D6056C
:101280000CE1D66BCF6BD06B010EE66E5BDDE552E9
:101290000101CA6BE66A03DDE5520FD00101D651A8
:1012A0000CE1010ED66FCB6BCC6BE66E13DDE55215
:1012B0000101CA6BE66AF3DCE552000EE66EE66AEF
:1012C000A0DDE552E55200094BE00101CB51CD19FB
:1012D00002E1CC51CE1905E0010EE66EE0DCE552EC
:1012E0003FD0C305CA5D37E1D65118E1D1C110F036
:1012F000D2C111F01006000E115A1050CF1902E1A0
:101300001150D01903E1CF6BD06B03D0CF2B000E5F
:10131000D023010EE66E16DDE55217D0D1C110F0D4
:10132000D2C111F01006000E115A1050CB1902E173
:101330001150CC1903E1CB6BCC6B03D0CB2B000E3F
:10134000CC23010EE66EC6DCE5520101CA6BE66AEB
:10135000A6DCE55205D0CA2B010EE66EA0DCE552F4
:101360000101D651010A01E117D3010A02E0B6EFEB
:101370000EF00101E651020A01E1D8D2030A01E1AF
:101380003AD2010A01E007D3010EE66EE66A39DDC2
:10139000E552E55200090EE00101C96B0101F805B3
:1013A00005E11E0EDE6FDF6BF76B04D0010EE66EFB
:1013B00051DCE552020EE66EE66A23DDE552E552A7
:1013C00000090FE00101010EC96F0101F80505E1F7
:1013D0001E0EDE6FDF6BF76B04D0010EE66E3ADC9B
:1013E000E552040EE66EE66A0CDDE552E5520009B0
:1013F0000FE00101020EC96F0101F80505E11E0EA3
:10140000DE6FDF6BF76B04D0010EE66E23DCE55276
:10141000080EE66EE66AF5DCE552E55200090FE0DB
:101420000101030EC96F0101F80505E11E0EDE6F13
:10143000DF6BF76B04D0010EE66E0CDCE5520101A8
:10144000F80501E087D0DE51DF1153E1F75151E19A
:10145000010EE66EE66A04DDE552E552000918E188
:10146000020EE66EE66AFCDCE552E552000910E188
:10147000040EE66EE66AF4DCE552E552000908E186
:10148000080EE66EE66AECDCE552E552000931E052
:101490000101010EF76F0101C951EA6AB30FE96E4C
:1014A000010EEA22C8C1EFFFC3C1E6FFBB0EE66E24
:1014B000010EE66EB70EE66E010EE66EB30EE66E38
:1014C000010EE66ECBC1E6FFCCC1E6FFDDEC17F006
:1014D000106E090EE15E1050010EE66E2AEC06F069
:1014E000E5520101010EE56FC9C1E7F1640EDC6F41
:1014F000DD6B010EE66EE66AD3DCE552E5520009CB
:1015000018E1020EE66EE66ACBDCE552E552000910
:1015100010E1040EE66EE66AC3DCE552E55200090E
:1015200008E1080EE66EE66ABBDCE552E55200090A
:1015300011E00101000ED880DE55000EDF550AE2F1
:10154000F75108E1010EE66E2AEC06F0E5520101C2
:10155000DE6BDF6B000EE66EE66A53DCE552E552A9
:1015600000090FE0000EE66EE66A7ADCE552E5520D
:10157000000907E10101E051E11103E11E0EE06FF6
:10158000E16B0101E4511BE1000EE66EE66A68DCE6
:10159000E552E552000913E0000EE66EE66A60DCF3
:1015A000E552E55200090BE10101E051E11107E1CB
:1015B0000101D36BD46BD56B0101010EE46F000EFA
:1015C000E66EE66A6DDCE552E55200090CE00101C9
:1015D000000ED880E055000EE15502E293DDCEDD2D
:1015E0000101E46BD2DD000EE66EE66A0ADCE5522C
:1015F000E55200090FE0000EE66EE66A31DCE552C6
:10160000E552000907E10101E051E11103E11E0E7D
:10161000E06FE16B0101E4511BE1000EE66EE66A4A
:101620001FDCE552E552000913E0000EE66EE66AA3
:1016300017DCE552E55200090BE10101E051E1112F
:1016400007E10101D36BD46BD56B0101040EE46F8C
:10165000000EE66EE66A24DCE552E55200090CE075
:101660000101000ED880E055000EE15502E26ADD6E
:1016700085DD0101E46B89DD000EE66EE66A01ECB2
:1016800007F0E552E552000904E01E0E0101E26F89
:10169000E36B000EE66EE66A30EC07F0E552E552C9
:1016A00000090EE00101E251E3110AE1E65108E10F
:1016B000010EE66F0101CA6B040EC96FD2EC06F091
:1016C000000EE66EE66A50EC07F0E552E5520009BE
:1016D00019E00101000ED880E255000EE35512E238
:1016E000F85109E1010EF86F030EE56F640EDC6F2F
:1016F000DD6B44DD07D0F86B020EE56F640EDC6F26
:10170000DD6B3CDD0101E45175E00101D351D411E1
:1017100071E10101E451060A66E0030A4FE0010AA3
:1017200038E0070A2FE0010A18E0030A01E062D05E
:10173000E9DC24DD0101D551D52B050809E1D56B84
:101740000101020EE46FEAC1D3F1EBC1D4F104D080
:10175000E8C1D3F1E9C1D4F14DD0D4DC0FDD0101F2
:10176000D551D52B140809E1D56B0101030EE46FA7
:10177000ECC1D3F1EDC1D4F104D0EAC1D3F1EBC196
:10178000D4F138D0BFDCFADCECC1D3F1EDC1D4F137
:1017900031D0D8DCF3DC0101D551D52B050809E1A6
:1017A000D56B0101050EE46FEAC1D3F1EBC1D4F1B1
:1017B00004D0E8C1D3F1E9C1D4F11CD0C3DCDEDC34
:1017C0000101D551D52B140809E1D56B0101060E95
:1017D000E46FECC1D3F1EDC1D4F104D0EAC1D3F18F
:1017E000EBC1D4F107D0AEDCC9DCECC1D3F1EDC163
:1017F000D4F100D0D0D0010EE66EE66A01EC07F01D
:10180000E552E55200091AE00101C95117E0C96B20
:10181000010EE66E2AEC06F0E5520101CA51CA2B10
:10182000EA6ABB0FE96E010EEA22C9C1EFFF48EC7C
:1018300006F0080E0101CA5D01E1B3DC020EE66E9E
:10184000E66A01EC07F0E552E55200091AE00101F1
:10185000C90517E0010EC96FE66E2AEC06F0E552E5
:101860000101CA51CA2BEA6ABB0FE96E010EEA22D6
:10187000C9C1EFFF48EC06F0080E0101CA5D01E1A5
:1018800090DC040EE66EE66A01EC07F0E552E552E4
:1018900000091CE0020E0101C95D18E0020EC96FCB
:1018A000010EE66E2AEC06F0E5520101CA51CA2B80
:1018B000EA6ABB0FE96E010EEA22C9C1EFFF48ECEC
:1018C00006F0080E0101CA5D01E16BDC080EE66E50
:1018D000E66A01EC07F0E552E55200091CE0030E50
:1018E0000101C95D18E0030EC96F010EE66E2AEC16
:1018F00006F0E5520101CA51CA2BEA6ABB0FE96E34
:10190000010EEA22C9C1EFFF48EC06F0080E010102
:10191000CA5D01E146DC000EE66EE66A01EC07F006
:10192000E552E552000901E03CDC35D0E251E3111B
:1019300031E10101C351CA5D0AE10101E66B010118
:10194000CA6B010EE66E4FEC06F0E55223D048EC70
:1019500006F00101CA51EA6ABB0FE96E010EEA22E4
:10196000EFCFC9F1C951E66EE66A86EC17F0E55291
:10197000E5520101C951EA6AB30FE96E010EEA228C
:10198000EFCFC8F1EAEC05F00101CA2B320E0101DC
:10199000E26FE36B00D0EAD1010EE66EE66A01EC7D
:1019A00007F0E552E552000907E00101C96B010E9D
:1019B000E66E2AEC06F0E552020EE66EE66A01ECEF
:1019C00007F0E552E552000907E00101010EC96F79
:1019D000E66E2AEC06F0E552040EE66EE66A01ECCD
:1019E00007F0E552E552000908E00101020EC96F57
:1019F000010EE66E2AEC06F0E552080EE66EE66A87
:101A000001EC07F0E552E552000908E00101030E80
:101A1000C96F010EE66E2AEC06F0E552000EE66E86
:101A2000E66A01EC07F0E552E552000921E0D1C178
:101A300010F0D2C111F01006000E115A1050010121
:101A4000CB1902E11150CC1903E1CB6BCC6B03D065
:101A5000CB2B000ECC23BBEC06F00101E46BE8C1FC
:101A6000D3F1E9C1D4F10101D56B0101010EE46F9D
:101A7000000EE66EE66A50EC07F0E552E55200090A
:101A800006E00101E46BE66A6AEC06F0E552000E3E
:101A9000E66EE66A01EC07F0E552E55200091DE04A
:101AA0000101CB51CC1109E1D1C1CBF1D2C1CCF1B3
:101AB000010ECB5F000ECC5B03D0CB07000ECC5BDE
:101AC000BBEC06F00101E46BE8C1D3F1E9C1D4F14C
:101AD0000101D56B0101040EE46F000EE66EE66AAB
:101AE00050EC07F0E552E552000906E00101E46B15
:101AF000E66A6AEC06F0E552000EE66EE66A01EC74
:101B000007F0E552E552000948E00101CB51CD193B
:101B100002E1CC51CE1906E0010EE66E4FEC06F064
:101B2000E5523BD0CA5133E1D65115E1CF51D01126
:101B300009E1D1C1CFF1D2C1D0F1010ECF5F000ECA
:101B4000D05B03D0CF07000ED05B010EE66EA2EC97
:101B500006F0E55214D0CB51CC1109E1D1C1CBF143
:101B6000D2C1CCF1010ECB5F000ECC5B03D0CB0712
:101B7000000ECC5B010EE66E6AEC06F0E552010148
:101B8000C305CA6FE66A4FEC06F0E55206D0CA07F5
:101B9000010EE66E4FEC06F0E5520101E45101E161
:101BA000E4D00101D351D41101E0DFD00101E451AF
:101BB000060A01E1C3D0030A01E19BD0010A74E0E7
:101BC000070A57E0010A2CE0030A01E0CED0D1C198
:101BD00010F0D2C111F01006000E115A1050010180
:101BE000CB1902E11150CC1903E1CB6BCC6B03D0C4
:101BF000CB2B000ECC23BBEC06F00101D551D52B2D
:101C0000050809E1D56B0101020EE46FEAC1D3F1C9
:101C1000EBC1D4F104D0E8C1D3F1E9C1D4F1A5D02E
:101C2000D1C110F0D2C111F01006000E115A10509F
:101C30000101CB1902E11150CC1903E1CB6BCC6B44
:101C400003D0CB2B000ECC23BBEC06F00101D55109
:101C5000D52B140809E1D56B0101030EE46FECC12B
:101C6000D3F1EDC1D4F104D0EAC1D3F1EBC1D4F189
:101C70007CD0D1C110F0D2C111F01006000E115A63
:101C800010500101CB1902E11150CC1903E1CB6BCB
:101C9000CC6B03D0CB2B000ECC23BBEC06F0ECC1FD
:101CA000D3F1EDC1D4F161D00101CB51CC1109E1E7
:101CB000D1C1CBF1D2C1CCF1010ECB5F000ECC5B18
:101CC00003D0CB07000ECC5BBBEC06F00101D55175
:101CD000D52B050809E1D56B0101050EE46FEAC1BA
:101CE000D3F1EBC1D4F104D0E8C1D3F1E9C1D4F10F
:101CF0003CD00101CB51CC1109E1D1C1CBF1D2C112
:101D0000CCF1010ECB5F000ECC5B03D0CB07000EF5
:101D1000CC5BBBEC06F00101D551D52B140809E1D1
:101D2000D56B0101060EE46FECC1D3F1EDC1D4F126
:101D300004D0EAC1D3F1EBC1D4F117D00101CB51EA
:101D4000CC1109E1D1C1CBF1D2C1CCF1010ECB5FF5
:101D5000000ECC5B03D0CB07000ECC5BBBEC06F0D7
:101D6000ECC1D3F1EDC1D4F100D000D0F0C1F2F15B
:061D7000F1C1F3F11200C5
:0A1D760004011051600BE842E8423E
:101D8000E842E842E842000901E04FD01151070A59
:101D90004BE00B0A49E0070A3AE0010A28E00B0A87
:101DA00024E0020A22E0030A1EE0080A11E0010A08
:101DB0000DE00F0A09E0030A01E036D00001010E30
:101DC000E56F040EE06F31D031D82FD090D82DD0F0
:101DD0000001010EE56FE20EE66F000EE76FE19382
:101DE000010EEA6F22D0A9D820D0F1D81ED0000170
:101DF000010EE56F040114510001E66FE76BE30E7D
:101E0000E627000EE723E193010EEA6F0ED00001F2
:101E1000010EE56F04011451EA6AE30FE96E000E4A
:101E2000EA2212C4EFFF01D000D01200800E04019C
:101E3000105D5CE11351030A32E0010A0EE0030A6F
:101E400001E04BD00001010EE56F3A0EE66F350E52
:101E5000E76F120EEA6FEB6B40D00001010EE56FE9
:101E600004011251F66EF76AD890F636F7365E0E18
:101E7000F626360EF7220900F5CFE6F00A00F5CF78
:101E8000E7F0020E0001F76AE625F66EE751F72249
:101E90000900F5CFEAF00A00F5CFEBF01ED0000103
:101EA000010EE56F04011251F66EF76AD890F6360E
:101EB000F736620EF626360EF7220900F5CFE6F069
:101EC0000A00F5CFE7F0E6C0F6FFE7C0F7FF08002D
:101ED000F5500001EA6FEB6B00D0020E0401125DB9
:101EE00005E0030E125D02E00001E1831200000133
:101EF000010EE56F0F0EE66E710EE66E0F0EE66ECA
:101F0000C9DAE552E552E552010EE66EE30EE66EE1
:101F1000000EE66EBFDAE552E552E55212C4E2F079
:101F20000401125104E10001050EE06F05D000012B
:101F3000060EE06F0EEC1AF012000401186B196B1C
:101F400010511F0B020A14E0030A0EE0010A01E01F
:101F500033D00001010EE56F040118810001E1A1F9
:101F600002D00401188328D00001010EE56F24D0AF
:101F70000001010EE56F040114510F0B080DF35021
:101F8000116A000F106E040E11221451800B01E033
:101F9000010E040DF35000011024E86F000E112013
:101FA000E96FE8C0E9FFE9C0EAFFEF50040B03E086
:101FB0000401010E186F00D00001E50507E1180EBD
:101FC000E66F040EE76FE193020EEA6F1200040160
:101FD000120510E110511F0B00090CE10001010E68
:101FE000E56F030E0401115D03E10001E18102D000
:101FF0000001E191040112513AE110511F0B020856
:1020000036E114510F0B000932E00001010EE56FBB
:10201000040114510F0B080DF350116A000F106EDC
:10202000040E11221451800B01E0010E040DF35037
:1020300000011024E86F000E1120E96F030E040167
:10204000115D07E1840EE8C0E9FFE9C0EAFFEF6E29
:102050000ED014AF06D0E8C0E9FFE9C0EAFFEF6A8E
:1020600006D0880EE8C0E9FFE9C0EAFFEF6E120073
:102070006C500BE1040100513C0BE842E8420D08B2
:1020800002E108D801D03BD804D0040E6C5C01E119
:1020900046D81200D9CFE6FFE1CFD9FFE6520001C2
:1020A000E46BE56BEA6BEB6B66DEDF6ADF50106EAC
:1020B000116A010E105C000E11581BE20001E5517F
:1020C00001E017D0F76ADF34FE0BF736F66E6A0EC2
:1020D000F626360EF7220900F5CF10F00800F5CFEE
:1020E00011F004D011C0FAFF1050F96EFBDFDF2AA7
:1020F000DDD7DFD8E552E552E7CFD9FF1200020E57
:102100000001E45D0AE198D8040100BD03D0C80EC7
:10211000006F02D0880E006F01D00ED91200040E9D
:102120000001E05D0AE112C46EFF6E50000803E298
:10213000050EE06F02D0030EE06FE4050AE111D84E
:10214000040104BD03D0C80E046F02D0880E046FD2
:1021500007D0090E0401115D02E1B6EC1BF0ECD8CA
:102160001200D9CFE6FFE1CFD9FF020EE126000130
:10217000080EEA5D000EEB5905E2EAC0DEFFEBC097
:10218000DDFF03D0080EDE6EDD6A040104930491C6
:10219000010EDB500413DFCF05F4000EDB5000010D
:1021A000EA5F010EDB50EB5B180EE86F040EE96F7F
:1021B000E1A31DD0D9CFE9FFDACFEAFFEE50ED1051
:1021C00015E0E6C0F6FFE7C0F7FF0800F550E8C0ED
:1021D000E9FFE9C0EAFFEF6EE82B000EE923E62BEA
:1021E000E723DF06010E01E2DB06E4D71BD0D9CFDF
:1021F000E9FFDACFEAFFEE50ED1014E0E6C0E9FFA8
:10220000E7C0EAFFEF50E8C0E9FFE9C0EAFFEF6E80
:10221000E82B000EE923E62BE723DF06010E01E29F
:10222000DB06E5D7020EE15C02E2E16AE552E16E0F
:10223000E552E7CFD9FF1200D9CFE6FFE1CFD9FFB2
:10224000020EE126030E04010015E76E010EE7CF32
:10225000DBFF01C4DFFFDE500001EA27DD50EB2386
:10226000180EE66F040EE76FD9CFE9FFDACFEAFF69
:10227000EE50ED1014E0E6C0E9FFE7C0EAFFEF50D2
:10228000E8C0E9FFE9C0EAFFEF6EE82B000EE923A2
:10229000E62BE723DF06010E01E2DB06E5D7020E9F
:1022A000E15C02E2E16AE552E16EE552E7CFD9FF77
:1022B00012000001E5510BE10401080E016F100E40
:1022C000026F040E036F840E006F046F33D004019D
:1022D00010AF21D00001EA510401165D0001EB515D
:1022E0000401175904E216C4EAF017C4EBF039DF11
:1022F0000001010EE46F0401080E016F100E026F61
:10230000040E036F800E006F180E066F040E076F29
:10231000C80E046F0FD00001020EE46F0401056BBC
:10232000C80E046F080E016F180E026F040E036FC3
:10233000C80E006F6D9812000001E46B0401080ED6
:10234000016F100E026F040E036F880E006F046B96
:1023500012006DA60FD802D06DB613D80001E005AB
:1023600008E16DBA06D0686A696A69806988020EF8
:10237000E06F12006D6A696A6D860001010EE06F00
:1023800012006D6A696A0001E06B1200C1EF11F082
:102390000001E05101E139D06850040B04E06950BC
:1023A000040B01E038D86DB230D06850010B04E066
:1023B0006950010B01E04FD86850100B04E06950E0
:1023C000100B01E023D86850400B04E06950400B2B
:1023D00001E037D86850200B04E06950200B01E081
:1023E00032D86850020B04E06950020B01E031D88A
:1023F000030E0001E05D01E208D06850080B05E023
:102400006950080B02E034DE68961200698468980F
:102410006D82A19A12006D92699468941200000175
:10242000E1A10ED0F8DF6D840001080EEC6F070EFD
:10243000ED6FEC07000EED5BEC51ED11FAE16D94E0
:102440001200689C120070A002D076DF7090689A2B
:102450001200689212006A6A686A9F0E6B6E7B0EA9
:10246000696E6E6A0F0EE66E710EE66E0F0EE66E08
:1024700011D8E552E552E552160E706E68A602D0EC
:102480006896FCD76D9858DF0001E191E26B030E6E
:10249000E06F1200D9CFE6FFE1CFD9FFFD0EDBCF11
:1024A000E9FFFE0EDBCFEAFFFC0EDB5004E0EE6A34
:0E24B000FC0EDB06F9D7E552E7CFD9FF12008C
:0224BE00D9CF74
:1024C000E6FFE1CFD9FF110EE126010169690101A3
:1024D00070B910D070910101635101E048D301013E
:1024E000709570970101040E636F1D0EDE6E010E74
:1024F000DD6E07D00101010E106F120EDE6E010EAF
:10250000DD6E01017051100B04E1030E01011A5D33
:1025100009E001017051100B01E166D104011105C0
:1025200001E062D101017051100B03E0040112516E
:1025300002D001011C51B40A01E13DD11B0A01E1A5
:102540002AD1340A01E11CD1060A01E103D1010AB2
:1025500001E1ECD0050A01E1D3D0010A01E1B5D0D7
:102560000F0A01E19CD0010A01E18ED0F40A5DE07E
:10257000490A5BE0020A2AE0240A05E0030A03E0B4
:10258000260A01E030D10101050E696F0101160E26
:10259000246F010170A905D0020EE66EF2DAE55251
:1025A00023D1040E010124250101636F040E635D34
:1025B00001011C257E0F050F0101686F0101708567
:1025C0007087709F0101460E666F0ED10101050EE6
:1025D000696F0101110E246F010170A905D0030E6E
:1025E000E66ECFDAE55200D1040E01012425010187
:1025F000636F040E635D01011C257E0F050F010151
:10260000686F010170857097708FD950070FE96E60
:10261000DACFEAFFBF0EEE6E350EED6E080EDBCFA1
:1026200067F1070EDBCF66F1DFD00101050E696FA0
:1026300001010C0E246F010170A905D0010EE66E98
:10264000A0DAE552D1D0040E010124250101636F07
:10265000040E635D01011C257E0F050F0101686FEB
:10266000010170857097709FD950070FE96EDACF1E
:10267000EAFF790EEE6E350EED6E080EDBCF67F1D8
:10268000070EDBCF66F1B0D00101050E696FA0A87F
:1026900005D0010E696FE66874DAE552A5D0010134
:1026A000050E696F6AC1E6FF6CDAE5526BC1E6FFA1
:1026B00068DAE55209D00101010E696FE66861DA56
:1026C000E552E6685EDAE5528FD00101050E696FCA
:1026D000040E6CC1DBFF050E6DC1DBFF040EDBCF0A
:1026E000E9FF050EDBCFEAFFEF50E66E4ADAE5526E
:1026F00006D00101010E696FE66843DAE55274D035
:102700000101050E696F6CC1E6FF3BDAE5526DC150
:10271000E6FF37DAE55209D00101010E696FE6687C
:1027200030DAE552E6682DDAE5525ED00101050E99
:10273000696F6EC1F6FF6FC1F7FF0800F550E66ED6
:1027400020DAE55206D00101010E696FE66819DA58
:10275000E5524AD00101050E696F6EC1E6FF11DA3C
:10276000E5526FC1E6FF0DDAE55209D00101010E15
:10277000696FE66806DAE552E66803DAE55234D0B6
:102780000101050E696F030EE66EFBD9E552E66A9C
:10279000F8D9E55229D00101050E696FE66AF1D931
:1027A000E552E66AEED9E552E66AEBD9E552E66A09
:1027B000E8D9E55219D00101050E696FA0B804D01F
:1027C000F29EF29C11D00FD0010E696FE668D9D944
:1027D000E552E668D6D9E552E668D3D9E552E6680F
:1027E000D0D9E55201D000D001017051100B04E1A5
:1027F000040E01011A5D0AE001017051100B01E1A4
:102800005FD1090E0401115D01E05AD1010170513F
:10281000100B03E00401125102D001011C51B40A53
:1028200001E11ED1290A01E1EFD0010A01E1E0D066
:10283000060A01E183D0030A59E0010A41E00F0AC8
:1028400013E0010A01E03CD10101020E696FA0A86A
:1028500002D0010E696FDECFE9FFDDCFEAFFEF5056
:10286000E66E8FD9E5522CD10101020E696FDECFE1
:10287000E9FFDDCFEAFFEFCF6AF1DECFE9FFDDCF81
:10288000EAFF010EE926000EEA22EFCF6BF103D03A
:102890000101010E696FDECFE9FFDDCFEAFFEF50E6
:1028A000E66E6FD9E552DECFE9FFDDCFEAFF010E1C
:1028B000E926000EEA22EF50E66E63D9E55200D118
:1028C0000101020E696FDECFE9FFDDCFEAFFEF50B5
:1028D0006CC1E9FF6DC1EAFFEF6EDECFE9FFDDCF2E
:1028E000EAFFEF50E66E4DD9E552EAD00101020E43
:1028F000696FDECFE9FFDDCFEAFFEFCF6CF1DECF0E
:10290000E9FFDDCFEAFF010EE926000EEA22EFCF54
:102910006DF1DECFE9FFDDCFEAFFEF50E66E31D992
:10292000E552DECFE9FFDDCFEAFF010EE926000E1A
:10293000EA22EF50E66E25D9E552C2D00101020E1F
:10294000696FDECFE9FFDDCFEAFFEF50420823E1F8
:10295000DECFE9FFDDCFEAFF010EE926000EEA2215
:10296000EF50190818E1DECFE9FFDDCFEAFF020ED4
:10297000E926000EEA22EF506E080DE1DECFE9FFF6
:10298000DDCFEAFF030EE926000EEA22EF508608AB
:1029900002E10101708DDECFE9FFDDCFEAFFEF50EC
:1029A000E66EEFD8E552DECFE9FFDDCFEAFF010E9C
:1029B000E926000EEA22EF50E66EE3D8E552DECFBC
:1029C000E9FFDDCFEAFF020EE926000EEA22EF5012
:1029D000E66ED7D8E552DECFE9FFDDCFEAFF030E82
:1029E000E926000EEA22EF50E66ECBD8E55268D019
:1029F0000101010E696FDECFE9FFDDCFEAFFEF5085
:102A0000E66EBFD8E5525CD00101020E696FDECFE1
:102A1000E9FFDDCFEAFFEFCF6EF1DECFE9FFDDCFDB
:102A2000EAFF010EE926000EEA22EFCF6FF103D094
:102A30000101010E696FDECFE9FFDDCFEAFFEF5044
:102A4000E66E9FD8E552DECFE9FFDDCFEAFF010E4B
:102A5000E926000EEA22EF50E66E93D8E55230D018
:102A60000101020E696FDECFE9FFDDCFEAFFEF5013
:102A7000E66E87D8E552DECFE9FFDDCFEAFF010E33
:102A8000E926000EEA22EF50E66E7BD8E552DECF53
:102A9000E9FFDDCFEAFF020EE926000EEA22EF5041
:102AA000E66E6FD8E552DECFE9FFDDCFEAFF030E19
:102AB000E926000EEA22EF50E66E63D8E55200D018
:102AC000010170A913D0FF0E0101695D01E14FD032
:102AD000090E0401115D01E14AD012C418F401018C
:102AE00010510001EA6FEB6B42D040D001017E0E25
:102AF000226F69C123F11CC125F1010170B505D018
:102B0000030E0101635D0101246F010170B528D03E
:102B100001016351020824E2030EDB6A020EDB6A44
:102B20006351F36E020EDBCFF4FFF350F45C12E25C
:102B3000020EDB50EA6A220FE96E010EEA22030E52
:102B4000DBCFE7FFEF50E726030EE7CFDBFF020EF8
:102B5000DB2AE6D7030EDBCFE6FF13D8E55207D01A
:102B6000010170930101626B0101656B00D0110ED0
:102B7000E15C02E2E16AE552E16EE552E7CFD9FF9E
:102B80001200D9CFE6FFE1CFD9FF010170B910D013
:102B9000400E0101635D01E31AD06351EA6A220F1E
:102BA000E96E010EEA22FE0EDBCFEFFF632B0FD0A2
:102BB000400E0101105D01E30AD01051EA6A180FBE
:102BC000E96E040EEA22FE0EDBCFEFFF102BE5527A
:102BD000E7CFD9FF12000101636B0101646B1200A2
:102BE000D9CFE6FFE1CFD9FFE652FE0EDB50C26E31
:102BF0000A0EDF6EDF5002E0DF06FCD7C282C2B2EF
:102C0000FED7C45000D0E552E552E7CFD9FF1200FD
:102C1000D9CFE6FFE1CFD9FFE652FE0EDB50AD6E15
:102C20009E50DF6E9EA8FED7E552E552E7CFD9FF52
:102C30001200D9CFE6FFE1CFD9FFE652080EDF6ED2
:102C4000898489948992FE0EDBBE02D0899601D0D8
:102C50008986DBCFF3FFF39EF346F3CFDBFF898258
:102C6000DF06F0E18984100EDF6EDF5002E0DF0640
:102C7000FCD7899489868982E552E552E7CFD9FF4E
:102C80001200D9CFE6FFE1CFD9FF040EE126DE52D4
:102C9000010EDD6E030EDB6ADF6ADF50060822E3F9
:102CA000DFCFE6FFDDD8E552050EF36E020EF3CF5F
:102CB000DBFFDB5003E0020EDB06FBD784A209D06A
:102CC000030EDBCFE7FF010EDB50E712030EE7CF69
:102CD000DBFF010EDBCFF3FFF39EF346F3CFDBFF09
:102CE000DF2ADBD7030EDBCF09F101010A6B0B6B87
:102CF0000C6BD89009370A370B370C370A690B6908
:102D00000C6981B80981091F0A1F0B1F0C1F070ED0
:102D1000DF6EDFCFE6FFA4D8E5520101018184B266
:102D20000191040EE15C02E2E16AE552E16EE552D6
:102D3000E7CFD9FF1200D9CFE6FFE1CFD9FF030ECD
:102D4000E126010EDB6A020EDB6AFE0EDB50F36E3B
:102D5000FC0EDBCFF4FFF350F45C0EE3FC0EDBCF94
:102D6000E6FFFE0EDB50E552E75CE76E020EE7CFB2
:102D7000DBFF000EDF800DD0FE0EDBCFE6FFFC0E8A
:102D8000DB50E552E75CE76E020EE7CFDBFF000E9B
:102D9000DF90FB0EDBCF10F0D950010FE96EDACFD8
:102DA000EAFF10500F0B06E0EC52D890ED32EF32F4
:102DB000E806FAE1DFA011D0010EDBCF10F0020E21
:102DC000DBCF11F0D950FD0FE96EFF0EDA20EA6E6D
:102DD0001050EE261150ED2210D0010EDBCF10F076
:102DE000020EDBCF11F0D950FD0FE96EFF0EDA2095
:102DF000EA6E1050EE5E1150ED5AFD0EDBCF10F072
:102E0000FE0EDBCF11F010C0F3FF11C0F4FF030E74
:102E1000E15C03E200D0E16AE552E16EE552E7CF02
:102E2000D9FF1200D9CFE6FFE1CFD9FFFD0EDBCFEE
:102E300010F0FE0EDBCF11F0126A136A10C0F6FF1D
:102E400011C0F7FF12C0F8FFFB0EDBCFE9FFFC0E4D
:102E5000DBCFEAFF23EC1CF0E552E7CFD9FF1200ED
:102E6000D9CFE6FFE1CFD9FF8998899A8D90FE0EE0
:102E7000DBB08988DBB2898ADBB48D80E552E7CF8D
:102E8000D9FF1200D9CFE6FFE1CFD9FF040EE1262A
:102E9000DE6ADE6ADE6ADD6ADD52DD5209C110F0EB
:102EA0000AC111F00BC112F00CC113F0F00E101694
:102EB000116A126A136A030E10C0DBFF09C110F019
:102EC0000AC111F00BC112F00CC113F00F0E101655
:102ED000116A126A136A1050DF6EDFCF10F0010E14
:102EE000DBCF11F010C0F3FF11C0F4FF040EE15C62
:102EF00003E200D0E16AE552E16EE552E7CFD9FF87
:102F0000120008C1E6FF95DEE5521200D9CFE6FFB8
:102F1000E1CFD9FF0101086B010EF36EFD0EDB500E
:102F200004E0D890F336E806FCE1F3500101081301
:102F3000E552E7CFD9FF1200D9CFE6FFE1CFD9FFA5
:102F4000010EF36EFD0EDB5004E0D890F336E80678
:102F5000FCE1F35001010813E552E7CFD9FF12005D
:102F6000D9CFE6FFE1CFD9FF010EF36EFD0EDB50A6
:102F700004E0D890F336E806FCE1F350106E116AD5
:102F800010BE1168FF0E101801010817E552E7CFB7
:102F9000D9FF120001010151010B00D01200010EF6
:102FA000E66E1EDEE55212001200D9CFE6FFE1CF39
:102FB000D9FFE552E7CFD9FF1200D9CFE6FFE1CF25
:102FC000D9FFE552E7CFD9FF1200D9CFE6FFE1CF15
:102FD000D9FFE552E7CFD9FF1200D9CFE6FFE1CF05
:102FE000D9FFE552E7CFD9FF1200D9CFE6FFE1CFF5
:102FF000D9FFE552E7CFD9FF1200D9CFE6FFE1CFE5
:0A300000D9FFE552E7CFD9FF120017
:06300A0034D80001F15171
:10301000040A21E0070A19E0010A11E0030A09E0A5
:10302000010A01E01ED08A9AF1C0E6FF31D8E552CC
:1030300018D08B90F1C0E6FF2BD8E55212D08A96BB
:10304000F1C0E6FF25D8E5520CD08A94F1C0E6FF26
:103050001FD8E55206D08A92F1C0E6FF19D8E55292
:1030600000D00001F12B010107510001F15D01E3E6
:10307000F16B12008A908C9E8C9C8C9A8C988B940D
:103080008C968C948A8A8B808A868A848A821200A3
:10309000D9CFE6FFE1CFD9FFE652FE0EDB50EA6A58
:1030A000020FE96E010EEA22EFCFDFFFD9CFE9FF71
:1030B000DACFEAFFEF50010B01E08A80D9CFE9FFB8
:1030C000DACFEAFFEF50020B01E08C8ED9CFE9FF97
:1030D000DACFEAFFEF50040B01E08C8CD9CFE9FF87
:1030E000DACFEAFFEF50080B01E08C8AD9CFE9FF75
:1030F000DACFEAFFEF50100B01E08C88D9CFE9FF5F
:10310000DACFEAFFEF50200B01E08B84D9CFE9FF43
:10311000DACFEAFFEF50400B01E08C86D9CFE9FF10
:10312000DACFEAFFEF50800B01E08C84E552E552E4
:10313000E7CFD9FF1200D9CFE6FFE1CFD9FF020ECA
:10314000E126010EDB6A050EF36E010EDBCFF4FF04
:10315000F350F45C21E2010EDB50E76EFD0EDBCF95
:10316000E9FFFE0EDBCFEAFFE750E926000EEA2278
:10317000EFCFDFFFDFCFE6FF64D8E552E66E010E4A
:10318000DB50EA6A020FE96E010EEA22E552E750CF
:10319000EF6E010EDB2AD7D7020EE15C02E2E16A94
:1031A000E552E16EE552E7CFD9FF1200D9CFE6FF35
:1031B000E1CFD9FF020EE126010EDB6A040EF36EA9
:1031C000010EDBCFF4FFF350F45C21E2010EDB5083
:1031D000E76EFD0EDBCFE9FFFE0EDBCFEAFFE75027
:1031E000E926000EEA22EFCFDFFFDFCFE6FF29D886
:1031F000E552E66E010EDB50EA6A020FE96E010E3F
:10320000EA22E552E750EF6E010EDB2AD7D7020E15
:10321000E15C02E2E16AE552E16EE552E7CFD9FFF7
:103220001200D9CFE6FFE1CFD9FFFE0EDB50300F01
:10323000E66E07D8E5520101066FE552E7CFD9FFE8
:103240001200D9CFE6FFE1CFD9FF410EF36EFE0E9B
:10325000DBCFF4FFF350F45C28E3610EF36EFE0E57
:10326000DBCFF4FFF350F45C0BE3610E106EFE0E47
:10327000DBCFE7FF1050E75EFE0EE7CFDBFF0AD0A3
:10328000410E106EFE0EDBCFE7FF1050E75EFE0E24
:10329000E7CFDBFFDB50F76A860FF66E390EF722B9
:1032A0000800FE0EF5CFDBFF26D0300EF36EFE0ECB
:1032B000DBCFF4FFF350F45C15E3300E106EFE0E1E
:1032C000DBCFE7FF1050E75EFE0EE7CFDBFFDB5002
:1032D000F76A7C0FF66E390EF7220800FE0EF5CF66
:1032E000DBFF09D0FE0EDB50200803E1FE0EDB6A97
:1032F00002D0FE0EDB6ADB5000D0E552E7CFD9FFEB
:023300001200B9
:0E330200040110511F0B010801E086D0145188
:1033100001E083D0060E115D2EE11351230A28E04F
:10332000010A13E0030A01E024D00001020EE56F58
:103330000001E20505E100015E0EE66F350EE76F64
:10334000090E0001EA6FEB6B14D00001020EE56F6D
:103350000001E20505E10001DF0EE66F350EE76FC3
:103360000001E20504E17F0E0001EA6FEB6B01D082
:1033700000D00001E18304011051600BE842E842F3
:10338000E842E842E842010801E047D011510B0A47
:103390003EE0080A2EE0090A26E0080A16E00B0AB9
:1033A00006E0080A01E039D0BDEC1BF036D0000180
:1033B000110EE86F010EE96F0001E1930001EA6B65
:1033C000EB6B0001020EE56F28D00001020EE56FE5
:1033D0000001EE0EE66F000EE76F0001E1930001C1
:1033E000010EEA6F1AD00001020EE56F13C4EEF071
:1033F00014D00001020EE56F0001EF0EE66F000E23
:10340000E76F0001E1930001010EEA6F06D00001B1
:10341000020EE56F12C4EFF000D012000001F06B55
:103420001E0E716E0401400E096F580E0A6F040ED5
:103430000B6F880E086F0401980E0E6F040E0F6F4D
:10344000400E0C6F1200D9CFE6FFE1CFD9FFE65254
:10345000FC0EDB50400805E2400EF36EFC0EF3CF8D
:10346000DBFFDF6AFC0EDB50DF5C19E2DF50E76E4A
:10347000FD0EDBCFE9FFFE0EDBCFEAFFE750E926CA
:10348000000EEA22EF50E66EDF50EA6A980FE96E0E
:10349000040EEA22E552E750EF6EDF2AE3D7FC0E76
:1034A000DBCF0DF4400E04010C170C7D880E0C13BD
:1034B000E552E552E7CFD9FF1200D9CFE6FFE1CFC1
:1034C000D9FF0001F06B040108BF30D0FC0EDBCF48
:1034D00010F00951D880105403E2FC0E09C4DBFF40
:1034E0000001F06BFC0EDB50F05D19E2F051EA6A6E
:1034F000580FE96E040EEA22EF50E66EF051E76EC7
:10350000FD0EDBCFE9FFFE0EDBCFEAFFE750E92639
:10351000000EEA22E552E750EF6EF02BE3D70401EC
:10352000400E096F0817087D880E08130001F0513E
:0A35300000D0E552E7CFD9FF1200EA
:06353A0012011001000067
:103540000008AE09304410000102030109022900FD
:10355000010100A03209040000020300000009215B
:1035600010010001227F0007050103400028070524
:1035700081034000280403090418034A006F006512
:10358000000000000000000000000000000000003B
:10359000002C034D00490044004900200044006510
:1035A0000076006900630065002000000000000054
:1035B00000000000000000000000000000220336B0
:1035C0000039003100320030003600300042002067
:1035D00000000000000000000000000000000006E5
:1035E000FFFF0901A1017508950126FF001500855F
:1035F0009609C0B102752085B409D2B10275108553
:103600009709C1B1027508859809C2B10275108584
:103610009909C3B102859C09D4B1027510859D0931
:10362000D5B102859B09C5B102752085AF09E9B105
:103630000285AF09E981A276000285B009EAB102EC
:10364000752085C209D6B102859A09C4B1027600F7
:103650000295010904852C810209069102C04C35AE
:0C3660004C35753579359135BD35023398
:04366C00000000005A
:10367000000000000000000000000000000000004A
:10368000000000000000000000000000000000003A
:10369000000000000000000000000000000000002A
:1036A000000000000000000000000000000000001A
:1036B000000000000000000000000000000000000A
:1036C00000000000000000000000000000000000FA
:1036D00000000000000000000000000000000000EA
:1036E00000000000000000000000000000000000DA
:1036F00000000000000000000000000000000000CA
:1037000000000000000000000000000000000000B9
:1037100000000000000000000000000000000000A9
:103720000000000000000000000000000000000099
:103730000000000000000000000000000000000089
:103740000000000000000000000000000000000079
:103750000000000000000000000000000000000069
:0C3760000000000000000000000000005D
:04376C00010170895E
:103770005FEC12F0010170991200010170895FEC99
:1037800012F00001020EE56F0001180EE66F040E44
:10379000E76F0001E193010170991200D9CFE6FFB4
:1037A000E1CFD9FF020EE126400EE66EA00EE66ED6
:1037B000000EE66E5DEC1AF0E552E552E5520009A6
:1037C00028E0010EDB6A0001A05108E0010EA26FA3
:1037D000020EA36FDE52050EDD6E09D0010EA26F40
:1037E000020EA36FDE52040EDD6E01D000D0010E7A
:1037F000DB500FE004010CBF0CD0010EDBCFE6FF65
:10380000A00EE66E000EE66E23EC1AF0E552E552CD
:10381000E552020EE15C02E2E16AE552E16EE55238
:06382000E7CFD9FF120002
:0A382600EA6AE96A0400EE6AEAA605
:10383000FCD712000101400E716F0900F550EE6EC9
:10384000712FFBD712000101A68EA69CA684A68824
:10385000F29E550EA76EAA0EA76EA682F28E0A00E1
:10386000020E726F200E716FEE50F56E0F00712F09
:10387000FBD7A68EA69CA684F29E550EA76EAA0E16
:0E388000A76EA682722FEED7F28EA6941200CB
:02388E0013EC39
:103890001CF0896A8A6A8B6A8C6A8D6A010E926E44
:1038A000100E936EF80E946E956A020E966E0101DC
:1038B000050E076FE60EAC6E900EAB6E3F0EAF6E50
:1038C000B06A400EC26E0E0EC16E860EC06E200E25
:1038D000F26E840EF16ED08ED76AD66A800ED56EE7
:1038E000F28E140E6F6E0001E06B0001E16B0001BF
:0438F000E26B120075
:0C38F400D9CFE6FFE1CFD9FFFE0EDB507C
:10390000A96EA69EA69CA680A85000D0E552E7CF3F
:10391000D9FF1200D9CFE6FFE1CFD9FFFE0EDB5071
:10392000A96EFD0EDB50A86EA69EA69CA684F29EF4
:10393000550EA76EAA0EA76EA6820400A6B2FDD7EA
:0C394000F28EA694E552E7CFD9FF1200EA
:04394C00D8CFE4FFED
:10395000E0CFE4FFE46EDACFE4FFE2CFDAFFE65235
:10396000F2A403D0F29401010081E552E5CFDAFF21
:0C397000E550E5CFE0FFE5CFD8FF1000E8
:04397C003F065B4F58
:10398000666D7D077F67777C585E79716F74061E60
:10399000003800545C7367506D071C1C00766E5B2A
:1039A000036A080EE76ED890073603360C50035CA6
:0C39B00002E3036E072AE72EF7D712008F
:0439BC0017EE00F012
:1039C00027EE00F0F86A0F9C15EC05F0FDD7120009
:0539D0005345512D00DC
:0B39D5000000000000000000000000E7
:1039E0000000000000000F00050002004B00000076
:0739F00000000000000000D0
:1040000000000000000000000000000000000000B0
:1040100000000000000000000000000000000000A0
:104020000000000000000000000000000000000090
:104030000000000000000000000000000000000080
:020000040030CA
:0100000029D6
:010001000EF0
:0100020036C7
:010003000EEE
:010005008179
:010006008178
:010008000FE8
:01000900C036
:01000A000FE6
:01000B00E014
:01000C000FE4
:01000D0040B2
:00000001FF
