:020000040000FA
:0600000015EF05F01200EF
:0600080088EF17F0120062
:060A000094EF17F0120054
:060A080088EF17F0120058
:060A2A00D9CFE6FFE1CF89
:100A3000D9FF060EE126ECEC16F0200EDF6EDE523A
:100A4000700EDD6E610EF36E020EF3CFDBFF720EE1
:100A5000F36E030EF3CFDBFF630EF36E040EF3CFE2
:100A6000DBFFD9CFE6FFDACFE6FF45EC14F0E55225
:100A7000E552AA0EE66E90EC0BF0E552000160A381
:100A800002D09EEC17F0000160A104D0ACEC0BF09A
:100A9000ECEC13F001D8F2D7CCEC10F06FBE02D022
:060AA000E8EC10F012006A
:0A0AA6000200642F000000010000B0
:100AB00022000000632F000034010000010000004C
:100AC0008EEC0AF0E652030EDF6EF9EC0AF00550E8
:100AD000300FE66EDF50DF0682EC0AF0E552E75099
:100AE000EF6EF9EC0AF0FE0E09C0DBFF09500008BA
:100AF000ECE3DF50000807E2DF5082EC0AF0200E42
:100B0000EF6EDF06F6D7DF5082EC0AF0200EEF6EB4
:100B1000E55293EF0AF08EEC0AF0040EE126D9CFED
:100B2000E6FFDACFE6FF0001F029E66EC9DFE55205
:100B3000E552E552500EDF6ED9CFE6FFDACFE6FF81
:100B400007EC0BF017C103F118C104F1040EE15CCE
:100B500002E2E16AE552E16E93EF0AF08EEC0AF0F0
:100B6000F0C0E6FF00C1E6FF0C0EE66EA0EC0DF053
:100B7000E552E552E552FE0EDB5001E0CCDF93EF8B
:100B80000AF08EEC0AF0C4EC0AF0EFCFF0F0FE0EA3
:100B9000DBCFE6FFE3DFE5520001BCEC0AF093EFA8
:100BA0000AF00001F229E66E5FEC14F0E552120043
:100BB0008EEC0AF0F3C0F5F0F4C0F6F0EFEC0AF0BA
:100BC000FE0EDBCFE6FFDDDFE552EBDF93EF0AF051
:100BD0008EEC0AF0EB0EE66E000EE66E49EC0BF0C2
:100BE00060EC0BF06EEC0CF0146E0C0EE15E145029
:100BF0000001F26BF229E66E5FEC14F0E552FE0E96
:100C0000DB5004E0EAEC0AF007EC0BF093EF0AF09B
:100C10008EEC0AF0A2EC0AF0FE0EDBCFE6FFD8DF86
:100C2000E55293EF0AF060EC0BF055EC0DF039EC67
:100C30000BF0EAEC0AF007EF0BF001010F5104E0B2
:100C40005E0EE66E2F0E0FD0A2EC0AF0EAEC0AF070
:100C5000F3CFE6FFF4CFE6FF55EC0DF039EC0BF0E7
:100C6000EC0EE66E000EE66E07EF0BF08EEC0AF06F
:100C7000AFEC0AF012E1FE0EDB5015180EE1FD0E8E
:100C8000DB501B150001166EFE0EDB5001011C151A
:100C90000001176E1650171002E0000E01D0010E71
:100CA00093EF0AF08EEC0AF0AFEC0AF003E1FE0ECF
:100CB000DB50151802E0000E01D0010E93EF0AF090
:100CC0008EEC0AF0FD0EDB5001011B15146EFE0EBA
:100CD000DB501C15156EFD0EDB50141812E1FE0ED4
:100CE000DB5015180EE1FD0EDB5019150001166ED4
:100CF000FE0EDB5001011A150001176E1650171079
:100D000002E0000E01D0010E93EF0AF001010D5137
:100D10000AE00001000ED880FB55000EFC5503E2EE
:100D2000FB07000EFC5B1DEC0BF003E20707000E57
:100D3000085B01EC0BF003E20907000E0A5B000EF2
:100D4000D8800355000E04550CE20307000E045B27
:100D50000351041106E10001FE0502E164DF01D048
:100D60006CDF24EC0BF003E20B07000E0C5B000EB3
:100D7000D8800555000E065551E20E51030A22E0B7
:100D8000010A0EE0030A41E105511F0B02E1105177
:100D900026D0E3EC0AF039E1155037E1105131D09B
:100DA00005511F0B09E1000E0CEC0BF0E552E5526A
:100DB000010E0CEC0BF020D0E3EC0AF026E115500C
:100DC00024E115D005511F0B0DE1000EB7DB010E1C
:100DD000B5DB020E0CEC0BF0E552E552030E0CEC09
:100DE0000BF011D0E3EC0AF010E115500EE1000E0B
:100DF000A5DB010E66EC0BF0E552E552020E9EDB20
:100E0000030E66EC0BF0E552E55201010507000EFA
:100E1000065B0551061102E10001AEDB1200010183
:100E200021510EE15ADB0001F71906E11550F819BE
:100E300003E1F76BF86B1200F72B000EF82312009A
:100E40007F0E0001F05D02E1F06B1200F02B12004A
:100E5000010121510BE10001F751F81103E12BECE5
:100E60000BF001D0F707000EF85B12000001F05103
:100E700003E17F0EF06F1200F00712000101215113
:100E800002E11DEF06F08BEF05F00101215103E1B6
:100E9000E66ABEDE03D0010EE66E60DEE5521200A9
:100EA000F2C0EBF0F2C0E6FF21DB0101020E0F6F92
:100EB000320E0B6F0C6B0001F26B12005FEC0CF04A
:100EC000F3CFF9F0F4CFFAF00001F36BF46BD6DB5B
:100ED000E552ABDB000E01011B6F1C6B196F1A6B27
:100EE0005CEC0CF001011E6F1D6F58EC0CF0000162
:100EF000FE6F120005EC0CF0F3CF19F1F4CF1AF1EC
:100F00005CEC0CF001011D6F1E511D5D13E07F0EA6
:100F10001D15E66E0001F151EA6ADF0FE96E000E61
:100F2000EA22EF50E66E00C1E6FF0B0EE66EA3EC80
:100F30000DF09FDB58EC0CF0000908E10001FE0504
:100F400014E1FE6BF76BF86B9DDB09D00001FE51DD
:100F50000CE1010EFE6FF36BF46BE66E39DEE552C9
:100F60000001F26BE66A24DEE552A0DB31E000010D
:100F7000F351F51929E1F451F61926E1EB05F25D7B
:100F800022E1FE510EE1A9DAF71906E11550F81930
:100F900003E1F76BF86B03D0F72B000EF82372DB3D
:100FA0000DD09BDAF31906E11550F41903E1F36B48
:100FB000F46B03D0F32B000EF42360DBE552000149
:100FC000F26BE66A03D0F22B010EE66EF1DDE5521C
:100FD0000001FE51010A01E16FD1010A01E058D27E
:100FE00001010F51020A01E14DD1030A01E115D1BE
:100FF000010A01E04DD2010E50DA08E00001F16B68
:101000000101210502E10CDB01D040DB020E45DAD3
:1010100009E00001010EF16F0101210502E100DB91
:1010200001D034DB040E39DA09E00001020EF16F61
:101030000101210502E1F4DA01D028DB080E2DDAE6
:1010400009E00001030EF16F0101210502E1E8DA78
:1010500001D01CDB0101210537E10751081120E116
:1010600020511EE1010E2FDA09E1020E2CDA06E111
:10107000040E29DA03E1080E26DA12E00101010E5E
:10108000206F82DAF0C0EFFFEBC0E6FF2FDAFEDA66
:101090000101010E0E6FF1C010F1640E056F066BB9
:1010A000010E16DA09E1020E13DA06E1040E10DA77
:1010B00003E1080E0DDA08E0C0DA06E2205104E18F
:1010C000E5DA0101076B086BF1DA09E0F6DA07E10E
:1010D000010109510A1103E11E0E096F0A6B01019A
:1010E0000D510FE1EADA0DE0E8DA0BE101010951F7
:1010F0000A1107E10001FB6BFC6BFD6B0101010EA6
:101100000D6FECDA08E001017CDA02E288DEB6DE7F
:1011100001010D6BBADECADA09E0CFDA07E101019D
:1011200009510A1103E11E0E096F0A6B01010D51ED
:101130000FE1C3DA0DE0C1DA0BE1010109510A1137
:1011400007E10001FB6BFC6BFD6B0101040E0D6FF1
:10115000C5DA08E0010155DA02E27ADE8FDE01012C
:101160000D6B93DEA3DA04E01E0E01010B6F0C6B16
:10117000A4DA0DE001010B510C1109E10F5107E157
:10118000010E0F6F0001F26B040EF16F56DDA6DA4F
:101190000FE05ADA0DE2215104E1010E216F030E36
:1011A00002D0216B020E0E6F640E056F066B66DEB9
:1011B00001010D5101E16CD10001FB51FC1101E075
:1011C00067D101010D51060A25E0030A1DE0010A5D
:1011D00015E0070A11E0010A09E0030A01E058D10D
:1011E0001EDEE6D9050801E029D1F5D018DEE0D9E8
:1011F000140801E039D101D112DE0DD029DED8D991
:10120000050801E01BD115D123DED2D9140801E075
:101210002BD125D11DDE32DE37D1010E3ED908E0BB
:101220000001F15105E0F16B010E3CD901E138DE1E
:10123000020E33D908E00001F10505E0010EF16F5F
:1012400031D901E12DDE040E28D90AE0020E000199
:10125000F15D06E0020EF16F010E24D901E120DEFE
:10126000080E1BD90AE0030E0001F15D06E0030E33
:10127000F16F010E17D901E113DE18DA01E108D18F
:101280000FDE06D10B510C1101E002D10001EB5130
:10129000F25D04E101010F6BC8D9FAD082DC9FD95D
:1012A0006BD972D9EFCFF0F036DC0001F22B320EA1
:1012B00001010B6F0C6BECD0010EEFD803E00001C5
:1012C000F16BE4D9020EE9D804E00001010EF16FE0
:1012D00008DA040EE2D804E00001020EF16FD6D95C
:1012E000080EDBD804E00001030EF16FCFD9DED980
:1012F0000EE0DFD906E11550F41903E1F36BF46B4E
:1013000003D0F32B000EF42347D9010E0D6FE6D95D
:1013100001E0A8D9CBD90CE00001F351F41102E1AE
:1013200006D901D0F307000EF45B36D9040E0D6F19
:10133000D5D901E097D9BAD929E00001F351F519BF
:1013400021E1F451F6191EE1F2511BE1FE510AE1CF
:10135000F751F81102E17FD901D0F707000EF85BD1
:1013600091D909D0F351F41102E1E1D801D0F3078A
:10137000000EF45B83D9E5520001EB05F26FE66ADB
:1013800003D0F207010EE66E13DCE55201010D51A8
:1013900001E17ED00001FB51FC1101E079D0010197
:1013A0000D51060A66E0030A4EE0010A36E0070A1C
:1013B00028E0010A14E0030A6BE17BD906E115502D
:1013C000F41903E1F36BF46B03D0F32B000EF42359
:1013D000F4D8050833E1FD6B0101020E2DD069D967
:1013E00006E11550F41903E1F36BF46B03D0F32B12
:1013F000000EF423E2D8140837E1FD6B0101030E5F
:1014000031D057D906E11550F41903E1F36BF46BB1
:1014100039D0F32B000EF42335D00001F351F41131
:1014200002E185D801D0F307000EF45BC6D80508A9
:1014300005E1FD6B0101050E0D6F16D011C1FBF02A
:1014400012C1FCF025D00001F351F41102E16FD874
:1014500001D0F307000EF45BB0D8140805E1FD6B72
:101460000101060E0D6F10D013C1FBF014C1FCF08A
:101470000FD00001F351F41102E159D801D0F30764
:10148000000EF45B13EC06F015C1FBF016C1FCF086
:1014900019C11BF11AC11CF11200E66EE66A36ECA6
:1014A00006F018D11ED90001F251F22BEA6AE30FBF
:1014B000E96E000EEA22F1C0EFFFD1EC05F0080E54
:1014C0000001F25D1200E66EE66A52EC06F002D10F
:1014D000E66EE66A60EC06F0FDD0F9C014F0FAC0E2
:1014E00015F01406000E155A14501200D2D8F3C08D
:1014F000E6FFF4C0E6FFD9EC0CF0146E090EE15ED5
:1015000014501200E76EFC0EDBCFE9FFFD0EDBCFBF
:10151000EAFFE750E926000EEA221200D9CFE6FFE3
:10152000E1CFD9FF1200E552E7CFD9FF1200F9C091
:10153000F3F0FAC0F4F0010EF35F1200C7D8E552E1
:10154000E5521200F7C0E6FFF8C0E6FF68EC0DF0C8
:10155000E552E552F3CFF3F0F4CFF4F01200FD0EB4
:10156000DB5001011915146EFE0EDB501A15156EB5
:10157000FD0EDB5014181200F151E66EE66A31ECF4
:101580000CF0E552E55212000001F151EA6ADB0F5E
:10159000E96E000EEA22120013EC06F001010D6B59
:1015A00011C1FBF012C1FCF00001FD6B0101120042
:1015B00065DC0001FD51FD2B120013EC06F000016B
:1015C000FD51FD2B12001F0E0515146E156A0F0E2E
:1015D00014181200EC0EE66E000EE66E120000010A
:1015E000F251EA6AE30FE96E000EEA22EFCFF1F062
:1015F00012000A0E146E0E6EFE0EDBCF09F07AEFAB
:1016000017F0000ED8800955000E0A55120052EC52
:1016100014F0E552E5521200E66EE66A41EF0CF076
:101620001E0E076F086B206B12000001F26B010E9B
:10163000E66ED8EC05F0E55212000101000ED880EC
:101640000755000E085512000101000ED8800B55F9
:10165000000E0C551200F9C0F7F0FAC0F8F0010EB8
:10166000F75F120001010D6BE66AE8EC05F0E55248
:101670001200E552E552E552E5521200010EE66E07
:10168000E8EF05F0010EE66E08EF06F0010E71EFCF
:101690000BF0E30EE66E000EE66EDF0EE66E000E59
:1016A000E66EDB0EE66E000EE66E1200000E4DEFEB
:1016B0000AF013DF0001F3191200000E63EF0AF0C5
:1016C00089DFF3C0E6FFF4C0E6FF1200E66EE66ACB
:1016D0004BEF0CF0E552E55200091200000E68EFE6
:0C16E0000AF0E66EC1EC05F0E5521200C5
:0416EC0098DAFE0E7C
:1016F000DB50C26E0A0EDF6EDF5002E0DF06FCD761
:10170000C282C2B2FED7C450E55264D288DAFE0E5D
:10171000DB50AD6E9E50DF6E9EA8FED7E5525AD2CA
:101720007EDA080EDF6E898489948992FE0EDBBE14
:1017300002D0899601D0898684DA8982DF06F5E1B4
:101740008984100EDF6EDF5002E0DF06FCD789943B
:1017500089868982E5523ED20CDBDE52010EDD6EB7
:10176000030EDB6ADF6ADF5006081DE3DFCFE6FF0A
:1017700040D8E552050EF36E020EF3CFDBFFDB50CF
:1017800003E0020EDB06FBD784A209D0030EDBCFF9
:10179000E7FF010EDB50E712030EE7CFDBFF010E80
:1017A00050DADF2AE0D7030EDBCF69F000016A6B65
:1017B0006B6B6C6BD89069376A376B376C376A69BB
:1017C0006B696C6981B86981691F6A1F6B1F6C1F27
:1017D000070EDF6EDFCFE6FF0CD8E5520001618116
:1017E00084B26191040EE15C02E2E16AE552E16ECD
:1017F000F1D15ADA8998899A8D90FE0EDBB08988EA
:10180000DBB2898ADBB48D80E5D1B3DADE6ADE6AC9
:10181000DE6ADD6ADD52DD5269C014F0F00E141686
:10182000156A166A176A030E14C0DBFF69C014F04C
:101830000F0E1416156A166A176A1450DF6EDFCF82
:1018400014F0010EDBCF15F00ADA040EE15C02E2BF
:10185000E16AE552E16EBED168C0E6FF61DFE552A4
:10186000120022DA0001686B010EF36EFD0EDB50F0
:1018700004E0D890F336E806FCE1F3500001681369
:10188000A9D1C7D904E0D890F336E806FCE1F350BB
:10189000000168139FD1BDD904E0D890F336E80663
:1018A000FCE1F350146EFF0EF3180001681792D19B
:1018B00000016151010B120000016D511200F4D9B9
:1018C000020E1DDADECF14F0DDCF15F0C8D9020EFE
:1018D000E15C02E2E16AE552E16E7CD17FD962E22D
:1018E000C3D9040E33D97F0BE66EFFD988D9050E14
:1018F00044DA46DA060E2AD99AD942DA070E43DAD2
:101900003FDA080E23D97F0BE66EF4D978D9090E99
:1019100034DA3CDA0A0E1AD98AD938DA0B0E33DAFD
:1019200035DA0C0E13D9070B010FE66EF30EDBCF81
:10193000E9FFF40E64D9060E146E0D0EF3D904E01F
:10194000E8427F0BE706FCE1E66EF50EDBCFE9FF30
:10195000F60E55D90D0EECD9010E9FD90D0EDBD91F
:10196000020E9BD90D0EF2D8030BE66E030E95D92D
:10197000060E146E0E0ED6D904E0E8427F0BE70681
:10198000FCE1E66E040E89D90E0ED2D9050E85D97A
:101990000E0EC1D9060E81D90E0ED8D8030BE66EF5
:1019A000070E7BD9040EE15C02E2E16AE552E16ECA
:1019B00011D17AD9460EE126E7D8400E14C0DBFFDC
:1019C000410E15C0DBFF44D9C00E1416FF0E1516CC
:1019D000420E14C0DBFF430E15C0DBFF3F0EE76E67
:1019E00037D9E7501416156A440E14C0DBFF450EB4
:1019F00015C0DBFFAED9DBCFEAFFEF505AD9040E9A
:101A0000A9D8010EE1D8050EA5D8020EDDD8060E24
:101A1000A1D8030ED9D8070E9DD867D9DBCFEAFF2E
:101A2000EF507F0B46D9080E95D8010EC6D8090E87
:101A300091D8020EC2D80A0E8DD8030EBED80B0E56
:101A400089D8F60EDB04070B34D90C0E83D8030EAD
:101A500095D81A6E020E92D8040DF3CF19F0010E2C
:101A60008DD8100DF3CF18F045D9DBCFEAFFEF503A
:101A7000030BC8D80D0E6ED8070E80D81A6E060E4E
:101A80007DD8040DF3CF19F0050E78D8100DF3CFE3
:101A900018F0040E73D8B6D80E0E5CD8460EE15C72
:101AA00002E2E16AE552E16E95D063D9000EE96E7B
:101AB000430EEA6EEECFDEFFEDCFDDFF00D901E28F
:101AC000D3D8040EE15C02E2E16AE552E16E82D015
:101AD00085D82FE201013451186E196A34C108F01B
:101AE00019C009F0DECF0DF0DDCF0EF04AEC17F093
:101AF00006C016F007C017F0400E1626000E17227B
:101B0000020E086E096AFD0EDBCF0DF0FE0EDBCF74
:101B10000EF04AEC17F016500624146E17500720EA
:101B2000156E61D80900F5CF14F00800F5CF15F057
:101B300096D8040EE15C02E2E16AE552E16E4AD019
:101B4000D9CFE6FF47D0D9CFE6FF44D0E76EF6D82D
:101B5000AEEF0EF0E76E440EDBCF16F0450EDBCF96
:101B600017F0E7501626000E1722D9501624E96EFA
:101B7000DA501720EA6EE9D0B1D8E7D0E76EBAD8CC
:101B8000ADD8EF50030B120001013451166E176AE5
:101B9000FD0EDBCF08F0FE0EDBCF09F034C10DF0F7
:101BA00017C00EF04AEC17F006C014F007C015F08D
:101BB000400E1426000E15221200E76E96D88ED81D
:101BC000EF507F0B59EF0EF0E76EC3D887D8EF5078
:101BD00059EF0EF0E552E7CFD9FF120065D8040E99
:101BE0008ED85FEF0EF0020E14C0DBFF030E15C09F
:101BF000DBFFA4D8000EF626430EF7221200DBCF3F
:101C0000EAFFA3D0400DF350181019101A1059EF25
:101C10000EF04AD8010EF36EFD0EDB50120044D8D0
:101C2000E65212007F0BE66E010EE76E12007F0B8C
:101C3000E66E020EE76E12007F0BE66E030EE76E95
:101C40001200DBCFF3FFF39EF346F3CFDBFF12006E
:101C5000400EDBCF14F0410EDBCF15F0120014C0A4
:101C6000F3FF15C0F4FF12008FDFBDDF0800F55051
:101C70007F0BE66E6ED8C3DF010E7FD88AD8020EC6
:101C8000E76EDBCFF6FF030EDBCFF7FF67D8CFDFC2
:101C900080D8030E78D8C9EF0EF0E76EF50EDBCFD3
:101CA000E9FFF60EBCEF0DF0D9CFE6FFE1CFD9FF8B
:101CB0001200E66ED9CF14F0DACF15F01200FD0E47
:101CC000DBCF14F0FE0EDBCF15F0DECF16F0DDCF4C
:101CD00017F01650145C175015581200DBCFEAFFAE
:101CE000E750E926000EEA221200F90EDBCFE9FFE9
:101CF000FA0E1200F70EDBCFE9FFF80E1200E12614
:101D0000000EF66E430EF76E0900F5CFDEFF0A00F7
:101D1000F5CFDDFF12001ADF0C0BE840E8403F0B67
:101D2000E66E120013DFC00B14C0E7FFE75212008B
:101D30000DDF300BE8380F0BE66E1200020EDBCF22
:101D4000F6FF030EDBCFF7FF1200E552E750EF6E10
:101D50001200FB0EDBCFE9FFFC0E1200E750F62667
:101D6000000EF722000EF626430EF7220800F5506B
:101D700012009ADF040EE1261200E8DE12EF0EF0E8
:101D8000B4DFBCEF0DF0E2DE1CEF0EF0B3DFBCEF12
:081D90000DF0DFDFBCEF0DF0E8
:081D980004011051600BE84248
:101DA000E842E842E842E842000901E0120011512D
:101DB000070A3CE00B0A3AE0070A2FE0010A21E09B
:101DC0000B0A1DE0020A1BE0030A17E0080A0FE0F5
:101DD000010A0BE00F0A07E0030A01E01200DDDA56
:101DE000040E226F120017EF0FF04FEF0FF0D5DA4D
:101DF000240E286F010E296F0CD065EF0FF093EFC2
:101E00000FF0E2DA0101286F296B250E2827010E59
:101E100029232393010E2C6F1200D6DAEA6A250FCC
:101E2000E96E010EEA2212C4EFFF12001200800ECA
:101E30000401105D33E11351030A1EE0010A09E0B9
:101E4000030A23E1AADA000E286F2B0E296F120E67
:101E50001AD070DA1A0EF6262C0E85DA020E01015F
:101E6000F76A2825F66E2951F7220900F5CF2CF1E3
:101E70000A00F5CF2DF109D05DDA1E0EF6262C0EE4
:101E800072DA79DA01012C6F2D6B020E0401125DFA
:101E900005E0030E125D02E00101238312007DDAEA
:101EA00042DA010EE66E250EE66E010E87DA12C4E6
:101EB00024F10401125104E10101050E226F120008
:101EC0000101060E226F61EF13F00401506B516B9C
:101ED00010511F0B020A0FE0030A0BE0010A18E180
:101EE0005CDA04015081010123A112D00401508366
:101EF0000FD053DA0DD003DA01E0010E2BDA2AC13C
:101F0000E9FFEA6EEF50040B03E00401010E506F8D
:101F10000101270507E1500E286F040E296F239356
:101F2000020E2C6F1200040112050EE110511F0B5E
:101F300000090AE132DA030E0401115D03E1010137
:101F4000238102D001012391040112511DE110519E
:101F50001F0B020819E114510F0B000915E0CFD92E
:101F600001E0010EF7D9030E0401115D03E1840EB7
:101F7000D1EF11F014AF06D02AC1E9FF2BC1EAFF5F
:101F8000EF6A1200880E0DDA12006C500BE10401AA
:101F900000513C0BE842E8420D0802E1D7EF0FF098
:101FA00008EF10F0040E6C5C01E141D81200D9CFAB
:101FB000E6FFE1CFD9FFE6520101266B276B2C6BC0
:101FC0002D6BEADEDF6ADF50146E156A010E145CB9
:101FD000000E15581AE20101275117E1F76ADF34A4
:101FE000FE0BF736F66E260EF6262C0EF7220900AB
:101FF000F5CF14F00800F5CF15F004D015C0FAFFA6
:102000001450F96EFBDFDF2ADED789D8E552C1D143
:10201000020E0101265D09E162D8040100BD02D073
:10202000C80E01D0880E006F1200C5EF10F0040E2C
:102030000101225D09E112C46EFF6E50000802E248
:10204000050E01D0030E226F260509E110D8040108
:1020500004BD02D0C80E01D0880E046F1200090E14
:102060000401115D02E1DFEC14F0C5EF10F08AD934
:102070000101400E2C5D000E2D5905E22CC1DEFF42
:102080002DC1DDFF03D0400EDE6EDD6A0401049336
:102090000491010EDB500413DFCF05F4000EDB507A
:1020A00001012C5F010EDB502D5B500E2A6F040ED8
:1020B0002B6F23A307D047D90BE05DD917D9FBE2DB
:1020C000DB06F9D740D904E072D9FCE2DB06FAD787
:1020D000020EE15C02E2E16AE552E16E5AD152D9A8
:1020E000030E04010015E76E010EE7CFDBFF01C40C
:1020F000DFFFDE5001012C27DD502D23500E286F0D
:10210000040E296F20D904E052D9FCE2DB06FAD78D
:10211000020EE15C02E2E16AE552E16E3AD10101B0
:10212000275104E1F8D8840E006F1CD0040110AFD1
:102130001BD001012C510401165D01012D51040138
:10214000175904E216C42CF117C42DF190DF0101D8
:10215000010E266FE0D8800E006F500E066F040E41
:10216000076FC80E046F0FD00101020E266F040125
:10217000056BC80E046F400E016F500E026F040E07
:10218000036FC80E006F6D9812000101266BC3D853
:10219000880E006F046B12006DA60CD80101220599
:1021A00008E16DBA06D0686A696A69806988020EBA
:1021B000226F12006D6A696A6D860101010E226F3D
:1021C00012006D6A696A0101226B1200E1EF10F0E2
:1021D0000101225101E112006850040B04E0695032
:1021E000040B01E038D86DB212006850010B04E016
:1021F0006950010B01E04FD86850100B04E06950A2
:10220000100B01E023D86850400B04E06950400BEC
:1022100001E037D86850200B04E06950200B01E042
:1022200032D86850020B04E06950020B01E031D84B
:10223000030E0101225D01E212006850080B05E067
:102240006950080B02E0A1DE689612006984689864
:102250006D82A19A12006D92699468941200010136
:1022600023A10ED0F8DF6D840101080E2E6F070E3A
:102270002F6F2E07000E2F5B2E512F11FAE16D9458
:102280001200689C120070A002D07FDF7090689AE4
:102290001200689212006A6A686A9F0E6B6E7B0E6B
:1022A000696E6E6A40D8160E706E68A602D0689687
:1022B000FCD76D986ADF01012391246B030E226F16
:1022C0001200D9CFE6FFE1CFD9FFFD0EDBCFE9FF4A
:1022D000FE0EDBCFEAFFFC0EDB5004E0EE6AFC0EE4
:1022E000DB06F9D7E552E7CFD9FF12005AD82A2BDF
:1022F000000E2B23282B2923DF06010E120064D8A1
:102300000F0B080DF350156A000F146E040E152202
:102310001451800B12000401400E016F100E026F69
:10232000040E036F12000F0EE66E710EE66E0F0EB6
:10233000DEEF11F032D804011251F66EF76AD89030
:10234000F636F7361200D9CFE9FFDACFEAFFEE50C2
:10235000ED101200040DF350010114242A6F000E39
:1023600015202B6F1200F7220900F5CF28F10A0083
:10237000F5CF29F1120028C1F6FF29C1F7FF0800A7
:10238000F5501200D9CFE6FFE1CFD9FF020EE126CA
:102390001200E552E7CFD9FF12000101010E276FAD
:1023A00012002AC1E9FF2BC1EAFFEF6E120028C11B
:1023B000E9FF29C1EAFFEF5076EF11F0E66E81DF09
:1023C000E552E552E5521200E8DF04011451120013
:1023D000D9CFE6FFE1CFD9FF110EE1260001B169A7
:1023E0000001010E706F720EDE6E000EDD6E0401D4
:1023F000110570E11251B40A5BE0760A4CE0590A0B
:1024000044E0020A3BE0010A2AE00F0A21E0010A47
:1024100019E0BA0A09E0830A5DE1D5D8E66AD0D8A6
:10242000E66ACED8E66A34D0F7EC14F0F3CF14F0B5
:10243000F4CF15F0F350F41002E0C5D84BD00001F2
:10244000B16948D0C0D8A0A845D0010EB16F3FD027
:10245000BAD8B2C0E6FFB4D8B3C0E6FF39D0B3D81B
:10246000040EB4C0DBFF050EB5C0DBFF040EDBCFEE
:10247000E9FF050EDBCFEAFFEF5018D0A4D8B4C0B7
:10248000E6FF9ED8B5C0E6FF23D09DD8030EE66ECA
:1024900097D8E66A1DD097D80A0EE66E91D8140E2A
:1024A000E66E8ED8230EE66E8BD8690EE66E10D0DF
:1024B0008AD8A0B803D0F29EF29C0CD0010EB16F66
:1024C000E6687ED8E6687CD8E6685CD8E552E668BF
:1024D00059D8E552090E0401115D3BE11251B40ACD
:1024E00035E02E0A33E0030A2AE0010A20E00F0A51
:1024F00017E0010A0EE0BA0A2CE130EC15F0F350B7
:10250000F41003E00001020E02D00001010EB16FD1
:1025100020D00001020EB16FA0A81BD0010E18D070
:1025200047D8EFCFB2F053D8EFCFB3F012D040D8A6
:10253000EF50B4C0E9FFB5C0EAFFEF6E0AD038D85B
:10254000EFCFB4F044D8EFCFB5F003D00001020EC6
:10255000B16FFF0E0001B15D0BE0090E0401115DCA
:1025600007E012C450F40001705101012C6F2D6B73
:10257000110EE15C02E2E16AE552E16EE552E7CF5D
:10258000D9FF1200D9CFE6FFE1CFD9FF400E0001FD
:10259000705D0AE27051EA6A500FE96E040EEA2299
:1025A000FE0EDBCFEFFF702BE552E7CFD9FF120015
:1025B0000001020EB16FDECFE9FFDDCFEAFF1200AE
:1025C000E1DFE55212000001050EB16F1200DECF0F
:1025D000E9FFDDCFEAFF010EE926000EEA22120034
:1025E000040110511F0B010801E01200145101E019
:1025F0001200060E115D24E11351230A1FE0010AA7
:102600000DE0030A1BE1E4D80101240505E1010105
:10261000240E286F2B0E296F090E0DD0D9D8010179
:10262000240505E101019E0E286F2B0E296F010183
:10263000240504E17C0E01012C6F2D6B0101238325
:1026400004011051600BE842E842E842E842E842E7
:10265000010801E0120011510B0A2FE0080A21E0E5
:10266000090A1BE0080A13E00B0A05E0080A01E06A
:102670001200E6EF14F00101710E2A6F000E2B6FAD
:102680000101239301012C6B2D6BE8EF13F0A0D80F
:102690000101300E286F010E09D09AD813C430F111
:1026A000120096D80101310E286F010E296F010129
:1026B00023930101010E2C6F12008AD812C431F14C
:1026C00012000101326B1E0E716E0401080E096FBB
:1026D000900E0A6F040E0B6F880E086F0401980E9F
:1026E0000E6F040E0F6F400E0C6F1200D9CFE6FF75
:1026F000E1CFD9FFE652FC0EDB50080805E2080ED8
:10270000F36EFC0EF3CFDBFFDF6AFC0EDB50DF5C09
:102710000FE2DF5051D8EF50E66EDF50EA6A980FB3
:10272000E96E040EEA22E552E750EF6EDF2AEDD79C
:10273000FC0EDBCF0DF4400E04010C170C7D880E4F
:102740000C13E552E552E7CFD9FF1200D9CFE6FFCF
:10275000E1CFD9FF0101326B040108BF27D0FC0E85
:10276000DBCF14F00951D880145403E2FC0E09C4E5
:10277000DBFF0101326BFC0EDB50325D0FE23251A8
:10278000EA6A900FE96E040EEA22EF50E66E3251CB
:1027900013D8E552E750EF6E322BEDD70401080E47
:1027A000096F400E0817087D880E08130101325189
:1027B000E552E7CFD9FF1200E76EFD0EDBCFE9FF50
:1027C000FE0EDBCFEAFFE750E926000EEA221200F8
:0827D0000101020E276F120047
:0827D80022D801013351040A6B
:1027E00010E0070A0CE0010A08E0030A04E0010A0D
:1027F0000DE18A9A07D08B9005D08A9603D08A94EF
:1028000001D08A9233C1E6FF18D8E5520101332B7B
:10281000000167510101335D01E3336B12008A90BF
:102820008C9E8C9C8C9A8C988B948C968C948A8A97
:102830008B808A868A848A821200A4D8E652FE0E91
:10284000B1D8EFCFDFFF85D8010B01E08A8081D8B6
:10285000020B01E08C8E7DD8040B01E08C8C79D8C2
:10286000080B01E08C8A75D8100B01E08C8871D8B8
:10287000200B01E08B846DD8400B01E08C8669D879
:10288000800B01E08C84E55282D093D8050E83D86A
:1028900002E243D8FBD7020EE15C02E2E16AE552B4
:1028A000E16E75D086D8040E76D802E236D8FBD712
:1028B000020EE15C02E2E16AE552E16E68D062D8A4
:1028C000FE0EDB50300FE66E04D8E5520001666F55
:1028D0005ED058D8410E4FD80BE3610E4CD802E3BE
:1028E000610E01D0410E3BD8DA0FF66E2E0E08D0E5
:1028F000300E41D80BE3300E32D8D00FF66E2E0ECC
:10290000F7220800FE0EF5CFDBFF05D0FE0EDB50F0
:102910002008FE0EDB6ADB503AD0010EDB50E76E7A
:10292000FD0EDBCFE9FFFE0EDBCFEAFFE750E92625
:10293000000EEA22EFCFDFFFDFCFE6FFCADFE5526E
:10294000E66E010E2FD8E552E750EF6E010EDB2A3E
:102950001200D9CFE9FFDACFEAFFEF501200146E70
:10296000FE0EDBCFE7FF1450E75EFE0EE7CFDBFF86
:10297000DB50F76A1200F36EFE0EDBCFF4FFF3506C
:10298000F45C1200D9CFE6FFE1CFD9FF1200E55287
:10299000E7CFD9FF1200F36E010EDBCFF4FFF35047
:1029A000F45C1200DB50EA6A620FE96E000EEA2264
:0E29B0001200E8DF020EE126010EDB6A1200C3
:0229BE00000116
:1029C000B889E8EC11F00001B89912000001B8894B
:1029D000E8EC11F00101020E276F0101500E286F83
:1029E000040E296F010123930001B8991200D9CF79
:1029F000E6FFE1CFD9FF020EE126DE52010EDD6EC9
:102A0000FFC0E6FF79D80001FF51320A17E1B6C0D6
:102A1000E6FF72D8B7C0E6FF6FD8DF6A200EDF5C32
:102A20000DE2DF500001F76AB625F66EB751F722C6
:102A30000800F550E66E60D8DF2AF0D7400E00019E
:102A4000705D05E2E66A58D80001702BF7D7010ED9
:102A5000DB50146E020EE15C02E2E16AE55246D000
:102A6000D9CFE6FFE1CFD9FF040EE126DE52010EF9
:102A7000DD6E72C0FFF000017251320A2AE0030AD3
:102A800009E0010A2AE173C0D9F074C0DAF0C1ECA0
:102A900016F023D073C0D9F074C0DAF0DF6A200ECC
:102AA000DF5C14E2040EDF24EA6A710FE96E000EA7
:102AB000EA22EF50E66EDF50EA6AB90FE96E000EC7
:102AC000EA22E552E750EF6EDF2AE9D79AEC16F0DA
:102AD00004D073C0B6F074C0B7F0010EDB50146EB2
:102AE000040EE15C02E2E16AE55200D0E16E1450AE
:102AF000E552E7CFD9FF1200C2EC12F0E552120006
:102B00001201100100000040AE0930441000010223
:102B1000030109022200010100A0320904000001A2
:102B200003000000092110010001227C000705813B
:102B3000030800280403090418034A006F00650015
:102B40000000000000000000000000000000000085
:102B50002C034D004900440049002000440065005A
:102B6000760069006300650020000000000000009E
:102B700000000000000000000000000022033600FA
:102B800039003100320030003600300042002000B1
:102B9000000000000000000000000000000006FF30
:102BA000FF0901A1017508950126FF001500859612
:102BB00009C0B102752085B409D2B102751085979C
:102BC00009C1B1027508859809C2B10275108599CD
:102BD00009C3B102859C09D4B1027510859D09D540
:102BE000B102859B09C5B102752085AF09E9B10223
:102BF00085AF09E981A276000285B009EAB10275C4
:102C00002085C209D6B102859A09C4B1027508951A
:102C10003F852C09040904B102C0122B122B342B5E
:082C2000382B502B7C2BE02522
:082C28000000000000000000A4
:102C30000000000000000000000000000000000094
:102C40000000000000000000000000000000000084
:102C50000000000000000000000000000000000074
:102C60000000000000000000000000000000000064
:102C70000000000000000000000000000000000054
:102C80000000000000000000000000000000000044
:102C90000000000000000000000000000000000034
:102CA0000000000000000000000000000000000024
:102CB0000000000000000000000000000000000014
:102CC0000000000000000000000000000000000004
:102CD00000000000000000000000000000000000F4
:102CE00000000000000000000000000000000000E4
:102CF00000000000000000000000000000000000D4
:102D000000000000000000000000000000000000C3
:102D100000000000000000000000000000000000B3
:082D20000000000000000000AB
:082D2800550EA76EAA0EA76E5E
:102D3000A682120048D8E652E00E0001D917840E90
:102D4000A66EDF6A200EDF5C1AE2DF50EA6AB90F76
:102D5000E96E000EEA22EFCF14F0DF500001F76AAF
:102D6000D925F66EDA51F722F86A14C0F5FF0C0087
:102D70001F0EDF141F0801E1D7DFDF2AE3D7E5527A
:102D800027D0940EA66ED9C0F6FFDAC0F7FFF86A16
:102D9000CBDFF86A120017D8A66AFE0EDB50A96EC8
:102DA000A680A85015D00FD8A6A202D0000E0AD037
:102DB000FE0EDB50A96EFD0EDB50A86E040EA66E53
:102DC000B3DF010E05D0D9CFE6FFE1CFD9FF120066
:082DD000E552E7CFD9FF120024
:082DD800A8EC17F0896A8A6A71
:102DE0008B6A8C6A8D6A010E926E100E936EF80ECD
:102DF000946E956A020E966E0001050E676FE60EE0
:102E0000AC6E900EAB6E3F0EAF6EB06A400EC26EEF
:102E10000E0EC16E860EC06E200EF26E840EF16E26
:102E2000D08ED76AD66A800ED56EF28E140E6F6E73
:0E2E30000101226B0101236B0101246B1200D2
:022E3E00D9CFEA
:102E4000E6FFE1CFD9FFFE0EDB50A96EA69EA69C41
:102E5000A680A850E552E7CFD9FF1200D9CFE6FFF0
:102E6000E1CFD9FFFE0EDB50A96EFD0EDB50A86E40
:102E7000A69EA69CA684F29E550EA76EAA0EA76ECD
:102E8000A6820400A6B2FDD7F28EA694E552E7CF43
:042E9000D9FF120054
:0C2E940008C012F008500D02F4CF07F047
:102EA000F3CF06F009500E02F4CF09F0F3CF08F08B
:102EB0000D02F3500726F4500822E86A0922125046
:102EC0000E02F3500726F4500822E86A0922000C8B
:102ED0003F065B4F666D7D077F67777C585E797133
:102EE0006F74061E003800545C7367506D071C1C1D
:042EF00000766E5B9F
:0C2EF400056A080EE76ED8900936053616
:102F00000E50055C02E3056E092AE72EF7D7120082
:102F1000DACFE4FFE652F2A403D0F294000160811C
:082F2000E552E5CFDAFF1100D4
:082F280017EE00F027EE00F0A7
:0C2F3000F86A019C15EC05F0FDD71200BA
:042F3C00000160939D
:102F4000010EE66E76EC0BF0E55200016D6F12009B
:0E2F5000EA6AE96A0400EE6AEAA6FCD71200FB
:022F5E005345D9
:032F6000512D00F0
:012F6300105D
:0C2F640000000000000000000000000061
:102F700000000000000F00050002004B00000000F0
:062F80000000000000004B
:1043000000000000000000000000000000000000AD
:10431000000000000000000000000000000000009D
:10432000000000000000000000000000000000008D
:10433000000000000000000000000000000000007D
:020000040030CA
:0100000029D6
:010001000EF0
:0100020036C7
:010003000EEE
:010005008179
:010006008178
:010008000FE8
:01000900C036
:01000A000FE6
:01000B00E014
:01000C000FE4
:01000D0040B2
:00000001FF
