:020000040000FA
:060A0000E5EF0FF012000B
:060A2A000100E21F0000C4
:080A3000600000004E00000010
:080A3800D9CFE6FFE1CFD9FFA1
:100A4000110EE1260201C2690201C3B911D0C3919E
:100A50000201BB5102E014EF09F00201C395C397F4
:100A60000201040EBB6FD70EDE6E020EDD6E07D0E4
:100A70000201010EC46FCC0EDE6E020EDD6E0201AD
:100A8000C351100B04E1030E0201D45D09E0020121
:100A9000C351100B01E105D20401110501E001D29F
:100AA0000201C351100B03E00401125102D00201F4
:100AB000D651B40A01E1DCD1040A01E196D11F0A42
:100AC00001E15BD1340A01E14DD1060A01E134D1E3
:100AD000010A01E11DD1050A01E104D1010A01E188
:100AE000E6D00F0A01E1CDD0010A01E1BFD0BC0A76
:100AF00001E18ED0480A5DE0490A5BE0020A2AE083
:100B0000240A05E0030A03E0260A01E0C9D1020134
:100B1000050EC26F0201160EDE6F0201C3A905D0D9
:100B2000020EE66E87DBE552BCD1040E0201DE2523
:100B30000201BB6F040EBB5D0201D6257E0F050FBF
:100B40000201C16F0201C385C387C39F0201460E24
:100B5000BF6FA7D10201050EC26F0201110EDE6F39
:100B60000201C3A905D0030EE66E64DBE55299D1FC
:100B7000040E0201DE250201BB6F040EBB5D020103
:100B8000D6257E0F050F0201C16F0201C385C397F1
:100B9000C38FD950070FE96EDACFEAFF8E0EEE6EE3
:100BA000000EED6E080EDBCFC0F2070EDBCFBFF2FA
:100BB00078D10201050EC26F02010C0EDE6F020138
:100BC000C3A905D0010EE66E35DBE5526AD1040EED
:100BD0000201DE250201BB6F040EBB5D0201D625BA
:100BE0007E0F050F0201C16F0201C385C397C39F2A
:100BF000D950070FE96EDACFEAFF8A0EEE6E1E0EAD
:100C0000ED6E080EDBCFC0F2070EDBCFBFF249D18D
:100C10000201050EC26F0201DE6F0201C3A905D0F9
:100C2000040EE66E07DBE5523CD1040E0201DE2520
:100C30000201BB6F040EBB5D0201D6257E0F050FBE
:100C40000201C16F0201C385C397C39FD950070F2B
:100C5000E96EDACFEAFFA40EEE6E1E0EED6E080E00
:100C6000DBCFC0F2070EDBCFBFF21BD10201050EB6
:100C7000C26FA0A805D0010EC26FE668DBDAE552AC
:100C800010D10201050EC26FC5C2E6FFD3DAE552EC
:100C9000C6C2E6FFCFDAE55209D00201010EC26FEB
:100CA000E668C8DAE552E668C5DAE552FAD002012C
:100CB000050EC26F040EC7C2DBFF050EC8C2DBFF04
:100CC000040EDBCFE9FF050EDBCFEAFFEF50E66E47
:100CD000B1DAE55206D00201010EC26FE668AADA67
:100CE000E552DFD00201050EC26FC7C2E6FFA2DAED
:100CF000E552C8C2E6FF9EDAE55209D00201010EB4
:100D0000C26FE66897DAE552E66894DAE552C9D030
:100D10000201050EC26FC9C2F6FFCAC2F7FF080082
:100D2000F550E66E87DAE55206D00201010EC26F79
:100D3000E66880DAE552B5D00201050EC26FC9C27D
:100D4000E6FF78DAE552CAC2E6FF74DAE55209D066
:100D50000201010EC26FE6686DDAE552E6686ADAF2
:100D6000E5529FD00201050EC26F030EE66E62DAF5
:100D7000E552E66A5FDAE55294D00201050EC26FD1
:100D8000EEC0E6FF57DAE5520001EE51E96EEA6A7D
:100D9000D890E936EA36030EE926010EEA22EF5032
:100DA000E66E48DAE5520001EE51E96EEA6AD89043
:100DB000E936EA36030EE926010EEA22EE52EF503A
:100DC000E66E38DAE552E66A35DAE5520001EE2BD6
:100DD000EE51026E036AD890035004E6C80E025C1E
:100DE000000E035801E3EE695CD00201050EC26FEC
:100DF000EEC0E6FF1FDAE552030EDB6A1E0EF36E4D
:100E0000030EDBCFF4FFF350F45C24E20001EE515B
:100E1000E96EEA6AD890E936EA36030EE926010E51
:100E2000EA22EF50E66E06DAE5520001EE51E96E75
:100E3000EA6AD890E936EA36030EE926010EEA227C
:100E4000EE52EF50E66EF6D9E5520001EE2B030E9E
:100E5000DB2AD4D70001EE51026E036AD89003500A
:100E600004E6C80E025C000E035801E3EE6919D0D7
:100E70000201050EC26FA0B804D0F29EF29C11D000
:100E80000FD0010EC26FE668D5D9E552E668D2D917
:100E9000E552E668CFD9E552E668CCD9E55201D0F3
:100EA00000D00201C351100B04E1040E0201D45D15
:100EB0000AE00201C351100B01E15FD1090E0401E8
:100EC000115D01E05AD10201C351100B03E004018E
:100ED000125102D00201D651B40A01E11ED1290AF1
:100EE00001E1EFD0010A01E1E0D0060A01E183D07F
:100EF000030A59E0010A41E00F0A13E0010A01E088
:100F00003CD10201020EC26FA0A802D0010EC26F36
:100F1000DECFE9FFDDCFEAFFEF50E66E8BD9E55279
:100F20002CD10201020EC26FDECFE9FFDDCFEAFF56
:100F3000EFCFC5F2DECFE9FFDDCFEAFF010EE926F4
:100F4000000EEA22EFCFC6F203D00201010EC26FFB
:100F5000DECFE9FFDDCFEAFFEF50E66E6BD9E55259
:100F6000DECFE9FFDDCFEAFF010EE926000EEA221F
:100F7000EF50E66E5FD9E55200D10201020EC26F5A
:100F8000DECFE9FFDDCFEAFFEF50C7C2E9FFC8C2FD
:100F9000EAFFEF6EDECFE9FFDDCFEAFFEF50E66E4E
:100FA00049D9E552EAD00201020EC26FDECFE9FF55
:100FB000DDCFEAFFEFCFC7F2DECFE9FFDDCFEAFFFB
:100FC000010EE926000EEA22EFCFC8F2DECFE9FFDC
:100FD000DDCFEAFFEF50E66E2DD9E552DECFE9FF17
:100FE000DDCFEAFF010EE926000EEA22EF50E66EA1
:100FF00021D9E552C2D00201020EC26FDECFE9FF55
:10100000DDCFEAFFEF50420823E1DECFE9FFDDCF7D
:10101000EAFF010EE926000EEA22EF50190818E156
:10102000DECFE9FFDDCFEAFF020EE926000EEA225D
:10103000EF506E080DE1DECFE9FFDDCFEAFF030ED2
:10104000E926000EEA22EF50860802E10201C38D74
:10105000DECFE9FFDDCFEAFFEF50E66EEBD8E552D9
:10106000DECFE9FFDDCFEAFF010EE926000EEA221E
:10107000EF50E66EDFD8E552DECFE9FFDDCFEAFFC5
:10108000020EE926000EEA22EF50E66ED3D8E552B2
:10109000DECFE9FFDDCFEAFF030EE926000EEA22EC
:1010A000EF50E66EC7D8E55268D00201010EC26F5C
:1010B000DECFE9FFDDCFEAFFEF50E66EBBD8E552A9
:1010C0005CD00201020EC26FDECFE9FFDDCFEAFF86
:1010D000EFCFC9F2DECFE9FFDDCFEAFF010EE9264F
:1010E000000EEA22EFCFCAF203D00201010EC26F56
:1010F000DECFE9FFDDCFEAFFEF50E66E9BD8E55289
:10110000DECFE9FFDDCFEAFF010EE926000EEA227D
:10111000EF50E66E8FD8E55230D00201020EC26F5A
:10112000DECFE9FFDDCFEAFFEF50E66E83D8E55270
:10113000DECFE9FFDDCFEAFF010EE926000EEA224D
:10114000EF50E66E77D8E552DECFE9FFDDCFEAFF5C
:10115000020EE926000EEA22EF50E66E6BD8E55249
:10116000DECFE9FFDDCFEAFF030EE926000EEA221B
:10117000EF50E66E5FD8E55200D00201C3A913D04C
:10118000FF0E0201C25D01E14FD0090E0401115DA5
:1011900001E14AD012C418F40201C4510001F96FF0
:1011A000FA6B42D040D002017E0EDC6FC2C2DDF28B
:1011B000D6C2DFF20201C3B505D0030E0201BB5D4A
:1011C0000201DE6F0201C3B528D00201BB51020843
:1011D00024E2030EDB6A020EDB6ABB51F36E020EE1
:1011E000DBCFF4FFF350F45C12E2020EDB50EA6A4C
:1011F000DC0FE96E020EEA22030EDBCFE7FFEF50B1
:10120000E726030EE7CFDBFF020EDB2AE6D7030E4D
:10121000DBCFE6FF0FD8E55207D00201C3930201EE
:10122000BE6B0201BD6B00D0D9CFE1FFE552E7CF25
:10123000D9FF1200D9CFE6FFE1CFD9FF0201C3B930
:1012400010D0400E0201BB5D01E31AD0BB51EA6A27
:10125000DC0FE96E020EEA22FE0EDBCFEFFFBB2BA6
:101260000FD0400E0201C45D01E30AD0C451EA6A06
:10127000180FE96E040EEA22FE0EDBCFEFFFC42B3F
:10128000E552E7CFD9FF12000201BB6B0201BC6B34
:0212900012004A
:0E12920004011051600BE842E842E842E842D5
:1012A000E842000901E04FD01151070A4BE00B0A58
:1012B00049E0070A3AE0010A28E00B0A24E0020AA2
:1012C00022E0030A1EE0080A11E0010A0DE00F0AFD
:1012D00009E0030A01E036D00001010EF46F040EAC
:1012E000EF6F31D031D82FD0B1D82DD00001010E01
:1012F000F46FF10EF56F000EF66FF093010EF96FBB
:1013000022D0CAD820D012D91ED00001010EF46F0D
:10131000040114510001F56FF66BF20EF527000E73
:10132000F623F093010EF96F0ED00001010EF46F59
:1013300004011451EA6AF20FE96E000EEA2212C4A7
:10134000EFFF01D000D01200800E0401105D01E01B
:101350007CD01351030A32E0010A0EE0030A01E0D7
:101360006BD00001010EF46F520EF56F1E0EF66F7A
:10137000120EF96FFA6B60D00001010EF46F0401D8
:101380001251F66EF76AD890F636F7361C0EF6262E
:101390001F0EF7220900F5CFF5F00A00F5CFF6F0A1
:1013A000020E0001F76AF525F66EF651F7220900E4
:1013B000F5CFF9F00A00F5CFFAF03ED00001010EAA
:1013C000F46F020E0401125D03E0030E125D1AE1D8
:1013D0001251F66EF76AD890F636F736200EF626DA
:1013E0001F0EF7220900F5CFF5F00A00F5CFF6F051
:1013F0000001F093F5C0E9FFF6C0EAFFEF50F96F86
:10140000FA6B19D01251F66EF76AD890F636F736A5
:10141000200EF6261F0EF7220900F5CFF5F00A0080
:10142000F5CFF6F0F5C0F6FFF6C0F7FF0800F5506F
:101430000001F96FFA6B00D0020E0401125D05E0A5
:10144000030E125D02E00001F08312000001010EA4
:10145000F46F0F0EE66E710EE66E0F0EE66EC1DAD9
:10146000E552E552E552010EE66EF20EE66E000E12
:10147000E66EB7DAE552E552E55212C4F1F0040126
:10148000125104E10001050EEF6F05D00001060EB8
:10149000EF6F93EC0DF012000401186B196B1051F3
:1014A0001F0B020A14E0030A0EE0010A01E033D028
:1014B0000001010EF46F040118810001F0A102D0B7
:1014C0000401188328D00001010EF46F24D000011C
:1014D000010EF46F040114510F0B080DF350036A51
:1014E000000F026E040E03221451800B01E0010E66
:1014F000040DF35000010224F76F000E0320F86F73
:10150000F7C0E9FFF8C0EAFFEF50040B03E0040165
:10151000010E186F00D00001F40507E1180EF56FF9
:10152000040EF66FF093020EF96F1200040112051B
:1015300010E110511F0B00090CE10001010EF46FC6
:10154000030E0401115D03E10001F08102D00001EE
:10155000F091040112513AE110511F0B020836E1DB
:1015600014510F0B000932E00001010EF46F040169
:1015700014510F0B080DF350036A000F026E040E96
:1015800003221451800B01E0010E040DF350000101
:101590000224F76F000E0320F86F030E0401115DA3
:1015A00007E1840EF7C0E9FFF8C0EAFFEF6E0ED046
:1015B00014AF06D0F7C0E9FFF8C0EAFFEF6A06D023
:1015C000880EF7C0E9FFF8C0EAFFEF6E12006C501A
:1015D0000BE1040100513C0BE842E8420D0802E136
:1015E00008D801D03BD804D0040E6C5C01E146D889
:1015F0001200D9CFE6FFE1CFD9FFE6520001F36B2D
:10160000F46BF96BFA6B45DEDF6ADF50026E036A3A
:10161000010E025C000E03581BE20001F45101E0D0
:1016200017D0F76ADF34FE0BF736F66E2A0EF62671
:101630001F0EF7220900F5CF02F00800F5CF03F0E6
:1016400004D003C0FAFF0250F96EFBDFDF2ADDD7BA
:10165000D7D8E552E552E7CFD9FF1200020E0001BC
:10166000F35D0AE194D8040100BD03D0C80E006FF9
:1016700002D0880E006F01D006D91200040E0001BE
:10168000EF5D0AE112C46EFF6E50000803E2050E22
:10169000EF6F02D0030EEF6FF3050AE111D80401DA
:1016A00004BD03D0C80E046F02D0880E046F07D0AB
:1016B000090E0401115D02E1ACEC0EF0E4D8120059
:1016C000D9CFE6FFE1CFD9FF020EE1260001080ED7
:1016D000F95D000EFA5905E2F9C0DEFFFAC0DDFF40
:1016E00003D0080EDE6EDD6A040104930491010E3E
:1016F000DB500413DFCF05F4000EDB500001F95F6F
:10170000010EDB50FA5B180EF76F040EF86FF0A3B2
:101710001DD0D9CFE9FFDACFEAFFEE50ED1015E08A
:10172000F5C0F6FFF6C0F7FF0800F550F7C0E9FF77
:10173000F8C0EAFFEF6EF72B000EF823F52BF62327
:10174000DF06010E01E2DB06E4D71BD0D9CFE9FFAB
:10175000DACFEAFFEE50ED1014E0F5C0E9FFF6C075
:10176000EAFFEF50F7C0E9FFF8C0EAFFEF6EF72B92
:10177000000EF823F52BF623DF06010E01E2DB064F
:10178000E5D7D9CFE1FFE552E7CFD9FF1200D9CF96
:10179000E6FFE1CFD9FF020EE126030E040100159A
:1017A000E76E010EE7CFDBFF01C4DFFFDE50000173
:1017B000F927DD50FA23180EF56F040EF66FD9CF16
:1017C000E9FFDACFEAFFEE50ED1014E0F5C0E9FFD3
:1017D000F6C0EAFFEF50F7C0E9FFF8C0EAFFEF6E8E
:1017E000F72B000EF823F52BF623DF06010E01E29E
:1017F000DB06E5D7D9CFE1FFE552E7CFD9FF1200ED
:101800000001F4510BE10401080E016F100E026F8C
:10181000040E036F840E006F046F33D0040110AF09
:1018200021D00001F9510401165D0001FA510401B3
:10183000175904E216C4F9F017C4FAF041DF0001A9
:10184000010EF36F0401080E016F100E026F040EFB
:10185000036F800E006F180E066F040E076FC80E20
:10186000046F0FD00001020EF36F0401056BC80E68
:10187000046F080E016F180E026F040E036FC80E7E
:10188000006F6D9812000001F36B0401080E016FE8
:10189000100E026F040E036F880E006F046B1200AF
:1018A0006DA60FD802D06DB613D80001EF0508E180
:1018B0006DBA06D0686A696A69806988020EEF6F3E
:1018C00012006D6A696A6D860001010EEF6F1200E9
:1018D0006D6A696A0001EF6B120068EF0CF000019D
:1018E000EF5101E139D06850040B04E06950040B5A
:1018F00001E038D86DB230D06850010B04E0695077
:10190000010B01E04FD86850100B04E06950100B38
:1019100001E023D86850400B04E06950400B01E01F
:1019200037D86850200B04E06950200B01E032D812
:101930006850020B04E06950020B01E031D8030E3D
:101940000001EF5D01E208D06850080B05E0695026
:10195000080B02E03CDE68961200698468986D828C
:10196000A19A12006D926994689412000001F0A18E
:101970000ED0F8DF6D840001080EFB6F070EFC6FC0
:10198000FB07000EFC5BFB51FC11FAE16D941200A9
:10199000689C120070A002D076DF7090689A1200E6
:1019A000689212006A6A686A9F0E6B6E7B0E696E9F
:1019B0006E6A0F0EE66E710EE66E0F0EE66E11D8B1
:1019C000E552E552E552160E706E68A602D0689692
:1019D000FCD76D9858DF0001F091F16B030EEF6FAB
:1019E0001200D9CFE6FFE1CFD9FFFD0EDBCFE9FF33
:1019F000FE0EDBCFEAFFFC0EDB5004E0EE6AFC0ECD
:0C1A0000DB06F9D7E552E7CFD9FF120052
:041A0C000401105170
:101A10001F0B010801E086D0145101E083D0060EAF
:101A2000115D2EE11351230A28E0010A13E0030A95
:101A300001E024D00001020EF46F0001F10505E180
:101A40000001760EF56F1E0EF66F090E0001F96F9C
:101A5000FA6B14D00001020EF46F0001F10505E1EC
:101A60000001AC0EF56F1E0EF66F0001F10504E1EA
:101A7000700E0001F96FFA6B01D000D00001F08305
:101A800004011051600BE842E842E842E842E842B3
:101A9000010801E047D011510B0A3EE0080A2EE090
:101AA000090A26E0080A16E00B0A06E0080A01E027
:101AB00039D0B3EC0EF036D00001CB0EF76F020E2A
:101AC000F86F0001F0930001F96BFA6B0001020E50
:101AD000F46F28D00001020EF46F0001FD0EF56FC7
:101AE000000EF66F0001F0930001010EF96F1AD09D
:101AF0000001020EF46F13C4FDF014D00001020EB9
:101B0000F46F0001FE0EF56F000EF66F0001F0930A
:101B10000001010EF96F06D00001020EF46F12C42D
:101B2000FEF000D012000001FF6B1E0E716E04016A
:101B3000080E096F580E0A6F040E0B6F880E086F9F
:101B40000401600E0E6F040E0F6F400E0C6F12003A
:101B5000D9CFE6FFE1CFD9FFE652FC0EDB504008BB
:101B600005E2400EF36EFC0EF3CFDBFFDF6AFC0EE6
:101B7000DB50DF5C19E2DF50E76EFD0EDBCFE9FFE3
:101B8000FE0EDBCFEAFFE750E926000EEA22EF5017
:101B9000E66EDF50EA6A600FE96E040EEA22E55253
:101BA000E750EF6EDF2AE3D7FC0EDBCF0DF4400EDB
:101BB00004010C170C7D880E0C13E552E552E7CF9B
:101BC000D9FF1200D9CFE6FFE1CFD9FF0001FF6BAB
:101BD000040108BF31D0FC0EDBCF02F00951D880E0
:101BE000025403E2FC0E09C4DBFF0001FF6BFC0E94
:101BF000DB50FF5D19E2FF51EA6A580FE96E040EEF
:101C0000EA22EF50E66EFF51E76EFD0EDBCFE9FFF3
:101C1000FE0EDBCFEAFFE750E926000EEA22E5528E
:101C2000E750EF6EFF2BE3D70401080E096F400E5B
:101C30000817087D880E08130001FF5100D0E552F7
:061C4000E7CFD9FF1200FE
:0A1C4600D9CFE6FFE1CFD9FF020E6F
:101C5000E126966A956ABF0E946EA60EAC6E900E43
:101C6000AB6E400EC26E090EC16E860EC06E100EB7
:101C7000AF6E010EB06E140E6F6E0001EF6B0001BF
:101C8000F06B0001F16B010EE66E47D8E5520101E1
:101C9000006F00C18CFF550E8D6EDE52AA0EDD6EF8
:101CA000DF6ADF50026E036AD890035004E6DC0E50
:101CB000025C000E035819E2010EE66E2ED8E552C2
:101CC000C3CF01F1C4CF02F1EA6ADF34FE0BEA367A
:101CD000E96E030EE926010EEA2201C1EEFF02C100
:101CE000EDFF8D1C8D6EDF2ADCD70001EE6B2DD849
:101CF000010EE66E12D8E5520001EE51026E036A43
:101D0000FF0E021801E10350F2E1CAD7BCD7D9CFC8
:101D1000E1FFE552E7CFD9FF1200D9CFE6FFE1CFCF
:101D2000D9FFE652FE0EDB50C26E0A0EDF6EDF50A8
:101D300002E0DF06FCD7C282C2B2FED7C45000D098
:101D4000E552E552E7CFD9FF120050EC0CF06FBE20
:081D500002D06FEC0CF0120050
:081D58000201C3891CEC05F037
:101D60000201C39912000201C3891CEC05F00001B5
:101D7000020EF46F0001180EF56F040EF66F0001ED
:101D8000F0930201C3991200D9CFE6FFE1CFD9FF4A
:101D9000040EE1260201C39B0001B00EAE6FEEC03F
:101DA000AFF0020EDB6A030EDB6A1E0EF36E030E4B
:101DB000DBCFF4FFF350F45C34E2030EEA6ADB3469
:101DC000FE0BEA36E96E030EE926010EEA22EF5019
:101DD000E66E020EDB50EA6AAE0FE96E000EEA22F2
:101DE000E552E750EF6E020EDB2A030EEA6ADB349F
:101DF000FE0BEA36E96E030EE926010EEA22EE52E8
:101E0000EF50E66E020EDB50EA6AAE0FE96E000E8E
:101E1000EA22E552E750EF6E020EDB2A030EDB2AC0
:101E2000C4D7DE52400EDD6E04010CBF0CD0010E93
:101E3000DBCFE6FFAE0EE66E000EE66EA8EC0DF010
:101E4000E552E552E552D9CFE1FFE552E7CFD9FFA0
:021E500012007E
:0E1E52001201100100000008AE092944100022
:101E60000102030109022200010100A0320904005D
:101E70000001030000000921100100012270000789
:101E80000581030800280403090418034A006F00B1
:101E900065000000000000000000000000000000DD
:101EA00000000A03500062004100430006FFFF09E2
:101EB00001A1017508950126FF001500859609C04E
:101EC000B102752085B409D2B1027510859709C198
:101ED000B1027508859809C2B1027510859909C3C8
:101EE000B102859C09D4B1027510859D09D5B10256
:101EF000859B09C5B102752085AF09E9B10285AF9F
:101F000009E981A276000285B009EAB1027520854F
:101F1000C209D6B102859A09C4B102C0641E641E0A
:0C1F2000861E8A1E60008C00A21E0C1A97
:041F2C002A0EF66E15
:101F30000A0EF76E000EF86E03010900F550216FCE
:101F40000900F550226F03E1216701D03DD009005F
:101F5000F5501C6F0900F5501D6F0900F5501E6FFC
:101F600009000900F550E96E0900F550EA6E090014
:101F700009000900F5501F6F0900F550206F090096
:101F80000900F6CF23F3F7CF24F3F8CF25F31CC3D2
:101F9000F6FF1DC3F7FF1EC3F8FF03011F5302E145
:101FA000205307E00900F550EE6E1F07F8E2200706
:101FB000F9D723C3F6FF24C3F7FF25C3F8FF0301B6
:0A1FC0002107000E225BBFD71200BC
:061FCA0017EE00F027EE07
:101FD00000F0F86A019C96EC0FF023EC0EF0FDD7B0
:021FE0001200ED
:0E1FE2002C034A006F006500192073002000D8
:101FF000530063006F0070006500200000000000C7
:1020000000000000000000000000000000002203AB
:102010003600390031003200300036003000410017
:102020002000000000000000000000000000000090
:00000001FF
