:020000040000FA
:0600000015EF0BF01200E9
:0600080051EF0CF01200A4
:060A000047EF0CF01200AC
:060A080051EF0CF012009A
:060A2A000100B4180000F9
:080A3000600000004E00000010
:080A380004011051600BE842BB
:100A4000E842E842E842E842000901E012001151A0
:100A5000070A3CE00B0A3AE0070A2FE0010A21E00E
:100A60000B0A1DE0020A1BE0030A17E0080A0FE068
:100A7000010A0BE00F0A07E0030A01E01200B0DAF6
:100A8000040E206F120067EF05F0AAEF05F0A8DA58
:100A9000220E266F030E276F0CD0C3EF05F0EFEF89
:100AA00005F0B6DA0301266F276B230E2627030E07
:100AB00027232193010E2A6F1200AADAEA6A230F74
:100AC000E96E030EEA2212C4EFFF12001200800E3C
:100AD0000401105D3EE11351030A20E0010A09E020
:100AE000030A2EE17DDA100E266F170E276F120E05
:100AF00025D076DA040185DADA0EF626170E79DAD1
:100B0000020E0301F76A2625F66E2751F722090027
:100B1000F5CF2AF30A00F5CF2BF312D061DA020EDB
:100B20000401125D03E0030E125D05E11FDA03010B
:100B3000219349DA03D01ADA4CDA03012A6F2B6BBE
:100B4000020E0401125D05E0030E125D02E00301D6
:100B50002183120045DA24DA0301010E336F030109
:100B6000230E316F030E326FEDD912C422F304014C
:100B7000125104E10301050E206F12000301060E5D
:100B8000206FA8EF0AF00401186B196B10511F0BAE
:100B9000020A0FE0030A0BE0010A16E121DA040160
:100BA0001881030121A110D0040118830DD018DA97
:100BB0000BD0E2D901E0010EFDD916DAEF50040B9B
:100BC00003E00401010E186F0301250507E1180E6B
:100BD000266F040E276F2193020E2A6F1200040164
:100BE00012050EE110511F0B00090AE1F9D9030E9D
:100BF0000401115D03E10301218102D00301219170
:100C0000040112511CE110511F0B020818E114518C
:100C10000F0B000914E0B0D901E0010ECBD9030E8F
:100C20000401115D04E1840EDFD9EF6E120014AFF0
:100C300003D0DAD9EF6A1200880ED6D9EF6E12000F
:100C40006C500BE1040100513C0BE842E8420D08F6
:100C500002E132EF06F05FEF06F0040E6C5C01E19A
:100C60003DD812000301246B256B2A6B2B6BE4DE4D
:100C700003012C6B2C51026E036A010E025C000E04
:100C800003581BE2255119E12C51F66EF76AD890F2
:100C9000F636F736E80EF626170EF7220900F5CFDE
:100CA00002F00800F5CF03F004D003C0FAFF0250B1
:100CB000F96EFBDF03012C2BDDD7DEEF06F0020E11
:100CC0000301245D09E160D8040100BD02D0C80E13
:100CD00001D0880E006F120014EF07F0040E03011C
:100CE000205D09E112C46EFF6E50000802E2050E9D
:100CF00001D0030E206F240509E110D8040104BDC2
:100D000002D0C80E01D0880E046F1200090E040133
:100D1000115D02E1F5EC0BF014EF07F00301080E92
:100D20002A5D000E2B5905E22AC32DF32BC32EF3A7
:100D300003D0080E2D6F2E6B040104930491030160
:100D40002E51040104132DC305F403012D512A5D16
:100D50002A6F2E512B592B6F180E286F040E296FF6
:100D600021A309D02D512E110EE033D9F7D82D072C
:100D70002E5BF8D712002D512E1105E024D9EED8A4
:100D80002D072E5BF8D71200030E04010015030196
:100D9000306F01C42FF32A512F252A6F2B51302198
:100DA0002B6F180E266F040E276F2F51301105E0A0
:100DB0000AD9D4D82F07305BF8D712000301255188
:100DC00004E1E6D8840E006F1CD0040110AF1BD0E4
:100DD00003012A510401165D03012B510401175927
:100DE00004E216C42AF317C42BF398DF0301010EA3
:100DF000246FCED8800E006F180E066F040E076F9A
:100E0000C80E046F0FD00301020E246F0401056B9E
:100E1000C80E046F080E016F180E026F040E036FE8
:100E2000C80E006F6D9812000301246BB1D8880EB4
:100E3000006F046B12006DB604D00FD802D06DB6EF
:100E400013D80301200508E16DBA06D0686A696A03
:100E500069806988020E206F12006D6A696A6D866A
:100E60000301010E206F12006D6A696A0301206B95
:100E7000120034EF07F00301205101E11200685025
:100E8000040B04E06950040B01E038D86DB2120085
:100E90006850010B04E06950010B01E03DD8685037
:100EA000100B04E06950100B01E023D86850400B90
:100EB00004E06950400B01E025D86850200B04E0A5
:100EC0006950200B01E020D86850020B04E0695003
:100ED000020B01E01FD8030E0301205D01E21200A6
:100EE0006850080B05E06950080B02E0A9DE68961F
:100EF0001200698468986D82A19A12006D926994BB
:100F000068941200689C120070A002D08DDF70906F
:100F1000689A1200689212006A6A686A9F0E6B6E85
:100F20007B0E696E6E6A3CD8160E706E68A602D093
:100F30006896FCD76D9878DF03012191226B030E30
:100F4000206F120031C3E9FF32C3EAFF03013351BE
:100F500004E0EE6A03013307F9D7120045D8EF6EBB
:100F6000282B000E2923262B272312004AD8DE0E19
:100F7000F626170EF9EF07F04BD80F0B080DF350BC
:100F8000036A000F026E040E03221451800B12003C
:100F90000401080E016F100E026F040E036F1200A1
:100FA00003010F0E336F0301710E316F0F0E326F9D
:100FB000A2EF07F0040DF35003010224286F000E86
:100FC0000320296F120026C3E9FF27C3EAFFEF5071
:100FD000120026C3F6FF27C3F7FF0800F5501200E2
:100FE0000301010E256F120028C3E9FF29C3EAFFA0
:100FF0001200F7220900F5CF26F30A00F5CF27F3F8
:1010000012001251F66EF76AD890F636F7361200D3
:08101000E7DF04011451120096
:08101800FED90BEF0AF0030101
:10102000346B13EF08F00201C4B90FD0400E020177
:10103000BC5D01E31200BC51EA6ADD0FE96E020EED
:10104000EA2234C3EFFFBC2B1200080E0201C55D7B
:1010500001E31200C551EA6A180FE96E040EEA2294
:1010600034C3EFFFC52B12000201C3690201C4B9EA
:101070000FD0C4910201BC5101E012000201C495DD
:101080000201040EBC6F0301D80E356F020E07D0AB
:101090000201010EC56F0301CD0E356F020E366FD2
:1010A000CED904E1030E0201D55D07E0C8D901E104
:1010B000CAD00401110501E0C6D00201050EC36FBC
:1010C000BED903E00401125102D00201D751B00A87
:1010D00001E19DD01F0A01E187D0340A01E17CD0F3
:1010E000020A6DE02C0A57E0010A4DE02C0A45E0A7
:1010F0000F0A01E1A8D0010A37E0BC0A28E0480A3B
:101100001DE0490A1BE0020A10E0240A05E0030A78
:1011100003E0260A01E095D00001605180D9C4A9FE
:1011200092D00301020E81D18ED000018C5177D96B
:10113000C4A989D00301030E78D185D01701485185
:101140006ED9C4A980D00301010E6FD17CD0600E8E
:10115000F66E170EF76E0800F55061D9C4A973D06A
:101160000301040E62D16FD0A0A86DD00201010E60
:10117000C36F51D968D067D028D0C8C239F3C9C26B
:101180003AF310D018D0A0A806D00201010EC36F08
:1011900042D941D91DD0C8C239F3C9C23AF32CD9BA
:1011A0002BD92AD939C3E9FF3AC3EAFFEFCF34F389
:1011B00019D032DF31DF0201010EC36F0AD0C8C27D
:1011C00034F331DFC9C234F30DD00201010EC36F15
:1011D00022D90301346906D00301030E346F23DFE3
:1011E0000301346B20DF2FD023D9FAD80301346BED
:1011F0001ADF0001EE2BEE51026E036AD890035005
:1012000004E6C80E025C000E03581DE318D010D986
:101210000301386B1E0E385D06E2E2D80001EE2BAA
:101220000301382BF7D70001EE51026E036AD89004
:10123000035004E6C80E025C000E035804E3EE6996
:1012400002D00201C369FBD804E1040E0201D55D9E
:1012500006E0F5D85DE0090E0401115D59E10201D7
:10126000020EC36F0201C49DC49FC451100B03E062
:101270000401125102D00201D7519D0A3AE0010A3D
:1012800034E0060A1EE0030A14E0010A09E00F0A2E
:101290003AE0010A3BE1A0A83BD027D034D030D0BF
:1012A000B5D8EF50C8C2E9FFC9C2EAFFEF6E30D02F
:1012B0001CD0ACD8EFCFC8F2D6D8EFCFC9F223D02C
:1012C0001FD0A4D8EF5042080DE1CDD8EF50190837
:1012D00009E1020E8BD8EF506E0804E1030E86D8A8
:1012E000EF5086080201C48F13D00201010EC36FB4
:1012F0000FD08CD8EFCFCAF2B6D8EFCFCBF203D055
:101300000201010EC36F0201C48D02D00201C36944
:10131000F28EF28CFF0E0201C35D03E10201BC6B91
:1013200012000201C4A90ED0090E0401115D01E1F1
:10133000120012C418F40201C55103012A6F2B6B6D
:1013400012001200040E0201D55D17E10201C4AFC4
:101350000AD05CD878D887D876D8020E030146D850
:1013600072D8030E05D0C4AD06D050D86CD8010E8B
:1013700003013CD801D04AD866D802017E0EDD6F49
:10138000C3C2DEF2D7C2E0F20201C4B505D0030E3B
:101390000201BC5D0201DF6F0201C4B51AD0020177
:1013A000BC51020816E20301386B376B0201BC51D5
:1013B0000301375D0AE23751EA6ADD0FE96E020E7A
:1013C000EA22EF503827372BF1D738C334F313EF25
:1013D00008F00201C4930201BF6B0201BE6B120050
:1013E00036D831D834D8EE5223EF0AF0EA6A3525E0
:1013F000E96E3651EA22120039C3E9FF3AC3EAFF27
:1014000022D80301392B000E3A23120035C3E9FF1D
:1014100036C3EAFF12000301346913EF08F0FE0B34
:10142000E8420201DF6F02011200346FFCDD0BD7CE
:101430000201050EC36FEEC034F313EF08F0020192
:10144000C451100B1200EFCF34F313EF08F000017A
:10145000EE51E96EEA6AD890E936EA36030EE926DB
:0E146000010EEA221200010E0301F6EF09F060
:02146E00040177
:1014700010511F0B010801E01200145101E012008D
:10148000060E115D24E11351230A1FE0010A0DE04D
:10149000030A1BE1C6D80301220505E10301340E4E
:1014A000266F170E276F090E0DD0BBD8030122053A
:1014B00005E103016A0E266F170E276F030122054F
:1014C00004E1700E03012A6F2B6B030121830401D9
:1014D0001051600BE842E842E842E842E842010865
:1014E00001E0120011510B0A2FE0080A21E0090A5D
:1014F0001BE0080A13E00B0A05E0080A01E01200ED
:10150000FCEF0BF00301CC0E286F020E296F0301D4
:10151000219303012A6B2B6B11EF0BF082D803018F
:10152000F30E266F000E09D07CD813C4F3F012001E
:1015300078D80301F40E266F000E276F0301219364
:101540000301010E2A6F12006CD812C4F4F01200CD
:101550000001F56B1E0E716E0401080E096F200E5E
:101560000A6F040E0B6F880E086F0401280E0E6FB1
:10157000040E0F6F400E0C6F12000001F8510808A6
:1015800002E2080EF86FF96BF851F95D13E2F951B8
:10159000EA6AF625E96EF751EA22EF50E66EF95154
:1015A000EA6A280FE96E040EEA22E552E750EF6E70
:1015B000F92BEAD7F8C00DF4400E04010C170C7D8E
:1015C000880E0C1312000001F56B040108BF26D031
:1015D00009510001D880FC5502E209C4FCF0F56B0A
:1015E000FC51F55D13E2F551EA6A200FE96E040E35
:1015F000EA22EF50E66EF551EA6AFA25E96EFB51F0
:10160000EA22E552E750EF6EF52BEAD70401080E07
:10161000096F400E0817087D880E08130001F55168
:0A16200012000301020E256F1200F4
:06162A00966A956ABF0EEE
:10163000946EA60EAC6E900EAB6E400EC26E090E8E
:10164000C16E860EC06E100EAF6E010EB06E140E1F
:101650006F6E0301206B0301216B0301226B53D8D2
:101660000101006F00C18CFF550E8D6E0301AA0EA3
:101670003D6F03013C6B3C51026E036AD8900350EE
:1016800004E6DC0E025C000E035818E23CD8C3CF1F
:1016900001F1C4CF02F103013C51E96EEA6AD8902E
:1016A000E936EA36030EE926010EEA2201C1EEFF11
:1016B00002C1EDFF8D1C8D6E3C2BDDD70001EE6B62
:1016C0001BD821D80001EE51026E036AFF0E0218EA
:1016D000F7E10350F5E1CDD7C2D712003EC3C2FFF8
:1016E00003010A0E3F6F3F5102E03F07FCD7C28261
:1016F000C2B2FED7C45012001BEC07F06FBE02D07E
:101700003BEC07F012000301010E3E6F6EEF0BF091
:101710001201100100000008AE0929441000010266
:10172000030109022200010100A0320904000001A6
:10173000030000000921100100012270000705814B
:10174000030800280403090418034A006F00650019
:101750000000000000000000000000000000000089
:101760000A03500062004100430006FFFF0901A187
:10177000017508950126FF001500859609C0B10284
:10178000752085B409D2B1027510859709C1B102DF
:101790007508859809C2B1027510859909C3B1020F
:1017A000859C09D4B1027510859D09D5B102859B30
:1017B00009C5B102752085AF09E9B10285AF09E914
:1017C00081A276000285B009EAB102752085C209BE
:1017D000D6B102859A09C4B102C022172217441754
:0A17E000481760008C0060176E14BB
:0617EA000201C48934EC89
:1017F00008F00201C49912000201C48934EC08F017
:101800000301020E256F0301180E266F040E276FC9
:10181000030121930201C49912000201C49B00013B
:10182000B00EAE6FEEC0AFF0F16BF26B1E0EF25D5C
:1018300007E222D814D820D8EE5211D8F22BF6D7CE
:10184000400EF06F04010CBF09D0F0C0F8F00001A9
:10185000AE0EF66F000EF76FBDEC0AF01200EF50FF
:10186000E66EF151EA6AAE0FE96E000EEA22E55229
:10187000E750EF6EF12B1200F251E96EEA6AD89050
:0E188000E936EA36030EE926010EEA221200CE
:02188E0017EE53
:1018900000F027EE00F0F86A019C15EC0BF0FDD784
:0218A000120034
:0E18A200DACFE4FFE652F2B4F294E552E5CF5D
:0418B000DAFF11004A
:0C18B4002C034A006F006500192073002F
:1018C0002000530063006F007000650020000000DE
:1018D0000000000000000000000000000000000008
:1018E000220336003900310032003000360030006B
:1018F0004100200000000000000000000000000087
:021900000000E5
:00000001FF
