:020000040000FA
:0600000015EF05F01200EF
:06000800FDEF1AF01200EA
:060A000035EF1BF01200AF
:060A0800FDEF1AF01200E0
:060A2A00D9CFE6FFE1CF89
:100A3000D9FF050EE1269EEC1AF0200EDF6EDE5285
:100A4000700EDD6E610EF36E020EF3CFDBFF720EE1
:100A5000F36E030EF3CFDBFF630EF36E040EF3CFE2
:100A6000DBFFD9CFE6FFDACFE6FF0AEC15F0E5525F
:100A7000E552AA0EE66E88EC12F0E552000EF66E14
:100A8000400EF76E0800F550DF6E010EF66E400E58
:100A9000F76E0800010EF5CFDBFF0001AA0EBB6F59
:100AA000550EBC6FBB0EE66E000EE66E000EE66ED7
:100AB000400EE66E81EC13F0E552E552E552E55248
:100AC000000EF66E400EF76E0800F550DF6E010E58
:100AD000F66E400EF76E0800010EF5CFDBFF000149
:100AE00060A106D0B0EC12F074EC14F09FEC18F09A
:100AF0000BD8F5D7050EE15C02E2E16AE552E16E42
:100B0000E552E7CFD9FF1200A9EC11F06FBE02D079
:060B1000C8EC11F0120018
:0A0B160001008336000065010000B5
:040B200022000000AF
:0C0B2400D9CFE6FFE1CFD9FFE652030E67
:100B3000DF6E0A0E106E10C00CF0FE0EDBCF07F059
:100B400027EC1BF00350300FE66EDF50DF06E76E38
:100B5000FC0EDBCFE9FFFD0EDBCFEAFFE750E92615
:100B6000000EEA22E552E750EF6E0A0E106E10C03A
:100B70000CF0FE0EDBCF07F027EC1BF0FE0E07C0DB
:100B8000DBFF07500008D5E3DF50000810E2DF501C
:100B9000E76EFC0EDBCFE9FFFD0EDBCFEAFFE7508F
:100BA000E926000EEA22200EEF6EDF06EDD7DF50B9
:100BB000E76EFC0EDBCFE9FFFD0EDBCFEAFFE7506F
:100BC000E926000EEA22200EEF6EE552E552E7CF4D
:100BD000D9FF1200D9CFE6FFE1CFD9FF040EE126FD
:100BE000D9CFE6FFDACFE6FF01015629E66E9ADF9C
:100BF000E552E552E552500EDF6ED9CFE6FFDACF6F
:100C0000E6FF45EC15F0E552E5527CC168F17DC187
:100C100069F1040EE15C02E2E16AE552E16EE5523F
:100C2000E7CFD9FF1200D9CFE6FFE1CFD9FF56C1F8
:100C3000E6FF65C1E6FF0C0EE66E64EC14F0E552CB
:100C4000E552E552FE0EDB5001E0C4DFE552E7CF8E
:100C5000D9FF1200D9CFE6FFE1CFD9FF01015751EB
:100C6000EA6A410FE96E010EEA22EFCF56F1FE0E5D
:100C7000DBCFE6FFD8DFE55201015751E66EE66AA9
:100C8000F5EC13F0E552E552E552E7CFD9FF12003B
:100C900001015829E66E80EC15F0E5521200D9CF1B
:100CA000E6FFE1CFD9FF59C15BF15AC15CF1010107
:100CB0005851EA6A490FE96E010EEA22EFCF57F167
:100CC000FE0EDBCFE6FFC6DFE552E2DFE552E7CFFF
:100CD000D9FF1200D9CFE6FFE1CFD9FF510EE66E62
:100CE000010EE66E490EE66E010EE66E450EE66EEC
:100CF000010EE66E410EE66E010EE66E520EE66ED7
:100D0000010EE66E59C1E6FF5AC1E6FF44EC14F04D
:100D1000106E0C0EE15E10500101586B5829E66E02
:100D200080EC15F0E552FE0EDB5008E0520EE66E48
:100D3000010EE66E45EC15F0E552E552E552E7CFBF
:100D4000D9FF1200D9CFE6FFE1CFD9FF5DC1E6FFA1
:100D50005EC1E6FF5CEC14F0E552E552F3CF59F1C9
:100D6000F4CF5AF1FE0EDBCFE6FFB4DFE552E552D9
:100D7000E7CFD9FF1200520EE66E010EE66E59C1A2
:100D8000E6FF5AC1E6FF54EC14F0E552E552E55295
:100D9000E552520EE66E010EE66E45EC15F0E55298
:100DA000E55212000101745109E07E0EE66E360E26
:100DB000E66E45EC15F0E552E55222D05DC1E6FF46
:100DC0005EC1E6FF5CEC14F0E552E552F3CF59F159
:100DD000F4CF5AF1520EE66E010EE66E59C1E6FFEF
:100DE0005AC1E6FF54EC14F0E552E552E552E552E3
:100DF000520EE66E010EE66E45EC15F0E552E55238
:100E00001200D9CFE6FFE1CFD9FFFD0EDB50010183
:100E10007E150001106EFE0EDB5001017F150001F2
:100E2000116EFD0EDB50101803E1FE0EDB501118A1
:100E30000FE1FD0EDB50010180150001126EFE0E68
:100E4000DB50010181150001136E1250131002E0F6
:100E5000000E01D0010E00D0E552E7CFD9FF1200FD
:100E6000D9CFE6FFE1CFD9FFFD0EDB5001017E15A2
:100E70000001106EFE0EDB5001017F150001116EA6
:100E8000FD0EDB50101803E1FE0EDB50111802E0DE
:100E9000000E01D0010E00D0E552E7CFD9FF1200BD
:100EA000D9CFE6FFE1CFD9FFFD0EDB500101801560
:100EB0000001106EFE0EDB50010181150001116E64
:100EC000FD0EDB50101803E1FE0EDB5011180FE190
:100ED000FD0EDB5001017E150001126EFE0EDB508F
:100EE00001017F150001136E1250131002E0000E75
:100EF00001D0010E00D0E552E7CFD9FF1200010169
:100F000072510AE00101000ED8806155000E625551
:100F100003E26107000E625B0101000ED8806C5590
:100F2000000E6D5503E26C07000E6D5B000ED8805D
:100F30006E55000E6F5503E26E07000E6F5B000EDC
:100F4000D8806855000E69550CE26807000E695B91
:100F50006851691106E10101640502E10CDF01D06D
:100F600021DF0101000ED8807055000E715503E29B
:100F70007007000E715B000ED8806A55000E6B552D
:100F800001E3BFD07351030A67E0010A1FE0030ABF
:100F900001E0A8D06A511F0B08E17551E66EE66AC0
:100FA0000BEC14F0E552E55210D01F0E6A15106ECE
:100FB000116A0F0E101801E1115007E17551E66E2C
:100FC000E66A1FEC14F0E552E5528CD06A511F0B13
:100FD0001DE1000EE66EE66A0BEC14F0E552E552F8
:100FE000010EE66EE66A0BEC14F0E552E552020ED5
:100FF000E66EE66A1FEC14F0E552E552030EE66E6B
:10100000E66A1FEC14F0E552E55225D01F0E6A1572
:10101000106E116A0F0E101801E111501CE1000E44
:10102000E66EE66A1FEC14F0E552E552010EE66E3C
:10103000E66A1FEC14F0E552E552020EE66EE66A2F
:101040001FEC14F0E552E552030EE66EE66A1FEC63
:1010500014F0E552E55246D06A511F0B1DE1000E17
:10106000E66EE66A1FEC14F0E552E552010EE66EFC
:10107000E66A1FEC14F0E552E552020EE66EE66AEF
:101080000BEC14F0E552E552030EE66EE66A0BEC4B
:1010900014F0E552E55225D01F0E6A15106E116A44
:1010A0000F0E101801E111501CE1000EE66EE66A09
:1010B0001FEC14F0E552E552010EE66EE66A1FECF5
:1010C00014F0E552E552020EE66EE66A1FEC14F0EB
:1010D000E552E552030EE66EE66A1FEC14F0E552A7
:1010E000E55200D001016A07000E6B5B6A516B117B
:1010F00008E101015751E66EE66AF5EC13F0E5529E
:10110000E55212000101865115E15FC110F060C186
:1011100011F01006000E115A105001015D1902E184
:1011200011505E1903E15D6B5E6B03D05D2B000E09
:101130005E2307D07F0E0101565D02E1566B01D0A0
:10114000562B12000101865111E101015D515E1122
:1011500009E15FC15DF160C15EF1010E5D5F000EEE
:101160005E5B03D05D07000E5E5B07D00101565148
:1011700003E17F0E566F01D0560712000101865120
:1011800002E110DE01D026DD12000101865104E1EA
:10119000E66AD8DDE55204D0010EE66E44DDE55284
:1011A000120058C151F151C1E6FF490EE66E010E21
:1011B000E66E450EE66E010EE66E410EE66E010E1F
:1011C000E66E59C1E6FF5AC1E6FF4CEC14F0106E12
:1011D000090EE15E10500101020E746F320E706F45
:1011E000716B0101586B120043EC14F0F3CF5FF107
:1011F000F4CF60F10101596B5A6B010EE66E6ADDA6
:10120000E5520101586B010EE66E49DDE552000E14
:101210000101806F816B7E6F7F6B3EEC14F00101EA
:10122000836F826F39EC14F00101646F1200B1EC2E
:1012300013F0F3CF7EF1F4CF7FF13EEC14F0010117
:10124000826F8351825D16E07F0E8215E66E01018A
:101250005751EA6A450FE96E010EEA22EF50E66E39
:1012600065C1E6FF0B0EE66E6CEC14F0E552E5523C
:10127000E552E55239EC14F0000910E10101640572
:101280000CE1646B5D6B5E6B010EE66E5BDDE5523F
:101290000101586BE66A03DDE5520FD0010164518C
:1012A0000CE1010E646F596B5A6BE66E13DDE5526B
:1012B0000101586BE66AF3DCE552000EE66EE66A61
:1012C000A0DDE552E55200094BE0010159515B19DF
:1012D00002E15A515C1905E0010EE66EE0DCE552D0
:1012E0003FD05105585D37E1645118E15FC110F0FE
:1012F00060C111F01006000E115A10505D1902E184
:1013000011505E1903E15D6B5E6B03D05D2B000E27
:101310005E23010EE66E16DDE55217D05FC110F0B8
:1013200060C111F01006000E115A1050591902E157
:1013300011505A1903E1596B5A6B03D0592B000E07
:101340005A23010EE66EC6DCE5520101586BE66ACF
:10135000A6DCE55205D0582B010EE66EA0DCE55266
:1013600001016451010A01E117D3010A02E0B6EF5D
:101370000EF001017451020A01E1D8D2030A01E121
:101380003AD2010A01E007D3010EE66EE66A39DDC2
:10139000E552E55200090EE00101576B0101860597
:1013A00005E11E0E6C6F6D6B856B04D0010EE66E51
:1013B00051DCE552020EE66EE66A23DDE552E552A7
:1013C00000090FE00101010E576F0101860505E1DB
:1013D0001E0E6C6F6D6B856B04D0010EE66E3ADCF1
:1013E000E552040EE66EE66A0CDDE552E5520009B0
:1013F0000FE00101020E576F0101860505E11E0E87
:101400006C6F6D6B856B04D0010EE66E23DCE552CC
:10141000080EE66EE66AF5DCE552E55200090FE0DB
:101420000101030E576F0101860505E11E0E6C6F69
:101430006D6B856B04D0010EE66E0CDCE55201018C
:10144000860501E087D06C516D1153E1855151E162
:10145000010EE66EE66A04DDE552E552000918E188
:10146000020EE66EE66AFCDCE552E552000910E188
:10147000040EE66EE66AF4DCE552E552000908E186
:10148000080EE66EE66AECDCE552E552000931E052
:101490000101010E856F01015751EA6A410FE96EA2
:1014A000010EEA2256C1EFFF51C1E6FF490EE66E7A
:1014B000010EE66E450EE66E010EE66E410EE66E1C
:1014C000010EE66E59C1E6FF5AC1E6FF4CEC14F07E
:1014D000106E090EE15E1050010EE66E2AEC06F069
:1014E000E5520101010E736F57C175F1640E6A6F09
:1014F0006B6B010EE66EE66AD3DCE552E55200093D
:1015000018E1020EE66EE66ACBDCE552E552000910
:1015100010E1040EE66EE66AC3DCE552E55200090E
:1015200008E1080EE66EE66ABBDCE552E55200090A
:1015300011E00101000ED8806C55000E6D550AE2D5
:10154000855108E1010EE66E2AEC06F0E552010134
:101550006C6B6D6B000EE66EE66A53DCE552E5528D
:1015600000090FE0000EE66EE66A7ADCE552E5520D
:10157000000907E101016E516F1103E11E0E6E6F4C
:101580006F6B010172511BE1000EE66EE66A68DCCA
:10159000E552E552000913E0000EE66EE66A60DCF3
:1015A000E552E55200090BE101016E516F1107E1AF
:1015B0000101616B626B636B0101010E726F000EC2
:1015C000E66EE66A6DDCE552E55200090CE00101C9
:1015D000000ED8806E55000E6F5502E293DDCEDD11
:1015E0000101726BD2DD000EE66EE66A0ADCE5529E
:1015F000E55200090FE0000EE66EE66A31DCE552C6
:10160000E552000907E101016E516F1103E11E0E61
:101610006E6F6F6B010172511BE1000EE66EE66AA0
:101620001FDCE552E552000913E0000EE66EE66AA3
:1016300017DCE552E55200090BE101016E516F1113
:1016400007E10101616B626B636B0101040E726F54
:10165000000EE66EE66A24DCE552E55200090CE075
:101660000101000ED8806E55000E6F5502E26ADD52
:1016700085DD0101726B89DD000EE66EE66A01EC24
:1016800007F0E552E552000904E01E0E0101706FFB
:10169000716B000EE66EE66A30EC07F0E552E5523B
:1016A00000090EE00101705171110AE1745108E165
:1016B000010E746F0101586B040E576FD2EC06F0E7
:1016C000000EE66EE66A50EC07F0E552E5520009BE
:1016D00019E00101000ED8807055000E715512E21C
:1016E000865109E1010E866F030E736F640E6A6FF7
:1016F0006B6B44DD07D0866B020E736F640E6A6FEE
:101700006B6B3CDD0101725175E0010161516211A9
:1017100071E101017251060A66E0030A4FE0010A15
:1017200038E0070A2FE0010A18E0030A01E062D05E
:10173000E9DC24DD01016351632B050809E1636BDA
:101740000101020E726F78C161F179C162F104D0BA
:1017500076C161F177C162F14DD0D4DC0FDD0101BA
:101760006351632B140809E1636B0101030E726F6F
:101770007AC161F17BC162F104D078C161F179C1B4
:1017800062F138D0BFDCFADC7AC161F17BC162F171
:1017900031D0D8DCF3DC01016351632B050809E18A
:1017A000636B0101050E726F78C161F179C162F15D
:1017B00004D076C161F177C162F11CD0C3DCDEDCFC
:1017C00001016351632B140809E1636B0101060EEB
:1017D000726F7AC161F17BC162F104D078C161F1AD
:1017E00079C162F107D0AEDCC9DC7AC161F17BC19D
:1017F00062F100D0D0D0010EE66EE66A01EC07F08F
:10180000E552E55200091AE00101575117E0576B04
:10181000010EE66E2AEC06F0E55201015851582BF4
:10182000EA6A490FE96E010EEA2257C1EFFF48EC60
:1018300006F0080E0101585D01E1B3DC020EE66E10
:10184000E66A01EC07F0E552E55200091AE00101F1
:10185000570517E0010E576FE66E2AEC06F0E552C9
:1018600001015851582BEA6A490FE96E010EEA222C
:1018700057C1EFFF48EC06F0080E0101585D01E189
:1018800090DC040EE66EE66A01EC07F0E552E552E4
:1018900000091CE0020E0101575D18E0020E576FAF
:1018A000010EE66E2AEC06F0E55201015851582B64
:1018B000EA6A490FE96E010EEA2257C1EFFF48ECD0
:1018C00006F0080E0101585D01E16BDC080EE66EC2
:1018D000E66A01EC07F0E552E55200091CE0030E50
:1018E0000101575D18E0030E576F010EE66E2AECFA
:1018F00006F0E55201015851582BEA6A490FE96E8A
:10190000010EEA2257C1EFFF48EC06F0080E010174
:10191000585D01E146DC000EE66EE66A01EC07F078
:10192000E552E552000901E03CDC35D070517111FF
:1019300031E101015151585D0AE10101746B01016E
:10194000586B010EE66E4FEC06F0E55223D048ECE2
:1019500006F001015851EA6A490FE96E010EEA22C8
:10196000EFCF57F15751E66EE66AF5EC13F0E5520A
:10197000E55201015751EA6A410FE96E010EEA2270
:10198000EFCF56F1EAEC05F00101582B320E0101C0
:10199000706F716B00D0EAD1010EE66EE66A01EC61
:1019A00007F0E552E552000907E00101576B010E0F
:1019B000E66E2AEC06F0E552020EE66EE66A01ECEF
:1019C00007F0E552E552000907E00101010E576FEB
:1019D000E66E2AEC06F0E552040EE66EE66A01ECCD
:1019E00007F0E552E552000908E00101020E576FC9
:1019F000010EE66E2AEC06F0E552080EE66EE66A87
:101A000001EC07F0E552E552000908E00101030E80
:101A1000576F010EE66E2AEC06F0E552000EE66EF8
:101A2000E66A01EC07F0E552E552000921E05FC1EA
:101A300010F060C111F01006000E115A1050010193
:101A4000591902E111505A1903E1596B5A6B03D02D
:101A5000592B000E5A23BBEC06F00101726B76C1C4
:101A600061F177C162F10101636B0101010E726FD7
:101A7000000EE66EE66A50EC07F0E552E55200090A
:101A800006E00101726BE66A6AEC06F0E552000EB0
:101A9000E66EE66A01EC07F0E552E55200091DE04A
:101AA000010159515A1109E15FC159F160C15AF15F
:101AB000010E595F000E5A5B03D05907000E5A5BA6
:101AC000BBEC06F00101726B76C161F177C162F186
:101AD0000101636B0101040E726F000EE66EE66A8F
:101AE00050EC07F0E552E552000906E00101726B87
:101AF000E66A6AEC06F0E552000EE66EE66A01EC74
:101B000007F0E552E552000948E0010159515B191F
:101B100002E15A515C1906E0010EE66E4FEC06F048
:101B2000E5523BD0585133E1645115E15D515E11EE
:101B300009E15FC15DF160C15EF1010E5D5F000E04
:101B40005E5B03D05D07000E5E5B010EE66EA2ECED
:101B500006F0E55214D059515A1109E15FC159F10B
:101B600060C15AF1010E595F000E5A5B03D059074C
:101B7000000E5A5B010EE66E6AEC06F0E5520101BA
:101B80005105586FE66A4FEC06F0E55206D058074B
:101B9000010EE66E4FEC06F0E5520101725101E1D3
:101BA000E4D001016151621101E0DFD00101725105
:101BB000060A01E1C3D0030A01E19BD0010A74E0E7
:101BC000070A57E0010A2CE0030A01E0CED05FC10A
:101BD00010F060C111F01006000E115A10500101F2
:101BE000591902E111505A1903E1596B5A6B03D08C
:101BF000592B000E5A23BBEC06F001016351632BF5
:101C0000050809E1636B0101020E726F78C161F191
:101C100079C162F104D076C161F177C162F1A5D0DA
:101C20005FC110F060C111F01006000E115A105083
:101C30000101591902E111505A1903E1596B5A6B0C
:101C400003D0592B000E5A23BBEC06F0010163515F
:101C5000632B140809E1636B0101030E726F7AC1F3
:101C600061F17BC162F104D078C161F179C162F1A7
:101C70007CD05FC110F060C111F01006000E115A47
:101C800010500101591902E111505A1903E1596B21
:101C90005A6B03D0592B000E5A23BBEC06F07AC1C5
:101CA00061F17BC162F161D0010159515A1109E121
:101CB0005FC159F160C15AF1010E595F000E5A5BC4
:101CC00003D05907000E5A5BBBEC06F001016351CB
:101CD000632B050809E1636B0101050E726F78C182
:101CE00061F179C162F104D076C161F177C162F12D
:101CF0003CD0010159515A1109E15FC159F160C14C
:101D00005AF1010E595F000E5A5B03D05907000EBD
:101D10005A5BBBEC06F001016351632B140809E127
:101D2000636B0101060E726F7AC161F17BC162F1D2
:101D300004D078C161F179C162F117D00101595124
:101D40005A1109E15FC159F160C15AF1010E595FA1
:101D5000000E5A5B03D05907000E5A5BBBEC06F02D
:101D60007AC161F17BC162F100D000D07EC180F107
:061D70007FC181F11200A9
:0A1D760004011051600BE842E8423E
:101D8000E842E842E842000901E04FD01151070A59
:101D90004BE00B0A49E0070A3AE0010A28E00B0A87
:101DA00024E0020A22E0030A1EE0080A11E0010A08
:101DB0000DE00F0A09E0030A01E036D00101010E2F
:101DC0008C6F040E876F31D031D82FD090D82DD0A2
:101DD0000101010E8C6F890E8D6F010E8E6F88933D
:101DE000010E916F22D0A9D820D0F1D81ED00101C8
:101DF000010E8C6F0401145101018D6F8E6B8A0EE0
:101E00008D27010E8E238893010E916F0ED0010154
:101E1000010E8C6F04011451EA6A8A0FE96E010EFB
:101E2000EA2212C4EFFF01D000D01200800E04019C
:101E3000105D5CE11351030A32E0010A0EE0030A6F
:101E400001E04BD00101010E8C6F9E0E8D6F320EA2
:101E50008E6F120E916F926B40D00101010E8C6F4C
:101E600004011251F66EF76AD890F636F736C50EB1
:101E7000F626330EF7220900F5CF8DF10A00F5CFD3
:101E80008EF1020E0101F76A8D25F66E8E51F72252
:101E90000900F5CF91F10A00F5CF92F11ED00101B2
:101EA000010E8C6F04011251F66EF76AD890F63667
:101EB000F736C90EF626330EF7220900F5CF8DF15D
:101EC0000A00F5CF8EF18DC1F6FF8EC1F7FF080035
:101ED000F5500101916F926B00D0020E0401125D6A
:101EE00005E0030E125D02E001018883120001018A
:101EF000010E8C6F0F0EE66E710EE66E0F0EE66E23
:101F0000C9DAE552E552E552010EE66E8A0EE66E3A
:101F1000010EE66EBFDAE552E552E55212C489F1D0
:101F20000401125104E10101050E876F05D0010182
:101F3000060E876FF8EC17F012000401506B516B1E
:101F400010511F0B020A14E0030A0EE0010A01E01F
:101F500033D00101010E8C6F04015081010188A171
:101F600002D00401508328D00101010E8C6F24D0CF
:101F70000101010E8C6F040114510F0B080DF35079
:101F8000116A000F106E040E11221451800B01E033
:101F9000010E040DF350010110248F6F000E11206B
:101FA000906F8FC1E9FF90C1EAFFEF50040B03E08F
:101FB0000401010E506F00D001018C0507E1500EA5
:101FC0008D6F040E8E6F8893020E916F12000401C4
:101FD000120510E110511F0B00090CE10101010E67
:101FE0008C6F030E0401115D03E10101888102D0B1
:101FF00001018891040112513AE110511F0B0208AE
:1020000036E114510F0B000932E00101010E8C6F13
:10201000040114510F0B080DF350116A000F106EDC
:10202000040E11221451800B01E0010E040DF35037
:10203000010110248F6F000E1120906F030E040118
:10204000115D07E1840E8FC1E9FF90C1EAFFEF6ED9
:102050000ED014AF06D08FC1E9FF90C1EAFFEF6A3E
:1020600006D0880E8FC1E9FF90C1EAFFEF6E120023
:102070006C500BE1040100513C0BE842E8420D08B2
:1020800002E108D801D03BD804D0040E6C5C01E119
:1020900046D81200D9CFE6FFE1CFD9FFE6520101C1
:1020A0008B6B8C6B916B926B66DEDF6ADF50106E10
:1020B000116A010E105C000E11581BE201018C51D7
:1020C00001E017D0F76ADF34FE0BF736F66ED10E5B
:1020D000F626330EF7220900F5CF10F00800F5CFF1
:1020E00011F004D011C0FAFF1050F96EFBDFDF2AA7
:1020F000DDD7DFD8E552E552E7CFD9FF1200020E57
:1021000001018B5D0AE198D8040100BD03D0C80E1F
:10211000006F02D0880E006F01D00ED91200040E9D
:102120000101875D0AE112C46EFF6E50000803E2F0
:10213000050E876F02D0030E876F8B050AE111D859
:10214000040104BD03D0C80E046F02D0880E046FD2
:1021500007D0090E0401115D02E187EC18F0ECD8FC
:102160001200D9CFE6FFE1CFD9FF020EE12601012F
:10217000400E915D000E925905E291C1DEFF92C1C1
:10218000DDFF03D0400EDE6EDD6A0401049304918E
:10219000010EDB500413DFCF05F4000EDB5001010C
:1021A000915F010EDB50925B500E8F6F040E906FAB
:1021B00088A31DD0D9CFE9FFDACFEAFFEE50ED10AA
:1021C00015E08DC1F6FF8EC1F7FF0800F5508FC1F5
:1021D000E9FF90C1EAFFEF6E8F2B000E90238D2B4D
:1021E0008E23DF06010E01E2DB06E4D71BD0D9CF38
:1021F000E9FFDACFEAFFEE50ED1014E08DC1E9FF00
:102200008EC1EAFFEF508FC1E9FF90C1EAFFEF6E88
:102210008F2B000E90238D2B8E23DF06010E01E203
:10222000DB06E5D7020EE15C02E2E16AE552E16E0F
:10223000E552E7CFD9FF1200D9CFE6FFE1CFD9FFB2
:10224000020EE126030E04010015E76E010EE7CF32
:10225000DBFF01C4DFFFDE5001019127DD50922337
:10226000500E8D6F040E8E6FD9CFE9FFDACFEAFFE3
:10227000EE50ED1014E08DC1E9FF8EC1EAFFEF5082
:102280008FC1E9FF90C1EAFFEF6E8F2B000E902304
:102290008D2B8E23DF06010E01E2DB06E5D7020E51
:1022A000E15C02E2E16AE552E16EE552E7CFD9FF77
:1022B000120001018C510BE10401400E016F100E60
:1022C000026F040E036F840E006F046F33D004019D
:1022D00010AF21D0010191510401165D010192510D
:1022E0000401175904E216C491F117C492F139DFC1
:1022F0000101010E8B6F0401400E016F100E026F81
:10230000040E036F800E006F500E066F040E076FF1
:10231000C80E046F0FD00101020E8B6F0401056B14
:10232000C80E046F400E016F500E026F040E036F53
:10233000C80E006F6D98120001018B6B0401400EF6
:10234000016F100E026F040E036F880E006F046B96
:1023500012006DA60FD802D06DB613D80101870503
:1023600008E16DBA06D0686A696A69806988020EF8
:10237000876F12006D6A696A6D860101010E876FB1
:1023800012006D6A696A0101876B1200C1EF11F0DA
:102390000101875101E139D06850040B04E0695014
:1023A000040B01E038D86DB230D06850010B04E066
:1023B0006950010B01E04FD86850100B04E06950E0
:1023C000100B01E023D86850400B04E06950400B2B
:1023D00001E037D86850200B04E06950200B01E081
:1023E00032D86850020B04E06950020B01E031D88A
:1023F000030E0101875D01E208D06850080B05E07B
:102400006950080B02E034DE68961200698468980F
:102410006D82A19A12006D92699468941200010174
:1024200088A10ED0F8DF6D840101080E936F070EAE
:10243000946F9307000E945B93519411FAE16D949D
:102440001200689C120070A002D076DF7090689A2B
:102450001200689212006A6A686A9F0E6B6E7B0EA9
:10246000696E6E6A0F0EE66E710EE66E0F0EE66E08
:1024700011D8E552E552E552160E706E68A602D0EC
:102480006896FCD76D9858DF01018891896B030E1F
:10249000876F1200D9CFE6FFE1CFD9FFFD0EDBCF6A
:1024A000E9FFFE0EDBCFEAFFFC0EDB5004E0EE6A34
:0E24B000FC0EDB06F9D7E552E7CFD9FF12008C
:0224BE00D9CF74
:1024C000E6FFE1CFD9FFE652FE0EDB50C26E0A0EE8
:1024D000DF6EDF5002E0DF06FCD7C282C2B2FED759
:1024E000C45000D0E552E552E7CFD9FF1200D9CF52
:1024F000E6FFE1CFD9FFE652FE0EDB50AD6E9E50F7
:10250000DF6E9EA8FED7E552E552E7CFD9FF120055
:10251000D9CFE6FFE1CFD9FFE652080EDF6E8984FE
:1025200089948992FE0EDBBE02D0899601D08986FD
:10253000DBCFF3FFF39EF346F3CFDBFF8982DF06A9
:10254000F0E18984100EDF6EDF5002E0DF06FCD779
:10255000899489868982E552E552E7CFD9FF120036
:10256000D9CFE6FFE1CFD9FF040EE126DE52010EFE
:10257000DD6E030EDB6ADF6ADF50060822E3DFCF81
:10258000E6FFDDD8E552050EF36E020EF3CFDBFF5A
:10259000DB5003E0020EDB06FBD784A209D0030E5A
:1025A000DBCFE7FF010EDB50E712030EE7CFDBFFC7
:1025B000010EDBCFF3FFF39EF346F3CFDBFFDF2A01
:1025C000DBD7030EDBCF69F000016A6B6B6B6C6BC2
:1025D000D89069376A376B376C376A696B696C6991
:1025E00081B86981691F6A1F6B1F6C1F070EDF6E40
:1025F000DFCFE6FFA4D8E5520001618184B261918A
:10260000040EE15C02E2E16AE552E16EE552E7CFD9
:10261000D9FF1200D9CFE6FFE1CFD9FF030EE126A3
:10262000010EDB6A020EDB6AFE0EDB50F36EFC0E5F
:10263000DBCFF4FFF350F45C0EE3FC0EDBCFE6FFE0
:10264000FE0EDB50E552E75CE76E020EE7CFDBFFE4
:10265000000EDF800DD0FE0EDBCFE6FFFC0EDB5060
:10266000E552E75CE76E020EE7CFDBFF000EDF907E
:10267000FB0EDBCF10F0D950010FE96EDACFEAFF85
:1026800010500F0B06E0EC52D890ED32EF32E80616
:10269000FAE1DFA011D0010EDBCF10F0020EDBCF8C
:1026A00011F0D950FD0FE96EFF0EDA20EA6E1050DE
:1026B000EE261150ED2210D0010EDBCF10F0020EED
:1026C000DBCF11F0D950FD0FE96EFF0EDA20EA6E74
:1026D0001050EE5E1150ED5AFD0EDBCF10F0FE0EE5
:1026E000DBCF11F010C0F3FF11C0F4FF030EE15C6B
:1026F00003E200D0E16AE552E16EE552E7CFD9FF8F
:102700001200D9CFE6FFE1CFD9FFFD0EDBCF10F0ED
:10271000FE0EDBCF11F0126A136A10C0F6FF11C073
:10272000F7FF12C0F8FFFB0EDBCFE9FFFC0EDBCF9B
:10273000EAFF7AEC1AF0E552E7CFD9FF1200D9CFC1
:10274000E6FFE1CFD9FF8998899A8D90FE0EDBB024
:102750008988DBB2898ADBB48D80E552E7CFD9FF67
:102760001200D9CFE6FFE1CFD9FF040EE126DE6AE1
:10277000DE6ADE6ADD6ADD52DD5269C010F06AC0D1
:1027800011F06BC012F06CC013F0F00E1016116A4D
:10279000126A136A030E10C0DBFF69C010F06AC032
:1027A00011F06BC012F06CC013F00F0E1016116A0E
:1027B000126A136A1050DF6EDFCF10F0010EDBCF0C
:1027C00011F010C0F3FF11C0F4FF040EE15C03E24E
:1027D00000D0E16AE552E16EE552E7CFD9FF120081
:1027E00068C0E6FF95DEE5521200D9CFE6FFE1CFE3
:1027F000D9FF0001686B010EF36EFD0EDB5004E0A3
:10280000D890F336E806FCE1F35000016813E55276
:10281000E7CFD9FF1200D9CFE6FFE1CFD9FF010EF4
:10282000F36EFD0EDB5004E0D890F336E806FCE1D1
:10283000F35000016813E552E7CFD9FF1200D9CF5A
:10284000E6FFE1CFD9FF010EF36EFD0EDB5004E091
:10285000D890F336E806FCE1F350106E116A10BE12
:102860001168FF0E101800016817E552E7CFD9FF75
:10287000120000016151010B00D01200010EE66E42
:102880001EDEE55212001200D9CFE6FFE1CFD9FFDC
:10289000E552E7CFD9FF1200D9CFE6FFE1CFD9FF4C
:1028A000E552E7CFD9FF1200D9CFE6FFE1CFD9FF3C
:1028B000E552E7CFD9FF1200D9CFE6FFE1CFD9FF2C
:1028C000E552E7CFD9FF1200D9CFE6FFE1CFD9FF1C
:1028D000E552E7CFD9FF1200D9CFE6FFE1CFD9FF0C
:0828E000E552E7CFD9FF120019
:0828E80034D80001FB51040A81
:1028F00021E0070A19E0010A11E0030A09E0010AD0
:1029000001E01ED08A9AFBC0E6FF31D8E55218D00C
:102910008B90FBC0E6FF2BD8E55212D08A96FBC005
:10292000E6FF25D8E5520CD08A94FBC0E6FF1FD8FD
:10293000E55206D08A92FBC0E6FF19D8E55200D0D6
:102940000001FB2B000167510001FB5D01E3FB6B04
:1029500012008A908C9E8C9C8C9A8C988B948C966E
:102960008C948A8A8B808A868A848A821200D9CF44
:10297000E6FFE1CFD9FFE652FE0EDB50EA6A620FB6
:10298000E96E000EEA22EFCFDFFFD9CFE9FFDACF01
:10299000EAFFEF50010B01E08A80D9CFE9FFDACFDF
:1029A000EAFFEF50020B01E08C8ED9CFE9FFDACFBE
:1029B000EAFFEF50040B01E08C8CD9CFE9FFDACFAE
:1029C000EAFFEF50080B01E08C8AD9CFE9FFDACF9C
:1029D000EAFFEF50100B01E08C88D9CFE9FFDACF86
:1029E000EAFFEF50200B01E08B84D9CFE9FFDACF6B
:1029F000EAFFEF50400B01E08C86D9CFE9FFDACF38
:102A0000EAFFEF50800B01E08C84E552E552E7CFFE
:102A1000D9FF1200D9CFE6FFE1CFD9FF020EE126A0
:102A2000010EDB6A050EF36E010EDBCFF4FFF350EF
:102A3000F45C21E2010EDB50E76EFD0EDBCFE9FF17
:102A4000FE0EDBCFEAFFE750E926000EEA22EFCFC9
:102A5000DFFFDFCFE6FF64D8E552E66E010EDB5004
:102A6000EA6A620FE96E000EEA22E552E750EF6E65
:102A7000010EDB2AD7D7020EE15C02E2E16AE552E1
:102A8000E16EE552E7CFD9FF1200D9CFE6FFE1CFE3
:102A9000D9FF020EE126010EDB6A040EF36E010E71
:102AA000DBCFF4FFF350F45C21E2010EDB50E76E64
:102AB000FD0EDBCFE9FFFE0EDBCFEAFFE750E92694
:102AC000000EEA22EFCFDFFFDFCFE6FF29D8E55285
:102AD000E66E010EDB50EA6A620FE96E000EEA2232
:102AE000E552E750EF6E010EDB2AD7D7020EE15C0C
:102AF00002E2E16AE552E16EE552E7CFD9FF12004A
:102B0000D9CFE6FFE1CFD9FFFE0EDB50300FE66EE6
:102B100007D8E5520001666FE552E7CFD9FF1200F2
:102B2000D9CFE6FFE1CFD9FF410EF36EFE0EDBCF2A
:102B3000F4FFF350F45C28E3610EF36EFE0EDBCF7E
:102B4000F4FFF350F45C0BE3610E106EFE0EDBCF6E
:102B5000E7FF1050E75EFE0EE7CFDBFF0AD0410E25
:102B6000106EFE0EDBCFE7FF1050E75EFE0EE7CFE4
:102B7000DBFFDB50F76A340FF66E360EF7220800E3
:102B8000FE0EF5CFDBFF26D0300EF36EFE0EDBCF50
:102B9000F4FFF350F45C15E3300E106EFE0EDBCF45
:102BA000E7FF1050E75EFE0EE7CFDBFFDB50F76A72
:102BB0002A0FF66E360EF7220800FE0EF5CFDBFF69
:102BC00009D0FE0EDB50200803E1FE0EDB6A02D0C6
:102BD000FE0EDB6ADB5000D0E552E7CFD9FF1200D2
:102BE000D9CFE6FFE1CFD9FF110EE1260001B1698F
:102BF0000001010E706F720EDE6E000EDD6E0401BC
:102C0000110501E0A2D01251B40A01E185D02F0ACA
:102C100001E177D0060A69E0010A5AE0050A4CE0B2
:102C2000010A36E00F0A28E0010A1BE0BA0A13E0A5
:102C3000830A01E089D00001050EB16FE66A34D93C
:102C4000E552E66A31D9E552E66A2ED9E552E66ADE
:102C50002BD9E5527AD00001050EB16FE8EC18F0DF
:102C600074D00001050EB16FA0A805D0010EB16FA0
:102C7000E6681AD9E55269D00001050EB16FB2C0FD
:102C8000E6FF12D9E552B3C0E6FF0ED9E5525DD09A
:102C90000001050EB16F040EB4C0DBFF050EB5C018
:102CA000DBFF040EDBCFE9FF050EDBCFEAFFEF50C1
:102CB000E66EFAD8E55249D00001050EB16FB4C0F6
:102CC000E6FFF2D8E552B5C0E6FFEED8E5523DD0BA
:102CD0000001050EB16FB6C0F6FFB7C0F7FF0800E0
:102CE000F550E66EE1D8E55230D00001050EB16F27
:102CF000B6C0E6FFD9D8E552B7C0E6FFD5D8E55251
:102D000024D00001050EB16F030EE66ECDD8E5525A
:102D1000E66ACAD8E55219D00001050EB16FA0B815
:102D200004D0F29EF29C11D00FD0010EB16FE66874
:102D3000BBD8E552E668B8D8E552E668B5D8E552A2
:102D4000E668B2D8E55201D000D0090E0401115D49
:102D500001E08ED01251B40A01E186D0290A6CE05C
:102D6000010A66E0060A60E0030A4AE0010A3AE066
:102D70000F0A1EE0010A14E0BA0A01E079D02AEC39
:102D800019F0F3CF10F0F4CF11F01050111004E04F
:102D90000001020EB16F03D00001010EB16F68D0C7
:102DA0000001020EB16FA0A802D0010EB16F60D079
:102DB0000001020EB16F00016083DECFE9FFDDCFBD
:102DC000EAFFEFCFB2F0DECFE9FFDDCFEAFF010E81
:102DD000E926000EEA22EFCFB3F003D00001010E86
:102DE000B16F46D00001020EB16FDECFE9FFDDCF3B
:102DF000EAFFEF50B4C0E9FFB5C0EAFFEF6E38D08C
:102E00000001020EB16FDECFE9FFDDCFEAFFEFCFA9
:102E1000B4F0DECFE9FFDDCFEAFF010EE926000EB8
:102E2000EA22EFCFB5F024D00001020EB16F20D01E
:102E30000001010EB16F1CD00001020EB16FDECF98
:102E4000E9FFDDCFEAFFEFCFB6F0DECFE9FFDDCF60
:102E5000EAFF010EE926000EEA22EFCFB7F003D019
:102E60000001010EB16F04D00001020EB16F00D05D
:102E7000FF0E0001B15D01E10DD0090E0401115DED
:102E800001E108D012C450F4000170510101916FAA
:102E9000926B00D0110EE15C02E2E16AE552E16E54
:102EA000E552E7CFD9FF1200D9CFE6FFE1CFD9FF36
:102EB000400E0001705D01E30AD07051EA6A500FC4
:102EC000E96E040EEA22FE0EDBCFEFFF702BE55217
:062ED000E7CFD9FF12005C
:0A2ED600040110511F0B010801E078
:102EE00086D0145101E083D0060E115D2EE11351FE
:102EF000230A28E0010A13E0030A01E024D00101BB
:102F0000020E8C6F0101890505E10101C20E8D6F72
:102F1000320E8E6F090E0101916F926B14D0010178
:102F2000020E8C6F0101890505E10101430E8D6FD1
:102F3000330E8E6F0101890504E1820E0101916F4C
:102F4000926B01D000D00101888304011051600B05
:102F5000E842E842E842E842E842010801E047D09E
:102F600011510B0A3EE0080A2EE0090A26E0080A81
:102F700016E00B0A06E0080A01E039D08EEC18F0E2
:102F800036D00101710E8F6F000E906F0101889392
:102F90000101916B926B0101020E8C6F28D001012F
:102FA000020E8C6F0101950E8D6F010E8E6F010167
:102FB00088930101010E916F1AD00101020E8C6FEE
:102FC00013C495F114D00101020E8C6F0101960E0D
:102FD0008D6F010E8E6F010188930101010E916FBB
:102FE00006D00101020E8C6F12C496F100D01200BF
:102FF0000101976B1E0E716E0401400E096F900E59
:103000000A6F040E0B6F880E086F0401D00E0E6F4E
:10301000040E0F6F400E0C6F1200D9CFE6FFE1CF08
:10302000D9FFE652FC0EDB50400805E2400EF36E7D
:10303000FC0EF3CFDBFFDF6AFC0EDB50DF5C19E236
:10304000DF50E76EFD0EDBCFE9FFFE0EDBCFEAFFC0
:10305000E750E926000EEA22EF50E66EDF50EA6AFA
:10306000D00FE96E040EEA22E552E750EF6EDF2A38
:10307000E3D7FC0EDBCF0DF4400E04010C170C7DE2
:10308000880E0C13E552E552E7CFD9FF1200D9CFD5
:10309000E6FFE1CFD9FF0101976B040108BF30D0F3
:1030A000FC0EDBCF10F00951D880105403E2FC0E67
:1030B00009C4DBFF0101976BFC0EDB50975D19E241
:1030C0009751EA6A900FE96E040EEA22EF50E66E1D
:1030D0009751E76EFD0EDBCFE9FFFE0EDBCFEAFF77
:1030E000E750E926000EEA22E552E750EF6E972BF3
:1030F000E3D70401400E096F0817087D880E0813F6
:0E3100000101975100D0E552E7CFD9FF120030
:02310E000001BE
:10311000B889F0EC15F00001B89912000001B889E7
:10312000F0EC15F00101020E8C6F0101500E8D6F55
:10313000040E8E6F010188930001B8991200D9CF57
:10314000E6FFE1CFD9FF020EE126400EE66E000E4B
:10315000E66E010EE66E47EC18F0E552E552E552D8
:1031600000092CE000016093010EDB6A01010051AF
:103170000AE02C0E006F010E026F020E036FDE528A
:10318000400EDD6E09D0010E026F020E036FDE529B
:10319000040EDD6E01D000D0010EDB500FE0040103
:1031A0000CBF0CD0010EDBCFE6FF000EE66E010E69
:1031B000E66E0DEC18F0E552E552E552020EE15CC8
:1031C00002E2E16AE552E16EE552E7CFD9FF120073
:1031D000D9CFE6FFE1CFD9FF020EE126DE52010E84
:1031E000DD6E01014051040A11E0070A03E0010EFF
:1031F000DB6A21D0DF6A400EDF5C07E2020EE66E7A
:1032000054EC17F0E552DF2AF6D715D0050EE66E1E
:1032100054EC17F0E552060EE66E54EC17F0E5524A
:10322000DF6A3E0EDF5C06E2E66A54EC17F0E55218
:10323000DF2AF7D700D0010EDB50106E020EE15CE2
:1032400003E200D0E16AE552E16E1050E552E7CFAB
:10325000D9FF1200D9CFE6FFE1CFD9FF020EE12658
:10326000DE52010EDD6E72C040F100017251040A9F
:1032700006E0070A03E0010EDB6A02D001D000D0AD
:10328000010EDB50106E020EE15C03E200D0E16A39
:0E329000E552E16E1050E552E7CFD9FF120073
:02329E0012011B
:1032A000100100000040AE0930441000010203018B
:1032B00009022900010100A03209040000020300F4
:1032C00000000921100100012282000705010340CE
:1032D0000028070581034000280403090418034A55
:1032E000006F00650000000000000000000000000A
:1032F00000000000002C034D00490044004900205C
:10330000004400650076006900630065002000004D
:1033100000000000000000000000000000000000AD
:103320000022033600390031003200300036003010
:10333000004200200000000000000000000000002B
:1033400000000006FFFF0901A1017508950126FF95
:10335000001500859609C0B102752085B409D2B167
:10336000027510859709C1B1027508859809C2B127
:10337000027510859909C3B102859C09D4B1027503
:1033800010859D09D5B102859B09C5B102752085BF
:10339000AF09E9B10285AF09E981A276000285B0E3
:1033A00009EAB102752085C209D6B102859A09C41D
:1033B000B1027508953F852C090481020904B10208
:1033C00009069102C0B032B032D932DD32F5322175
:0333D00033D62EC3
:0D33D30000000000000000000000000000ED
:1033E00000000000000000000000000000000000DD
:1033F00000000000000000000000000000000000CD
:1034000000000000000000000000000000000000BC
:1034100000000000000000000000000000000000AC
:10342000000000000000000000000000000000009C
:10343000000000000000000000000000000000008C
:10344000000000000000000000000000000000007C
:10345000000000000000000000000000000000006C
:10346000000000000000000000000000000000005C
:10347000000000000000000000000000000000004C
:10348000000000000000000000000000000000003C
:10349000000000000000000000000000000000002C
:1034A000000000000000000000000000000000001C
:1034B000000000000000000000000000000000000C
:1034C00000000000000000000000000000000000FC
:0334D000000000F9
:0C34D400EA6AE96A0400EE6AEAA6FCD786
:1034E00012000001400EB96F0900F550EE6EB92FC1
:1034F000FBD712000001A68EA69CA684A688F29E89
:10350000550EA76EAA0EA76EA682F28E0A00020EB4
:10351000BA6F200EB96FEE50F56E0F00B92FFBD7C2
:10352000A68EA69CA684F29E550EA76EAA0EA76E26
:0C353000A682BA2FEED7F28EA6941200ED
:04353C006AEC1AF02B
:10354000896A8A6A8B6A8C6A8D6A010E926E100E85
:10355000936EF80E946E956A020E966E0001050E3B
:10356000676FE60EAC6E900EAB6E3F0EAF6EB06A3C
:10357000400EC26E0E0EC16E860EC06E200EF26E32
:10358000840EF16ED08ED76AD66A800ED56EF28E1A
:10359000140E6F6E0101876B0101886B0101896B4D
:0235A000120017
:0E35A200D9CFE6FFE1CFD9FFFE0EDB50A96EB8
:1035B000A69EA69CA680A85000D0E552E7CFD9FFD2
:1035C0001200D9CFE6FFE1CFD9FFFE0EDB50A96E86
:1035D000FD0EDB50A86EA69EA69CA684F29E550EFC
:1035E000A76EAA0EA76EA6820400A6B2FDD7F28E21
:0A35F000A694E552E7CFD9FF1200C0
:0635FA00D8CFE4FFE0CF92
:10360000E4FFE46EDACFE4FFE2CFDAFFE652F2A4A1
:1036100003D0F29400016081E552E5CFDAFFE55076
:0A362000E5CFE0FFE5CFD8FF100072
:06362A003F065B4F666DD8
:103630007D077F67777C585E79716F74061E00384E
:0E36400000545C7367506D071C1C00766E5BB7
:02364E00036A0D
:10365000080EE76ED890073603360C50035C02E381
:0A366000036E072AE72EF7D71200C9
:06366A0017EE00F027EE50
:0E36700000F0F86A0F9C15EC05F0FDD7120073
:02367E005345B2
:03368000512D00C9
:0D368300000000000000000000000000003A
:10369000000000000F00050002004B0000000000C9
:0536A000000000000025
:1040000000000000000000000000000000000000B0
:1040100000000000000000000000000000000000A0
:104020000000000000000000000000000000000090
:104030000000000000000000000000000000000080
:020000040030CA
:0100000029D6
:010001000EF0
:0100020036C7
:010003000EEE
:010005008179
:010006008178
:010008000FE8
:01000900C036
:01000A000FE6
:01000B00E014
:01000C000FE4
:01000D0040B2
:00000001FF
